:020000040800F2
:10000000600C0020DD010008E1010008E3010008A8
:10001000E5010008E7010008E90100080000000010
:10002000000000000000000000000000EB010008DC
:10003000ED01000800000000EF010008F1010008D8
:10004000F3010008F3010008F3010008F3010008C0
:10005000F3010008F3010008F3010008F3010008B0
:10006000F3010008F3010008F3010008F3010008A0
:10007000F3010008F3010008F3010008F301000890
:10008000F3010008F3010008F3010008F301000880
:10009000F3010008F3010008F3010008F301000870
:1000A000F3010008891E0008F3010008F3010008AD
:1000B000F3010008F3010008F3010008F301000850
:1000C000F3010008F3010008F3010008F301000840
:1000D000F3010008F3010008D9150008F301000836
:1000E000F3010008F3010008F301000800F002F832
:1000F00000F05FF80AA090E8000C82448344AAF163
:100100000107DA4501D100F054F8AFF2090EBAE860
:100110000F0013F0010F18BFFB1A43F0010318473B
:10012000F0900000109100000A444FF0000C10F80D
:10013000013B13F0070408BF10F8014B1D1108BF65
:1001400010F8015B641E05D010F8016B641E01F805
:10015000016BF9D113F0080F1EBF10F8014BAD1C55
:100160000C1B09D16D1E58BF01F801CBFAD505E073
:1001700014F8016B01F8016B6D1EF9D59142D6D3CD
:10018000704700000023002400250026103A28BFF5
:1001900078C1FBD8520728BF30C148BF0B607047F9
:1001A000642905F0D984002070471FB51FBD10B524
:1001B00010BD05F09FFE1146FFF7F7FF00F02AF88B
:1001C00005F0BDFE03B4FFF7F2FF03BC00F016FA22
:1001D00030BF72B662B680F308887047084800479F
:1001E000FEE7FEE7FEE7FEE7FEE7FEE7FEE7FEE7E7
:1001F000FEE7FEE703480449044A054B7047000048
:10020000ED00000860060020600C0020600800205F
:1002100060080020092000F098F9482000F038F824
:10022000022000F07DF9012000F07AF900F064FA74
:1002300000F098FA00F089FC4FF4E131482000F01A
:10024000F7F94FF41651242001F054F9002141F63A
:100250001F4000F0CBFD00F01FFE00F054FE00F048
:10026000C3FE05F026F805F038F841F61F413120AD
:1002700000F036FD08E005F022FA0449086005F0B8
:100280006BFA642000F03CF8F5E70000180000204D
:100290004FF0E021096921F004014FF0E0221161E3
:1002A000C21700EB5272C2F3C702234B1A701946F1
:1002B000097801EB4102C2EBC1114FF6FF7202EA6D
:1002C000C1011E4A1180704701461B4A12784A43F9
:1002D0004FF0E0235A6100229A6101221A6100BFA7
:1002E0004FF0E022106900F001021AB100F48032F0
:1002F000002AF5D000224FF0E0231A619A6170477E
:1003000001460E4A12884A434FF0E0235A61002208
:100310009A6101221A6100BF4FF0E022106900F0DB
:1003200001021AB100F48032002AF5D000224FF009
:10033000E0231A619A6170473000002032000020EB
:10034000A34A0A400243A34B1A60704701460723A1
:1003500023EA010212029F4B1B1D18684FF6FF0390
:1003600018409D4B184310439A4B1B1D1860704753
:100370002DE9F0410746884614461D462846FFF7FA
:10038000E5FFC5F1040007FA00F60F20284100EA56
:100390000800064306F00F06E21704EBD262521182
:1003A000920002F1E022D2F800212146E31704EB8B
:1003B000D3635B11A4EB431C012303FA0CF31A4330
:1003C0002046E31704EBD3635B119B0003F1E023AA
:1003D000C3F800218148005D40EA06107F490855B6
:1003E000BDE8F08170B504460B46CE1701EB96765A
:1003F000C6F38700CE1701EB9676B610A1EB860602
:10040000B606350E764B9B6943F00103744EB3611B
:100410004FEAB63353F820300F26AE40B343714E47
:1004200046F82030334653F8203004FA05F61E43D0
:100430006C4B43F820606C4B1B6801268E403343A5
:10044000694E336002F0010343B1674B0C331B6804
:1004500001268E403343644E0C36336002F00203B3
:1004600043B1614B08331E6801238B401E435E4B32
:1004700008331E6070BD00B5002059490861C8608E
:100480001420486100208861C8610846006840F077
:1004900001000860084640685449084050494860D7
:1004A00008460068524908404D49086008460068FF
:1004B00020F4802008600846406820F4FE00486070
:1004C0000020886000214FF00060FFF739FF00BD79
:1004D00010B540480830006840F004003D4908313C
:1004E00008603F48C06940F080503D49C8614148BC
:1004F000406840F480703F4948600846006840F01A
:10050000040008600846006840F002000860FFF739
:100510005FFE10BD3048001D2E49091D0860704760
:10052000014649062E4A926942F001022C4B9A611B
:100530002C4A083A526822F0E0622A4B083B5A6083
:100540001A4652680A435A60704730B5044600257F
:10055000FFF791FF2248006840F48030204908608E
:1005600000BF1F480068400C0028FAD04FF480609C
:100570001B494860A01EC4B20846406840EA844057
:1005800048600846406840F4803048601A48006877
:1005900040F03200184908601148006840F080704F
:1005A0000F49086000BF0E480068400E0028FAD0CE
:1005B0000B48406840F002000949486005E00848DF
:1005C0004068C0F3870505F00305022DF7D130BD63
:1005D00080FFFF1F08ED00E00000FA0500E400E0E6
:1005E0000010024008000140000401400000FFF834
:1005F000FFFFF6FE0070004000200240014600BFF1
:10060000704700BF384A128802F04002002AF9D031
:10061000C2B2354B1B1D1A8070473349091D088033
:1006200000BF3149098801F040010029F9D0704725
:100630002DE9F05F05460E46300106F0B3FF814616
:100640002A4905FB01F006F0ADFF8246494606F057
:100650005FFE0746384606F06DFF84B2204606F07E
:10066000A1FF8346394607F0E2F882464FF0834106
:1006700006F0E0FF814606F05DFF80464FF6FF7012
:1006800000EA041404EB080084B21948806940F0C1
:100690000400174988610846806940F480408861F9
:1006A0001448006820F47F6012490860084600681A
:1006B00040F40B6008600E48C06840F480400C496C
:1006C000C8600846C06820F48040C860064808300A
:1006D0000480001D008842F20C01084302490C31DD
:1006E0000880BDE8F09F00000038014040420F0044
:1006F00000100240040801401548806940F00400E1
:10070000134988611348006820F00F001149086000
:100710000846006840F0030008600E480830006892
:1007200040F480700B490831086070470A49096835
:10073000491C094A1160814208D108490968C94326
:10074000074AC2F8A0110021034A11607047000057
:10075000001002400408014038000020A00121429E
:10076000000021423748806940F004003549886123
:100770003548006820F0704033490860084600683A
:1007800040F00040086030480830006840F4004005
:100790002D4908310860704701462C48006828B987
:1007A0002B48007810B90120294A10702948007898
:1007B000B0B927480078012807D127480078401CA5
:1007C000254A10700120234A10702348007802281F
:1007D00006D10020204A1070204A10800220704765
:1007E0001A480068012804D10020194A1070194ADB
:1007F00010701948007801280ED118480088401C54
:1008000080B2164A1080884206DD0020124A10701D
:10081000124A10800120E2E70020E0E7104800784B
:1008200038B10A48006820B900200D49087001203D
:10083000704706480068012801D109490870002066
:10084000F6E7000000100240040801403C0121428C
:100850003C0000203D0000203E0000204000002021
:100860004200002010B50A461AB10123FE4C236055
:1008700002E00023FC4C2360002114E00023FB4C29
:10088000236000F080031BB10123241D236003E0DB
:100890000023F64C241D23600123F44C23604306FF
:1008A000180E4B1CD9B20829E8DB0123EE4C23605B
:1008B00010BD30B500241CE004F1B001C8B2002125
:1008C000FFF7D0FF00210846FFF7CCFF00211020E2
:1008D000FFF7C8FF002508E0E54901EBC501085D09
:1008E0000121FFF7BFFF681CC5B2802DF4DB601C3F
:1008F000C4B2082CE0DB30BD00B500218D20FFF72D
:10090000B1FF00211420FFF7ADFF0021AF20FFF75A
:10091000A9FF00BD00B500218D20FFF7A3FF002136
:100920001020FFF79FFF0021AE20FFF79BFF00BDC7
:1009300030B500240CE0002506E00020CC4901EB96
:10094000C5010855681CC5B2802DF6DB601CC4B219
:10095000082CF0DBFFF7ADFF30BDF0B514460026E4
:100960007F2801DC3F2900DDF0BD0B46CF1701EBEE
:100970005777FF10C7F10707FAB2CF1701EB577788
:10098000FF10A1EBC707FDB2C5F107070123BB406C
:10099000DEB24CB1B64B03EBC0039B5C3343B44FA8
:1009A00007EBC007BB5408E0B14B03EBC0039B5CF3
:1009B000B343AF4F07EBC007BB5400BFD4E72DE9EB
:1009C000F04F80460C4615461E46A346A5F1200072
:1009D000C5B200273EE00C2E07D105EB4500A54926
:1009E00001EB800010F8079004E0A34800EB05102D
:1009F00010F807904FF0000A26E009F0800028B1B7
:100A000021464046099AFFF7A8FF09E0099808B96E
:100A1000012000E00020024621464046FFF79DFFEE
:100A20004FEA49604FEA1069601CC4B2A4EB0B00A6
:100A3000B04205D15C4608F1010000F0FF0806E075
:100A40000AF1010000F0FF0ABAF1080FD5DB00BF80
:100A5000781CC7B2B742BEDBBDE8F08F10B50246C6
:100A6000012000E050430B00A1F10104E1B2F9D1F3
:100A700010BD2DE9FF4F81B0074691461E460E9DE1
:100A80004FF0000A002439E0301B401EC1B20A209A
:100A9000FFF7E4FFB9FBF0F00A21B0FBF1F201FB34
:100AA0001208BAF1000F16D1701EA04213DDB8F182
:100AB000000F0ED10120AB4605EBDB71491001FBA5
:100AC00004710090C8B22B4620220299FFF777FFED
:100AD00012E04FF0010A0120AB4605EBDB71491033
:100AE00001FB04710090C8B208F13001CAB22B4674
:100AF0000299FFF764FF00BF601CC4B2B442C3DBBD
:100B000005B0BDE8F08F78B505460E46144618E0EE
:100B10007A2D03DD002506F11000C6B23A2E04DD61
:100B2000002005460646FFF703FF012000902278CB
:100B30000C2331462846FFF742FF05F10800C5B2F5
:100B4000641C20780028E3D178BD10B54B4880693B
:100B500040F00800494988614948006820F47F0056
:100B6000474908600846006840F408100860434898
:100B7000806940F01000414988610846806940F072
:100B8000010088613F48406820F07F403D4948604F
:100B90000846406840F0085048603B48006840F410
:100BA0008070394908603548006A20F001003349F7
:100BB00008623648008820F0010034490880324835
:100BC000006820F480703049086000202649091D23
:100BD00008606420FFF794FB01202D49C1F8BC0197
:100BE0000021AE20FFF73EFE0021D520FFF73AFEA0
:100BF00000215020FFF736FE0021A820FFF732FE2B
:100C000000213F20FFF72EFE0021D320FFF72AFE10
:100C100000210846FFF726FE00214020FFF722FEB4
:100C200000218D20FFF71EFE00211420FFF71AFE81
:100C300000212020FFF716FE00210220FFF712FE00
:100C40000021A120FFF70EFE0021C020FFF70AFEC1
:100C50000021DA20FFF706FE00211220FFF702FE36
:100C60000021812016E00000B8012242B08121421B
:100C7000480100201E7A0008927E00080010024001
:100C8000040C01400010014000700040306C004036
:100C900000002242FFF7E6FD0021EF20FFF7E2FD12
:100CA0000021D920FFF7DEFD0021F120FFF7DAFD5A
:100CB0000021DB20FFF7D6FD00213020FFF7D2FD19
:100CC0000021A420FFF7CEFD0021A620FFF7CAFDDA
:100CD0000021AF20FFF7C6FDFFF72AFE10BD000080
:100CE00070B505460C463548806940F400603349CC
:100CF000886133480580001F04803148203800880F
:100D000040F001002E49203908800846008840F054
:100D1000400008802A482C38008840F0010028490B
:100D20002C3908800223192203210120FFF720FB20
:100D300070BD70B504460D462048C06940F0010002
:100D40001E49C8610846806940F0040088611D485A
:100D5000006820F47F401B4908600846006840F4A2
:100D600002400860C80484850585808B40F480704B
:100D7000C90488830846808B88830846808B8883D3
:100D80000846008C08840846008C40F48050088493
:100D90000846808940F0100088810846808940F02C
:100DA000010088810846008840F001000880012386
:100DB0001C2203211846FFF7DBFA70BD0010024029
:100DC0002C2C0140000801402F48806940F00800A9
:100DD0002D4988612D48006880B22C49086008467A
:100DE00000682B49084329490860704700B503464D
:100DF0000A46FFF7E9FF2448C06940F00400224991
:100E0000C8610846806940F0080088611F48001DDD
:100E1000006820F0FF001D49091D086008460068B1
:100E200040F0BB0008601B480380001F0280194887
:100E30001038008840F4C040164910390880084630
:100E4000008840F0600008800846008840F4006098
:100E500008800846008840F008000880081D0088C7
:100E600040F48050091D08800846008840F48070D6
:100E70000880C81307492C3908800846008840F0CC
:100E80000100088000BD000000100240000C01407D
:100E9000000022222C0800404F48C06940F00100A9
:100EA0004D49C8610846806940F0040088614B489C
:100EB000006820F0FF00494908600846006840F0DB
:100EC000440008600020C90408854FF6FE7088853C
:100ED0000846008B40F0010008830846008B40F470
:100EE000807008830846008C08840846008C0884BB
:100EF0000846008940F0030008810846008840F059
:100F00000100088070473448C06940F0020032494F
:100F1000C8610846806940F0040088612F48006875
:100F200020F07F402D4908600846006840F0884066
:100F3000086000202A4908804FF6FE70091D0880CD
:100F400027481038008840F00100254910390880F2
:100F50000846008840F480700880214808380088DE
:100F60001F49083908800846008808801C48203836
:100F7000008840F003001A492039088018482838B2
:100F8000008840F001001649283908807047014662
:100F9000022904D003290BD0042919D111E04FF004
:100FA0008042928C10B200224FF080439A8411E06C
:100FB0000B4A121F128810B20022094B1B1F1A8005
:100FC00008E0084A128810B20022064B1A8001E09D
:100FD000002000BF00BF7047001002400008014021
:100FE0002804004024080040F748806940F00800C9
:100FF000F5498861F548006820F47F40F3490860AE
:101000000846006840F44C500860704710B5EF483F
:10101000006820F47040ED4908600846006840F41C
:10102000405008600120EA490860EA48D0F82C01E5
:1010300008B9002010BD0120E549091F0860FFF72D
:1010400043F90020E349C1F8AC01E1488038006869
:1010500008B10020EEE70120FFF736F90020DC4957
:10106000091F08600120E5E710B5D848006820F4A2
:101070007040D64908600846006840F44050086057
:101080000020D349091F0860D249C1F8AC010120F2
:10109000FFF71AF90120CE49091F0860CD49C1F8B0
:1010A000AC01FFF711F910BD10B50024C748006866
:1010B00020F47040C54908600846006840F40040CC
:1010C00008600120C2490860FFF7FEF80120C1490D
:1010D000C1F8A801FFF7F8F80AE0601CC4B2322C8E
:1010E00003DDFFF7C1FF002010BD0120FFF7ECF882
:1010F000B748803800680028EFD1B549091F08605B
:101100000120F1E710B50020B149091F0860AF4880
:10111000006820F47040AD4908600846006840F45B
:10112000405008600020AB49C1F8AC010120FFF736
:10113000CBF80120A649091F0860FFF7C5F8002079
:10114000A449C1F8A80110BD10B50020A049091F8D
:1011500008609E48006820F470409C49086008467A
:10116000006840F44050086001209A49C1F8AC0181
:10117000FFF7AAF801209649091F0860FFF7A4F8B5
:1011800000209449C1F8A80110BD70B504468F48ED
:10119000006820F470408D4908600846006840F4FB
:1011A0004050086000208A49091F0860002516E0A9
:1011B000E009874908606006040E0120FFF784F803
:1011C00001208449C1F8A801FFF77EF8002080497A
:1011D000091F08600120FFF777F8681CC5B2082DC9
:1011E000E6DB70BD2DE9F04105460E4617469846F0
:1011F000FFF70CFF10B90120BDE8F0816906080E69
:10120000FFF7C3FFFFF750FF18B9FFF72DFF0120CD
:10121000F2E73046FFF7B9FFFFF746FF00240BE087
:1012200018F80400FFF7B1FFFFF73EFF18B9FFF70A
:101230001BFF0020E0E7641CBC42F1DBFFF714FF5A
:101240000020D9E770B5054600246048006820F406
:1012500070405E4908600846006840F4004008603D
:10126000002617E000205A49091F08600220FFF7F6
:101270002BF801205749C1F8A8016006040E544814
:101280008038006808B1601CC4B20220FFF71CF867
:10129000701CC6B2082EE5DB15B1FFF733FF01E085
:1012A000FFF752FF204670BD2DE9F04106460F467C
:1012B00014461D46FFF7AAFE10B90120BDE8F081D3
:1012C0007106080EFFF761FFFFF7EEFE18B9FFF792
:1012D000CBFE0120F2E73846FFF757FFFFF7E4FEA9
:1012E000FFF794FE012101EB4601C8B2FFF74DFF65
:1012F000FFF7DAFE0DE0012C04D10020FFF7A2FF7A
:10130000287003E00120FFF79DFF28706D1C601E10
:10131000C4B2002CEFD1FFF7A7FE0020CEE770B5D6
:1013200005460E460024FFF771FE2846FFF72DFF05
:10133000641CFFF7B9FE3046FFF727FF641CFFF778
:10134000B3FEFFF763FE691CC8B2FFF71EFF641C03
:10135000FFF7AAFE0020FFF775FF0446FFF784FEA3
:10136000204670BD2DE9F0410746884615461E46C9
:101370000024FFF74BFE3846FFF707FFFFF794FE08
:101380004046FFF702FFFFF78FFEFFF73FFE791C95
:10139000C8B2FFF7FAFEFFF787FE00BF0DE0681E38
:1013A000A04204D00120FFF74DFF305503E000209C
:1013B000FFF748FF3055601CC4B2AC42EFDBFFF7CB
:1013C00053FE2046BDE8F08100100240040C0140AD
:1013D000AC812142008021422DE9F04180460D463A
:1013E00016461F460024FFF711FE4046FFF7CDFECC
:1013F000FFF75AFE2846FFF7C8FEFFF755FE00BF6D
:1014000006E0385DFFF7C1FEFFF74EFE601CC4B278
:10141000B442F6DBFFF728FE0120BDE8F08170B58D
:1014200005460E46144631462846FFF778FF2070E1
:10143000012070BD37B504460D4602AB0122294696
:101440002046FFF7C9FF3EBD2DE9F8430746884611
:1014500014461D46089E6A4641463846FFF7DFFFA0
:1014600028B3601CFF2101FA00F0C4F108012944EF
:10147000491EFF220A41104300F0FF09C5F1080090
:1014800006FA00F0C6B2C4F1070006419DF800005C
:1014900000EA090000909DF80000304300909DF89C
:1014A000002041463846FFF7C5FFBDE8F88300201D
:1014B000FBE7F8B506460F4614461D466A46394610
:1014C0003046FFF7ACFF2DB10120A0409DF8001081
:1014D000084305E00120A0409DF8001021EA00002B
:1014E000C0B200909DF8002039463046FFF7A2FFB9
:1014F000F8BD00002DE9F05F05460E46300106F00C
:1015000051F88146C94905FB01F006F04BF88246C7
:10151000494605F0FDFE0746384606F00BF884B252
:10152000204606F03FF88346394606F080F98246A9
:101530004FF0834106F07EF8814605F0FBFF8046C0
:101540004FF6FF7000EA041404EB080084B2B848B8
:10155000806940F00400B64988610846C06940F4DB
:101560000030C861B348006820F47F40B14908608A
:101570000846006840F40B400860AE480C30006834
:1015800040F00400AB490C310860A948006940F400
:101590000030A74908610846006920F4003008615E
:1015A000A5480480001D008842F20C010843A249AE
:1015B000091D08800846008840F4807008800846AD
:1015C000008840F0200008800223262203210846DC
:1015D000FEF7CEFEBDE8F09F97480838008800F07F
:1015E000200000287AD09448001F008893490860A2
:1015F00008460078924908700846007891490978B1
:10160000884212D18E4840788E49497888420CD160
:101610008B4880788B498978884206D100208A4996
:101620000870874908704870887085480078874935
:101630000978884213D182484078844949788842A1
:101640000DD17F48807881498978884207D101206F
:101650007D49087000207A49087048708870774882
:101660000068592802D1022079490870734800683F
:10167000582802D1012076490870704800680A286D
:1016800065DD6E4800685A2809D10020714908704C
:1016900071490870714908707149087057E06748CE
:1016A000006841280AD101206A49087000206A496F
:1016B00008706A4908706A49087048E05F48006825
:1016C00045280CD100206349087001206249087048
:1016D0000020624908706249087038E0A5E0574868
:1016E0000068422807D055480068432803D0534873
:1016F000006844280AD100205649087056490870ED
:101700005649087001205649087020E04B4800688F
:10171000462807D049480068472803D04748006852
:1017200048280BD100204B4908704B490870012014
:101730004A49087000204A49087008E000204549DD
:1017400008704549087045490870454908703B488C
:1017500000680A2862DA3948006848B900203D4923
:1017600008703D4908703D4908703D49087055E0D2
:1017700032480068012809D13649087000203649EE
:101780000870364908703649087047E02B480068F1
:1017900005280BD100202F49087001202E49087020
:1017A00000202E4908702E49087037E02348006851
:1017B000022807D021480068032803D01F4800688A
:1017C00004280AD1002023490870234908702349BE
:1017D000087001202249087020E018480068062897
:1017E00007D016480068072803D014480068082866
:1017F0000BD10020174908701749087001201749BC
:10180000087000201649087008E00020114908708F
:10181000114908701149087011490870084840784A
:1018200007498870084600784870704740420F00AA
:10183000001002400008014008440040540000200D
:10184000440000204F000020060000204C00002033
:1018500005000020010000200200002003000020FD
:10186000040000200146002901DA484200E0084651
:10187000704700B503460A46002B07DA0120F849F5
:1018800008600020F749C1F8940106E00020F449FF
:1018900008600120F349C1F894011846FFF7E2FF00
:1018A000F1490880002A08DD0120ED49083108606F
:1018B0000020EC49C1F89C0107E00020E84908310C
:1018C00008600120E749C1F89C011046FFF7CAFFF4
:1018D000E549091D088000BD70B505460E46E3497F
:1018E000284605F073FE08D3E149284605F06EFF4F
:1018F00003D3E048007801280ED101240020D84904
:10190000091D0860D749C1F89001D5490831086020
:10191000D449C1F89C0100E00024204670BD41F686
:10192000BC30D54909684242914202DA4142D24A6A
:101930001160D1490968814201DDCF490860CF4972
:1019400009684242914202DA4142CC4A1160CB49D5
:101950000968814201DDC949086070472DE9F84FE7
:1019600005460E469146C6480078582191FBF0F78F
:10197000384605F0FFFD0446DFF808A34FF0000BE2
:10198000C1480078012803D0C0480078012834D12C
:101990004FF07E51BE48006805F04CFCBC4907463C
:1019A00008604FF07E5105F075FD07D1A819FFF7CB
:1019B00059FF074605F0DEFDB6490860B5480168E5
:1019C000B54805F0A5FCB54908600846006805F073
:1019D00005FC07464FF03332B14B05F0E9F802D26F
:1019E000B048AE490860B049AC48006805F0EEFE6A
:1019F0000BD2AD48A949086007E0AC48A749086088
:101A00000020A3490860A34908609F480078012886
:101A100008D1A2480168A648006805F013FFA44950
:101A200008600FE099480078012808D19B480168B8
:101A30009F48006805F0FEFB9D49086002E0002019
:101A40009B49086021469A48006805F0BFFE01D214
:101A50009748046084F0004795480168384605F0CF
:101A6000B5FE03D284F000409149086091480078A7
:101A7000012803D090480078012802D14FF07E5B06
:101A800001E04FF0000B5946484605F0D3FD0090A9
:101A90008748006880F000485146404605F0CAFD7E
:101AA0000746009905F0CEFE8449086008460068A4
:101AB00005F024FDBDE8F88F2DE9FC5F804801901A
:101AC0004FF07C5000907B48007801280AD16C4888
:101AD00000785A2191FBF0F4204605F04BFD79493E
:101AE000086012E07448007801280BD1644800783F
:101AF0006FF0590191FBF0F4204605F03BFD714970
:101B0000086002E000206F4908606F4909686F4A69
:101B100012681144084605F02DFD6D4908606D48B6
:101B2000006805F05BFB06464FF066326A4B05F035
:101B30007BF8044604F0B0FD66490860644800681C
:101B400005F04CFB80464FF03332644B05F06CF8E7
:101B500004460D465F48006805F040FB06462246F5
:101B60002B4604F0CBFD824604F096FD59490860EF
:101B7000084601685A48006805F05CFB584908604F
:101B8000504801685648006805F05CFE54490860FA
:101B900054495348006805F019FE02D25148504993
:101BA000086051494E48006805F010FD02D24E48C9
:101BB0004B4908604A480099006805F03BFD04461F
:101BC00044480199006805F035FD0546214605F0B9
:101BD00031FB464908604648016846480068FFF7FF
:101BE0007BFE012802D100203D4908603F48006883
:101BF00005F084FCBDE8FC9F2DE9F84F05460C4636
:101C00003D4E4FF07E573D49284605F01BFE0090A3
:101C10003946204605F00EFD82463046009905F013
:101C200009FD8346514605F005FB814605F066FC3B
:101C300080464046BDE8F88F10B53220FEF7ACFD77
:101C40000446012C04D10B480078C04309490870B0
:101C5000022C04D12A480078C0432949087010BDDD
:101C600090812142008021423C080040000020C2B7
:101C70000000204206000020100000201400002078
:101C8000050000200000284203000020040000207E
:101C90008C000020840000200000484288000020C2
:101CA0003333E33F9A99193F000040406666663F30
:101CB0007C000020010000200200002080000020A5
:101CC0000000C84274000020080000200C00002022
:101CD0006C000020700000206666E63F3333D33F7F
:101CE0007800002000401C4600401CC66800002010
:101CF0001C00002020000020000096430000C0408F
:101D0000070000202DE9F04F89B00646012E7DD056
:101D10004621D020FFF703FB80464521D020FFF766
:101D2000FEFA08EB0027384605F024FC044648215B
:101D3000D020FFF7F4FA80464721D020FFF7EFFAD2
:101D400008EB0027384605F015FC05463C21D0205D
:101D5000FFF7E5FA80463B21D020FFF7E0FA08EBD9
:101D60000027384605F006FC82464021D020FFF7C8
:101D7000D6FA80463F21D020FFF7D1FA08EB0027A2
:101D8000384605F0F7FB83464FF08E41204605F0BC
:101D90001DFD05D24FF08F41204605F053FD04464E
:101DA0004FF08E41284605F011FD05D24FF08F41CE
:101DB000284605F047FD05464FF08E41504605F098
:101DC00005FD05D24FF08F41504605F03BFD8246A0
:101DD0004FF08E41584605F0F9FC05D24FF08F4187
:101DE000584605F02FFD834684F000405F490860A7
:101DF000584605F0F3F9CDE90001504605F0EEF93B
:101E00000746DDE9002304F061FB00E039E0002231
:101E1000574BCDE9020104F007FF564A564BCDE976
:101E2000040104F027FDCDE9060104F035FC8146EC
:101E3000204605F0D3F94FF06632504BCDE906014C
:101E400004F018FD074604F027FC04464C480078CF
:101E5000022806D184F000473946484602F0ACFE1D
:101E600009E047480078032805D184F00047394647
:101E7000484602F0B8FF43480068434908604348B9
:101E8000056009B0BDE8F08F10B54148008800F04A
:101E90000100002868D03E48008820F001003C493D
:101EA00008803C48007808B9012000E0002039494A
:101EB000087008460078012805D131480078FFF7FE
:101EC00021FF002010BD0220FFF761F832490860B1
:101ED0000320FFF75CF83149086029480078FFF7D4
:101EE00011FF6420FEF722FCFFF7A6FE1F480168E1
:101EF00025480068FFF780FE2949086027480168E7
:101F000025480068FFF7D8FD4042264908601F4871
:101F100002682248016820480068FFF71FFD224937
:101F200008601F4800681F49096808441E4909687D
:101F300008441E4908601A4800681A49096808449C
:101F400019490968401A1A490860FFF7E8FC19485E
:101F500001680D480068FFF7BFFC28B91448016804
:101F600012480068FFF785FC0020ABE72400002042
:101F700000806640F1D4C853FB21094066663040BA
:101F800000000020C00000202000002028000020C9
:101F9000102C014064000020080000200C000020EC
:101FA000580000205C00002060000020100000208D
:101FB000140000201C00002038B50446FB4890F8AF
:101FC0002400C0B114B10220009001E00020009074
:101FD000F64A1268D17BF54A526810786B460122A6
:101FE000FFF700F910B14FF0FF3038BD9DF8001039
:101FF000EE48417423E0ED48807A10B94FF0FF308D
:10200000F3E724B1E948407C08B10020EDE714B1C2
:102010000120009001E000200090E44A1268D17B8A
:10202000E24A526810786B460122FFF7DBF810B1E4
:102030004FF0FF30D9E79DF80010DC4841740020D4
:10204000D3E738B5002419E0D8480068C07AA04228
:1020500004D0D6480068407DA04200D10CE0D349AE
:10206000496808786B4601222146FFF71DF910B137
:102070004FF0FF3038BD00BF601CC4B2CB48406891
:102080000079A042E0DC0020F4E770B504460D467C
:10209000C6480068C07AA04204D0C4480068407DA9
:1020A000A04202D14FF0FF3070BDC04840680079B7
:1020B000A04202DC4FF0FF30F6E7BC4949680878DF
:1020C0002B4601222146FFF7EFF8EDE738B504462D
:1020D000B64890F82300A04201D1002038BD14B1C9
:1020E0003020009001E000200090B048807C20B1BA
:1020F0009DF8000040F002000090AC4890F82200EB
:1021000020B19DF8000040F080000090A74A1268BE
:10211000117DA64A526810786B460122FFF762F8DB
:1021200010B14FF0FF30D9E7A04880F823400020DD
:10213000D4E738B5044604F0700010B101200090D7
:1021400005E014B10020009001E040200090974A83
:102150001268917C954A526810786B460122FFF70D
:1021600041F820B1002191488172481E38BD9DF888
:10217000000020F040018D4801730020009004F021
:10218000400020B99DF8000040F00400009004F0E9
:10219000200020B99DF8000040F00200009004F0FB
:1021A000100020B99DF8000040F00100009004F0FC
:1021B000080020B99DF8000040F0380000907B4AEC
:1021C0001268D17C794A526810786B460122FFF779
:1021D00009F820B1002175488172481EC6E724B174
:1021E000082C02D00020FFF771FF70488472002194
:1021F00001753220FEF784F80020B7E738B50446B1
:102200006A48807CA04201D1002038BD002C46D015
:10221000664A12681179654A526810786B46012245
:10222000FFF742F810B14FF0FF30EEE79DF80000E5
:1022300020F0200000905D4A126811795B4A5268D4
:1022400010786B460122FEF7CDFF10B14FF0FF3042
:10225000DBE70320FEF754F802200090534890F883
:10226000220020B19DF8000040F0800000904F480F
:1022700090F8230020B19DF8000040F0300000905D
:102280004A4A1268117D494A526810786B46012209
:10229000FEF7A8FF002851D04FF0FF30B5E7434AC2
:1022A00012681179414A526810786B460122FEF794
:1022B000FBFF10B14FF0FF30A7E73C48807A00F0F9
:1022C000010028B19DF8000040F02000009004E0DB
:1022D0009DF8000020F020000090344A1268117927
:1022E000324A526810786B460122FEF77BFF10B12C
:1022F0004FF0FF3089E70320FEF702F82B4890F8F3
:10230000220010B18020009001E0002000902748BA
:1023100090F8230020B19DF8000040F030000090BC
:10232000224A1268117D214A526810786B460122B8
:10233000FEF758FF10B14FF0FF3066E71B4884747A
:10234000002062E708B51948807A10B94FF0FF30D5
:1023500008BD00200090154A1268D17B134A5268CC
:1023600010786B460122FEF73DFF10B14FF0FF30B1
:10237000EEE70E4A126851790C4A526810786B46A3
:102380000122FEF72FFF10B14FF0FF30E0E7074AC0
:1023900012681179054A526810786B460122FEF7DF
:1023A00021FF28B14FF0FF30D2E70000900000205D
:1023B000F74890F82400002850D00C200090F44AF0
:1023C00012681179F24A526810786B460122FEF7C2
:1023D00009FF10B14FF0FF30BAE7C0200090EC4881
:1023E000807A00F0010020B19DF8000040F020004C
:1023F0000090E74A12681179E54A526810786B46F6
:102400000122FEF7EFFE10B14FF0FF30A0E7E048E9
:10241000407C10B10220009001E000200090DC4AD6
:102420001268D17BDA4A526810786B460122FEF7B7
:10243000D9FE10B14FF0FF308AE700200090D44A57
:1024400012685179D24A526810786B460122FEF721
:10245000C9FE002852D04FF0FF3079E704200090E9
:10246000CB4A12681179CA4A526810786B46012229
:10247000FEF7B8FE10B14FF0FF3069E7C448807C2A
:1024800020B9C348807A00F0010010B940200090C4
:1024900001E060200090BE4A12681179BC4A52687F
:1024A00010786B460122FEF79DFE10B14FF0FF3011
:1024B0004EE7B748407C10B10120009001E00020B9
:1024C0000090B34A1268D17BB14A526810786B46CB
:1024D0000122FEF787FE10B14FF0FF3038E7AC4A1B
:1024E00012685179AA4A52681078A94B1033012218
:1024F000FEF778FE10B14FF0FF3029E7002027E704
:1025000070B50446002624F00104A14890F8240088
:1025100008B1002070BD9E48807A10B94FF0FF309E
:10252000F8E79B48057C807A204099490874084662
:10253000007CA04202D04FF0FF3600E0002614B924
:102540009348007D18B10120FFF736FD02E000201E
:10255000FFF732FD3CB1FFF7F5FE20B18C48057462
:102560004FF0FF30D6E73046D4E738B50446884808
:10257000807A10B94FF0FF3038BDBC2C02DB01204F
:10258000009015E0622C02DB0220009010E02A2C63
:1025900002DB032000900BE0142C02DB04200090EF
:1025A00006E00A2C02DB0520009001E006200090E6
:1025B0007748C07A9DF80010884201D10020DBE7FF
:1025C000734A12689178724A526810786B460122F9
:1025D000FEF708FE10B14FF0FF30CDE79DF8001078
:1025E0006B48C1720020C7E738B50446282C02DDCD
:1025F0004FF0FF3038BDDCB90020FFF767FD002049
:102600008DF8000007208DF80100614A1268917C66
:102610005F4A526810786B460222FEF7E3FD10B164
:102620004FF0FF30E6E70021594801750020E1E74F
:102630000120FFF74BFD20208DF80000012C06D172
:1026400000208DF801000520FFF78FFF17E0052C13
:1026500006DC01208DF801000520FFF786FF0EE063
:10266000142C06DC02208DF801000A20FFF77DFF04
:1026700005E003208DF801001420FFF776FF9DF898
:102680000100072101EB8010C0B28DF80100404A23
:102690001268917C3E4A526810786B460222FEF71F
:1026A000A1FD10B14FF0FF30A4E708213848817236
:1026B00000210173012101750020FFF721FF002097
:1026C00098E738B504463248807A10B94FF0FF30A9
:1026D00038BD2F4890F8240010B14FF0FF30F7E7D5
:1026E0002B48007D50B134B1282C04DCE0B2FFF758
:1026F0007BFF0020ECE70020FFF776FF042C01DAD7
:10270000042404E0B4F57A7F01DD4FF47A744FF4C9
:102710007A7090FBF4F0401EC0B200901C4A126820
:1027200051781B4A526810786B460122FEF75AFD19
:1027300010B14FF0FF30CBE79DF80000401C4FF484
:102740007A7191FBF0F081B21148C1810146C989CB
:102750004810FFF70AFF0020BAE738B504460C48D6
:10276000807A10B94FF0FF3038BD022C06D0042C0F
:1027700007D0082C08D0102C0FD10BE000200090BF
:102780000EE0082000900BE01020009008E0000010
:10279000900000201820009002E04FF0FF30E3E7A7
:1027A00000BFF948407A9DF80010B0EBE10F01D16D
:1027B0000020D9E7F44A1268D179F34A52681078B8
:1027C0006B460122FEF70EFD10B14FF0FF30CBE754
:1027D0009DF80000C110EC4841720020C4E738B5F4
:1027E0000446E948807A10B94FF0FF3038BDFA2C22
:1027F00009D0B4F5FA7F09D0B4F57A7F09D0B4F5E1
:10280000FA6F0CD108E0002000900BE00820009047
:1028100008E01020009005E01820009002E04FF042
:10282000FF30E3E700BFD848007A9DF80010B0EB16
:10283000E10F01D10020D9E7D34A12689179D24A39
:10284000526810786B460122FEF7CCFC10B14FF0B5
:10285000FF30CBE79DF80000C010CB490872002084
:10286000C4E71CB580208DF80000C74A1268917C2F
:10287000C54A526810786B460122FEF7B3FC10B1CE
:102880004FF0FF301CBD6420FDF73AFD00208DF8AD
:102890000000BD4A1268917CBB4A526810786B46B2
:1028A0000122FEF79FFC10B14FF0FF30EAE7B64A75
:1028B0001268917DB44A526810786B460622FEF782
:1028C000F3FC10B14FF0FF30DCE79DF80500C007C6
:1028D000400F9DF8031001F0010140EA41009DF80E
:1028E000011001F0010140EA010494B1012C03D16F
:1028F0000121A548C17431E0022C03D10021A24876
:10290000C1742BE02146A1A003F0E6F84FF0FF30A0
:10291000B8E79D4A1268D1789B4A526810786B4696
:102920000122FEF7C1FC10B14FF0FF30AAE79DF87D
:10293000000000F00F042CB99E4803F0CDF84FF0D2
:10294000FF309FE7042C06D19BA003F0C5F80121BE
:102950008D48C17402E000218B48C174FF218A4870
:102960008172FF2088490872FF2187484172C17235
:102970004FF6FF71C181FF21017481740121017340
:1029800080F82210002180F823104175017516305F
:10299000016041608160163880F8241080F82510AD
:1029A000C1844FF4FA60FFF71AFF10B14FF0FF3007
:1029B00068E70220FFF7D1FE10B14FF0FF3061E76A
:1029C0002A20FFF7D2FD10B14FF0FF305AE7322036
:1029D000FFF777FE10B14FF0FF3053E70020FFF70D
:1029E0008FFD10B14FF0FF304CE70020FFF706FCE1
:1029F00010B14FF0FF3045E70020FFF79AFB0020B1
:102A000040E770477CB504460D465F48807A00F089
:102A1000700010B94FF0FF307CBD5B4A1268117B2B
:102A2000594A526810786B460622FEF73DFC10B1F9
:102A30004FF0FF30F0E79DF801009DF8001040EAEC
:102A4000012000B220809DF803009DF8021040EAAA
:102A5000012000B260809DF805009DF8041040EA56
:102A6000012000B2A08015B12846FFF7CAFF002060
:102A7000D2E77CB504460D464348807A00F0080052
:102A800010B94FF0FF307CBD3F4A1268517B3E4A7F
:102A9000526810786B460622FEF706FC10B14FF024
:102AA000FF30F0E79DF801009DF8001040EA01209A
:102AB00000B220809DF803009DF8021040EA01203A
:102AC00000B260809DF805009DF8041040EA0120E6
:102AD00000B2A08015B12846FFF793FF0020D2E78F
:102AE0002DE9FE4F05460C462748807A18B94FF06D
:102AF000FF30BDE8FE8F244A1268917B224A52685B
:102B0000107802AB0222FEF7CFFB10B14FF0FF307E
:102B1000EFE79DF809009DF8081040EA012006B291
:102B200014B12046FFF76DFF17494968C88804F0C3
:102B300039FD154901904968B1F9080004F01AFD02
:102B40008346304604F016FD5946009004F07AFEA4
:102B50008246019904F0DCFB81461F4904F06AFBC0
:102B600080464FF08F4104F065FD074604F0C6FC37
:102B700028600020BDE710B588B004461CB94FF0AE
:102B8000FF3008B010BD29E090000020556E73752D
:102B900070706F7274656420736F667477617265AC
:102BA0002070726F64756374207265762025642EC0
:102BB0000A000000C091000848616C662073656ED1
:102BC0007369746976697479207061727420666FB4
:102BD000756E642E0D0A000000000C42206830B9AA
:102BE000606820B9A06810B9002008B010BDFA498B
:102BF0004968087806AB03221146FEF755FB10B171
:102C00004FF0FF30F1E79DF81800082101EB20108C
:102C100000F00F00ADF800009DF8190001EB201046
:102C200000F00F00ADF802009DF81A0001EB201033
:102C300000F00F00ADF8040020684100BDF900006D
:102C4000403091FBF0F000B2ADF810006068410038
:102C5000BDF90200403091FBF0F000B2ADF8120077
:102C6000A0684100BDF90400403091FBF0F000B2D3
:102C7000ADF81400D8494968087806AB0622114619
:102C8000FEF712FB10B14FF0FF30AEE79DF81900D0
:102C90009DF8181040EA012000B2ADF808009DF838
:102CA0001B009DF81A1040EA012000B2ADF80A009E
:102CB0009DF81D009DF81C1040EA012000B2ADF8FF
:102CC0000C00BDF81000BDF80810084400B2ADF8C3
:102CD0001000BDF81200BDF80A10084400B2ADF8AB
:102CE0001200BDF81400BDF80C10084400B2ADF895
:102CF0001400BDF81000000A8DF81800BDF810008F
:102D0000C0B28DF81900BDF81200000A8DF81A0043
:102D1000BDF81200C0B28DF81B00BDF81400000A07
:102D20008DF81C00BDF81400C0B28DF81D00AA4932
:102D30004968087806AB06221146FEF753FA10B12F
:102D40004FF0FF3051E700204FE70146A248007ADC
:102D500030B1012807D0022809D003280FD10AE09A
:102D6000FA2008800EE04FF4FA7008800AE04FF471
:102D70007A70088006E04FF4FA60088002E00020D4
:102D8000088000BF00BF0020704701469248407A8B
:102D900030B1012807D0022808D003280CD108E060
:102DA000022008700BE00420087008E0082008707A
:102DB00005E01020087002E04FF0FF30704700BFC0
:102DC0008548C07C18B108784006000E08700020C5
:102DD000F4E701468048C07A082817D2DFE800F0FF
:102DE0001704070A0D101318BC20088013E0622096
:102DF000088010E02A2008800DE0142008800AE0F6
:102E00000A20088007E00520088004E000BF00BF1A
:102E10000020088000BF00BF0020704701466E48B8
:102E200090F8240010B14FF0FF3070476A48C08915
:102E300008800020F9E7014600200880401E704706
:102E400001464FF0FF30704701466348007A30B1C9
:102E5000012807D0022808D003280CD108E05F48D9
:102E600008600BE05E48086008E05E48086005E026
:102E70005D48086002E04FF0FF30704700BF00205F
:102E8000FBE701465448407A30B1012808D00228B7
:102E90000AD0032810D10BE04FF4804008800EE0E8
:102EA00041F69C7008800AE04FF48050088006E0EC
:102EB0004FF40060088002E04FF0FF30704700BF21
:102EC0004548C07C10B10888401008800020F5E714
:102ED00001464148007C08700020704701463E488A
:102EE000807A10B10120087001E0002008700020F5
:102EF000704738B504463848807A10B94FF0FF3033
:102F000038BD354A1268117C334A526810786B46D6
:102F10000222FEF7C9F910B14FF0FF30F0E79DF83B
:102F200001009DF8001040EA012000B2208000203E
:102F3000E6E72DE9FE4F0746884692461D46DDF836
:102F400030B000260024244890F8240010B1601E00
:102F5000BDE8FE8F002028701F48807A10B94FF01E
:102F6000FF30F5E71C48007C10B94FF0FF30EFE769
:102F70001948007C00F0400008B1B01CC6B21648E9
:102F8000007C00F0200008B1B01CC6B21248007CE2
:102F900000F0100008B1B01CC6B20F48007C00F071
:102FA000080008B1B01DC6B20B4A1268917A0A4AED
:102FB000526810786B460222FEF776F910B14FF096
:102FC000FF30C5E79DF801009DF8001040EA012997
:102FD000B1450BDA0020BBE790000020000003435E
:102FE000000083423333034233338341FC4840685B
:102FF0004088B9EB600F17DDF94A1268517CF84A36
:10300000526810786B460122FEF74EF910B14FF06E
:10301000FF309DE79DF8000000F0100020B1FFF7A1
:1030200091F96FF0010093E75046FFF7EAFCEC4A94
:103030001268D17AEA4A526810786B463246FEF737
:1030400033F910B14FF0FF3082E799FBF6F0401EE4
:103050008BF8000000202870B4422AD0E048007CA1
:1030600000F0080028B3601C1DF800001DF80410D3
:1030700040EA012000B2A8F80000E01C1DF8001092
:10308000A01C1DF8000041EA002000B2A8F80200D0
:10309000601D1DF80010201D1DF8000041EA0020F1
:1030A00000B2A8F80400287840F008002870A01D9D
:1030B00084B2B44213D0CA48007C00F0400070B122
:1030C000601C1DF800001DF8041040EA012000B249
:1030D0003880287840F040002870A01C84B2B442A8
:1030E00013D0BF48007C00F0200070B1601C1DF8B8
:1030F00000001DF8041040EA012000B27880287812
:1031000040F020002870A01C84B2B44213D0B44810
:10311000007C00F0100070B1601C1DF800001DF86C
:10312000041040EA012000B2B880287840F0100076
:103130002870A01C84B200200AE7F8B504460F46A8
:103140001646A74890F8240010B94FF0FF30F8BD9C
:10315000A348807A10B94FF0FF30F8E7A04A126810
:10316000917A9F4A526810786B460222FEF79CF8CB
:1031700010B14FF0FF30EAE79DF801009DF8001014
:1031800040EA0125A54203DA00203070401EDEE748
:10319000934840684088B5EB600F17DD904A12688D
:1031A000517C8F4A526810786B460122FEF77CF8FA
:1031B00010B14FF0FF30CAE79DF8000000F010009A
:1031C00020B1FFF7BFF86FF00100C0E7E2B2844B17
:1031D0001B68D97A824B5B6818783B46FEF764F827
:1031E00010B14FF0FF30B2E795FBF4F0401E3070A5
:1031F0000020ACE701467A4880F822100020704792
:103200007CB5054676494968087801AB04220D2152
:10321000FEF74AF808B107207CBD9DF80700C0F30F
:1032200001109DF8041001F0E00140EAE1008DF882
:1032300000009DF80700C0F381009DF8051001F023
:10324000E00140EAE1008DF801009DF8070000F080
:1032500003009DF8061001F0E00140EAE1008DF85E
:10326000020000241CE01DF8040018B9002045F8F5
:10327000240013E05B4845F8240006E055F82400DC
:10328000594904F0D7F945F824001DF80400401E00
:10329000C0B20DF804000028F0D100BF601CC4B219
:1032A000032CE0DB0020B7E72DE9FE4F06460F4672
:1032B00000256846FFF7A4FF002442E056F82400EA
:1032C00057F82410A0EB010ABAF1000F01DB5146B8
:1032D00001E0CAF10001084604F04CF983464FF0C2
:1032E0008F4104F015F880465DF82400002104F0B9
:1032F000D1F816D05DF82410404604F009F8824653
:103300004FF07E5104F09EFA814629F0004A37487A
:10331000416A504604F05AFA12D20120A0400543F7
:103320000EE03248C169404604F050F905D32F48F9
:10333000016A404604F04AFA02D20120A040054347
:10334000641C032CBADB2846BDE8FE8F2DE9FC5F28
:1033500006460F46002522494968087801AB03223A
:103360000D21FDF7A1FF10B10720BDE8FC9F9DF8DE
:10337000040000F01F008DF804009DF8050000F027
:103380001F008DF805009DF8060000F01F008DF865
:103390000600002462E056F8240057F82410A0EB41
:1033A000010BBBF1000F01DB594601E0CBF100013D
:1033B000084604F0DFF84FF08F41009003F0A8FFBB
:1033C000814601A8005DC0B30849086804F0EAF826
:1033D00083465946064803F09BFF80460FE00000F5
:1033E000900000207B14AE3E1D5A843FAC84000840
:1033F00000B04C45FE49404604F01CF9804601A847
:10340000005D401EC0B201A908550028F2D1414616
:10341000484603F07DFF83464FF07E5104F012FAD8
:1034200082462AF0004BF3488169584604F0CEF9F1
:1034300013D20120A04005430FE0FFE7ED480169EA
:10344000484604F0C3F805D3EA484169484604F009
:10345000BDF902D20120A0400543641C032C9ADB75
:10346000284682E72DE9F04F87B005460C46914685
:1034700001208DF8100000208DF81100DE4A12683E
:10348000917CDD4A5268107804AB0222FDF7AAFE57
:1034900020B14FF0FF3007B0BDE8F08FC820FCF737
:1034A0002FFF00208DF81000D34A1268D17BD24A3A
:1034B0005268107804AB0122FDF794FE10B14FF072
:1034C000FF30E8E7CC4A12685179CB4A526810784D
:1034D00004AB0122FDF786FE10B14FF0FF30DAE7B2
:1034E000C54A1268917CC44A5268107804AB012224
:1034F000FDF778FE10B14FF0FF30CCE7BE4A1268FE
:10350000D17DBD4A5268107804AB0122FDF76AFEF6
:1035100010B14FF0FF30BEE7B74A12681179B64AD2
:103520005268107804AB0122FDF75CFE10B14FF039
:10353000FF30B0E70C208DF81000AF4A1268117907
:10354000AD4A5268107804AB0122FDF74BFE10B172
:103550004FF0FF309FE70F20FCF7D2FEA648806AAD
:10356000407A8DF81000A44A12689178A24A5268F5
:10357000107804AB0122FDF735FE10B14FF0FF309B
:1035800089E79D48806A007A8DF810009A4A12688F
:103590005178994A5268107804AB0122FDF722FE57
:1035A00010B14FF0FF3076E7B9F1000F07D0924825
:1035B000806A807A40F0E0008DF8100004E08E48C8
:1035C000806A807A8DF810008B4A126891798A4A55
:1035D0005268107804AB0122FDF704FE10B14FF0E1
:1035E000FF3058E7B9F1000F07D08348806AC07AEE
:1035F00040F0E0008DF8100003E07E48C07A8DF8BE
:1036000010007D4A1268D1797B4A5268107804AB69
:103610000122FDF7E7FD10B14FF0FF303BE7B9F1B4
:10362000000F02D0C820FCF76BFE40208DF8100080
:10363000714A12681179704A5268107804AB0122FD
:10364000FDF7D0FD10B14FF0FF3024E778208DF862
:103650001000694A12685179674A5268107804ABC1
:103660000122FDF7BFFD10B14FF0FF3013E76149B4
:103670008889FCF745FE00208DF810005E4A12682C
:1036800051795D4A5268107804AB0122FDF7AAFD1A
:1036900010B14FF0FF30FEE6574A1268917A564A51
:1036A0005268107804AB0222FDF7FEFD10B14FF016
:1036B000FF30F0E69DF811009DF8101040EA012B54
:1036C0000C209BFBF0F0C6B20020A8606860286068
:1036D000A06060602060824665E0474A1268D17A47
:1036E000454A5268107804AB0C22FDF7DDFD10B19D
:1036F0004FF0FF30CFE69DF811009DF8101040EA22
:10370000012000B2ADF808009DF813009DF81210DA
:1037100040EA012000B2ADF80A009DF815009DF8BE
:10372000141040EA012000B2ADF80C00BDF90810F9
:10373000206808442060BDF90A1060680844606091
:10374000BDF90C10A0680844A0609DF817009DF812
:10375000161040EA012000B2ADF800009DF81900F3
:103760009DF8181040EA012000B2ADF802009DF863
:103770001B009DF81A1040EA012000B2ADF80400C9
:10378000BDF90010286808442860BDF90210686877
:1037900008446860BDF90410A8680844A8600AF1EC
:1037A000010000F0FF0AB24597DB1248D0F800C0D4
:1037B0002868C117090441EA104107046246002342
:1037C000384602F064F932460023CDE9020102F0E6
:1037D0005EF928600748D0F800C06868C11709047E
:1037E00041EA1041070462460023384606E0000023
:1037F00054E3853FAC8400089000002002F047F9B4
:1038000032460023CDE9020102F041F96860FE482A
:10381000D0F800C0A868C117090441EA10410704A4
:1038200062460023384602F032F932460023CDE9E1
:10383000020102F02CF9A860F348D0F804C0216816
:10384000C817000440EA11480F04624600233846B6
:10385000414602F01CF932460023CDE9020102F094
:1038600016F92060E848D0F804C06068C117090460
:1038700041EA1041070462460023384602F007F986
:1038800032460023CDE9020102F001F96060DE4812
:10389000D0F804C0A068C117090441EA1041070428
:1038A00062460023384602F0F2F832460023CDE9A2
:1038B000020102F0ECF8A060A068002804DDA06816
:1038C000A0F58030A06003E0A06800F58030A06023
:1038D0000020E0E538B50446CC4890F82400A0422A
:1038E00001D1002038BD24B3C84890F8250010B994
:1038F0004FF0FF30F6E70020FEF75EFB0020FEF7FA
:103900007DFCC249C88CFEF7DCFE00200090BF4958
:10391000496808786B4601222321FDF763FC0121E9
:10392000BA4880F824100120FEF746FBFEF70AFD96
:1039300013E00020FEF740FBB448007C0090B34940
:10394000496808786B4601222321FDF74BFC0021D2
:10395000AE4880F82410FEF7F5FC0020C2E72DE900
:10396000F04F8DB083460F4602200C90A74890F888
:10397000240020B10020FFF7ADFF012600E0002663
:1039800003A8FFF7E2F905A8FFF7FFF901A8FFF781
:1039900020FA02A8FFF742FA9C4890F80AA004A86F
:1039A000FFF796FA002407E0002239465846FFF751
:1039B00059FD00B902E0641C022CF5DB00BF022CAB
:1039C00001D1002528E0002407E0012206A909A86A
:1039D000FFF748FD00B902E0641C022CF5DB00BFD4
:1039E000022C01D1002517E006A93846FFF75CFC40
:1039F00000F0FF0809A95846FFF7A8FC00F0FF09EE
:103A00000025B9F1000F01D145F00105B8F1000F13
:103A100001D145F0020500BFFF207C490872FF215B
:103A20007A484172C1724FF6FF71C181FF218172E4
:103A3000017401210173BDF80C00FEF7D0FE9DF862
:103A40001400FEF78AFEBDF80400FEF78EFDBDF8F7
:103A50000800FEF736FE5046FEF76BFB9DF810009F
:103A6000FEF74EFD16B10120FFF734FF28460DB0DA
:103A7000BDE8F08FF8B504460D46164616B94FF06E
:103A8000FF30F8BD6148807A10B94FF0FF30F8E799
:103A900020128DF80000E0B28DF801009DF80100C1
:103AA00028445A4949684989884202DD4FF0FF306D
:103AB000E7E7564A1268117E544A526810786B46FE
:103AC0000222FDF78FFB10B14FF0FF30D9E7EAB2C9
:103AD0004E4B1B68597D4D4B5B6818783346FDF79C
:103AE00081FB10B14FF0FF30CBE70020C9E7F8B5FC
:103AF00004460D46164616B94FF0FF30F8BD434850
:103B0000807A10B94FF0FF30F8E720128DF80000EE
:103B1000E0B28DF801009DF8010028443B49496856
:103B20004989884202DD4FF0FF30E7E7374A1268E3
:103B3000117E364A526810786B460222FDF752FB1E
:103B400010B14FF0FF30D9E7EAB2304B1B68597D16
:103B50002E4B5B6818783346FDF7A6FB10B14FF08B
:103B6000FF30CBE70020C9E72DE9F04385B00546DB
:103B70000E4690469946254890F8250020B14FF012
:103B8000FF3005B0BDE8F08316B94FF0FF30F8E71D
:103B9000002423E0281B102801DD102000E0281B52
:103BA00087B2321939462046FFF764FF10B14FF053
:103BB000FF30E6E701AA39462046FFF798FF10B12B
:103BC0004FF0FF30DDE730193A4601A901F0FEFF62
:103BD00010B16FF00100D4E7E01984B2AC42D9DB38
:103BE0004FEA28208DF8000008F0FF008DF8010052
:103BF000064A1268917E054A526810786B46022286
:103C0000FDF7F0FA38B103E0AC8400089000002022
:103C10004FF0FF30B5E701218A4880F82510A0F861
:103C200026900020ADE70146864890F824000870F1
:103C30000020704702464FF0FF30704701464FF0BA
:103C4000FF307047F8B505460F461446002C70D07B
:103C5000B5F5FF5F01DDFF2605E0202D01DA012625
:103C600001E0C5F3471607B90127282C02DD4FF004
:103C7000FF30F8BD7348407D28BB724890F824009F
:103C800038B10020FFF726FE01216E4880F8201091
:103C900003E000216B4880F820106A481630FFF7D7
:103CA00054F868481830FFF770F866481A30FFF784
:103CB00090F864481C30FFF7B1F86248817A817748
:103CC0001F30FFF705F90020FEF776F90020FEF718
:103CD0008BFC00208DF800005A4A12689178594AEE
:103CE000526810786B460122FDF77CFA10B14FF054
:103CF000FF30BEE740208DF80000524A1268D17BA9
:103D0000504A526810786B460122FDF76BFA00B1F9
:103D100065E08DF800608DF801704A4A1268117AEA
:103D2000484A526810786B460222FDF75BFA08B1E8
:103D300055E047E00520FCF7E3FA4248407A0721C6
:103D400001EBC000C0B28DF800003E4A1268D17984
:103D50003C4A526810786B460122FDF743FA00B1E5
:103D60003DE020208DF80000012C03D100208DF8CB
:103D700001000EE0052C03DC01208DF8010008E0B5
:103D8000142C03DC02208DF8010002E003208DF8E2
:103D900001009DF80100072101EB8010C0B28DF8F1
:103DA0000100284A1268917C264A526810786B46B6
:103DB0000222FDF717FA00B111E0012121484175F7
:103DC000002056E71F4A1632002103E0505C00B184
:103DD00005E0491C0C29F9D34FF0FF3049E7FF20DB
:103DE00018490872FF2117484172C1724FF6FF71DE
:103DF000C181FF2181720174012101730146887F15
:103E0000FEF797F90F49C88AFEF7E9FC0D49087ECD
:103E1000FEF7A3FC0B49488BFEF7A7FB0949888BEB
:103E2000FEF74FFC0749C87FFEF76AFB054890F88C
:103E3000200010B10120FFF74DFD00210148417520
:103E4000002016E79000002010B5C8234FF48062D0
:103E5000F74940F6F630FFF787FE10BD10B586B083
:103E60000446F4A000680390F3A000680290F3A059
:103E700000680190F2A00068009004F0030003A91C
:103E8000085C8DF8140003A8C4F3C101405C8DF8F0
:103E9000150003A8C4F38111405C8DF8160004F0EE
:103EA000030002A9085C8DF8100002A8C4F3C10148
:103EB000405C8DF8110002A8C4F38111405C8DF8BC
:103EC000120005AA032140F22640FFF7D3FD18B1E6
:103ED0004FF0FF3006B010BD04AA032140F22A4083
:103EE000FFF7C8FD10B14FF0FF30F3E701980590E0
:103EF0000098049004F0040058B19DF8140040F0BC
:103F000001008DF814009DF8100040F001008DF8BC
:103F1000100004F0200058B19DF8150040F0010099
:103F20008DF815009DF8110040F001008DF811008A
:103F300004F4807058B19DF8160040F001008DF82F
:103F400016009DF8120040F001008DF8120005AA3D
:103F500003214FF48860FFF78DFD10B14FF0FF3063
:103F6000B8E704AA032140F23140FFF783FD10B106
:103F70004FF0FF30AEE7B34804810020AAE71FB539
:103F80000446B048007A00F0030054F82000019085
:103F9000AC48007A00F0040010B101984042019052
:103FA000A848007AC0F3C10054F820000290A54848
:103FB000007A00F0200010B1029840420290A1481F
:103FC000007AC0F3811054F8200003909D480089C6
:103FD00000F4807010B10398404203909A49019810
:103FE00080FB0101800F40EA810001909649029810
:103FF00080FB0110820042EA91700290924903987E
:1040000080FB0110820042EA917003900198000E3B
:104010008DF800000198000C8DF801000198000A4D
:104020008DF802000198C0B28DF803006A460421A1
:104030004FF47470FFF71EFD18B14FF0FF3004B05D
:1040400010BD0298000E8DF800000298000C8DF84B
:1040500001000298000A8DF802000298C0B28DF8A3
:1040600003006A4604214FF47570FFF703FD10B199
:104070004FF0FF30E3E70398000E8DF8000003983F
:10408000000C8DF801000398000A8DF802000398D7
:10409000C0B28DF803006A4604214FF47670FFF732
:1040A000E9FCCCE770B588B0064601A8FEF7E9FE4A
:1040B000BDF804000021C90341EA5045C40361482A
:1040C000007A00F0030056F8200005905D48007A61
:1040D00000F0040010B10598404205905948007A5C
:1040E000C0F3C10056F8200006905648007A00F050
:1040F000200010B10698404206905248007AC0F362
:10410000811056F8200007904E48008900F4807016
:1041100010B10798404207900598C117A0FB0423EF
:1041200001FB043100FB0510810041EA927005900B
:104130000698C117A0FB042301FB043100FB051006
:10414000810041EA927006900798C117A0FB0423F2
:1041500001FB043100FB0510810041EA92700790D9
:104160000598000E8DF808000598000C8DF80900E0
:104170000598000A8DF80A000598C0B28DF80B006A
:104180000698000E8DF80C000698000C8DF80D00B6
:104190000698000A8DF80E000698C0B28DF80F0040
:1041A0000798000E8DF810000798000C8DF811008C
:1041B0000798000A8DF812000798C0B28DF8130016
:1041C00002AA0C214FF42570FFF754FC08B070BD13
:1041D00030B585B004461DA207CA02AB07C3C82C80
:1041E00003DD4FF0FF3005B030BDC82090FBF4F088
:1041F000401E85B2280A8DF80000E8B28DF8010053
:104200006A46022140F21620FFF734FC10B14FF04D
:10421000FF30E8E702AA0C2140F6C120FFF72AFC94
:1042200010B14FF0FF30DEE7064884810020DAE766
:10423000D48400084CCD6C000CC92C003656760096
:10424000264666004805002009E3CA02FEF2ABC418
:10425000AAF1DFDFBBAFDFDF0146FC4880890880C1
:10426000002070472DE9FC4706460F4606F0070080
:1042700010B1B7F5C86F03DD4FF0FF30BDE8FC8724
:10428000384603F08FF98146F14903F041F8804642
:104290006846FEF77AFD9DF80000022806D0042843
:1042A00016D0082826D0102848D135E04FF08D418F
:1042B000404603F0BFF9814603F03CF984B2E5497A
:1042C000404603F0B7F9814603F034F985B238E08F
:1042D0004FF08C41404603F0ADF9814603F02AF9D6
:1042E00084B2DD49404603F0A5F9814603F022F986
:1042F00085B226E04FF08B41404603F09BF98146A2
:1043000003F018F984B2D549404603F093F9814689
:1043100003F010F985B214E04FF08A41404603F0F3
:1043200089F9814603F006F984B2CD49404603F08D
:1043300081F9814603F0FEF885B202E04FF0FF30CC
:104340009CE700BF20128DF80400E0B28DF8050054
:1043500028128DF80600E8B28DF8070006F001007B
:10436000A0B101AA02214FF4EA70FFF783FB10B15C
:104370004FF0FF3082E70DF1060202214FF49270F8
:10438000FFF778FB10B14FF0FF3077E706F002003F
:10439000A0B101AA02214FF4EC70FFF76BFB10B142
:1043A0004FF0FF306AE70DF1060202214FF49470DE
:1043B000FFF760FB10B14FF0FF305FE706F004003D
:1043C000A0B101AA02214FF4EE70FFF753FB10B128
:1043D0004FF0FF3052E70DF1060202214FF49670C4
:1043E000FFF748FB10B14FF0FF3047E7002045E7EB
:1043F00038B504460020009004F0010020B19DF87B
:10440000000040F03000009004F0020020B19DF860
:10441000000040F00C00009004F0040020B19DF872
:10442000000040F0030000906A4601214FF4A470A0
:10443000FFF720FB38BD38B50446012C01DA012412
:1044400002E0042C00DD0424601EC0B200906A4625
:10445000012140F24F10FFF70DFB38BD38B504467F
:10446000052094FBF0F085B228128DF80000E8B228
:104470008DF801006A4602214FF4EF70FFF7FAFA57
:1044800038BD38B50446052094FBF0F085B22812FB
:104490008DF80000E8B28DF801006A4602214FF461
:1044A000ED70FFF7E7FA38BDF8B505460E464FF454
:1044B0007A7095FBF0F000FB06F4200E8DF80000FA
:1044C000200C8DF80100200A8DF80200E0B28DF872
:1044D00003006A4604214FF4AE70FFF7CBFAF8BD33
:1044E00038B50446052094FBF0F084B220128DF814
:1044F0000000E0B28DF801006A4602214FF4AD7071
:10450000FFF7B8FA38BD38B50446052094FBF0F043
:1045100084B220128DF80000E0B28DF801006A46E6
:1045200002214FF4AC70FFF7A5FA38BD38B5044648
:1045300014B94FF0FF3038BD6A4604214FF458706B
:10454000FFF7D5FA10B14FF0FF30F4E79DF8000007
:1045500000069DF8011040EA01409DF8021040EA73
:1045600001209DF80310084320600020E3E738B5E0
:104570000446200E8DF80000200C8DF80100200A62
:104580008DF80200E0B28DF803006A4604214FF472
:104590005870FFF76FFA38BD38B5044614B94FF0BC
:1045A000FF3038BD6A4604214FF47170FFF79FFA5F
:1045B00010B14FF0FF30F4E79DF8000000069DF8C1
:1045C000011040EA01409DF8021040EA01209DF8E8
:1045D0000310084300EB8000800020600020E0E72B
:1045E00038B504461420B4FBF0F4200E8DF800001A
:1045F000200C8DF80100200A8DF80200E0B28DF841
:1046000003006A4604214FF47170FFF733FA38BD96
:1046100038B5044664B120208DF8000028208DF8BC
:10462000010030208DF8020038208DF8030004E0EE
:10463000A3220421684601F0F5FA6A46042140F6F7
:104640009E20FFF717FAFDF77DFE38BD48050020D4
:1046500000004843000040460000C04500004045BF
:104660000000C04438B5044664B1C0208DF8000095
:10467000C2208DF80100C4208DF80200C6208DF8FC
:10468000030004E08B220421684601F0CBFA6A465D
:10469000042140F69820FFF7EDF9FDF753FE38BDF1
:1046A0003EB504466CB1FDA1D1E900208968CDE991
:1046B000002002916A4609214FF49760FFF7DAF96A
:1046C0003EBDF9A2D2E900109268CDE90102009145
:1046D0006A4609214FF49760FFF7CCF9F0E73EB541
:1046E000044602208DF80000CA208DF80100E32066
:1046F0008DF8020009208DF803006A460421682025
:10470000FFF7B8F9A3208DF8000004F0400048B18D
:10471000C0208DF80100C8208DF80200C2208DF85D
:10472000030006E0A3208DF801008DF802008DF84B
:10473000030004F4C07048B1C4208DF80400CC20FC
:104740008DF80500C6208DF8060006E0A3208DF840
:1047500004008DF805008DF80600A3208DF80700F1
:104760008DF808008DF809006A460A2140F6A72056
:10477000FFF780F904F0030018B120208DF8000045
:1047800002E0D8208DF800006A46012140F6B620EC
:10479000FFF770F904F0200018B10120FFF780FF47
:1047A00002E00020FFF77CFF04F4C07008B304F4BB
:1047B000807060B1B2208DF800008B208DF8010070
:1047C000B6208DF802009B208DF803000BE0B0208E
:1047D0008DF8000080208DF80100B4208DF80200D3
:1047E00090208DF803006A46042140F6A220FFF7CE
:1047F00041F904F0010020B3F8208DF800006A466A
:1048000001214FF40B60FFF735F9FA210720FFF77C
:1048100029FD0720FFF7ECFD0120FFF70CFE6420C7
:10482000FFF71CFE4FF4FA70FFF72BFEC821A148DA
:10483000FFF73AFE2820FFF753FE0A20FFF763FE3A
:1048400008E0D8208DF800006A4601214FF40B6083
:10485000FFF710F904F0020018B1D9208DF800001C
:1048600002E0D8208DF800006A46012140F23D7038
:10487000FFF700F904F0040018B10120FFF7F2FE81
:1048800002E00020FFF7EEFE04F0100018B1012056
:10489000FFF7BEFE02E00020FFF7BAFE44F008007A
:1048A00085494881FDF74EFD00208349887304F057
:1048B000400018B10846807B801D887304F4C070E6
:1048C00020B17D48807B801D7B49887304F01400F3
:1048D00020B17948807B10307749887304F0030059
:1048E00020B17548807B001D7349887300203EBD50
:1048F0000146714840890880002070472DE9F04149
:104900000446E07800F0C006E07800F03F056078EB
:1049100000F0010098B1EF102846E91705EB51713E
:10492000C910A5EBC101491C01F0FF0862480068ED
:1049300020B16148414602683846904700BF607820
:1049400000F0080030B15C48406818B1B0115A4A14
:10495000516888470020BDE8F08110B586B0044654
:1049600056A207CA03AB07C357A207CA8DE80700C0
:10497000012C09D0022C0ED103AA0B2140F6822073
:10498000FFF778F806B010BD6A460B2140F682208A
:10499000FFF770F8F6E74FF0FF30F3E72DE9F04F3F
:1049A0008DB00746884615469946DDE9166B00240A
:1049B000002030804049887B5A4605A9FEF7BDFBA0
:1049C00018B1601E0DB0BDE8F08F3B48807A00F052
:1049D0001400002861D09DF8140000069DF8151001
:1049E00040EA01409DF8161040EA01209DF817109A
:1049F000084328609DF8180000069DF8191040EA49
:104A000001409DF81A1040EA01209DF81B10084350
:104A100068609DF81C0000069DF81D1040EA0140EA
:104A20009DF81E1040EA01209DF81F100843A86061
:104A30009DF8200000069DF8211040EA01409DF8F5
:104A4000221040EA01209DF823100843E86004F199
:104A50001000C4B228680014019068680014029025
:104A6000A86800140390E86800140490019840437B
:104A7000029901FB0100039901FB0100049901FB6C
:104A8000010ABAF1706F02DBBAF1885F22DDFDF72F
:104A900059FC00203080401E94E721E0B8AAB38D75
:104AA000B4980D355D000000B8AAAAAAB088C3C5A5
:104AB000C700000009E3CA0248050020D8B1B9F3D5
:104AC0008BA391B609B4D900DAB1B9F38BA391B62F
:104AD000DAB4DA00B6F9000040F48070308000BF2C
:104AE0003448807A00F0400020B305A9601C085CBF
:104AF000095D40EA012000B2A8F8000005A9E01C09
:104B0000095C05AAA01C105C41EA002000B2A8F8CC
:104B1000020005A9601D095C201D105C41EA00200F
:104B200000B2A8F80400A01DC4B2B6F9000040F01D
:104B3000080030801F48408900F4C07008B305A900
:104B4000601C085C095D40EA012000B2388005A9BC
:104B5000E01C095C05AAA01C105C41EA002000B220
:104B6000788005A9601D095C201D105C41EA0020C9
:104B700000B2B880A01DC4B2B6F9000040F07000C9
:104B800030800C48807A00F0030018B105A908199C
:104B9000FFF7B4FE4846FDF734FF002012E7014658
:104BA000044801600020704701460248416000202F
:104BB00070470000480500202DE9F04105460C46ED
:104BC000C2480168204602F03DFE0746C048016821
:104BD000384602F02FFD0646BE480168304602F016
:104BE00029FBBC490860BC484168BC48006802F029
:104BF00029FE0646B8488168304602F023FEB849CF
:104C00000860B548C06880F000404860B248C0689D
:104C100080F000408860B3480068C8600868AC490C
:104C2000096802F007FD0646AB480168304602F00D
:104C300001FBA9490860AA494868A549096802F02A
:104C4000F9FC0646A4484168304602F0F3FAA2494E
:104C50004860A34988689E49096802F0EBFC064653
:104C60009D488168304602F0E5FA9B4988609C497E
:104C7000C8689749096802F0DDFC06469648C16895
:104C8000304602F0D7FA9449C86092480168284635
:104C900002F0D8FD944908609448007802F082FC44
:104CA00006468D480168304602F0C4FC9049086011
:104CB0008E48007802F076FC0646874881683046C8
:104CC00002F0B8FC8B4908608848007802F06AFC62
:104CD000074687480168384602F0ACFC064686481D
:104CE0000168304602F0A6FA844908600846016867
:104CF0007F48006802F00CFB814908607F4801682A
:104D00007C48006802F004FB7E490860784800682F
:104D10007D4908607548007802F044FC06466E48FC
:104D20004168304602F086FC7849086076480168A0
:104D30007348006802F07EFC06466748016830460A
:104D400002F075FD64490860704801686C480068AD
:104D500002F070FC064660484168304602F067FD8C
:104D60005D494860684801686648006802F062FC76
:104D7000064659488168304602F059FD5649886018
:104D8000624801685F48006802F054FC06465248D9
:104D9000C168304602F04BFD4F49C8605248016877
:104DA0005748006802F046FC06464A48016830460B
:104DB00002F040FA474908604B48016851480068D2
:104DC00002F038FC064641480168304602F032FAEB
:104DD0003E49086008460168204602F033FD4C4910
:104DE0000860BDE8F0812DE9F04F8BB083468A461C
:104DF000504602F0F3F98046464A474B01F014FF53
:104E0000CDE902013348006802F0E8F9CDE900017C
:104E1000DDE9022301F072FC04460D463F480168BB
:104E20004FF07E5002F00EFD804602F0D7F90646A4
:104E300022462B4601F0F8FECDE90601374801680D
:104E4000584602F0F7FB044602F0C8F9CDE9040128
:104E5000DDE9062301F052FCCDE9080101F01CFC5C
:104E60001C4908600BB0BDE8F08F2DE9F041044605
:104E70000D46E561E168206802F0DCF9064631463E
:104E8000206802F045FA20616168E06902F0DAFC0E
:104E90000746216902F0CEFB0646616802F0CAF9B6
:104EA00060614FF07E50216902F0CCFC064621681B
:104EB00002F0C0FBA06160696060A168A06902F0B7
:104EC000B9F920606069BDE8F0810000DC000020D5
:104ED000D4000020C000002000010020C8000020F5
:104EE00058050020CC000020E0000020D800002061
:104EF000E4000020E8000020D0000020EC000020AA
:104F0000F0000020F4000020F8000020FC00002049
:104F1000C40000207B14AE47E17A743FBC0000203F
:104F2000014691F90020002A01DD00201EE091F9E0
:104F30000020002A01DA042018E091F90120002A5B
:104F400001DD012012E091F90120002A01DA05209B
:104F50000CE091F90220002A01DD022006E091F91F
:104F60000220002A01DA062000E00720704770B511
:104F700005462846FFF7D4FF0446E81CFFF7D0FF9C
:104F800044EAC00084B2A81DFFF7CAFF44EA8010BB
:104F900084B2204670BD70B588B002A905A8FEF79E
:104FA000DEFC0446072C3FD101A8FDF74DFF059814
:104FB00002F0E0FA0646019902F03CFB054602F0D9
:104FC0009DFA0590069802F0D5FA0646019902F07E
:104FD00031FB054602F092FA0690079802F0CAFAF1
:104FE0000646019902F026FB054602F087FA079073
:104FF00005A8FEF7C4FF6846FDF743FFBDF80010A3
:10500000029848430290BDF800100398484303906B
:10501000BDF8001004984843049002A8FFF742F836
:10502000FEA000F059FD00BF08B070BD2DE9F043AF
:1050300004460D46DDE907670021012041E0DFF865
:1050400000C43CF81080A0F1010CDFF8F49329F8BB
:105050001C8009F1160C3CF81090A0F1010CDFF84F
:10506000E08308F1160828F81C9008F1160C3CF8AB
:105070001090A0F1010C08F1160828F81C9008F116
:10508000160C3CF81090A0F1010C08F1160828F855
:105090001C9008F1160C3CF81090A0F1010C08F1DE
:1050A000160828F81C9008F1160C3CF81090A0F196
:1050B000010C08F1160828F81C9000F1010C0CF006
:1050C000FF000A28BBDBDFF878C3ACF81240ACF86D
:1050D0002850ACF83E20ACF85430ACF86A60ACF81C
:1050E00080700021002008E0DFF854C33CF910C0B4
:1050F000614400F1010C0CF0FF000A28F4DB4FF0D2
:105100000A0C91FBFCFC0FFA8CFCDFF83483A8F846
:1051100014C0002100200AE0DFF824C30CF1160CB3
:105120003CF910C0614400F1010C0CF0FF000A28AA
:10513000F2DB4FF00A0C91FBFCFC0FFA8CF8DFF865
:1051400000C3ACF82A80002100200AE0DFF8F0C29A
:105150000CF12C0C3CF910C0614400F1010C0CF076
:10516000FF000A28F2DB4FF00A0C91FBFCFC0FFA5F
:105170008CF8DFF8CCC2ACF84080002100200AE0B7
:10518000DFF8BCC20CF1420C3CF910C0614400F1E4
:10519000010C0CF0FF000A28F2DB4FF00A0C91FB27
:1051A000FCFC0FFA8CF8DFF898C2ACF856800021AE
:1051B00000200AE0DFF888C20CF1580C3CF910C05E
:1051C000614400F1010C0CF0FF000A28F2DB4FF003
:1051D0000A0C91FBFCFC0FFA8CF8DFF864C2ACF807
:1051E0006C80002100200AE0DFF854C20CF16E0C44
:1051F0003CF910C0614400F1010C0CF0FF000A28DA
:10520000F2DB4FF00A0C91FBFCFC0FFA8CF8DFF894
:1052100030C2ACF88280BDE8F08338B50446032381
:1052200002226B21D0200094FCF70EF938BD38B56E
:105230000446022304221B21D0200094FCF704F929
:1052400038BD38B50446022304221C21D020009426
:10525000FCF7FAF838BD10B50446234606226B2148
:10526000D020FCF726F910BD10B5764B0122752130
:10527000D020FCF777F87348007810BD10B5FFF721
:10528000F3FF682801D1012010BD0020FCE710B514
:105290000446234605226A21D020FCF70AF910BDF6
:1052A00010B50446234601223721D020FCF701F92E
:1052B00010BD10B50220FFF7B0FF0320FFF7B7FFC6
:1052C0000020FFF7BEFF0020FFF7C5FF0020FFF71B
:1052D000DEFF0020FFF7E4FF10BD38B5002000908E
:1052E0006B46012275216820FBF7DEFF56A000F017
:1052F000F3FB9DF8000068280ED000BF5B480068F3
:1053000000F4E0605A490843001D58490860BFF3A3
:10531000408F00BF00BFFEE7FDF7A3FA00283CD195
:105320007820FCF706FF10B947A000F0D5FB7820E5
:10533000FDF7E6F810B94FA000F0CEFBC820FDF74E
:10534000C0F910B955A000F0C7FBFEF77DFD10B9FC
:105350005CA000F0C1FB6848FFF709FE0446FEF7B9
:105360007DFD10B965A000F0B7FB40F27310FFF7A8
:10537000B6F910B96BA000F0AFFBC820FEF728FF0C
:1053800010B972A000F0A8FBFFF705FE0120FEF7A0
:10539000A1FA10B976A000F09FFB38BD2DE9F04FBF
:1053A0008DB00AA87B490BAB06AACDE900107A495B
:1053B0007A48FFF7F3FA7748008800F480700028F5
:1053C0002AD0069802F0D6F804464FF09D4101F02D
:1053D0009FFF73490860079802F0CCF804464FF02D
:1053E0009D4101F095FF6F490860089802F0C2F8EE
:1053F00004464FF09D4101F08BFF6B49086009980E
:1054000002F0B8F804464FF09D4101F081FF674972
:10541000086063480168CBE04EE100007365747476
:10542000696E672062696173207375636365736673
:10543000756C6C79202E2E2E2E2E2E0D0A0000005B
:1054400076050020680500206D70755F7365745FD8
:1054500073656E736F7220636F6D706C6574652019
:105460002E2E2E2E2E2E0D0A000000000CED00E038
:105470000000FA056D70755F636F6E66696775721F
:10548000655F6669666F20636F6D706C657465201B
:105490002E2E2E2E2E2E0D0A000000006D70755F30
:1054A0007365745F73616D706C655F7261746520A4
:1054B000636F6D706C657465202E2E2E2E2E2E0D52
:1054C0000A000000646D705F6C6F61645F6D6F74E3
:1054D000696F6E5F6472697665725F6669726D7717
:1054E00061726520636F6D706C657465202E2E2E61
:1054F0002E2E2E0D0A00000038010020646D705F12
:105500007365745F6F7269656E746174696F6E2024
:10551000636F6D706C657465202E2E2E2E2E2E0DF1
:105520000A000000646D705F656E61626C655F66A5
:1055300065617475726520636F6D706C657465204C
:105540002E2E2E2E2E2E0D0A00000000646D705F90
:105550007365745F6669666F5F7261746520636FFF
:105560006D706C657465202E2E2E2E2E2E0D0A0069
:105570006D70755F7365745F646D705F7374617473
:105580006520636F6D706C657465202E2E2E2E2E37
:105590002E0D0A001C010020160100201001002021
:1055A000280100202C0100203001002034010020BF
:1055B0004FF0804002F03EF804905C480168049887
:1055C00002F038F882465A4801684FF0404002F035
:1055D00031F8049057480168049802F02BF883468C
:1055E000514601F027FE059001F0F8FD804600F0DD
:1055F0001DFD06464FF066324F4B01F015FB044689
:1056000001F04AF84D490860484801684FF0804071
:1056100002F010F8019045480168019802F00AF87C
:105620008246434801684FF0404002F003F8019081
:105630003F480168019801F0FDFF8346514602F0A2
:1056400001F981464FF07E5101F0F4FD044601F06E
:10565000C5FDCDE904013A4801684FF0804001F0F2
:10566000E9FF834632480168584601F0E3FF81466E
:105670002E4801684FF0804001F0DCFF83462D4842
:105680000168584601F0D6FF8246494601F0D2FD36
:10569000044601F0A3FDCDE90201DDE9042300F099
:1056A00015FF07464FF06632234B01F0BDFA054661
:1056B00000F0F2FF234908600DB0BDE8F08F2DE93E
:1056C000F05F4221D020FBF72AFE05464121D02081
:1056D000FBF725FE05EB0024204601F04BFF824638
:1056E0004FF08E41504602F071F805D24FF08F41D5
:1056F000504602F0A7F882461349504601F008FED2
:10570000834601F06BFD8046104A114B00F0F6FF16
:10571000064600220F4B01F087FA044600F0BCFF5A
:105720008246504601F0EAFEBDE8F09F30010020BD
:105730002C0100203401002066A64C4020010020EE
:1057400028010020240100200000AA43A4703D0A83
:10575000D74342400000244038B5FBF7CDF8A8A25B
:1057600000210846FBF7CFF90C2001230090A64842
:10577000027800211E20FBF77CF9A348007801285D
:1057800005D1A2A200212D20FBF7BDF912E09E4811
:105790000078022805D19EA200212D20FBF7B3F945
:1057A00008E099480078032804D19BA200212D200D
:1057B000FBF7A9F99AA20A210020FBF7A4F99A485D
:1057C00000680A2190FBF1F40C200223224600908D
:1057D0002D20FBF74EF9944800680A2190FBF1F266
:1057E00001FB12040C200123224600904420FBF709
:1057F00040F98EA20A213A20FBF785F98CA20A21F2
:105800005020FBF780F98BA214210020FBF77BF9D5
:105810008A48006800280FDA89A214212D20FBF79E
:1058200072F90C200523009084480068424214213C
:105830004120FBF71EF90DE082A214212D20FBF779
:1058400062F90C20052300907C4814210268412055
:10585000FBF70FF97CA21E210020FBF754F97C48CE
:10586000006800280FDA76A21E212D20FBF74BF9E5
:105870000C20052300907648006842421E214120FA
:10588000FBF7F7F80DE06FA21E212D20FBF73BF987
:105890000C20052300906E481E2102684120FBF772
:1058A000E8F86CA228210020FBF72DF95FA228213F
:1058B0003A20FBF728F969A228215020FBF723F9A9
:1058C00067480068642190FBF1F40C200223224613
:1058D000282100902D20FBF7CCF861480068642156
:1058E00090FBF1F201FB12040C2002232246282136
:1058F00000904420FBF7BDF859480068642190FBF4
:10590000F1F201FB12000A2807DA0C200223002220
:10591000282100903E20FBF7ACF852A23221002053
:10592000FBF7F1F800215148006801F04FFE11D259
:105930004F494E48006801F07DFC054601F0FAFD34
:1059400004460C2003232246322100902D20FBF731
:1059500090F80CE04548006801F0ECFD04460C208E
:1059600003232246322100902D20FBF782F8FAF71C
:10597000A0FF38BD2DE9F84F39480068A0F2564025
:105980004000032190FBF1FABAF1000F01DA4FF069
:10599000000ABAF1640F01DD4FF0640A2C48006878
:1059A00001F0EFF80746334A334B01F03DF9054665
:1059B00001F0B8F88146B9F1000F01DAC9F1000928
:1059C0001E48006801F0DDF805462A4A2A4B01F01E
:1059D0002BF9074601F0A6F80446002C00DA6442D1
:1059E0002248006801F08AFD05460AF0FF0309F02D
:1059F000FF02E1B2009021A000F06EF8BDE8F88F40
:105A00005741592D0000000000000020444D500077
:105A10004B616C6D616E000048756275000000009E
:105A200057656E6475000000180000202E0000000D
:105A300060430000456E636F3100000008000020E5
:105A40002D0000002B000000456E636F3200000047
:105A50000C000020566F6C746100000056000000BE
:105A60001C000020416E676C6500000020000020D3
:105A70000000B4439A9999999999F13F5A25643A4B
:105A800025643A25643A25644C240000704710B51B
:105A90004C1084EA530404D54042C1F1000138BFE0
:105AA000491E1B4204D55242C3F1000338BF5B1E9E
:105AB00000F0C4F814F0804F04D04042C1F100015E
:105AC00038BF491E14F0004F04D05242C3F1000306
:105AD00038BF5B1E10BD00000FB4044910B503AA07
