:020000040800F2
:10000000700600208D01000891010008930100088E
:100010009501000897010008990100080000000000
:100020000000000000000000000000009B0100082C
:100030009D010008000000009F010008A1010008C8
:10004000A3010008A3010008A3010008A301000800
:10005000A3010008A3010008A3010008A3010008F0
:10006000A3010008A3010008A3010008A3010008E0
:10007000A3010008A3010008A3010008A3010008D0
:10008000A3010008A3010008A3010008A3010008C0
:10009000A3010008A3010008A3010008A3010008B0
:1000A000A3010008A3010008A3010008A3010008A0
:1000B000A3010008A3010008A3010008A301000890
:1000C000A3010008A3010008A3010008A301000880
:1000D000A3010008A3010008A3010008A301000870
:1000E000A3010008A3010008A301000800F002F822
:1000F00000F03AF80AA090E8000C82448344AAF188
:100100000107DA4501D100F02FF8AFF2090EBAE885
:100110000F0013F0010F18BFFB1A43F0010318473B
:10012000FC1F00001C200000103A24BF78C878C1D2
:10013000FAD8520724BF30C830C144BF04680C60ED
:10014000704700000023002400250026103A28BF35
:1001500078C1FBD8520728BF30C148BF0B60704739
:100160001FB51FBD10B510BD00F0D3FF1146FFF73E
:10017000F7FF00F025F800F0F1FF03B4FFF7F2FFFE
:1001800003BC00F013FA000030BF0000084800472D
:10019000FEE7FEE7FEE7FEE7FEE7FEE7FEE7FEE737
:1001A000FEE7FEE703480449024A044B704700009B
:1001B000ED0000087004002070060020700400208C
:1001C00086B0092000F097F94FF41651482000F04E
:1001D000FCF9482000F024F800F05AFAC82000F09A
:1001E0003BF800F0E6FB00200623032202210090EA
:1001F000012000F0A9FC0020084908600CE006205E
:10020000019002900390049003460246014600903C
:100210004FF4007000F04DFFF1E70000A001214213
:100220004FF0E021096921F004014FF0E022116153
:10023000C21700EB5272C2F3C702234B1A70194661
:10024000097801EB4102C2EBC1114FF6FF7202EADD
:10025000C1011E4A1180704701461C4A12884A4358
:100260004FF0E0235A6100229A6101221A6100BF17
:100270004FF0E022106900F001021AB100F4803260
:10028000002AF5D000224FF0E0231A619A617047EE
:1002900001460D4A12784A434FF0E0235A6100228A
:1002A0009A6101221A6100BF4FF0E022106900F04C
:1002B00001021AB100F48032002AF5D000224FF07A
:1002C000E0231A619A6170470A0000200C000020A8
:1002D000AA4A0A400243AA4B1A6070470146072304
:1002E00023EA01021202A64B1B1D18684FF6FF03FA
:1002F0001840A44B18431043A14B1B1D18607047B6
:100300002DE9F0478046894614461D462046E117F0
:1003100004EB9171C1F3870AE11704EB9171891025
:10032000A4EB8101CFB2042000EBC700C7B228467E
:10033000FFF7D4FFC5F1040008FA00F60F202841AA
:1003400000EA0900064306F00F06202C09DA8E4861
:1003500001680120A04001434FF0E020C0F80011E7
:100360000BE08948001D0068A4F1200101228A40A9
:1003700010434FF0E021C1F80401844850F82A00EE
:1003800006FA07F10843814941F82A00BDE8F087E1
:1003900070B504460B46CE1701EB9676C6F3870080
:1003A000CE1701EB9676B610A1EB8606B606350E93
:1003B000774B9B6943F00103754EB3614FEAB63347
:1003C00053F820300F26AE40B343724E46F820302B
:1003D000334653F8203004FA05F61E436D4B43F8BC
:1003E00020606D4B1B6801268E4033436A4E33609C
:1003F00002F0010343B1684B0C331B6801268E40A9
:100400003343654E0C36336002F0020343B1624B56
:1004100008331E6801238B401E435F4B08331E6068
:1004200070BD00B500205A490861C86014204861B9
:1004300000208861C8610846006840F0010008603B
:1004400008464068554908405149486008460068D8
:10045000534908404E4908600846006820F480204F
:1004600008600846406820F4FE004860002088606C
:1004700000214FF00060FFF72BFF00BD10B5404892
:100480000830006840F004003D49083108604048E9
:10049000C06940F080503E49C8614248406840F41D
:1004A0008070404948600846006840F004000860D9
:1004B0000846006840F002000860FFF765FE10BDC6
:1004C0003048001D2E49091D086070470146490645
:1004D0002F4A926942F001022D4B9A612D4A083A47
:1004E000526822F0E0622B4B083B5A601A46526871
:1004F0000A435A60704730B504460025FFF791FF64
:100500002348006840F480302149086000BF20483B
:100510000068400C0028FAD04FF480601C49486005
:10052000A01EC4B20846406840EA844048600846BD
:10053000406840F4803048601B48006840F032005A
:10054000194908601248006840F08070104908603E
:1005500000BF0F480068400E0028FAD00C484068E1
:1005600040F002000A49486005E009484068C0F3CD
:10057000870505F00305022DF7D130BD80FFFF1F71
:1005800008ED00E00000FA0500E100E000E400E012
:100590000010024008000140000401400000FFF884
:1005A000FFFFF6FE0070004000200240014600BF41
:1005B000704700BF324A128802F04002002AF9D088
:1005C000C2B22F4B1B1D1A8070472DE9F05F054604
:1005D0000E46300100F010FF81462A4905FB01F06C
:1005E00000F00AFF8246494600F024FE07463846DE
:1005F00000F0E2FE84B2204600F0FEFE834639465B
:1006000000F0DAFF82464FF0834100F009FF814697
:1006100000F0D2FE80464FF6FF7000EA041404EBAF
:10062000080084B21848806940F0040016498861C7
:100630000846806940F4804088611448006820F4CE
:100640007F60124908600846006840F40B6008604B
:100650000D48C06840F480400B49C8600846C06837
:1006600020F48040C860064808300480001D0088DF
:1006700042F20C01084302490C310880BDE8F09FAA
:100680000038014040420F000010024004080140C1
:100690000C48806940F004000A4988610A480068F3
:1006A00020F00F00084908600846006840F0030089
:1006B000086005480830006840F48070024908313D
:1006C00008607047001002400408014010B50A4657
:1006D0001AB10123FE4C236002E00023FC4C23608E
:1006E000002114E00023FB4C236000F080031BB1C9
:1006F0000123241D236003E00023F64C241D236006
:100700000123F44C23604306180E4B1CD9B2082970
:10071000E8DB0123EE4C236010BD30B500241CE063
:1007200004F1B001C8B20021FFF7D0FF0021084654
:10073000FFF7CCFF00211020FFF7C8FF002508E0DD
:10074000E54901EBC501085D0121FFF7BFFF681C0A
:10075000C5B2802DF4DB601CC4B2082CE0DB30BDD8
:1007600000B500218D20FFF7B1FF00211420FFF715
:10077000ADFF0021AF20FFF7A9FF00BD00B50021AC
:100780008D20FFF7A3FF00211020FFF79FFF00211E
:10079000AE20FFF79BFF00BD30B500240CE0002524
:1007A00006E00020CC4901EBC5010855681CC5B224
:1007B000802DF6DB601CC4B2082CF0DBFFF7ADFF28
:1007C00030BDF0B5144600267F2801DC3F2900DD4E
:1007D000F0BD0B46CF1701EB5777FF10C7F10707A6
:1007E000FAB2CF1701EB5777FF10A1EBC707FDB2A5
:1007F000C5F107070123BB40DEB24CB1B64B03EB9A
:10080000C0039B5C3343B44F07EBC007BB5408E005
:10081000B14B03EBC0039B5CB343AF4F07EBC00787
:10082000BB5400BFD4E72DE9F04F80460C46154677
:100830001E46A346A5F12000C5B200273EE00C2EBF
:1008400007D105EB4500A54901EB800010F80790A2
:1008500004E0A34800EB051010F807904FF0000AE1
:1008600026E009F0800028B121464046099AFFF7AA
:10087000A8FF09E0099808B9012000E0002002461D
:1008800021464046FFF79DFF4FEA49604FEA106955
:10089000601CC4B2A4EB0B00B04205D15C4608F169
:1008A000010000F0FF0806E00AF1010000F0FF0A75
:1008B000BAF1080FD5DB00BF781CC7B2B742BEDB68
:1008C000BDE8F08F10B50246012000E050430B0058
:1008D000A1F10104E1B2F9D110BD2DE9FF4F81B0C2
:1008E000074691461E460E9D4FF0000A002439E04F
:1008F000301B401EC1B20A20FFF7E4FFB9FBF0F045
:100900000A21B0FBF1F201FB1208BAF1000F16D177
:10091000701EA04213DDB8F1000F0ED10120AB46CE
:1009200005EBDB71491001FB04710090C8B22B4646
:1009300020220299FFF777FF12E04FF0010A012011
:10094000AB4605EBDB71491001FB04710090C8B2A6
:1009500008F13001CAB22B460299FFF764FF00BFCD
:10096000601CC4B2B442C3DB05B0BDE8F08F78B5FB
:1009700005460E46144618E07A2D03DD002506F1E3
:100980001000C6B23A2E04DD002005460646FFF7E9
:1009900003FF0120009022780C2331462846FFF700
:1009A00042FF05F10800C5B2641C20780028E3D19D
:1009B00078BD10B54B48806940F00800494988610E
:1009C0004948006820F47F004749086008460068ED
:1009D00040F4081008604348806940F01000414925
:1009E00088610846806940F0010088613F4840689E
:1009F00020F07F403D4948600846406840F008507C
:100A000048603B48006840F48070394908603548C8
:100A1000006A20F00100334908623648008820F05F
:100A20000100344908803248006820F48070304961
:100A3000086000202649091D08606420FFF70CFCAF
:100A400001202D49C1F8BC010021AE20FFF73EFE78
:100A50000021D520FFF73AFE00215020FFF736FE97
:100A60000021A820FFF732FE00213F20FFF72EFED5
:100A70000021D320FFF72AFE00210846FFF726FEBB
:100A800000214020FFF722FE00218D20FFF71EFEEF
:100A900000211420FFF71AFE00212020FFF716FE88
:100AA00000210220FFF712FE0021A120FFF70EFE19
:100AB0000021C020FFF70AFE0021DA20FFF706FE22
:100AC00000211220FFF702FE0021812016E0000025
:100AD000B8012242B081214210000020B616000861
:100AE0002A1B000800100240040C014000100140C5
:100AF00000700040306C004000002242FFF7E6FD2D
:100B00000021EF20FFF7E2FD0021D920FFF7DEFDF5
:100B10000021F120FFF7DAFD0021DB20FFF7D6FDF1
:100B200000213020FFF7D2FD0021A420FFF7CEFDE9
:100B30000021A620FFF7CAFD0021AF20FFF7C6FD68
:100B4000FFF72AFE10BD0000F0B50446059E002503
:100B500014B109B102B10BB90120F0BD601EC4B2DD
:100B6000481EC1B2501EC2B2581E83B2FE488069F0
:100B700040F00400FC4FB861FC48006820F47F207E
:100B8000FA4F38603846006840F438203860F7483B
:100B90000830006840F4C050F44F08373860F2481D
:100BA000C06940F00070F04FF8610020F04F3860ED
:100BB0003846006840F00100386005E0681C85B2E6
:100BC000642D01DD0220C8E7E948001D006800F03F
:100BD00001000028F2D0E6480068E54F386038464A
:100BE000006838603846006838603846006840F071
:100BF0001000386038460068386038460068386051
:100C00000020DB4F1C3738603846006840EA8670A9
:100C100038603846006840EA04603860384600684A
:100C200040EA015038603846006840EA02403860C7
:100C30003846006818433860CD48006820F001004D
:100C4000CB4F386007E0681C85B24FF6F0708542E4
:100C500001DD032081E7C648001D006800F00100A7
:100C60000028F0D1C348006840F00100C14F38604F
:100C7000C0481C30006820F00100BE4F1C373860AF
:100C8000BC480C30006840F00100BA4F0C373860A7
:100C9000B848001D0068B74F3F1D3860B548143094
:100CA0000068B44F143738600020B24F40373860C6
:100CB0000027B04844300760AE481C30006840F060
:100CC0000100AC4F1C373860AA4800680020A94FCB
:100CD000386000BF41E7F0B505460E46059CA448C4
:100CE0000830006800F0806008B1002111E0A048E1
:100CF0000830006800F0006008B1012109E09C485C
:100D00000830006800F0805008B1022101E0FF20A7
:100D1000F0BD00279748803800EB011007601EB92E
:100D2000C5F30A056D0502E025F06045ED00914828
:100D3000803800EB0110006828438E4F803F07EB9E
:100D4000011738608B48803800EB0110006840EADA
:100D500086078848803800EB011007608548803896
:100D600000EB0110006840EA42078248803800EB3F
:100D70000110076003F00F037E48803800EB01107C
:100D8000406820F00F077B48803800EB0110476077
:100D90007848803800EB011040681843754F803F59
:100DA00007EB01177860E0790006A77940EA074071
:100DB000677940EA0727207907436E48803800EBBF
:100DC0000110C760E0780006A77840EA074067781E
:100DD00040EA072027783843664F803F07EB01172A
:100DE000B8606448803800EB0110006840F00107EB
:100DF0006048803800EB01100760084688E701462C
:100E0000002021B1012916D002293CD127E0584AFF
:100E10000832126802F001021043554A0832126883
:100E200002F002021043524A0832126802F0806255
:100E300040EA126029E04E4A0832126802F00102CC
:100E400010434B4A0832126802F002021043484A2B
:100E50000832126802F0006240EA526015E0444A2B
:100E60000832126802F001021043414A0832126847
:100E700002F0020210433E4A0832126802F0805229
:100E800040EA926001E0052000BF00BF70470146C4
:100E900029B937480C30006800F003007047012979
:100EA00005D133481030006800F00300F6E7002059
:100EB000F4E7F0B5DDE905542E4E503E06EB001682
:100EC000366806F00406167016783EB9294E503E74
:100ED00006EB00163668760D0E6006E0254E503E95
:100EE00006EB00163668F6080E60224E503E06EB02
:100EF0000016366806F002061E701E4E503E06EBC7
:100F00000016766806F00F062E701A4E503E06EB5D
:100F10000016B6682670174E503E06EB0016B668EF
:100F2000360A6670134E503E06EB0016B668360C55
:100F3000A670104E503E06EB0016B668360EE670F0
:100F40000C4E503E06EB0016F6682671094E503ED8
:100F500006EB0016F668360A6671064E503E06EB42
:100F60000016F668360C07E0001002400408014045
:100F70000064004000660040A6715F4E06EB00165C
:100F8000F668360EE67130B95C4E366846F02006DB
:100F90005A4F3E6009E0012807D1584E361D366889
:100FA00046F02006554F3F1D3E60F0BDF8B50546A2
:100FB0000E46002433460022114640F2016000959F
:100FC000FFF789FE074601E0601C84B23846FFF750
:100FD00016FF072803D040F6FF708442F4DB40F68A
:100FE000FF70844201DB0120F8BD0020FCE710B552
:100FF00086B004460020FFF74AFF10B9002006B073
:1010000010BD02A803AB04AA05A9CDE90004002085
:10101000FFF74FFF0598122805D19DF8100010B971
:101020009DF80C0008B1002002909DF80800E6E74A
:10103000F8B505460E46002433460022114640F21C
:1010400001700095FFF747FE074601E0601C84B27F
:101050003846FFF7D4FE072803D040F6FF708442DD
:10106000F4DB40F6FF70844201DB0120F8BD002074
:10107000FCE7F8B506460D46002408230022114679
:1010800030460095FFF727FE074601E0601C84B25A
:101090003846FFF7B4FE072803D040F6FF708442BD
:1010A000F4DB40F6FF70844201DB0120F8BD002034
:1010B000FCE72DE9FF4F0C4615461E460DAF97E89D
:1010C000800F0F490C704D708E70CF7081F80480C6
:1010D00081F8059081F806A081F807B000BF0849A3
:1010E0000098FFF7C6FF07490870084600780028F7
:1010F000F5D0BDE8FF8F0000B06500400C640040F3
:1011000001000020000000207047704770477047C2
:101110007047754600F028F8AE460500694653460C
:1011200020F00700854618B020B5FFF73BF8BDE872
:1011300020404FF000064FF000074FF000084FF03E
:10114000000B21F00701AC46ACE8C009ACE8C009CF
:10115000ACE8C009ACE8C0098D4670470446AFF35F
:1011600000802046FFF709F800487047100400206F
:1011700090EA010F48BF81F0004100F12E82421A2F
:101180003CBF801A89184FEAD0524FF07F4C1CEABE
:10119000410FA2EBD15318BF9CEA026F00F03B80D5
:1011A0004FF0004C4CEA00204CEA012121FA03FCEC
:1011B00010EB0C0C1ED202F1FF325FEA1C2040EB58
:1011C000C25038BF70471CF07F0F4FEA400C18BF69
:1011D000BCF17F4F38BF7047C3F12003994008BF6F
:1011E00020F00100BCF17F4F38BF7047A0F1C04034
:1011F00000F0DDB94FEA3C00000A40EBC25028BFC6
:101200001CF0FF0F4FEA400CE6D018BFBCF17F4F37
:1012100038BF7047EAE79CEA026F05D010EA5C0F1E
:1012200008BF00F00040704710B500F07AF900BF29
:1012300064FBBE3E4FF47F0C1CEAD0121EBF1CEABA
:10124000D11392EA0C0F93EA0C0F00F0858090EA1C
:10125000010F48BF42F4807240F4000C41F40000DA
:101260002CF07F4120F07F4000B58142A2EB0302C9
:101270000FF2081CACEB504EC0F100009EF800E0ED
:101280004FEA4E0E00FB0EFC38BF49004FEA2C1C03
:1012900002F5FA020CFB0EF34FEACE1E4FEA112CB8
:1012A0004FEAC1210EEB635E42EB22420EFB0CFCC7
:1012B0004FEA1C5300FB03114FEA112C4FEA013196
:1012C0000EFB0CFC4FEADC4C00FB0C11C14228BFAA
:1012D00009184CEB03335DF804EB10EB410143EBD1
:1012E000C250B2F57C0F38BF704729D512F0F00F0D
:1012F0001CBF00F1C04000F00040704700818283B5
:101300008485868788898B8C8D8E8F919293959614
:1013100097999A9C9D9FA0A2A3A5A7A8AAACAEB09E
:10132000B2B3B5B7B9BCBEC0C2C5C7C9CCCED1D4A3
:10133000D7D9DCDFE2E6E9ECF0F3F7FAFE000000D3
:101340004FEA400C0CF1807CBCF17E4F28BF704707
:10135000B0F1C04000F02BB990EA010F0CEAD113B4
:1013600048BF42F48072624538BF634507D213F428
:101370007F0F16D080EA010000F00040704710B5E2
:1013800000F0CFF8097EFC3E00F005B880EA0100CD
:1013900000F00040704780EA010000F0004000F0DB
:1013A00006B912F47F0F04BF0248704780EA0100BB
:1013B00000F0FDB80000C07FC10DD1F19E0206DB38
:1013C0004FEA002343F0004323FA02F07047004243
:1013D00007D54FEA4001B1F1FE4F02D24FF00000B5
:1013E000704710B500F09DF84992248000207047A6
:1013F0006FEA200070470000B0FA80F310FA03F2A1
:10140000C3F19D030AD0D90501EB1220530638BF62
:10141000704700F1010008BF20F001007047000094
:101420004FF47F0C1CEAD0121EBF1CEAD11392EAC3
:101430000C0F93EA0C0F00F0478090EA010F48BFB1
:1014400042F480724FF0004C4CEA00204CEA01213B
:1014500002EB0302A0FB0113A2F50002002918BF52
:1014600043F001035B0028BF4FEA330342EB224203
:101470005FEA132C4CEBC2502EBFBCEB436FB2F5AE
:101480007C0F70474FEA036CBCF1004F08BF20F09F
:101490000100B2F57C0F38BF70470BD582F0FF0218
:1014A00012F5803FC8BF704700F1C040D8BF00F0C0
:1014B0000040704700F5000C5FEA4C0C48BF7047D5
:1014C000B0F1C04000F073B890EA010F0CEAD113FC
:1014D00048BF42F48072624538BF634504D280EA57
:1014E000010000F00040704710B500F01AF800BF8E
:1014F0008900013E00F007B800F009B85FEA410C2E
:101500005FEA1C6C08D080EA010000F050B85FEA86
:10151000400C5FEA1C6CF6D14FF00040A0F5800053
:1015200070470EF1020E2EF0030E5EF8044B2442BB
:1015300004D44FEA4102B2F17F4F11D84FEA400381
:10154000B3F17F4F0CD80ED14FEAD07CB2F17F4F70
:101550000CEB4C0C0CF1020C08BF4CEBD17C04E002
:101560004FF0080C01E04FEAD17C0CEB4C0324FA5D
:1015700003F404F00704B4F1040C06D20EEB840C5F
:10158000BDE810404CF0010C6047DFE80CF00708A4
:1015900002024FF00040A0F5800010BD0846420056
:1015A00018BFD2F1807288BF00F0004010BDFF214B
:1015B00041EAD050C005704780F0004090EA010F2A
:1015C0007FF5DDAD81F0004100F007B890EA010F32
:1015D00048BF81F000413FF5D2AD421A04D882F0F5
:1015E0000042A0EB020011444FEAD0524FF07F4C72
:1015F0001CEA410FA2EBD15318BF9CEA026F4AD0FC
:101600004FF0004C4CEA00204CEA012121FA03FC87
:10161000B0EB0C0C0FD412F0FE0F36D05FEA4C008A
:101620001DD5001240EBC25038BF70471CF03F0F71
:1016300018BF70470BE0A2F101025FEA1C2040EBEB
:10164000C25038BF70471CF07F0F18BF7047C3F1FE
:101650002003994014BF401E20F00100704780080D
:101660004FEA122308BF7047B0FA80FCA2EB0C02CD
:10167000CCF1280C60FA0CF093EA122F04BF00EBB7
:10168000C25070474FEAC3707047130A5FEADC101C
:1016900008BF7047F6E79CEA026F04D010EA5C0FBF
:1016A00008BF0020704710B5FFF73BFF40DFF63E54
:1016B00081F00040704700000000000000000000C2
:1016C0000000000000003F4000000000000000009B
:1016D0003000400030004000000009000BC03D0019
:1016E0000BC03D00090018C024407FE0224031803B
:1016F0000000180024C01B000D80324001800380D0
:101700001C4027401C800740004010006000000083
:101710000000000000000000000000001F802040CA
:1017200040200000402020401F80000000000900F1
:1017300006001F80060009000000040004003F802E
:101740000400040000000010006000000000000021
:101750000000040004000400040004000000000075
:1017600000400000000000000000002001C0060052
:101770003800400000001F802040204020401F8093
:101780000000000010403FC000400000000018C0F2
:101790002140224024401840000010802040244076
:1017A00024401B80000002000D0011003FC00140DA
:1017B00000003C80244024402440238000001F80FF
:1017C000244024403440038000003000200027C023
:1017D0003800200000001B802440244024401B804F
:1017E00000001C0022C0224022401F800000000098
:1017F000000008400000000000000000000004603D
:10180000000000000000000004000A001100208019
:10181000404009000900090009000900000000001B
:101820004040208011000A000400180020002340DE
:101830002400180000001F802040274029401F403E
:101840000000004007C039000F0001C000402040E8
:101850003FC0244024401B8000001F8020402040C7
:1018600020403080000020403FC0204020401F80AA
:10187000000020403FC024402E4030C000002040E7
:101880003FC024402E00300000000F001080204098
:1018900022403380020020403FC0040004003FC0CB
:1018A0002040204020403FC02040204000000060F9
:1018B000202020203FC02000200020403FC02440A6
:1018C0000B0030C0204020403FC02040004000407E
:1018D00000C03FC03C0003C03C003FC000002040AF
:1018E0003FC00C4023003FC020001F80204020400C
:1018F00020401F80000020403FC0244024001800EA
:1019000000001F802140214020E01FA00000204057
:101910003FC02440260019C0004018C02440244085
:10192000224031800000300020403FC02040300085
:10193000000020003F80004000403F802000200049
:101940003E0001C0070038002000380007C03C00FE
:1019500007C038000000204039C0060039C02040D0
:1019600000002000384007C0384020000000304010
:1019700021C02640384020C00000000000007FE069
:10198000402040200000000070000C000380004058
:1019900000000000402040207FE000000000000028
:1019A0002000400020000000000000100010001087
:1019B00000100010001000000000400000000000B7
:1019C0000000000002800540054003C000402000E8
:1019D0003FC0044004400380000000000380044036
:1019E00004400640000000000380044024403FC043
:1019F0000040000003800540054003400000000057
:101A000004401FC0244024402000000002E0055094
:101A100005500650042020403FC00440040003C08D
:101A200000400000044027C00040000000000010FB
:101A30000010041027E00000000020403FC00140DB
:101A4000070004C00440204020403FC00040004048
:101A5000000007C0040007C0040003C000000440E9
:101A600007C00440040003C000400000038004409D
:101A7000044003800000041007F004500440038079
:101A80000000000003800440045007F000100440F0
:101A900007C00240040004000000000006400540AA
:101AA000054004C00000000004001F800440004006
:101AB0000000040007800040044007C0004004000C
:101AC000070004C0018006000400060001C00700F2
:101AD00001C006000000044006C0010006C004402A
:101AE00000000410071004E001800600040000005C
:101AF000044005C00640044000000000000004004F
:101B00007BE040200000000000000000FFF000002B
:101B10000000000040207BE00400000000004000C6
:101B20008000400020002000400000000000000075
:101B300000000000000000000000000000000000A5
:101B40001FCC000C00000000000000000800300066
:101B500060000800300060000000022003FC1E202E
:101B6000022003FC1E200220000000000E181104B9
:101B70003FFF10840C78000000000F0010840F3825
:101B800000C0077818840078000000780F8410C423
:101B900011240E9800E4008400080800680070001A
:101BA0000000000000000000000000000000000035
:101BB00007E0181820044002000000004002200442
:101BC000181807E0000000000000024002400180F9
:101BD0000FF0018002400240000000800080008081
:101BE0000FF800800080008000000001000D000E52
:101BF00000000000000000000000000000800080E5
:101C0000008000800080008000800000000C000C3C
:101C100000000000000000000000000000060018A6
:101C200000600180060018002000000007F008088E
:101C300010041004080807F000000000080408045D
:101C40001FFC000400040000000000000E0C101433
:101C50001024104411840E0C000000000C18100415
:101C60001104110412880C700000000000E0032031
:101C7000042408241FFC0024000000001F98108486
:101C800011041104108810700000000007F008888B
:101C90001104110418880070000000001C001000DE
:101CA00010FC13001C001000000000000E3811444E
:101CB0001084108411440E38000000000700088CC6
:101CC00010441044088807F00000000000000000E5
:101CD000030C030C000000000000000000000001E5
:101CE000010600000000000000000000008001402C
:101CF0000220041008081004000002200220022024
:101D00000220022002200220000000001004080827
:101D10000410022001400080000000000E001200AC
:101D2000100C106C10800F00000003E00C1813E47E
:101D3000142417C4082807D000000004003C03C482
:101D40001C40074000E4001C000410041FFC1104A8
:101D5000110411040E880070000003E00C18100438
:101D60001004100410081C10000010041FFC1004C4
:101D700010041004080807F0000010041FFC1104F0
:101D8000110417C410040818000010041FFC1104EB
:101D9000110017C010000800000003E00C18100428
:101DA000100410441C780040000010041FFC108434
:101DB0000080008010841FFC100400001004100438
:101DC0001FFC1004100400000000000300011001BB
:101DD00010011FFE10001000000010041FFC110471
:101DE00003801464181C1004000010041FFC10046D
:101DF000000400040004000C000010041FFC1F007D
:101E000000FC1F001FFC1004000010041FFC0C0449
:101E1000030000E010181FFC100007F00808100471
:101E200010041004080807F0000010041FFC1084C0
:101E30001080108010800F00000007F00818102498
:101E40001024101C080A07F2000010041FFC1104E3
:101E5000110011C011300E0C000400000E1C110402
:101E60001084108410441C38000018001000100466
:101E70001FFC100410001800000010001FF81004D0
:101E80000004000410041FF8100010001E0011E0F0
:101E9000001C007013801C0010001FC0103C00E0EC
:101EA0001F0000E0103C1FC000001004180C163486
:101EB00001C001C01634180C100410001C001304DB
:101EC00000FC13041C00100000000804101C106427
:101ED000108413041C04101800000000000000000F
:101EE0007FFE4002400240020000000030000C0073
:101EF00003800060001C000300000000400240025C
:101F000040027FFE000000000000000000002000F2
:101F100040004000400020000000000100010001DE
:101F2000000100010001000100010000400040002C
:101F300020000000000000000000000000980124C4
:101F400001440144014400FC000410001FFC00880F
:101F50000104010400880070000000000070008887
:101F600001040104010400880000000000700088E2
:101F70000104010411081FFC0004000000F80144E2
:101F800001440144014400C80000000001040104B0
:101F90000FFC1104110411001800000000D60129E3
:101FA0000129012901C90106000010041FFC008459
:101FB00001000100010400FC0004000001041904F8
:101FC00019FC0004000400000000000000030001F0
:101FD0000101190119FE0000000010041FFC00247B
:101FE000004001B4010C01040000000010041004C2
:101FF0001FFC0004000400000000010401FC0104B7
:10200000010001FC0104010000FC010401FC00844A
:1020100001000100010400FC0004000000F80104BC
:1020200001040104010400F80000010101FF008522
:1020300001040104008800700000000000700088A6
:1020400001040104010501FF00010104010401FC78
:1020500000840104010001800000000000CC012484
:102060000124012401240198000000000100010066
:1020700007F80104010400000000010001F8000459
:1020800000040004010801FC00040100018001704B
:10209000000C001001600180010001F0010C003013
:1020A00001C00030010C01F0010000000104018CAE
:1020B00000740170018C01040000010101810171B3
:1020C000000E001801600180010000000184010C75
:1020D000013401440184010C0000000000000000F4
:1020E000000001003EFC4002400200000000000031
:1020F0000000FFFF0000000000000000400240025E
:102100003EFC0100000000000000000060008000B4
:102110008000400040002000200000003C2100081A
:102120000000002010000000280100084C210008D9
:1021300010000020600600004401000800000000BC
:0C21400000000000000000000000000093
:04000005080000ED02
:00000001FF
