:020000040800F2
:10000000980B0020B5010008B9010008BB010008E9
:10001000BD010008BF010008C10100080000000088
:10002000000000000000000000000000C301000804
:10003000C501000800000000C7010008C901000850
:10004000CB010008CB010008CB010008CB01000860
:10005000CB010008CB010008CB010008CB01000850
:10006000CB010008CB010008CB010008CB01000840
:10007000CB010008CB010008CB010008CB01000830
:10008000CB010008CB010008CB010008CB01000820
:10009000CB010008CB010008CB010008CB01000810
:1000A000CB01000831160008CB010008CB01000885
:1000B000CB010008CB010008CB010008CB010008F0
:1000C000CB010008CB010008CB010008CB010008E0
:1000D000CB010008CB01000805150008CB01000882
:1000E000CB010008CB010008CB01000800F002F8AA
:1000F00000F04AF80AA090E8000C82448344AAF178
:100100000107DA4501D100F03FF8AFF2090EBAE875
:100110000F0013F0010F18BFFB1A43F0010318473B
:100120007C9200009C920000103A24BF78C878C1ED
:10013000FAD8520724BF30C830C144BF04680C60ED
:10014000704700000023002400250026103A28BF35
:1001500078C1FBD8520728BF30C148BF0B60704739
:10016000662907F05E84642904F0EC86002070475D
:100170001FB505F073FA04000020002106F07EFB95
:10018000E0601FBD10B510BD05F0AAFB1146FFF7DA
:10019000EFFF00F02BF805F0C8FB03B4FFF7F2FF08
:1001A00003BC00F045FA000030BF72B662B680F3BF
:1001B0000888704708480047FEE7FEE7FEE7FEE7CD
:1001C000FEE7FEE7FEE7FEE7FEE7FEE70348044939
:1001D000044A054B70470000ED0000089805002018
:1001E000980B002098070020980700201CB50920D4
:1001F00000F0C5F9482000F065F8022000F0AAF9E7
:10020000012000F0A7F900F0A5FA00F0D9FA00F0FB
:10021000CAFC4FF4E131482000F034FA4FF4165193
:10022000242001F0FDF8232142F20F7000F0FAFDC6
:1002300000F070FE04F0E1FA04F0F3FA41F61F4119
:10024000312000F07BFD23E012480078012801D125
:1002500004F048FB10480078012819D10D490870B6
:1002600004F0D1FC0D49086004F01AFD0C48006848
:1002700007F02EF804460D460A48006807F028F8F3
:10028000064632460B4608A0CDE9004504F01AFEAA
:10029000DAE7000000000020020000200400002037
:1002A0006C0000206800002058D6E1C7E3BDC725D8
:1002B00066202059D6E1C7E3BDC725662020200D62
:1002C0000A0000004FF0E021096921F004014FF01D
:1002D000E0221161C21700EB5272C2F3C702234B36
:1002E0001A701946097801EB4102C2EBC1114FF6B1
:1002F000FF7202EAC1011E4A1180704701461B4A83
:1003000012784A434FF0E0235A6100229A61012299
:100310001A6100BF4FF0E022106900F001021AB12B
:1003200000F48032002AF5D000224FF0E0231A6159
:100330009A61704701460E4A12884A434FF0E02303
:100340005A6100229A6101221A6100BF4FF0E02237
:10035000106900F001021AB100F48032002AF5D0D1
:1003600000224FF0E0231A619A61704718000020C4
:100370001A000020A34A0A400243A34B1A607047A8
:100380000146072323EA010212029F4B1B1D186836
:100390004FF6FF0318409D4B184310439A4B1B1D0B
:1003A000186070472DE9F0410746884614461D46FF
:1003B0002846FFF7E5FFC5F1040007FA00F60F2015
:1003C000284100EA0800064306F00F06E21704EB96
:1003D000D2625211920002F1E022D2F800212146AD
:1003E000E31704EBD3635B11A4EB431C012303FA73
:1003F0000CF31A432046E31704EBD3635B119B0015
:1004000003F1E023C3F800218148005D40EA0610B3
:100410007F490855BDE8F08170B504460B46CE17FC
:1004200001EB9676C6F38700CE1701EB9676B610F1
:10043000A1EB8606B606350E764B9B6943F00103A9
:10044000744EB3614FEAB63353F820300F26AE40F6
:10045000B343714E46F82030334653F8203004FA47
:1004600005F61E436C4B43F820606C4B1B6801265D
:100470008E403343694E336002F0010343B1674B52
:100480000C331B6801268E403343644E0C363360B8
:1004900002F0020343B1614B08331E6801238B4015
:1004A0001E435E4B08331E6070BD00B500205949E5
:1004B0000861C8601420486100208861C86108464E
:1004C000006840F001000860084640685449084050
:1004D0005049486008460068524908404D49086044
:1004E0000846006820F4802008600846406820F430
:1004F000FE0048600020886000214FF00060FFF798
:1005000039FF00BD10B540480830006840F00400D5
:100510003D49083108603F48C06940F080503D497E
:10052000C8614148406840F480703F4948600846CF
:10053000006840F0040008600846006840F00200CF
:100540000860FFF731FE10BD3048001D2E49091D1F
:1005500008607047014649062E4A926942F001023E
:100560002C4B9A612C4A083A526822F0E0622A4BDE
:10057000083B5A601A4652680A435A60704730B5C1
:1005800004460025FFF791FF2248006840F48030C0
:100590002049086000BF1F480068400C0028FAD0BE
:1005A0004FF480601B494860A01EC4B208464068F2
:1005B00040EA844048600846406840F48030486023
:1005C0001A48006840F03200184908601148006875
:1005D00040F080700F49086000BF0E480068400E70
:1005E0000028FAD00B48406840F0020009494860F2
:1005F00005E008484068C0F3870505F00305022DB3
:10060000F7D130BD80FFFF1F08ED00E00000FA05C4
:1006100000E400E000100240080001400004014036
:100620000000FFF8FFFFF6FE0070004000200240CF
:10063000014600BF7047414A1278012A0BD100BF22
:100640003F4A128802F04002002AF9D0C2B23C4B65
:100650001B1D1A800AE000BF3A4A128802F04002CD
:10066000002AF9D0C2B2374B1B1D1A80704735499A
:10067000091D088000BF3349098801F040010029A5
:10068000F9D070472DE9F05F05460E46300107F0BE
:1006900003F881462C4905FB01F006F0FDFF824678
:1006A000494606F0AFFE0746384606F0BDFF84B265
:1006B000204606F0F1FF8346394607F032F98246BC
:1006C0004FF0834107F030F8814606F0ADFF8046D9
:1006D0004FF6FF7000EA041404EB080084B21B48D4
:1006E000806940F00400194988610846806940F437
:1006F000804088611648006820F47F6014490860D3
:100700000846006840F40B6008601048C06840F478
:1007100080400E49C8600846C06820F48040C86028
:10072000084808300480001D008842F20C0108438C
:1007300004490C310880BDE8F09F00000100002052
:10074000004400400038014040420F0000100240C9
:10075000040801401548806940F00400134988618D
:100760001348006820F00F0011490860084600682F
:1007700040F0030008600E480830006840F48070C4
:100780000B490831086070470A490968491C094A41
:100790001160814208D108490968C943074AC2F873
:1007A000A0110021034A11607047000000100240B0
:1007B0000408014020000020A00121420000214245
:1007C0003748806940F00400354988613548006841
:1007D00020F07040334908600846006840F000404F
:1007E000086030480830006840F400402D49083166
:1007F0000860704701462C48006828B92B480078EB
:1008000010B90120294A107029480078B0B927484A
:100810000078012807D127480078401C254A10702D
:100820000120234A107023480078022806D10020B6
:10083000204A1070204A1080022070471A48006831
:10084000012804D10020194A1070194A1070194863
:10085000007801280ED118480088401C80B2164A42
:100860001080884206DD0020124A1070124A108063
:100870000120E2E70020E0E71048007838B10A489C
:10088000006820B900200D49087001207047064813
:100890000068012801D1094908700020F6E700002E
:1008A00000100240040801403C01214224000020C5
:1008B0002500002026000020280000202A0000201B
:1008C00010B50A461AB10123FE4C236002E0002352
:1008D000FC4C2360002114E00023FB4C236000F05B
:1008E00080031BB10123241D236003E00023F64C89
:1008F000241D23600123F44C23604306180E4B1C77
:10090000D9B20829E8DB0123EE4C236010BD30B5D5
:1009100000241CE004F1B001C8B20021FFF7D0FFB1
:1009200000210846FFF7CCFF00211020FFF7C8FF89
:10093000002508E0E54901EBC501085D0121FFF74D
:10094000BFFF681CC5B2802DF4DB601CC4B2082C4C
:10095000E0DB30BD00B500218D20FFF7B1FF0021A5
:100960001420FFF7ADFF0021AF20FFF7A9FF00BD66
:1009700000B500218D20FFF7A3FF00211020FFF715
:100980009FFF0021AE20FFF79BFF00BD30B5002484
:100990000CE0002506E00020CC4901EBC50108551C
:1009A000681CC5B2802DF6DB601CC4B2082CF0DBDD
:1009B000FFF7ADFF30BDF0B5144600267F2801DCFF
:1009C0003F2900DDF0BD0B46CF1701EB5777FF1035
:1009D000C7F10707FAB2CF1701EB5777FF10A1EB6A
:1009E000C707FDB2C5F107070123BB40DEB24CB11A
:1009F000B64B03EBC0039B5C3343B44F07EBC0071C
:100A0000BB5408E0B14B03EBC0039B5CB343AF4F57
:100A100007EBC007BB5400BFD4E72DE9F04F804679
:100A20000C4615461E46A346A5F12000C5B2002778
:100A30003EE00C2E07D105EB4500A54901EB8000F7
:100A400010F8079004E0A34800EB051010F8079099
:100A50004FF0000A26E009F0800028B12146404608
:100A6000099AFFF7A8FF09E0099808B9012000E0FA
:100A70000020024621464046FFF79DFF4FEA4960AD
:100A80004FEA1069601CC4B2A4EB0B00B04205D160
:100A90005C4608F1010000F0FF0806E00AF10100E1
:100AA00000F0FF0ABAF1080FD5DB00BF781CC7B20F
:100AB000B742BEDBBDE8F08F10B50246012000E072
:100AC00050430B00A1F10104E1B2F9D110BD2DE9B1
:100AD000FF4F81B0074691461E460E9D4FF0000A1B
:100AE000002439E0301B401EC1B20A20FFF7E4FFAA
:100AF000B9FBF0F00A21B0FBF1F201FB1208BAF1E8
:100B0000000F16D1701EA04213DDB8F1000F0ED1F8
:100B10000120AB4605EBDB71491001FB047100902D
:100B2000C8B22B4620220299FFF777FF12E04FF060
:100B3000010A0120AB4605EBDB71491001FB047192
:100B40000090C8B208F13001CAB22B460299FFF7F3
:100B500064FF00BF601CC4B2B442C3DB05B0BDE893
:100B6000F08F78B505460E46144618E07A2D03DD61
:100B7000002506F11000C6B23A2E04DD002005461D
:100B80000646FFF703FF0120009022780C23314630
:100B90002846FFF742FF05F10800C5B2641C207823
:100BA0000028E3D178BD10B54B48806940F00800BB
:100BB000494988614948006820F47F004749086036
:100BC0000846006840F4081008604348806940F017
:100BD0001000414988610846806940F00100886141
:100BE0003F48406820F07F403D49486008464068E3
:100BF00040F0085048603B48006840F48070394934
:100C000008603548006A20F0010033490862364820
:100C1000008820F00100344908803248006820F440
:100C200080703049086000202649091D0860642052
:100C3000FFF780FB01202D49C1F8BC010021AE2047
:100C4000FFF73EFE0021D520FFF73AFE002150209D
:100C5000FFF736FE0021A820FFF732FE00213F20DB
:100C6000FFF72EFE0021D320FFF72AFE00210846C1
:100C7000FFF726FE00214020FFF722FE00218D20F5
:100C8000FFF71EFE00211420FFF71AFE002120208E
:100C9000FFF716FE00210220FFF712FE0021A1201F
:100CA000FFF70EFE0021C020FFF70AFE0021DA2028
:100CB000FFF706FE00211220FFF702FE002181202F
:100CC00016E00000B8012242B081214290000020CD
:100CD000167B00088A7F000800100240040C0140C7
:100CE0000010014000700040306C004000002242C3
:100CF000FFF7E6FD0021EF20FFF7E2FD0021D920FC
:100D0000FFF7DEFD0021F120FFF7DAFD0021DB20F7
:100D1000FFF7D6FD00213020FFF7D2FD0021A420EF
:100D2000FFF7CEFD0021A620FFF7CAFD0021AF206E
:100D3000FFF7C6FDFFF72AFE10BD000070B505469F
:100D40000C463548806940F4006033498861334877
:100D50000580001F048031482038008840F00100E1
:100D60002E49203908800846008840F0400008805D
:100D70002A482C38008840F0010028492C39088086
:100D80000223192203210120FFF70CFB70BD70B56F
:100D900004460D462048C06940F001001E49C86164
:100DA0000846806940F0040088611D48006820F40E
:100DB0007F401B4908600846006840F40240086014
:100DC000C80484850585808B40F48070C9048883BD
:100DD0000846808B88830846808B88830846008C71
:100DE00008840846008C40F48050088408468089B6
:100DF00040F0100088810846808940F00100888119
:100E00000846008840F00100088001231C220321CD
:100E10001846FFF7C7FA70BD001002402C2C0140A5
:100E200000080140384AD26942F00402364BDA61C8
:100E30001A46926942F008029A61344A126822F016
:100E40007F42324B1A601A46126842F03B421A60E7
:100E50001A1D126822F0FF021B1D1A601A46126842
:100E600042F0BB021A602A4A1080121F1180284AE1
:100E7000143A128842F4E042254B143B1A801A4679
:100E8000128842F070021A801A1D128842F4E04261
:100E90001B1D1A801A46128842F070021A801A1F0F
:100EA000128842F400621B1F1A801A46128842F010
:100EB00008021A801A1D128842F400621B1D1A8053
:100EC0001A46128842F008021A801A1D128842F04F
:100ED00010021B1D1A801A46128842F001021A8065
:100EE0001A46128842F480521A801A46128842F436
:100EF00080721A80DA13064B2C3B1A801A4612882D
:100F000042F001021A80704700100240000C0140BC
:100F10002C080040F748806940F00800F5498861D6
:100F2000F548006820F47F40F349086008460068EF
:100F300040F44C500860704710B5EF48006820F44A
:100F40007040ED4908600846006840F44050086071
:100F50000120EA490860EA48D0F82C0108B90020CD
:100F600010BD0120E549091F0860FFF7C7F90020FF
:100F7000E349C1F8AC01E1488038006808B10020BD
:100F8000EEE70120FFF7BAF90020DC49091F0860ED
:100F90000120E5E710B5D848006820F47040D64934
:100FA00008600846006840F4405008600020D349BB
:100FB000091F0860D249C1F8AC010120FFF79EF972
:100FC0000120CE49091F0860CD49C1F8AC01FFF7E7
:100FD00095F910BD10B50024C748006820F4704092
:100FE000C54908600846006840F4004008600120D8
:100FF000C2490860FFF782F90120C149C1F8A80180
:10100000FFF77CF90AE0601CC4B2322C03DDFFF765
:10101000C1FF002010BD0120FFF770F9B7488038EC
:1010200000680028EFD1B549091F08600120F1E7E9
:1010300010B50020B149091F0860AF48006820F4CE
:101040007040AD4908600846006840F440500860B0
:101050000020AB49C1F8AC010120FFF74FF9012096
:10106000A649091F0860FFF749F90020A449C1F803
:10107000A80110BD10B50020A049091F08609E48B6
:10108000006820F470409C4908600846006840F4FD
:101090004050086001209A49C1F8AC01FFF72EF9D1
:1010A00001209649091F0860FFF728F9002094499C
:1010B000C1F8A80110BD70B504468F48006820F43F
:1010C00070408D4908600846006840F44050086050
:1010D00000208A49091F0860002516E0E0098749B9
:1010E00008606006040E0120FFF708F9012084491A
:1010F000C1F8A801FFF702F900208049091F086024
:101100000120FFF7FBF8681CC5B2082DE6DB70BDB7
:101110002DE9F04105460E4617469846FFF70CFFAD
:1011200010B90120BDE8F0816906080EFFF7C3FF82
:10113000FFF750FF18B9FFF72DFF0120F2E7304607
:10114000FFF7B9FFFFF746FF00240BE018F8040093
:10115000FFF7B1FFFFF73EFF18B9FFF71BFF0020B5
:10116000E0E7641CBC42F1DBFFF714FF0020D9E785
:1011700070B5054600246048006820F470405E4960
:1011800008600846006840F400400860002617E048
:1011900000205A49091F08600220FFF7AFF801201C
:1011A0005749C1F8A8016006040E54488038006809
:1011B00008B1601CC4B20220FFF7A0F8701CC6B2D0
:1011C000082EE5DB15B1FFF733FF01E0FFF752FF13
:1011D000204670BD2DE9F04106460F4614461D46D7
:1011E000FFF7AAFE10B90120BDE8F0817106080ED4
:1011F000FFF761FFFFF7EEFE18B9FFF7CBFE012006
:10120000F2E73846FFF757FFFFF7E4FEFFF794FEDB
:10121000012101EB4601C8B2FFF74DFFFFF7DAFEEF
:101220000DE0012C04D10020FFF7A2FF287003E09D
:101230000120FFF79DFF28706D1C601EC4B2002CBA
:10124000EFD1FFF7A7FE0020CEE770B505460E46AA
:101250000024FFF771FE2846FFF72DFF641CFFF7FF
:10126000B9FE3046FFF727FF641CFFF7B3FEFFF718
:1012700063FE691CC8B2FFF71EFF641CFFF7AAFEDD
:101280000020FFF775FF0446FFF784FE204670BD7F
:101290002DE9F0410746884615461E460024FFF713
:1012A0004BFE3846FFF707FFFFF794FE4046FFF777
:1012B00002FFFFF78FFEFFF73FFE791CC8B2FFF772
:1012C000FAFEFFF787FE00BF0DE0681EA04204D0C3
:1012D0000120FFF74DFF305503E00020FFF748FFE6
:1012E0003055601CC4B2AC42EFDBFFF753FE204622
:1012F000BDE8F08100100240040C0140AC812142A5
:10130000008021422DE9F04180460D4616461F46D9
:101310000024FFF711FE4046FFF7CDFEFFF75AFE0F
:101320002846FFF7C8FEFFF755FE00BF06E0385D10
:10133000FFF7C1FEFFF74EFE601CC4B2B442F6DBFD
:10134000FFF728FE0120BDE8F08170B505460E4686
:10135000144631462846FFF778FF2070012070BD03
:1013600037B504460D4602AB012229462046FFF759
:10137000C9FF3EBD2DE9F8430746884614461D4681
:10138000089E6A4641463846FFF7DFFF28B3601CD7
:10139000FF2101FA00F0C4F108012944491EFF228F
:1013A0000A41104300F0FF09C5F1080006FA00F0F9
:1013B000C6B2C4F1070006419DF8000000EA09002A
:1013C00000909DF80000304300909DF800204146B9
:1013D0003846FFF7C5FFBDE8F8830020FBE7F8B506
:1013E00006460F4614461D466A4639463046FFF704
:1013F000ACFF2DB10120A0409DF80010084305E08E
:101400000120A0409DF8001021EA0000C0B2009029
:101410009DF8002039463046FFF7A2FFF8BD0000D6
:101420002DE9F05F05460E46300106F035F981469C
:10143000364905FB01F006F02FF98246494605F0D2
:10144000E1FF0746384606F0EFF884B2204606F082
:1014500023F98346394606F064FA82464FF0834109
:1014600006F062F9814606F0DFF880464FF6FF701D
:1014700000EA041404EB080084B22548806940F0B7
:101480000400234988610846C06940F40030C861FF
:101490002048006820F47F401E4908600846006824
:1014A00040F40B4008601B480C30006840F004001A
:1014B00018490C3108601648006940F4003014499E
:1014C00008610846006920F4003008611248048071
:1014D000001D008842F20C0108430F49091D0880D5
:1014E0000846008840F4807008800846008840F074
:1014F000200008800223262203210846FEF752FF1F
:10150000BDE8F09F044808380088704740420F004B
:101510000010024000080140084400400146002934
:1015200001DA484200E00846704730B505460C46EF
:101530002846FFF7F3FFBE4908802046FFF7EEFF7D
:10154000BB49091D08801046FFF7E8FFB84908317C
:1015500008801846FFF7E2FFB5490C31088030BD1E
:1015600010B5B449B448006806F0AAF815D3B349D9
:10157000B148006806F0A4F90FD3B14800780128FB
:101580000BD0AC49AF48006806F09AF805D3AB49D8
:10159000AC48006806F094F901D2012400E0002470
:1015A000204610BD4FF47A60A7490968002902DA85
:1015B0000021A54A1160A4490968814201DDA249C0
:1015C0000860A2490968002902DA00219F4A1160D7
:1015D0009E490968814201DD9C4908609C4909686F
:1015E000002902DA00219A4A11609949096881426A
:1015F00001DD9749086097490968002902DA00214E
:10160000944A116093490968814201DD914908605B
:10161000704710B5FFF730F90446012C07D1884810
:10162000007808B9012000E000208549087010BD4D
:101630002DE9F05F8848008800F0010000287DD087
:101640008548008820F00100834908804FF4C87065
:10165000FFF79AF8FFF7DDFF8048B0F90000C000FF
:10166000642190FBF1F7384605F0FEFF054675480A
:1016700001687B4806F058F883467848B0F90200C4
:10168000C000642190FBF1FA504605F0EDFF804662
:1016900069480168724806F047F88246714906F0C9
:1016A00040F98146414605F03FFE0746594606F09F
:1016B00043F90646294605F037FE044605F098FF33
:1016C000614908606548B0F90000C000642190FBE2
:1016D000F1F7384605F0C8FF05465A4801686048EA
:1016E00006F022F883465D48B0F90200C00064218C
:1016F00090FBF1FA504605F0B7FF80464E4801686E
:10170000574806F011F88246564905F00DFE81460D
:10171000414606F011F90746594605F005FE064612
:10172000294606F009F9044605F062FF47490860BA
:101730004A48B0F90000C000642100E075E090FB69
:10174000F1F7384605F090FF05463E4801684448E9
:1017500005F0EAFF83464148B0F90200C000642169
:1017600090FBF1FA504605F07FFF80463248016851
:101770003B4805F0D9FF82463A4906F0D2F8814647
:10178000414605F0D1FD0746594605F0CDFD064618
:10179000294606F0D1F8044605F02AFF2C490860D6
:1017A0002E48B0F90000C000642190FBF1F73846E4
:1017B00005F05AFF054623480168294805F0B4FFA3
:1017C00083462648B0F90200C000642190FBF1FA7C
:1017D000504605F049FF804617480168204805F04B
:1017E000A3FF82461F4905F09FFD8146414606F052
:1017F000A3F80746594606F09FF80646294605F025
:1018000093FD044605F0F4FE12490860FFF7CAFE96
:10181000FFF7A6FE48B90F4803680D4802680B4859
:10182000016809480068FFF780FEBDE8F09F0000EE
:1018300034080040000020C2680000200000204260
:10184000020000206C000020080000200C00002096
:101850001000002014000020102C0140580000202F
:101860000000A0400000FA4438B50446FB4890F858
:101870002400C0B114B10220009001E000200090CB
:10188000F64A1268D17BF54A526810786B460122FD
:10189000FFF73EFC10B14FF0FF3038BD9DF800104F
:1018A000EE48417423E0ED48807A10B94FF0FF30E4
:1018B000F3E724B1E948407C08B10020EDE714B11A
:1018C0000120009001E000200090E44A1268D17BE2
:1018D000E24A526810786B460122FFF719FC10B1FA
:1018E0004FF0FF30D9E79DF80010DC48417400202C
:1018F000D3E738B5002419E0D8480068C07AA04280
:1019000004D0D6480068407DA04200D10CE0D34905
:10191000496808786B4601222146FFF75BFC10B14D
:101920004FF0FF3038BD00BF601CC4B2CB484068E8
:101930000079A042E0DC0020F4E770B504460D46D3
:10194000C6480068C07AA04204D0C4480068407D00
:10195000A04202D14FF0FF3070BDC048406800790E
:10196000A04202DC4FF0FF30F6E7BC494968087836
:101970002B4601222146FFF72DFCEDE738B5044642
:10198000B64890F82300A04201D1002038BD14B120
:101990003020009001E000200090B048807C20B111
:1019A0009DF8000040F002000090AC4890F8220042
:1019B00020B19DF8000040F080000090A74A126816
:1019C000117DA64A526810786B460122FFF7A0FBF2
:1019D00010B14FF0FF30D9E7A04880F82340002035
:1019E000D4E738B5044604F0700010B1012000902F
:1019F00005E014B10020009001E040200090974ADB
:101A00001268917C954A526810786B460122FFF764
:101A10007FFB20B1002191488172481E38BD9DF89E
:101A2000000020F040018D4801730020009004F078
:101A3000400020B99DF8000040F00400009004F040
:101A4000200020B99DF8000040F00200009004F052
:101A5000100020B99DF8000040F00100009004F053
:101A6000080020B99DF8000040F0380000907B4A43
:101A70001268D17C794A526810786B460122FFF7D0
:101A800047FB20B1002175488172481EC6E724B18A
:101A9000082C02D00020FFF771FF704884720021EB
:101AA00001753220FEF746FC0020B7E738B5044642
:101AB0006A48807CA04201D1002038BD002C46D06D
:101AC000664A12681179654A526810786B4601229D
:101AD000FFF780FB10B14FF0FF30EEE79DF80000FC
:101AE00020F0200000905D4A126811795B4A52682C
:101AF00010786B460122FFF70BFB10B14FF0FF305F
:101B0000DBE70320FEF716FC02200090534890F814
:101B1000220020B19DF8000040F0800000904F4866
:101B200090F8230020B19DF8000040F030000090B4
:101B30004A4A1268117D494A526810786B46012260
:101B4000FFF7E6FA002851D04FF0FF30B5E7434ADF
:101B500012681179414A526810786B460122FFF7EA
:101B600039FB10B14FF0FF30A7E73C48807A00F016
:101B7000010028B19DF8000040F02000009004E032
:101B80009DF8000020F020000090344A126811797E
:101B9000324A526810786B460122FFF7B9FA10B149
:101BA0004FF0FF3089E70320FEF7C4FB2B4890F885
:101BB000220010B18020009001E000200090274812
:101BC00090F8230020B19DF8000040F03000009014
:101BD000224A1268117D214A526810786B46012210
:101BE000FFF796FA10B14FF0FF3066E71B48847498
:101BF000002062E708B51948807A10B94FF0FF302D
:101C000008BD00200090154A1268D17B134A526823
:101C100010786B460122FFF77BFA10B14FF0FF30CE
:101C2000EEE70E4A126851790C4A526810786B46FA
:101C30000122FFF76DFA10B14FF0FF30E0E7074ADD
:101C400012681179054A526810786B460122FFF735
:101C50005FFA28B14FF0FF30D2E700002C000020DF
:101C6000F74890F82400002850D00C200090F44A47
:101C700012681179F24A526810786B460122FFF718
:101C800047FA10B14FF0FF30BAE7C0200090EC489F
:101C9000807A00F0010020B19DF8000040F02000A3
:101CA0000090E74A12681179E54A526810786B464D
:101CB0000122FFF72DFA10B14FF0FF30A0E7E04806
:101CC000407C10B10220009001E000200090DC4A2E
:101CD0001268D17BDA4A526810786B460122FFF70E
:101CE00017FA10B14FF0FF308AE700200090D44A75
:101CF00012685179D24A526810786B460122FFF778
:101D000007FA002852D04FF0FF3079E70420009006
:101D1000CB4A12681179CA4A526810786B46012280
:101D2000FFF7F6F910B14FF0FF3069E7C448807C47
:101D300020B9C348807A00F0010010B9402000901B
:101D400001E060200090BE4A12681179BC4A5268D6
:101D500010786B460122FFF7DBF910B14FF0FF302E
:101D60004EE7B748407C10B10120009001E0002010
:101D70000090B34A1268D17BB14A526810786B4622
:101D80000122FFF7C5F910B14FF0FF3038E7AC4A38
:101D900012685179AA4A52681078A94B103301226F
:101DA000FFF7B6F910B14FF0FF3029E7002027E721
:101DB00070B50446002624F00104A14890F82400E0
:101DC00008B1002070BD9E48807A10B94FF0FF30F6
:101DD000F8E79B48057C807A2040994908740846BA
:101DE000007CA04202D04FF0FF3600E0002614B97C
:101DF0009348007D18B10120FFF736FD02E0002076
:101E0000FFF732FD3CB1FFF7F5FE20B18C480574B9
:101E10004FF0FF30D6E73046D4E738B5044688485F
:101E2000807A10B94FF0FF3038BDBC2C02DB0120A6
:101E3000009015E0622C02DB0220009010E02A2CBA
:101E400002DB032000900BE0142C02DB0420009046
:101E500006E00A2C02DB0520009001E0062000903D
:101E60007748C07A9DF80010884201D10020DBE756
:101E7000734A12689178724A526810786B46012250
:101E8000FFF746F910B14FF0FF30CDE79DF8001095
:101E90006B48C1720020C7E738B50446282C02DD24
:101EA0004FF0FF3038BDDCB90020FFF767FD0020A0
:101EB0008DF8000007208DF80100614A1268917CBE
:101EC0005F4A526810786B460222FFF721F910B181
:101ED0004FF0FF30E6E70021594801750020E1E7A7
:101EE0000120FFF74BFD20208DF80000012C06D1CA
:101EF00000208DF801000520FFF78FFF17E0052C6B
:101F000006DC01208DF801000520FFF786FF0EE0BA
:101F1000142C06DC02208DF801000A20FFF77DFF5B
:101F200005E003208DF801001420FFF776FF9DF8EF
:101F30000100072101EB8010C0B28DF80100404A7A
:101F40001268917C3E4A526810786B460222FFF775
:101F5000DFF810B14FF0FF30A4E708213848817254
:101F600000210173012101750020FFF721FF0020EE
:101F700098E738B504463248807A10B94FF0FF3000
:101F800038BD2F4890F8240010B14FF0FF30F7E72C
:101F90002B48007D50B134B1282C04DCE0B2FFF7AF
:101FA0007BFF0020ECE70020FFF776FF042C01DA2E
:101FB000042404E0B4F57A7F01DD4FF47A744FF421
:101FC0007A7090FBF4F0401EC0B200901C4A126878
:101FD00051781B4A526810786B460122FFF798F837
:101FE00010B14FF0FF30CBE79DF80000401C4FF4DC
:101FF0007A7191FBF0F081B21148C1810146C98923
:102000004810FFF70AFF0020BAE738B504460C482D
:10201000807A10B94FF0FF3038BD022C06D0042C66
:1020200007D0082C08D0102C0FD10BE00020009016
:102030000EE0082000900BE01020009008E0000067
:102040002C0000201820009002E04FF0FF30E3E762
:1020500000BFF948407A9DF80010B0EBE10F01D1C4
:102060000020D9E7F44A1268D179F34A526810780F
:102070006B460122FFF74CF810B14FF0FF30CBE771
:102080009DF80000C110EC4841720020C4E738B54B
:102090000446E948807A10B94FF0FF3038BDFA2C79
:1020A00009D0B4F5FA7F09D0B4F57A7F09D0B4F538
:1020B000FA6F0CD108E0002000900BE0082000909F
:1020C00008E01020009005E01820009002E04FF09A
:1020D000FF30E3E700BFD848007A9DF80010B0EB6E
:1020E000E10F01D10020D9E7D34A12689179D24A91
:1020F000526810786B460122FFF70AF810B14FF0D2
:10210000FF30CBE79DF80000C010CB4908720020DB
:10211000C4E71CB580208DF80000C74A1268917C86
:10212000C54A526810786B460122FEF7F1FF10B1E4
:102130004FF0FF301CBD6420FEF7FCF800208DF846
:102140000000BD4A1268917CBB4A526810786B4609
:102150000122FEF7DDFF10B14FF0FF30EAE7B64A8B
:102160001268917DB44A526810786B460622FFF7D8
:1021700031F810B14FF0FF30DCE79DF80500C007E3
:10218000400F9DF8031001F0010140EA41009DF865
:10219000011001F0010140EA010494B1012C03D1C6
:1021A0000121A548C17431E0022C03D10021A248CD
:1021B000C1742BE02146A1A002F084FE4FF0FF3055
:1021C000B8E79D4A1268D1789B4A526810786B46EE
:1021D0000122FEF7FFFF10B14FF0FF30AAE79DF894
:1021E000000000F00F042CB99E4802F06BFE4FF087
:1021F000FF309FE7042C06D19BA002F063FE012173
:102200008D48C17402E000218B48C174FF218A48C7
:102210008172FF2088490872FF2187484172C1728C
:102220004FF6FF71C181FF21017481740121017397
:1022300080F82210002180F82310417501751630B6
:10224000016041608160163880F8241080F8251004
:10225000C1844FF4FA60FFF71AFF10B14FF0FF305E
:1022600068E70220FFF7D1FE10B14FF0FF3061E7C1
:102270002A20FFF7D2FD10B14FF0FF305AE732208D
:10228000FFF777FE10B14FF0FF3053E70020FFF764
:102290008FFD10B14FF0FF304CE70020FFF706FC38
:1022A00010B14FF0FF3045E70020FFF79AFB002008
:1022B00040E770477CB504460D465F48807A00F0E1
:1022C000700010B94FF0FF307CBD5B4A1268117B83
:1022D000594A526810786B460622FEF77BFF10B110
:1022E0004FF0FF30F0E79DF801009DF8001040EA44
:1022F000012000B220809DF803009DF8021040EA02
:10230000012000B260809DF805009DF8041040EAAD
:10231000012000B2A08015B12846FFF7CAFF0020B7
:10232000D2E77CB504460D464348807A00F00800A9
:1023300010B94FF0FF307CBD3F4A1268517B3E4AD6
:10234000526810786B460622FEF744FF10B14FF03A
:10235000FF30F0E79DF801009DF8001040EA0120F1
:1023600000B220809DF803009DF8021040EA012091
:1023700000B260809DF805009DF8041040EA01203D
:1023800000B2A08015B12846FFF793FF0020D2E7E6
:102390002DE9FE4F05460C462748807A18B94FF0C4
:1023A000FF30BDE8FE8F244A1268917B224A5268B2
:1023B000107802AB0222FEF70DFF10B14FF0FF3094
:1023C000EFE79DF809009DF8081040EA012006B2E9
:1023D00014B12046FFF76DFF17494968C88805F01A
:1023E0005BF9154901904968B1F9080005F03CF91D
:1023F0008346304605F038F95946009005F09CFABE
:102400008246019904F0FEFF81461F4904F08CFFCB
:1024100080464FF08F4105F087F9074605F0E8F850
:1024200028600020BDE710B588B004461CB94FF005
:10243000FF3008B010BD29E02C000020556E7375E8
:1024400070706F7274656420736F66747761726503
:102450002070726F64756374207265762025642E17
:102460000A0000004C93000848616C662073656E9A
:102470007369746976697479207061727420666F0B
:10248000756E642E0D0A000000000C42206830B901
:10249000606820B9A06810B9002008B010BDFA49E2
:1024A0004968087806AB03221146FEF793FE10B187
:1024B0004FF0FF30F1E79DF81800082101EB2010E4
:1024C00000F00F00ADF800009DF8190001EB20109E
:1024D00000F00F00ADF802009DF81A0001EB20108B
:1024E00000F00F00ADF8040020684100BDF90000C5
:1024F000403091FBF0F000B2ADF810006068410090
:10250000BDF90200403091FBF0F000B2ADF81200CE
:10251000A0684100BDF90400403091FBF0F000B22A
:10252000ADF81400D8494968087806AB0622114670
:10253000FEF750FE10B14FF0FF30AEE79DF81900E6
:102540009DF8181040EA012000B2ADF808009DF88F
:102550001B009DF81A1040EA012000B2ADF80A00F5
:102560009DF81D009DF81C1040EA012000B2ADF856
:102570000C00BDF81000BDF80810084400B2ADF81A
:102580001000BDF81200BDF80A10084400B2ADF802
:102590001200BDF81400BDF80C10084400B2ADF8EC
:1025A0001400BDF81000000A8DF81800BDF81000E6
:1025B000C0B28DF81900BDF81200000A8DF81A009B
:1025C000BDF81200C0B28DF81B00BDF81400000A5F
:1025D0008DF81C00BDF81400C0B28DF81D00AA498A
:1025E0004968087806AB06221146FEF791FD10B146
:1025F0004FF0FF3051E700204FE70146A248007A34
:1026000030B1012807D0022809D003280FD10AE0F1
:10261000FA2008800EE04FF4FA7008800AE04FF4C8
:102620007A70088006E04FF4FA60088002E000202B
:10263000088000BF00BF0020704701469248407AE2
:1026400030B1012807D0022808D003280CD108E0B7
:10265000022008700BE00420087008E008200870D1
:1026600005E01020087002E04FF0FF30704700BF17
:102670008548C07C18B108784006000E087000201C
:10268000F4E701468048C07A082817D2DFE800F056
:102690001704070A0D101318BC20088013E06220ED
:1026A000088010E02A2008800DE0142008800AE04D
:1026B0000A20088007E00520088004E000BF00BF72
:1026C0000020088000BF00BF0020704701466E4810
:1026D00090F8240010B14FF0FF3070476A48C0896D
:1026E00008800020F9E7014600200880401E70475E
:1026F00001464FF0FF30704701466348007A30B121
:10270000012807D0022808D003280CD108E05F4830
:1027100008600BE05E48086008E05E48086005E07D
:102720005D48086002E04FF0FF30704700BF0020B6
:10273000FBE701465448407A30B1012808D002280E
:102740000AD0032810D10BE04FF4804008800EE03F
:1027500041F69C7008800AE04FF48050088006E043
:102760004FF40060088002E04FF0FF30704700BF78
:102770004548C07C10B10888401008800020F5E76B
:1027800001464148007C08700020704701463E48E1
:10279000807A10B10120087001E00020087000204C
:1027A000704738B504463848807A10B94FF0FF308A
:1027B00038BD354A1268117C334A526810786B462E
:1027C0000222FEF707FD10B14FF0FF30F0E79DF851
:1027D00001009DF8001040EA012000B22080002096
:1027E000E6E72DE9FE4F0746884692461D46DDF88E
:1027F00030B000260024244890F8240010B1601E58
:10280000BDE8FE8F002028701F48807A10B94FF075
:10281000FF30F5E71C48007C10B94FF0FF30EFE7C0
:102820001948007C00F0400008B1B01CC6B2164840
:10283000007C00F0200008B1B01CC6B21248007C39
:1028400000F0100008B1B01CC6B20F48007C00F0C8
:10285000080008B1B01DC6B20B4A1268917A0A4A44
:10286000526810786B460222FEF7B4FC10B14FF0AC
:10287000FF30C5E79DF801009DF8001040EA0129EE
:10288000B1450BDA0020BBE72C0000200000034319
:10289000000083423333034233338341FC484068B2
:1028A0004088B9EB600F17DDF94A1268517CF84A8D
:1028B000526810786B460122FEF78CFC10B14FF085
:1028C000FF309DE79DF8000000F0100020B1FFF7F9
:1028D00091F96FF0010093E75046FFF7EAFCEC4AEC
:1028E0001268D17AEA4A526810786B463246FEF78F
:1028F00071FC10B14FF0FF3082E799FBF6F0401EFB
:102900008BF8000000202870B4422AD0E048007CF8
:1029100000F0080028B3601C1DF800001DF804102A
:1029200040EA012000B2A8F80000E01C1DF80010E9
:10293000A01C1DF8000041EA002000B2A8F8020027
:10294000601D1DF80010201D1DF8000041EA002048
:1029500000B2A8F80400287840F008002870A01DF4
:1029600084B2B44213D0CA48007C00F0400070B179
:10297000601C1DF800001DF8041040EA012000B2A0
:102980003880287840F040002870A01C84B2B442FF
:1029900013D0BF48007C00F0200070B1601C1DF80F
:1029A00000001DF8041040EA012000B27880287869
:1029B00040F020002870A01C84B2B44213D0B44868
:1029C000007C00F0100070B1601C1DF800001DF8C4
:1029D000041040EA012000B2B880287840F01000CE
:1029E0002870A01C84B200200AE7F8B504460F4600
:1029F0001646A74890F8240010B94FF0FF30F8BDF4
:102A0000A348807A10B94FF0FF30F8E7A04A126867
:102A1000917A9F4A526810786B460222FEF7DAFBE1
:102A200010B14FF0FF30EAE79DF801009DF800106B
:102A300040EA0125A54203DA00203070401EDEE79F
:102A4000934840684088B5EB600F17DD904A1268E4
:102A5000517C8F4A526810786B460122FEF7BAFB10
:102A600010B14FF0FF30CAE79DF8000000F01000F1
:102A700020B1FFF7BFF86FF00100C0E7E2B2844B6E
:102A80001B68D97A824B5B6818783B46FEF7A2FB3D
:102A900010B14FF0FF30B2E795FBF4F0401E3070FC
:102AA0000020ACE701467A4880F8221000207047E9
:102AB0007CB5054676494968087801AB04220D21AA
:102AC000FEF788FB08B107207CBD9DF80700C0F326
:102AD00001109DF8041001F0E00140EAE1008DF8DA
:102AE00000009DF80700C0F381009DF8051001F07B
:102AF000E00140EAE1008DF801009DF8070000F0D8
:102B000003009DF8061001F0E00140EAE1008DF8B5
:102B1000020000241CE01DF8040018B9002045F84C
:102B2000240013E05B4845F8240006E055F8240033
:102B3000594904F0F9FD45F824001DF80400401E31
:102B4000C0B20DF804000028F0D100BF601CC4B270
:102B5000032CE0DB0020B7E72DE9FE4F06460F46C9
:102B600000256846FFF7A4FF002442E056F8240041
:102B700057F82410A0EB010ABAF1000F01DB51460F
:102B800001E0CAF10001084604F06EFD83464FF0F3
:102B90008F4104F037FC80465DF82400002104F0EA
:102BA000F3FC16D05DF82410404604F02BFC82465E
:102BB0004FF07E5104F0C0FE814629F0004A3748AC
:102BC000416A504604F07CFE12D20120A040054329
:102BD0000EE03248C169404604F072FD05D32F482B
:102BE000016A404604F06CFE02D20120A040054379
:102BF000641C032CBADB2846BDE8FE8F2DE9FC5F80
:102C000006460F46002522494968087801AB032291
:102C10000D21FEF7DFFA10B10720BDE8FC9F9DF8FB
:102C2000040000F01F008DF804009DF8050000F07E
:102C30001F008DF805009DF8060000F01F008DF8BC
:102C40000600002462E056F8240057F82410A0EB98
:102C5000010BBBF1000F01DB594601E0CBF1000194
:102C6000084604F001FD4FF08F41009004F0CAFBCC
:102C7000814601A8005DC0B30849086804F00CFD56
:102C800083465946064804F0BDFB80460FE000002D
:102C90002C0000207B14AE3E1D5A843FA485000802
:102CA00000B04C45FE49404604F03EFD804601A878
:102CB000005D401EC0B201A908550028F2D141466E
:102CC000484604F09FFB83464FF07E5104F034FEEB
:102CD00082462AF0004BF3488169584604F0F0FD23
:102CE00013D20120A04005430FE0FFE7ED48016942
:102CF000484604F0E5FC05D3EA484169484604F03B
:102D0000DFFD02D20120A0400543641C032C9ADBA6
:102D1000284682E72DE9F04F87B005460C469146DC
:102D200001208DF8100000208DF81100DE4A126895
:102D3000917CDD4A5268107804AB0222FEF7E8F974
:102D400020B14FF0FF3007B0BDE8F08FC820FDF78D
:102D5000F1FA00208DF81000D34A1268D17BD24AD4
:102D60005268107804AB0122FEF7D2F910B14FF08F
:102D7000FF30E8E7CC4A12685179CB4A52681078A4
:102D800004AB0122FEF7C4F910B14FF0FF30DAE7CF
:102D9000C54A1268917CC44A5268107804AB01227B
:102DA000FEF7B6F910B14FF0FF30CCE7BE4A12681B
:102DB000D17DBD4A5268107804AB0122FEF7A8F914
:102DC00010B14FF0FF30BEE7B74A12681179B64A2A
:102DD0005268107804AB0122FEF79AF910B14FF057
:102DE000FF30B0E70C208DF81000AF4A126811795F
:102DF000AD4A5268107804AB0122FEF789F910B190
:102E00004FF0FF309FE70F20FDF794FAA648806A45
:102E1000407A8DF81000A44A12689178A24A52684C
:102E2000107804AB0122FEF773F910B14FF0FF30B8
:102E300089E79D48806A007A8DF810009A4A1268E6
:102E40005178994A5268107804AB0122FEF760F974
:102E500010B14FF0FF3076E7B9F1000F07D092487C
:102E6000806A807A40F0E0008DF8100004E08E481F
:102E7000806A807A8DF810008B4A126891798A4AAC
:102E80005268107804AB0122FEF742F910B14FF0FE
:102E9000FF3058E7B9F1000F07D08348806AC07A45
:102EA00040F0E0008DF8100003E07E48C07A8DF815
:102EB00010007D4A1268D1797B4A5268107804ABC1
:102EC0000122FEF725F910B14FF0FF303BE7B9F1D1
:102ED000000F02D0C820FDF72DFA40208DF8100019
:102EE000714A12681179704A5268107804AB012255
:102EF000FEF70EF910B14FF0FF3024E778208DF87F
:102F00001000694A12685179674A5268107804AB18
:102F10000122FEF7FDF810B14FF0FF3013E76149D1
:102F20008889FDF707FA00208DF810005E4A1268C4
:102F300051795D4A5268107804AB0122FEF7E8F837
:102F400010B14FF0FF30FEE6574A1268917A564AA8
:102F50005268107804AB0222FEF73CF910B14FF032
:102F6000FF30F0E69DF811009DF8101040EA012BAB
:102F70000C209BFBF0F0C6B20020A86068602860BF
:102F8000A06060602060824665E0474A1268D17A9E
:102F9000454A5268107804AB0C22FEF71BF910B1B9
:102FA0004FF0FF30CFE69DF811009DF8101040EA79
:102FB000012000B2ADF808009DF813009DF8121032
:102FC00040EA012000B2ADF80A009DF815009DF816
:102FD000141040EA012000B2ADF80C00BDF9081051
:102FE000206808442060BDF90A10606808446060E9
:102FF000BDF90C10A0680844A0609DF817009DF86A
:10300000161040EA012000B2ADF800009DF819004A
:103010009DF8181040EA012000B2ADF802009DF8BA
:103020001B009DF81A1040EA012000B2ADF8040020
:10303000BDF90010286808442860BDF902106868CE
:1030400008446860BDF90410A8680844A8600AF143
:10305000010000F0FF0AB24597DB1248D0F800C02B
:103060002868C117090441EA104107046246002399
:10307000384601F002FF32460023CDE9020101F09B
:10308000FCFE28600748D0F800C06868C117090432
:1030900041EA1041070462460023384606E000007A
:1030A00054E3853FA48500082C00002001F0E5FED4
:1030B00032460023CDE9020101F0DFFE6860FE48E0
:1030C000D0F800C0A868C117090441EA10410704FC
:1030D00062460023384601F0D0FE32460023CDE997
:1030E000020101F0CAFEA860F348D0F804C02168CC
:1030F000C817000440EA11480F046246002338460E
:10310000414601F0BAFE32460023CDE9020101F04A
:10311000B4FE2060E848D0F804C06068C117090414
:1031200041EA1041070462460023384601F0A5FE3B
:1031300032460023CDE9020101F09FFE6060DE48C7
:10314000D0F804C0A068C117090441EA104107047F
:1031500062460023384601F090FE32460023CDE956
:10316000020101F08AFEA060A068002804DDA068CA
:10317000A0F58030A06003E0A06800F58030A0607A
:103180000020E0E538B50446CC4890F82400A04281
:1031900001D1002038BD24B3C84890F8250010B9EB
:1031A0004FF0FF30F6E70020FEF75EFB0020FEF751
:1031B0007DFCC249C88CFEF7DCFE00200090BF49B0
:1031C000496808786B4601222321FDF7A1FF012100
:1031D000BA4880F824100120FEF746FBFEF70AFDEE
:1031E00013E00020FEF740FBB448007C0090B34998
:1031F000496808786B4601222321FDF789FF0021E9
:10320000AE4880F82410FEF7F5FC0020C2E72DE957
:10321000F04F8DB083460F4602200C90A74890F8DF
:10322000240020B10020FFF7ADFF012600E00026BA
:1032300003A8FFF7E2F905A8FFF7FFF901A8FFF7D8
:1032400020FA02A8FFF742FA9C4890F80AA004A8C6
:10325000FFF796FA002407E0002239465846FFF7A8
:1032600059FD00B902E0641C022CF5DB00BF022C02
:1032700001D1002528E0002407E0012206A909A8C1
:10328000FFF748FD00B902E0641C022CF5DB00BF2B
:10329000022C01D1002517E006A93846FFF75CFC97
:1032A00000F0FF0809A95846FFF7A8FC00F0FF0945
:1032B0000025B9F1000F01D145F00105B8F1000F6B
:1032C00001D145F0020500BFFF207C490872FF21B3
:1032D0007A484172C1724FF6FF71C181FF2181723C
:1032E000017401210173BDF80C00FEF7D0FE9DF8BA
:1032F0001400FEF78AFEBDF80400FEF78EFDBDF84F
:103300000800FEF736FE5046FEF76BFB9DF81000F6
:10331000FEF74EFD16B10120FFF734FF28460DB031
:10332000BDE8F08FF8B504460D46164616B94FF0C5
:10333000FF30F8BD6148807A10B94FF0FF30F8E7F0
:1033400020128DF80000E0B28DF801009DF8010018
:1033500028445A4949684989884202DD4FF0FF30C4
:10336000E7E7564A1268117E544A526810786B4655
:103370000222FDF7CDFE10B14FF0FF30D9E7EAB2DF
:103380004E4B1B68597D4D4B5B6818783346FDF7F3
:10339000BFFE10B14FF0FF30CBE70020C9E7F8B512
:1033A00004460D46164616B94FF0FF30F8BD4348A7
:1033B000807A10B94FF0FF30F8E720128DF8000046
:1033C000E0B28DF801009DF8010028443B494968AE
:1033D0004989884202DD4FF0FF30E7E7374A12683B
:1033E000117E364A526810786B460222FDF790FE35
:1033F00010B14FF0FF30D9E7EAB2304B1B68597D6E
:103400002E4B5B6818783346FDF7E4FE10B14FF0A1
:10341000FF30CBE70020C9E72DE9F04385B0054632
:103420000E4690469946254890F8250020B14FF069
:10343000FF3005B0BDE8F08316B94FF0FF30F8E774
:10344000002423E0281B102801DD102000E0281BA9
:1034500087B2321939462046FFF764FF10B14FF0AA
:10346000FF30E6E701AA39462046FFF798FF10B182
:103470004FF0FF30DDE730193A4601A901F09CFD1D
:1034800010B16FF00100D4E7E01984B2AC42D9DB8F
:103490004FEA28208DF8000008F0FF008DF80100A9
:1034A000064A1268917E054A526810786B460222DD
:1034B000FDF72EFE38B103E0A48500082C000020A3
:1034C0004FF0FF30B5E701218A4880F82510A0F8B9
:1034D00026900020ADE70146864890F82400087049
:1034E0000020704702464FF0FF30704701464FF012
:1034F000FF307047F8B505460F461446002C70D0D3
:10350000B5F5FF5F01DDFF2605E0202D01DA01267C
:1035100001E0C5F3471607B90127282C02DD4FF05B
:10352000FF30F8BD7348407D28BB724890F82400F6
:1035300038B10020FFF726FE01216E4880F82010E8
:1035400003E000216B4880F820106A481630FFF72E
:1035500054F868481830FFF770F866481A30FFF7DB
:1035600090F864481C30FFF7B1F86248817A81779F
:103570001F30FFF705F90020FEF776F90020FEF76F
:103580008BFC00208DF800005A4A12689178594A45
:10359000526810786B460122FDF7BAFD10B14FF06A
:1035A000FF30BEE740208DF80000524A1268D17B00
:1035B000504A526810786B460122FDF7A9FD00B110
:1035C00065E08DF800608DF801704A4A1268117A42
:1035D000484A526810786B460222FDF799FD08B1FF
:1035E00055E047E00520FCF7A5FE4248407A072158
:1035F00001EBC000C0B28DF800003E4A1268D179DC
:103600003C4A526810786B460122FDF781FD00B1FB
:103610003DE020208DF80000012C03D100208DF822
:1036200001000EE0052C03DC01208DF8010008E00C
:10363000142C03DC02208DF8010002E003208DF839
:1036400001009DF80100072101EB8010C0B28DF848
:103650000100284A1268917C264A526810786B460D
:103660000222FDF755FD00B111E00121214841750D
:10367000002056E71F4A1632002103E0505C00B1DB
:1036800005E0491C0C29F9D34FF0FF3049E7FF2032
:1036900018490872FF2117484172C1724FF6FF7135
:1036A000C181FF2181720174012101730146887F6C
:1036B000FEF797F90F49C88AFEF7E9FC0D49087E25
:1036C000FEF7A3FC0B49488BFEF7A7FB0949888B43
:1036D000FEF74FFC0749C87FFEF76AFB054890F8E4
:1036E000200010B10120FFF74DFD00210148417578
:1036F000002016E72C00002010B5C8234FF480628C
:10370000F74940F6F630FFF787FE10BD10B586B0DA
:103710000446F4A000680390F3A000680290F3A0B0
:1037200000680190F2A00068009004F0030003A973
:10373000085C8DF8140003A8C4F3C101405C8DF847
:10374000150003A8C4F38111405C8DF8160004F045
:10375000030002A9085C8DF8100002A8C4F3C1019F
:10376000405C8DF8110002A8C4F38111405C8DF813
:10377000120005AA032140F22640FFF7D3FD18B13D
:103780004FF0FF3006B010BD04AA032140F22A40DA
:10379000FFF7C8FD10B14FF0FF30F3E70198059037
:1037A0000098049004F0040058B19DF8140040F013
:1037B00001008DF814009DF8100040F001008DF814
:1037C000100004F0200058B19DF8150040F00100F1
:1037D0008DF815009DF8110040F001008DF81100E2
:1037E00004F4807058B19DF8160040F001008DF887
:1037F00016009DF8120040F001008DF8120005AA95
:1038000003214FF48860FFF78DFD10B14FF0FF30BA
:10381000B8E704AA032140F23140FFF783FD10B15D
:103820004FF0FF30AEE7B34804810020AAE71FB590
:103830000446B048007A00F0030054F820000190DC
:10384000AC48007A00F0040010B1019840420190A9
:10385000A848007AC0F3C10054F820000290A5489F
:10386000007A00F0200010B1029840420290A14876
:10387000007AC0F3811054F8200003909D4800891D
:1038800000F4807010B10398404203909A49019867
:1038900080FB0101800F40EA810001909649029867
:1038A00080FB0110820042EA9170029092490398D5
:1038B00080FB0110820042EA917003900198000E93
:1038C0008DF800000198000C8DF801000198000AA5
:1038D0008DF802000198C0B28DF803006A460421F9
:1038E0004FF47470FFF71EFD18B14FF0FF3004B0B5
:1038F00010BD0298000E8DF800000298000C8DF8A3
:1039000001000298000A8DF802000298C0B28DF8FA
:1039100003006A4604214FF47570FFF703FD10B1F0
:103920004FF0FF30E3E70398000E8DF80000039896
:10393000000C8DF801000398000A8DF8020003982E
:10394000C0B28DF803006A4604214FF47670FFF789
:10395000E9FCCCE770B588B0064601A8FEF7E9FEA1
:10396000BDF804000021C90341EA5045C403614881
:10397000007A00F0030056F8200005905D48007AB8
:1039800000F0040010B10598404205905948007AB3
:10399000C0F3C10056F8200006905648007A00F0A7
:1039A000200010B10698404206905248007AC0F3B9
:1039B000811056F8200007904E48008900F480706E
:1039C00010B10798404207900598C117A0FB042347
:1039D00001FB043100FB0510810041EA9270059063
:1039E0000698C117A0FB042301FB043100FB05105E
:1039F000810041EA927006900798C117A0FB04234A
:103A000001FB043100FB0510810041EA9270079030
:103A10000598000E8DF808000598000C8DF8090037
:103A20000598000A8DF80A000598C0B28DF80B00C1
:103A30000698000E8DF80C000698000C8DF80D000D
:103A40000698000A8DF80E000698C0B28DF80F0097
:103A50000798000E8DF810000798000C8DF81100E3
:103A60000798000A8DF812000798C0B28DF813006D
:103A700002AA0C214FF42570FFF754FC08B070BD6A
:103A800030B585B004461DA207CA02AB07C3C82CD7
:103A900003DD4FF0FF3005B030BDC82090FBF4F0DF
:103AA000401E85B2280A8DF80000E8B28DF80100AA
:103AB0006A46022140F21620FFF734FC10B14FF0A5
:103AC000FF30E8E702AA0C2140F6C120FFF72AFCEC
:103AD00010B14FF0FF30DEE7064884810020DAE7BE
:103AE000CC8500084CCD6C000CC92C0036567600F5
:103AF000264666009004002009E3CA02FEF2ABC429
:103B0000AAF1DFDFBBAFDFDF0146FC488089088018
:103B1000002070472DE9FC4706460F4606F00700D7
:103B200010B1B7F5C86F03DD4FF0FF30BDE8FC877B
:103B3000384603F0B1FD8146F14903F063FC80464D
:103B40006846FEF77AFD9DF80000022806D004289A
:103B500016D0082826D0102848D135E04FF08D41E6
:103B6000404603F0E1FD814603F05EFD84B2E54985
:103B7000404603F0D9FD814603F056FD85B238E09A
:103B80004FF08C41404603F0CFFD814603F04CFDE1
:103B900084B2DD49404603F0C7FD814603F044FD91
:103BA00085B226E04FF08B41404603F0BDFD8146D3
:103BB00003F03AFD84B2D549404603F0B5FD814695
:103BC00003F032FD85B214E04FF08A41404603F025
:103BD000ABFD814603F028FD84B2CD49404603F099
:103BE000A3FD814603F020FD85B202E04FF0FF30D7
:103BF0009CE700BF20128DF80400E0B28DF80500AC
:103C000028128DF80600E8B28DF8070006F00100D2
:103C1000A0B101AA02214FF4EA70FFF783FB10B1B3
:103C20004FF0FF3082E70DF1060202214FF492704F
:103C3000FFF778FB10B14FF0FF3077E706F0020096
:103C4000A0B101AA02214FF4EC70FFF76BFB10B199
:103C50004FF0FF306AE70DF1060202214FF4947035
:103C6000FFF760FB10B14FF0FF305FE706F0040094
:103C7000A0B101AA02214FF4EE70FFF753FB10B17F
:103C80004FF0FF3052E70DF1060202214FF496701B
:103C9000FFF748FB10B14FF0FF3047E7002045E742
:103CA00038B504460020009004F0010020B19DF8D2
:103CB000000040F03000009004F0020020B19DF8B8
:103CC000000040F00C00009004F0040020B19DF8CA
:103CD000000040F0030000906A4601214FF4A470F8
:103CE000FFF720FB38BD38B50446012C01DA01246A
:103CF00002E0042C00DD0424601EC0B200906A467D
:103D0000012140F24F10FFF70DFB38BD38B50446D6
:103D1000052094FBF0F085B228128DF80000E8B27F
:103D20008DF801006A4602214FF4EF70FFF7FAFAAE
:103D300038BD38B50446052094FBF0F085B2281252
:103D40008DF80000E8B28DF801006A4602214FF4B8
:103D5000ED70FFF7E7FA38BDF8B505460E464FF4AB
:103D60007A7095FBF0F000FB06F4200E8DF8000051
:103D7000200C8DF80100200A8DF80200E0B28DF8C9
:103D800003006A4604214FF4AE70FFF7CBFAF8BD8A
:103D900038B50446052094FBF0F084B220128DF86B
:103DA0000000E0B28DF801006A4602214FF4AD70C8
:103DB000FFF7B8FA38BD38B50446052094FBF0F09B
:103DC00084B220128DF80000E0B28DF801006A463E
:103DD00002214FF4AC70FFF7A5FA38BD38B50446A0
:103DE00014B94FF0FF3038BD6A4604214FF45870C3
:103DF000FFF7D5FA10B14FF0FF30F4E79DF800005F
:103E000000069DF8011040EA01409DF8021040EACA
:103E100001209DF80310084320600020E3E738B537
:103E20000446200E8DF80000200C8DF80100200AB9
:103E30008DF80200E0B28DF803006A4604214FF4C9
:103E40005870FFF76FFA38BD38B5044614B94FF013
:103E5000FF3038BD6A4604214FF47170FFF79FFAB6
:103E600010B14FF0FF30F4E79DF8000000069DF818
:103E7000011040EA01409DF8021040EA01209DF83F
:103E80000310084300EB8000800020600020E0E782
:103E900038B504461420B4FBF0F4200E8DF8000071
:103EA000200C8DF80100200A8DF80200E0B28DF898
:103EB00003006A4604214FF47170FFF733FA38BDEE
:103EC00038B5044664B120208DF8000028208DF814
:103ED000010030208DF8020038208DF8030004E046
:103EE000A3220421684601F093F86A46042140F6B3
:103EF0009E20FFF717FAFDF77DFE38BD90040020E5
:103F000000004843000040460000C0450000404516
:103F10000000C04438B5044664B1C0208DF80000EC
:103F2000C2208DF80100C4208DF80200C6208DF853
:103F3000030004E08B220421684601F069F86A4618
:103F4000042140F69820FFF7EDF9FDF753FE38BD48
:103F50003EB504466CB1FDA1D1E900208968CDE9E8
:103F6000002002916A4609214FF49760FFF7DAF9C1
:103F70003EBDF9A2D2E900109268CDE9010200919C
:103F80006A4609214FF49760FFF7CCF9F0E73EB598
:103F9000044602208DF80000CA208DF80100E320BD
:103FA0008DF8020009208DF803006A46042168207C
:103FB000FFF7B8F9A3208DF8000004F0400048B1E5
:103FC000C0208DF80100C8208DF80200C2208DF8B5
:103FD000030006E0A3208DF801008DF802008DF8A3
:103FE000030004F4C07048B1C4208DF80400CC2054
:103FF0008DF80500C6208DF8060006E0A3208DF898
:1040000004008DF805008DF80600A3208DF8070048
:104010008DF808008DF809006A460A2140F6A720AD
:10402000FFF780F904F0030018B120208DF800009C
:1040300002E0D8208DF800006A46012140F6B62043
:10404000FFF770F904F0200018B10120FFF780FF9E
:1040500002E00020FFF77CFF04F4C07008B304F412
:10406000807060B1B2208DF800008B208DF80100C7
:10407000B6208DF802009B208DF803000BE0B020E5
:104080008DF8000080208DF80100B4208DF802002A
:1040900090208DF803006A46042140F6A220FFF725
:1040A00041F904F0010020B3F8208DF800006A46C1
:1040B00001214FF40B60FFF735F9FA210720FFF7D4
:1040C00029FD0720FFF7ECFD0120FFF70CFE64201F
:1040D000FFF71CFE4FF4FA70FFF72BFEC821A14832
:1040E000FFF73AFE2820FFF753FE0A20FFF763FE92
:1040F00008E0D8208DF800006A4601214FF40B60DB
:10410000FFF710F904F0020018B1D9208DF8000073
:1041100002E0D8208DF800006A46012140F23D708F
:10412000FFF700F904F0040018B10120FFF7F2FED8
:1041300002E00020FFF7EEFE04F0100018B10120AD
:10414000FFF7BEFE02E00020FFF7BAFE44F00800D1
:1041500085494881FDF74EFD00208349887304F0AE
:10416000400018B10846807B801D887304F4C0703D
:1041700020B17D48807B801D7B49887304F014004A
:1041800020B17948807B10307749887304F00300B0
:1041900020B17548807B001D7349887300203EBDA7
:1041A0000146714840890880002070472DE9F041A0
:1041B0000446E07800F0C006E07800F03F05607843
:1041C00000F0010098B1EF102846E91705EB517196
:1041D000C910A5EBC101491C01F0FF086248006845
:1041E00020B16148414602683846904700BF607878
:1041F00000F0080030B15C48406818B1B0115A4A6C
:10420000516888470020BDE8F08110B586B00446AB
:1042100056A207CA03AB07C357A207CA8DE8070017
:10422000012C09D0022C0ED103AA0B2140F68220CA
:10423000FFF778F806B010BD6A460B2140F68220E1
:10424000FFF770F8F6E74FF0FF30F3E72DE9F04F96
:104250008DB00746884615469946DDE9166B002461
:10426000002030804049887B5A4605A9FEF7BDFBF7
:1042700018B1601E0DB0BDE8F08F3B48807A00F0A9
:104280001400002861D09DF8140000069DF8151058
:1042900040EA01409DF8161040EA01209DF81710F1
:1042A000084328609DF8180000069DF8191040EAA0
:1042B00001409DF81A1040EA01209DF81B100843A8
:1042C00068609DF81C0000069DF81D1040EA014042
:1042D0009DF81E1040EA01209DF81F100843A860B9
:1042E0009DF8200000069DF8211040EA01409DF84D
:1042F000221040EA01209DF823100843E86004F1F1
:104300001000C4B22868001401906868001402907C
:10431000A86800140390E8680014049001984043D2
:10432000029901FB0100039901FB0100049901FBC3
:10433000010ABAF1706F02DBBAF1885F22DDFDF786
:1043400059FC00203080401E94E721E0B8AAB38DCC
:10435000B4980D355D000000B8AAAAAAB088C3C5FC
:10436000C700000009E3CA0290040020D8B1B9F3E5
:104370008BA391B609B4D900DAB1B9F38BA391B686
:10438000DAB4DA00B6F9000040F48070308000BF83
:104390003448807A00F0400020B305A9601C085C16
:1043A000095D40EA012000B2A8F8000005A9E01C60
:1043B000095C05AAA01C105C41EA002000B2A8F824
:1043C000020005A9601D095C201D105C41EA002067
:1043D00000B2A8F80400A01DC4B2B6F9000040F075
:1043E000080030801F48408900F4C07008B305A958
:1043F000601C085C095D40EA012000B2388005A914
:10440000E01C095C05AAA01C105C41EA002000B277
:10441000788005A9601D095C201D105C41EA002020
:1044200000B2B880A01DC4B2B6F9000040F0700020
:1044300030800C48807A00F0030018B105A90819F3
:10444000FFF7B4FE4846FDF734FF002012E70146AF
:104450000448016000207047014602484160002086
:104460007047000090040020014691F90020002AC6
:1044700001DD00201EE091F90020002A01DA04206D
:1044800018E091F90120002A01DD012012E091F9E4
:104490000120002A01DA05200CE091F90220002A0F
:1044A00001DD022006E091F90220002A01DA06204F
:1044B00000E00720704770B505462846FFF7D4FF97
:1044C0000446E81CFFF7D0FF44EAC00084B2A81DF0
:1044D000FFF7CAFF44EA801084B2204670BD70B571
:1044E00088B002A905A8FEF792FE0446072C3FD12A
:1044F00001A8FEF701F9059803F0B6F80646019900
:1045000003F012F9054603F073F80590069803F0DE
:10451000ABF80646019903F007F9054603F068F881
:104520000690079803F0A0F80646019903F0FCF8FE
:10453000054603F05DF8079005A8FFF778F968468F
:10454000FEF7F7F8BDF80010029848430290BDF856
:104550000010039848430390BDF8001004984843A6
:10456000049002A8FFF7F6F9FEA000F0ABFC00BF34
:1045700008B070BD2DE9F04304460D46DDE907673C
:104580000021012041E0DFF800C43CF81080A0F1D8
:10459000010CDFF8F49329F81C8009F1160C3CF8A3
:1045A0001090A0F1010CDFF8E08308F1160828F85C
:1045B0001C9008F1160C3CF81090A0F1010C08F1C9
:1045C000160828F81C9008F1160C3CF81090A0F181
:1045D000010C08F1160828F81C9008F1160C3CF89C
:1045E0001090A0F1010C08F1160828F81C9008F1B1
:1045F000160C3CF81090A0F1010C08F1160828F8F0
:104600001C9000F1010C0CF0FF000A28BBDBDFF866
:1046100078C3ACF81240ACF82850ACF83E20ACF8A7
:104620005430ACF86A60ACF880700021002008E0DB
:10463000DFF854C33CF910C0614400F1010C0CF0E8
:10464000FF000A28F4DB4FF00A0C91FBFCFC0FFA88
:104650008CFCDFF83483A8F814C0002100200AE0A5
:10466000DFF824C30CF1160C3CF910C0614400F1D2
:10467000010C0CF0FF000A28F2DB4FF00A0C91FB52
:10468000FCFC0FFA8CF8DFF800C3ACF82A8000219C
:1046900000200AE0DFF8F0C20CF12C0C3CF910C04D
:1046A000614400F1010C0CF0FF000A28F2DB4FF02E
:1046B0000A0C91FBFCFC0FFA8CF8DFF8CCC2ACF8CA
:1046C0004080002100200AE0DFF8BCC20CF1420C5F
:1046D0003CF910C0614400F1010C0CF0FF000A2805
:1046E000F2DB4FF00A0C91FBFCFC0FFA8CF8DFF8C0
:1046F00098C2ACF85680002100200AE0DFF888C29A
:104700000CF1580C3CF910C0614400F1010C0CF0A4
:10471000FF000A28F2DB4FF00A0C91FBFCFC0FFAB9
:104720008CF8DFF864C2ACF86C80002100200AE04D
:10473000DFF854C20CF16E0C3CF910C0614400F17A
:10474000010C0CF0FF000A28F2DB4FF00A0C91FB81
:10475000FCFC0FFA8CF8DFF830C2ACF88280BDE8C0
:10476000F08338B50446032302226B21D020009445
:10477000FCF700FE38BD38B50446022304221B2195
:10478000D0200094FCF7F6FD38BD38B5044602236E
:1047900004221C21D0200094FCF7ECFD38BD10B59C
:1047A0000446234606226B21D020FCF718FE10BDDC
:1047B00010B5764B01227521D020FCF769FD7348B6
:1047C000007810BD10B5FFF7F3FF682801D1012074
:1047D00010BD0020FCE710B50446234605226A21DF
:1047E000D020FCF7FCFD10BD10B504462346012285
:1047F0003721D020FCF7F3FD10BD10B50220FFF7E4
:10480000B0FF0320FFF7B7FF0020FFF7BEFF002037
:10481000FFF7C5FF0020FFF7DEFF0020FFF7E4FFF2
:1048200010BD38B5002000906B460122752168202C
:10483000FCF7D0FC56A000F045FB9DF8000068286E
:104840000ED000BF5B48006800F4E0605A4908439E
:10485000001D58490860BFF3408F00BF00BFFEE74E
:10486000FDF757FC00283CD17820FDF7BAF810B9C5
:1048700047A000F027FB7820FDF79AFA10B94FA067
:1048800000F020FBC820FDF774FB10B955A000F024
:1048900019FBFEF731FF10B95CA000F013FB68486C
:1048A000FFF709FE0446FEF731FF10B965A000F0DE
:1048B00009FB40F27310FFF76AFB10B96BA000F020
:1048C00001FBC820FFF7DCF810B972A000F0FAFA7B
:1048D000FFF705FE0120FEF755FC10B976A000F0A9
:1048E000F1FA38BD2DE9F04F8DB00AA87B490BAB2A
:1048F00006AACDE900107A497A48FFF7A7FC774865
:10490000008800F4807000282AD0069802F0ACFEDF
:1049100004464FF09D4102F075FD73490860079809
:1049200002F0A2FE04464FF09D4102F06BFD6F497C
:104930000860089802F098FE04464FF09D4102F08E
:1049400061FD6B490860099802F08EFE04464FF045
:104950009D4102F057FD6749086063480168CBE05C
:104960004EE1000073657474696E6720626961735B
:104970002073756363657366756C6C79202E2E2EBB
:104980002E2E2E0D0A000000AE040020A0040020F0
:104990006D70755F7365745F73656E736F7220639E
:1049A0006F6D706C657465202E2E2E2E2E2E0D0AC6
:1049B000000000000CED00E00000FA056D70755F6E
:1049C000636F6E6669677572655F6669666F20639F
:1049D0006F6D706C657465202E2E2E2E2E2E0D0A96
:1049E000000000006D70755F7365745F73616D70BA
:1049F0006C655F7261746520636F6D706C65746562
:104A0000202E2E2E2E2E2E0D0A000000646D705FBB
:104A10006C6F61645F6D6F74696F6E5F64726976ED
:104A200065725F6669726D7761726520636F6D7024
:104A30006C657465202E2E2E2E2E2E0D0A00000081
:104A400080000020646D705F7365745F6F726965CC
:104A50006E746174696F6E20636F6D706C657465E0
:104A6000202E2E2E2E2E2E0D0A000000646D705F5B
:104A7000656E61626C655F66656174757265206301
:104A80006F6D706C657465202E2E2E2E2E2E0D0AE5
:104A900000000000646D705F7365745F6669666F27
:104AA0005F7261746520636F6D706C657465202E34
:104AB0002E2E2E2E2E0D0A006D70755F7365745F9D
:104AC000646D705F737461746520636F6D706C6585
:104AD0007465202E2E2E2E2E2E0D0A00640000202E
:104AE0005E000020580000207000002074000020AC
:104AF000780000207C0000204FF0804002F014FE7F
:104B000004905C480168049802F00EFE82465A4800
:104B100001684FF0404002F007FE049057480168DA
:104B2000049802F001FE8346514602F0FDFB059019
:104B300002F0CEFB804601F06BFB06464FF066327A
:104B40004F4B02F0EBF8044601F0AEFE4D49086011
:104B5000484801684FF0804002F0E6FD019045486A
:104B60000168019802F0E0FD8246434801684FF079
:104B7000404002F0D9FD01903F480168019802F0E1
:104B8000D3FD8346514602F0D7FE81464FF07E5159
:104B900002F0CAFB044602F09BFBCDE904013A484F
:104BA00001684FF0804002F0BFFD83463248016843
:104BB000584602F0B9FD81462E4801684FF080400A
:104BC00002F0B2FD83462D480168584602F0ACFD64
:104BD0008246494602F0A8FB044602F079FBCDE983
:104BE0000201DDE9042301F063FD07464FF0663260
:104BF000234B02F093F8054601F056FE2349086066
:104C00000DB0BDE8F08F2DE9F05F4221D020FCF718
:104C10001CFB05464121D020FCF717FB05EB0024C7
:104C2000204602F021FD82464FF08E41504602F0B0
:104C300047FE05D24FF08F41504602F07DFE82467E
:104C40001349504602F0DEFB834602F041FB8046EA
:104C5000104A114B01F05AFE064600220F4B02F09B
:104C60005DF8044601F020FE8246504602F0C0FC8A
:104C7000BDE8F09F78000020740000207C00002038
:104C800066A64C4068000020700000206C000020E8
:104C90000000AA43A4703D0AD743424000002440CC
:104CA00038B5FBF757FE5CA200210846FBF759FF19
:104CB0000C20012300905A48027800211E20FBF7A7
:104CC00006FF57480078012805D156A200212D2063
:104CD000FBF747FF12E052480078022805D152A2A4
:104CE00000212D20FBF73DFF08E04D480078032808
:104CF00004D14FA200212D20FBF733FF4EA20A2141
:104D00000020FBF72EFF4E4800680A2190FBF1F4CB
:104D10000C200223224600902D20FBF7D8FE4848A5
:104D200000680A2190FBF1F201FB12040C20012320
:104D3000224600904420FBF7CAFE42A20A213A20F4
:104D4000FBF70FFF40A20A215020FBF70AFF3FA20A
:104D500028210020FBF705FF00213E48006802F0F3
:104D6000AFFC11D23C493B48006802F0DDFA054631
:104D700002F05AFC04460C2003232246282100900E
:104D80004B20FBF7A4FE0CE03248006802F04CFC1C
:104D900004460C2003232246282100904B20FBF7D9
:104DA00096FE2EA232210020FBF7DBFE00212D48CB
:104DB000006802F085FC11D227492A48006802F0F9
:104DC000B3FA054602F030FC04460C2003232246C9
:104DD000322100904B20FBF77AFE0CE0214800685E
:104DE00002F022FC04460C200323224632210090CC
:104DF0004B20FBF76CFEFBF78AFD38BD98B51548D4
:104E0000006802F0F5FB0746F3B2EAB2E1B20090A7
:104E100015A000F057F898BD5741592D000000002B
:104E200000000020444D50004B616C6D616E00002D
:104E3000487562750000000057656E6475000000DB
:104E4000040000202E0000006043000050697463DD
:104E500068000000680000200000B443526F6C6CD2
:104E6000000000006C0000205A25643A25643A25B1
:104E7000643A25644C240000704710B54C1084EA55
:104E8000530404D54042C1F1000138BF491E1B4202
:104E900004D55242C3F1000338BF5B1E00F0C4F8D2
:104EA00014F0804F04D04042C1F1000138BF491EC8
:104EB00014F0004F04D05242C3F1000338BF5B1E10
:104EC00010BD00000FB4044910B503AA029800F009
:104ED00091FB10BC5DF814FB1C0000202DE9F04193
:104EE0000E460446002020622046E168884730B321
:104EF000252805D0D4E901219047206A401CF2E71B
:104F0000E168204600278847050018D0A5F1410038
:104F1000192802D820354FF400673246294620462A
:104F20002760FBF71DF940B1012804D0F61D26F0DB
:104F300007060836D8E7361DD6E72846DAE7206A9E
:104F4000BDE8F0812DE9F04106460024106875297E
:104F5000314615A510D0AFF30080002802DA404298
:104F600012A507E031688A0701D511A502E04907BB
:104F700004D510A5012401E0AFF3008000210A232D
:104F800006F1240707E0B0FBF3F203FB1200303018
:104F900078541046491C0028F5D123462A4630464D
:104FA000BDE8F04100F0C2B8000000002D00000094
:104FB0002B0000002000000040EA010310B59B0711
:104FC0000FD1042A0DD310C808C9121F9C42F8D073
:104FD00020BA19BA884201D9012010BD4FF0FF3024
:104FE00010BD1AB1D30703D0521C07E0002010BD3A
:104FF00010F8013B11F8014B1B1B07D110F8013BC6
:1050000011F8014B1B1B01D1921EF1D1184610BDA6
:1050100002F0FF0343EA032242EA024200F0FEBA32
:10502000704770477047704753EA020C00F0698080
:105030002DE9F04B4FF00006002B1FBFB3FA83F5AC
:1050400003FA05F424FA05F65E4012BF1643B2FADD
:1050500082F502FA05F4C5F120051EBF22FA05FC0F
:1050600044EA0C04203556EA044C4FEA144418BFB5
:10507000641C4FF000084FF00009904271EB030CE4
:1050800039D3002919BFB1FA81F701FA07F6B0FA4E
:1050900080F700FA07F6C7F120071EBF20FA07FCC9
:1050A00046EA0C062037B6FBF4FCA7EB0507103FD9
:1050B00007F01F0BCBF120060CFA0BFB2CFA06F6BF
:1050C00044BFB3460026202FA4BF5E464FF0000B1E
:1050D0005BEA060C08BF4FF0010B19EB0B09ABFBA9
:1050E000027C48EB0608C01B06FB02CC0BFB03CC82
:1050F00071EB0C01C1E70B46024641464846BDE84C
:10510000F08B13B54FF000004FF00001AFF30080BB
:10511000BDE81C40704710B500F0A4FA006810BD4F
:1051200010B5044600F09EFA046010BD2DE9F0476A
:105130000D4699469246044600F124080168880607
:1051400004D5E06921F01001216000E00120A842AF
:1051500001DD471B00E00027A1697A1902EB090075
:10516000081AA0612078C00602D42046AFF3008060
:10517000002608E0D4E901211AF806009047206AC9
:10518000401C761C20624E45F4DB2078C0060AD510
:105190002046AFF3008006E0D4E90121302090479B
:1051A000206A401C2062381EA7F10107F4DC07E0EA
:1051B000D4E9012118F805009047206A401C2062BC
:1051C000281EA5F10105F3DC2046AFF3008020780E
:1051D000000602D50220BDE8F0870120FBE77047FA
:1051E0002DE9FF4F0C461E464FF0FF378BB0D2E93A
:1051F0000001DDF860800A908A46C1F30A5505B9BE
:105200003D46002108464FF00000BAF1000F00F4BF
:10521000400005DA00EB80004FF4400101EA500045
:105220004FEA9059B9F1010F00DDB9460A9850EAEA
:105230004A000ED044F61050A5F2FF3545432F1416
:10524000B8F1000F1ED07542291E1EDDC9F1000203
:105250001CE0B8F1010F4FF0000001D0302103E055
:10526000F24305E02154401CB042FBDB30460022F3
:10527000002121540B99C1F80880C1E900200FB02A
:10528000BDE8F08FBD1B6D1CDEE74A4600DA6942BF
:1052900006A800F089FA06AB93E8070003AB83E8A1
:1052A000070050460A9900F087FB8DE80700A0F53B
:1052B00000501F3800900398002D09DD42F21F01B5
:1052C0004A46084403A90390684600F0E6FD08E05A
:1052D000A0F500504A461F3803A90390684600F025
:1052E000F0FD8DE807000004000C03D04FF0FF3004
:1052F000410800E01046B8F1000F03D000220092F0
:1053000015461EE0751E05D400F0B0F93032625526
:105310006D1EF9D5B3460122084302D000227F1C3E
:1053200004E02078302801D100227F1E002A09974E
:1053300086D01DE0112D07DA00F098F93032625561
:105340006D1C50EA0102F5D1084302D00098C8B1A3
:105350000EE00021681E05E0235C625C6354225469
:10536000401E491C8142F7DBAB46A81B401E09903A
:10537000002004F80B000B98099AC0F80880C0E9D7
:10538000002B7CE711264FF0000859E72DE9F04F7C
:1053900088460446D21D22F0070191B0D1E90001F0
:1053A000CDE90A0100F0C3FE02460B98C00F01D000
:1053B0002D2007E02068810701D52B2002E0202165
:1053C00001EAC000032A099001D0072A05DB034641
:1053D0004146204600F0A8F909E12078800601D571
:1053E000E06900E00620B8F1650F814606D0B8F10B
:1053F000660F18D0B8F1670F70D131E00020B9F115
:10540000110F009001DB112301E009F101030AAA49
:1054100001A90CA8FFF7E4FEDDE90C70002609F1F4
:105420000105834647E001204B4600904FF00047BE
:105430000AAA01A90CA8FFF7D3FEDDE90DB00C996B
:105440005D46002610B909F101000D18B9EB050001
:1054500003D4C0F1FF3609F10105A5EB09002BE0EB
:10546000B9F1010F01DA4FF001090020B9F1110F74
:105470000090484601DD112300E003460AAA01A975
:105480000CA8FFF7ADFEDDE90C704D460026834603
:10549000207800070AD4AB4500DA5D4601A8012D4B
:1054A00004DD411911F8011C302907D04F4502DAFB
:1054B00017F1040F04DA012082460FE06D1EEEE7BB
:1054C000002F02DCED1B3E4403E0781CA84200DD07
:1054D0007D1CB81B00F1010A4FF00047207800073F
:1054E00003D4AA4501DB4FF0FF3A0021B7F1004F8A
:1054F0000DF143088DF8431022D002202B23002FFA
:1055000001DA7F422D234FF00A0C011EA0F10100A9
:1055100000DC47B197FBFCF10CFB11720F463032F7
:1055200008F8012DF1E7A8F10100037021880905B1
:1055300001D5452100E06521A0F1010800F8011C1A
:1055400009980FA9A1EB0807FF1D00B1012041191F
:1055500001EBEA70A1693844081A401EA061207866
:10556000C00602D42046AFF30080099828B1D4E9E0
:1055700001219047206A401C20622078C00622D575
:105580002046AFF300801EE0002E04DBB34502DDB1
:1055900001A8805D00E03020D4E901219047206A15
:1055A000401C2062761CAAF101005FEA000A0AD1C1
:1055B00000F054F8C0680168405CD4E901219047CC
:1055C000206A401C2062281EA5F10105DCDC07E0F2
:1055D000D4E9012118F8010B9047206A401C206291
:1055E000381EA7F10107F3DC2046AFF3008002204C
:1055F00011B045E6074B70B50D467B4400F081F8CD
:105600000446284600F03CF910B14FF0FF3070BD61
:10561000204670BD39B0FFFF4FF000020429C0F0F2
:10562000128010F0030C00F03181CCF1040CBCF1BD
:10563000020F18BF00F8012BA8BF20F8022BA1EB26
:105640000C0100F023B95FEAC17C24BF00F8012BF4
:1056500000F8012B48BF00F8012B70470048704745
:1056600054050020004870473405002030B5B0F1E3
:105670000A024FEA900E71F100034EEA817EB0EB10
:105680000E0061EB91014FEA101E4EEA017E10EB15
:105690000E0041EB11114FEA102E4EEA016E10EB95
:1056A0000E0041EB11214FEA104E4EEA014E10EB75
:1056B0000E0041EB1141401841F100014FEAD000CA
:1056C00040EA41704FEAD10110EB80054FEA8104B6
:1056D00044EA907444EB01046D1944EB0404521B3A
:1056E000A3414FF0000348BF0A3200D530BD401C33
:1056F00041F1000130BD000001694A1C02610878D7
:10570000704700B58FB0CDE9013100210591054901
:105710007944CDE9031011466846FFF7DFFB0FB06F
:1057200000BD0000E5FFFFFF2DE9F0411F460446E4
:1057300003260168072A01F4006004DB08B116A5FE
:1057400005E016A503E008B115A500E015A521F0B8
:1057500010002060A069C01EA0610FB1401EA061B2
:105760002046AFF300804FB1D4E90121384690477D
:10577000206A401C2062C01C206206E0206AFAE712
:10578000D4E9012115F8010B9047761EF8D2204686
:10579000AFF30080BDE8F0814E414E006E616E00B7
:1057A000494E4600696E66002DE9F047814616466F
:1057B0008AB0324878440DC88DE80D002F487844EF
:1057C000801C03AC0DC884E80D0041F69B303722E5
:1057D000014491FBF2F0A0F1800502FB10141B3C88
:1057E00002D56442012000E00020DFF890A080464E
:1057F0000027FA44AAF1BA0A0DE0E00709D03246C0
:10580000684607EB47010AEB810100F05AFB8DE87F
:10581000070064107F1C002CEFD1184F7F44A83F75
:1058200018E0E80714D007EB04100DF1180A90E80F
:105830000E008AE80E00C068F04201D19819089065
:10584000324606A903A800F03CFB03AB83E807003F
:105850006D10641C002DE4D132466946B8F1000F8A
:1058600003A802D000F019FB01E000F02AFBC9E90F
:105870000001C9F808200AB0BDE8F0877C3B0000B1
:10588000007B00F0800070474FF0000200B5134627
:1058900094469646203922BFA0E80C50A0E80C5050
:1058A000B1F12001BFF4F7AF090728BFA0E80C5001
:1058B00048BF0CC05DF804EB890028BF40F8042BFA
:1058C00008BF704748BF20F8022B11F0804F18BF67
:1058D00000F8012B70470000004870473405002095
:1058E0007546FFF7F9FFAE4605006946534620F0BE
:1058F0000700854618B020B5FAF768FCBDE82040DF
:105900004FF000064FF000074FF000084FF0000B7B
:1059100021F00701AC46ACE8C009ACE8C009ACE82E
:10592000C009ACE8C0098D4670470446AFF300805B
:105930002046FAF732FC00004FF0013C50F8042BEF
:1059400051F8043B9A4221D1A2EB0C03934313EA92
:10595000CC1317D150F8042B51F8043B9A4215D1BF
:10596000A2EB0C03934313EACC130BD150F8042B96
:1059700051F8043B9A4209D1A2EB0C03934313EA7A
:10598000CC13DBD04FF00000704700BFD01A01BA33
:10599000B1FA81F101F0180122FA01F0CB40C1F116
:1059A0002001DBB2C0B2C01A2CFA01F3D11A914324
:1059B00011EAC311E6D170475FEA400C08BF91F0CD
:1059C000000F4FEA8C234FEAC12243EA51514FEABC
:1059D0001C5018BF00F5F0404FEA300018BF41F0EE
:1059E00000415FEA6C5C00F02980BCF1FF3F08BF1A
:1059F00040F080407047130C06BF12044FF0100CAB
:105A00004FF0000C130E04BF12020CF1080C130F20
:105A100004BF12010CF1040C930F04BF92000CF1AF
:105A2000020CD30F04BF52000CF1010C11464FF0D1
:105A30000002A0F11F00A0EB0C00704711F0004F16
:105A400008BF704731F000413FF4D5AF0B0C06BFE3
:105A500009044FF0100C4FF0000C0B0E04BF0902AC
:105A60000CF1080C0B0F04BF09010CF1040C8B0F97
:105A700004BF89000CF1020CCB0F04BF49000CF1EC
:105A8000010CCCF12003A0EB0C0022FA03F302FA84
:105A90000CF241EA030100F10100704720F07F4C55
:105AA00080EA030023F07F47ACEB070303F57C5348
:105AB00000F0004003F1FF032DE980494FEA154B48
:105AC00009B44FEA144325EA0B4E24EA03480FF2C7
:105AD000042606EB132749083E785FEA320203FBEF
