:020000040800F2
:10000000A00C0020BD010008C1010008C3010008C8
:10001000C5010008C7010008C90100080000000070
:10002000000000000000000000000000CB010008FC
:10003000CD01000800000000CF010008D101000838
:10004000D3010008D3010008D3010008D301000840
:10005000D3010008D3010008D3010008D301000830
:10006000D30100084B1A0008D3010008D30100088F
:10007000D3010008D3010008D3010008D301000810
:10008000D3010008D3010008D3010008D301000800
:10009000D3010008D3010008D3010008D3010008F0
:1000A000D3010008D3010008D3010008D3010008E0
:1000B000D3010008CB0E0008D3010008D3010008CB
:1000C000D3010008D3010008D3010008D3010008C0
:1000D000D3010008D30100086D180008D3010008FF
:1000E000CD070008D3010008D301000800F002F892
:1000F00000F04FF80AA090E8000C82448344AAF173
:100100000107DA4501D100F044F8AFF2090EBAE870
:100110000F0013F0010F18BFFB1A43F0010318473B
:1001200080950000A09500000A4410F8014B14F0DF
:100130000F0508BF10F8015B240908BF10F8014B38
:100140006D1E05D010F8013B6D1E01F8013BF9D181
:10015000641E03D0641E01F8015BFBD19142E4D31D
:10016000704700000023002400250026103A28BF15
:1001700078C1FBD8520728BF30C148BF0B60704719
:10018000642905F03187002070471FB51FBD10B5E9
:1001900010BD06F0F7F81146FFF7F7FF00F02AF858
:1001A00006F015F903B4FFF7F2FF03BC00F022FAE2
:1001B00030BF72B662B680F30888704708480047BF
:1001C000FEE7FEE7FEE7FEE7FEE7FEE7FEE7FEE707
:1001D000FEE7FEE703480449044A054B7047000068
:1001E000ED000008A0060020A00C0020A0080020C0
:1001F000A0080020092000F0A4F9482000F044F8ED
:10020000022000F089F9012000F086F900F082FA5E
:1002100000F0B6FA00F00FFD4FF4FA31482000F07C
:1002200012FA4FF41651242001F0AEFA902142F256
:100230000F7000F0C9FE00F04FFF00F084FF00F0E7
:10024000F3FF05F038F905F04AF901F073FA14E00C
:100250000A48007820B905F0E3FC05F0DBFB01E07B
:1002600005F024FD012006490870002005490870AA
:1002700000BF034800780028FBD1E9E70700002011
:1002800035000020340000204FF0E021096921F002
:1002900004014FF0E0221161C21700EB5272C2F369
:1002A000C702234B1A701946097801EB4102C2EBD1
:1002B000C1114FF6FF7202EAC1011E4A1180704758
:1002C00001461B4A12784A434FF0E0235A6100224C
:1002D0009A6101221A6100BF4FF0E022106900F01C
:1002E00001021AB100F48032002AF5D000224FF04A
:1002F000E0231A619A61704701460E4A12884A4308
:100300004FF0E0235A6100229A6101221A6100BF76
:100310004FF0E022106900F001021AB100F48032BF
:10032000002AF5D000224FF0E0231A619A6170474D
:100330003C0000203E000020A34A0A400243A34B99
:100340001A6070470146072323EA010212029F4BFD
:100350001B1D18684FF6FF0318409D4B18431043B0
:100360009A4B1B1D186070472DE9F04107468846DF
:1003700014461D462846FFF7E5FFC5F1040007FABD
:1003800000F60F20284100EA0800064306F00F0699
:10039000E21704EBD2625211920002F1E022D2F88D
:1003A00000212146E31704EBD3635B11A4EB431C4C
:1003B000012303FA0CF31A432046E31704EBD3633B
:1003C0005B119B0003F1E023C3F800218148005D2D
:1003D00040EA06107F490855BDE8F08170B5044633
:1003E0000B46CE1701EB9676C6F38700CE1701EBCE
:1003F0009676B610A1EB8606B606350E764B9B694F
:1004000043F00103744EB3614FEAB63353F8203022
:100410000F26AE40B343714E46F82030334653F8B2
:10042000203004FA05F61E436C4B43F820606C4BF9
:100430001B6801268E403343694E336002F001038E
:1004400043B1674B0C331B6801268E403343644E27
:100450000C36336002F0020343B1614B08331E686F
:1004600001238B401E435E4B08331E6070BD00B5F8
:10047000002059490861C860142048610020886143
:10048000C8610846006840F00100086008464068FE
:10049000544908405049486008460068524908409D
:1004A0004D4908600846006820F48020086008462E
:1004B000406820F4FE0048600020886000214FF072
:1004C0000060FFF739FF00BD10B5404808300068F4
:1004D00040F004003D49083108603F48C06940F0E1
:1004E00080503D49C8614148406840F480703F49B0
:1004F00048600846006840F004000860084600684C
:1005000040F002000860FFF753FE10BD3048001DA8
:100510002E49091D08607047014649062E4A926916
:1005200042F001022C4B9A612C4A083A526822F0A0
:10053000E0622A4B083B5A601A4652680A435A60E6
:10054000704730B504460025FFF791FF2248006848
:1005500040F480302049086000BF1F480068400C0C
:100560000028FAD04FF480601B494860A01EC4B236
:100570000846406840EA844048600846406840F4C5
:10058000803048601A48006840F03200184908601E
:100590001148006840F080700F49086000BF0E48A5
:1005A0000068400E0028FAD00B48406840F0020076
:1005B0000949486005E008484068C0F3870505F030
:1005C0000305022DF7D130BD80FFFF1F08ED00E0CD
:1005D0000000FA0500E400E00010024008000140BD
:1005E000000401400000FFF8FFFFF6FE007000402D
:1005F00000200240014600BF7047404A12785AB9B5
:1006000000BF3F4A128802F04002002AF9D0C2B26D
:100610003B4B1B1D1A800AE000BF3A4A128802F0C9
:100620004002002AF9D0C2B2364B1B1D1A80704717
:100630003449091D088000BF3249098801F0400192
:100640000029F9D070472DE9F05F05460E463001CC
:1006500007F0F0F981462C4905FB01F007F0EAF9B3
:100660008246494607F09CF80746384607F0AAF943
:1006700084B2204607F0DEF98346394607F01FFBB7
:1006800082464FF0834107F01DFA814607F09AF940
:1006900080464FF6FF7000EA041404EB080084B2B1
:1006A0001A48806940F0040018498861084680694A
:1006B00040F4804088611648006820F47F60144947
:1006C00008600846006840F40B6008600F48C06886
:1006D00040F480400D49C8600846C06820F480405E
:1006E000C860084808300480001D008842F20C01F0
:1006F000084304490C310880BDE8F09F0700002042
:10070000004400400038014040420F000010024009
:10071000040801401548806940F0040013498861CD
:100720001348006820F00F0011490860084600686F
:1007300040F0030008600E480830006840F4807004
:100740000B490831086070470A490968491C094A81
:100750001160814208D108490968C943074AC2F8B3
:10076000A0110021034A11607047000000100240F0
:100770000408014044000020A00121420000214261
:1007800010B56648806940F0040064498861644897
:10079000006820F07040624908600846006840F038
:1007A000004008605E480830006840F400405C4942
:1007B0000831086001220F210020FFF70FFE0223FD
:1007C000282201211846FFF7CFFD10BD10B50A20E1
:1007D000FFF792FD5348006838B95348007808B9CC
:1007E000012000E00020504908704FF400404F49BC
:1007F000086010BD01464B48006828B94C48008885
:10080000401C4B4A108002E00020494A10804548B5
:10081000006828B94748007810B90120454A10708F
:1008200045480078B0B943480078012807D14348CB
:100830000078401C414A107001203F4A10703F4828
:100840000078022806D100203C4A10703C4A1080F3
:100850000220704733480068012804D10020354A3F
:100860001070354A10703548007801281CD1344882
:100870000088401C324A10801046008888420ADDF9
:100880002B480088884206DA00202C4A10702C4A37
:1008900010800120DDE726480088884204DD002022
:1008A000264A1070264A10800020D2E7254800789A
:1008B00038B11C48006820B9002022490870012086
:1008C000704718480068012801D11E4908700020AF
:1008D000F6E71D48008840B91248006828B91B484F
:1008E0000088401C1949088002E000201749088050
:1008F00016480088C82807DD012013490880002019
:1009000012490880012070470F480088012802D151
:1009100000200D4908800020F5E70000001002408B
:10092000040801403C01214207000020140401405A
:100930004E00002048000020490000204A0000200E
:100940004C000020500000205400002052000020E5
:1009500010B50A461AB10123FE4C236002E00023C1
:10096000FC4C2360002114E00023FB4C236000F0CA
:1009700080031BB10123241D236003E00023F64CF8
:10098000241D23600123F44C23604306180E4B1CE6
:10099000D9B20829E8DB0123EE4C236010BD30B545
:1009A00000241CE004F1B001C8B20021FFF7D0FF21
:1009B00000210846FFF7CCFF00211020FFF7C8FFF9
:1009C000002508E0E54901EBC501085D0121FFF7BD
:1009D000BFFF681CC5B2802DF4DB601CC4B2082CBC
:1009E000E0DB30BD00B500218D20FFF7B1FF002115
:1009F0001420FFF7ADFF0021AF20FFF7A9FF00BDD6
:100A000000B500218D20FFF7A3FF00211020FFF784
:100A10009FFF0021AE20FFF79BFF00BD30B50024F3
:100A20000CE0002506E00020CC4901EBC50108558B
:100A3000681CC5B2802DF6DB601CC4B2082CF0DB4C
:100A4000FFF7ADFF30BDF0B5144600267F2801DC6E
:100A50003F2900DDF0BD0B46CF1701EB5777FF10A4
:100A6000C7F10707FAB2CF1701EB5777FF10A1EBD9
:100A7000C707FDB2C5F107070123BB40DEB24CB189
:100A8000B64B03EBC0039B5C3343B44F07EBC0078B
:100A9000BB5408E0B14B03EBC0039B5CB343AF4FC7
:100AA00007EBC007BB5400BFD4E72DE9F04F8046E9
:100AB0000C4615461E46A346A5F12000C5B20027E8
:100AC0003EE00C2E07D105EB4500A54901EB800067
:100AD00010F8079004E0A34800EB051010F8079009
:100AE0004FF0000A26E009F0800028B12146404678
:100AF000099AFFF7A8FF09E0099808B9012000E06A
:100B00000020024621464046FFF79DFF4FEA49601C
:100B10004FEA1069601CC4B2A4EB0B00B04205D1CF
:100B20005C4608F1010000F0FF0806E00AF1010050
:100B300000F0FF0ABAF1080FD5DB00BF781CC7B27E
:100B4000B742BEDBBDE8F08F10B50246012000E0E1
:100B500050430B00A1F10104E1B2F9D110BD2DE920
:100B6000FF4F81B0074691461E460E9D4FF0000A8A
:100B7000002439E0301B401EC1B20A20FFF7E4FF19
:100B8000B9FBF0F00A21B0FBF1F201FB1208BAF157
:100B9000000F16D1701EA04213DDB8F1000F0ED168
:100BA0000120AB4605EBDB71491001FB047100909D
:100BB000C8B22B4620220299FFF777FF12E04FF0D0
:100BC000010A0120AB4605EBDB71491001FB047102
:100BD0000090C8B208F13001CAB22B460299FFF763
:100BE00064FF00BF601CC4B2B442C3DB05B0BDE803
:100BF000F08F78B505460E46144618E07A2D03DDD1
:100C0000002506F11000C6B23A2E04DD002005468C
:100C10000646FFF703FF0120009022780C2331469F
:100C20002846FFF742FF05F10800C5B2641C207892
:100C30000028E3D178BD10B54B48806940F008002A
:100C4000494988614948006820F47F0047490860A5
:100C50000846006840F4081008604348806940F086
:100C60001000414988610846806940F001008861B0
:100C70003F48406820F07F403D4948600846406852
:100C800040F0085048603B48006840F480703949A3
:100C900008603548006A20F0010033490862364890
:100CA000008820F00100344908803248006820F4B0
:100CB00080703049086000202649091D08606420C2
:100CC000FFF71AFB01202D49C1F8BC010021AE201D
:100CD000FFF73EFE0021D520FFF73AFE002150200D
:100CE000FFF736FE0021A820FFF732FE00213F204B
:100CF000FFF72EFE0021D320FFF72AFE0021084631
:100D0000FFF726FE00214020FFF722FE00218D2064
:100D1000FFF71EFE00211420FFF71AFE00212020FD
:100D2000FFF716FE00210220FFF712FE0021A1208E
:100D3000FFF70EFE0021C020FFF70AFE0021DA2097
:100D4000FFF706FE00211220FFF702FE002181209E
:100D500016E00000B8012242B08121426401002067
:100D6000AE7E00082283000800100240040C0140FF
:100D70000010014000700040306C00400000224232
:100D8000FFF7E6FD0021EF20FFF7E2FD0021D9206B
:100D9000FFF7DEFD0021F120FFF7DAFD0021DB2067
:100DA000FFF7D6FD00213020FFF7D2FD0021A4205F
:100DB000FFF7CEFD0021A620FFF7CAFD0021AF20DE
:100DC000FFF7C6FDFFF72AFE10BD000070B5044610
:100DD0000D466C48C06940F002006A49C861084687
:100DE000806940F0080088616748006820F0FF00D3
:100DF000654908600846006840F0280008606348BC
:100E00000480001F058061481038008840F0010010
:100E10005E49103908800846008808800846008826
:100E20000880081D0088091D08800846008840F4D5
:100E30008070088055482038008840F008005349E9
:100E4000203908800846008840F0010008804F489B
:100E50002C38008840F001004C492C3908800123CF
:100E60001D2203211846FFF77FFA70BD10B501203F
:100E7000474908600F20FFF723FA00204549C1F8D1
:100E800084014548007800F08000E8B142480078CD
:100E900000F03F00414908600846008800040860EF
:100EA000084600683E49098808443C4908600846ED
:100EB0000068AA2148434FF47A71B0FBF1F037493A
:100EC000086000203449088010BD30491C3908886A
:100ED0003149097801F0800100294ED100F001016B
:100EE000D1B12D49097801F04001A9B12A49097809
:100EF00001F03F013F290AD12749098841F08001CB
:100F0000254A11804FF6FF71254A118004E02249DD
:100F10000988491C204A118000F0080169B31E4964
:100F2000097801F0400199B11B49098841F080011D
:100F3000194A1180154910310988194A118013493D
:100F40000C39098821F40071104A0C3A118014E020
:100F50000021114A1180124A11800F49098841F07D
:100F600040010D4A11800021084A083A1180111FE2
:100F7000098841F40071121F11800021034A1C3AB4
:100F80001180704700100240000C01402C0400400A
:100F90008481214200802142560000203000002040
:100FA000580000204848806940F0080046498861A0
:100FB0004648006880B245490860084600684449D0
:100FC00008434249086070473F4AD26942F0040230
:100FD0003D4BDA611A46926942F008029A613B4A37
:100FE000126822F07F42394B1A601A46126842F0AA
:100FF0003B421A601A1D126822F0FF021B1D1A6084
:101000001A46126842F0BB021A60324A1080121F60
:101010001180304A103A128842F4C0422D4B103BE6
:101020001A801A46128842F060021A801A1F12882B
:1010300042F4C0421B1F1A801A46128842F0600216
:101040001A801A1D128842F400621B1D1A801A466B
:10105000128842F008021A801A1F128842F40062B5
:101060001B1F1A801A46128842F008021A80194A79
:101070000C3A128842F48052164B0C3B1A801A46E6
:10108000128842F480721A801A46128842F01002C6
:101090001A801A46128842F001021A8080220D4BF3
:1010A0002C3B1A801A46128842F001021A8040F244
:1010B000EE22084B08331A801B1D1A801B1D1A8054
:1010C0001B1D1A807047000000100240000C0140F8
:1010D000000022222C0800404F48C06940F0010067
:1010E0004D49C8610846806940F0040088614B485A
:1010F000006820F0FF00494908600846006840F099
:10110000440008600020C90408854FF6FE708885F9
:101110000846008B40F0010008830846008B40F42D
:10112000807008830846008C08840846008C088478
:101130000846008940F0030008810846008840F016
:101140000100088070473448C06940F0020032490D
:10115000C8610846806940F0040088612F48006833
:1011600020F07F402D4908600846006840F0884024
:10117000086000202A4908804FF6FE70091D08808B
:1011800027481038008840F00100254910390880B0
:101190000846008840F4807008802148083800889C
:1011A0001F49083908800846008808801C482038F4
:1011B000008840F003001A49203908801848283870
:1011C000008840F001001649283908807047014620
:1011D000022904D003290BD0042919D111E04FF0C2
:1011E0008042928C10B200224FF080439A8411E02A
:1011F0000B4A121F128810B20022094B1B1F1A80C3
:1012000008E0084A128810B20022064B1A8001E05A
:10121000002000BF00BF70470010024000080140DE
:101220002804004024080040F748806940F0080086
:10123000F5498861F548006820F47F40F34908606B
:101240000846006840F408500860704710B5EF4841
:10125000006820F47040ED4908600846006840F4DA
:10126000405008600120EA490860EA48D0F82C01A3
:1012700008B9002010BD0120E549091F0860FFF7EB
:101280001FF80020E349C1F8AC01E148803800684C
:1012900008B10020EEE70120FFF712F80020DC493A
:1012A000091F08600120E5E710B5D848006820F460
:1012B0007040D64908600846006840F44050086015
:1012C0000020D349091F0860D249C1F8AC010120B0
:1012D000FEF7F6FF0120CE49091F0860CD49C1F88D
:1012E000AC01FEF7EDFF10BD10B50024C748006843
:1012F00020F47040C54908600846006840F400408A
:1013000008600120C2490860FEF7DAFF0120C149E8
:10131000C1F8A801FEF7D4FF0AE0601CC4B2322C69
:1013200003DDFFF7C1FF002010BD0120FEF7C8FF5D
:10133000B748803800680028EFD1B549091F086018
:101340000120F1E710B50020B149091F0860AF483E
:10135000006820F47040AD4908600846006840F419
:10136000405008600020AB49C1F8AC010120FEF7F5
:10137000A7FF0120A649091F0860FEF7A1FF002072
:10138000A449C1F8A80110BD10B50020A049091F4B
:1013900008609E48006820F470409C490860084638
:1013A000006840F44050086001209A49C1F8AC013F
:1013B000FEF786FF01209649091F0860FEF780FFAF
:1013C00000209449C1F8A80110BD70B504468F48AB
:1013D000006820F470408D4908600846006840F4B9
:1013E0004050086000208A49091F0860002516E067
:1013F000E009874908606006040E0120FEF760FFDF
:1014000001208449C1F8A801FEF75AFF0020804955
:10141000091F08600120FEF753FF681CC5B2082DA4
:10142000E6DB70BD2DE9F04105460E4617469846AD
:10143000FFF70CFF10B90120BDE8F0816906080E26
:10144000FFF7C3FFFFF750FF18B9FFF72DFF01208B
:10145000F2E73046FFF7B9FFFFF746FF00240BE045
:1014600018F80400FFF7B1FFFFF73EFF18B9FFF7C8
:101470001BFF0020E0E7641CBC42F1DBFFF714FF18
:101480000020D9E770B5054600246048006820F4C4
:1014900070405E4908600846006840F400400860FB
:1014A000002617E000205A49091F08600220FEF7B5
:1014B00007FF01205749C1F8A8016006040E5448EF
:1014C0008038006808B1601CC4B20220FEF7F8FE44
:1014D000701CC6B2082EE5DB15B1FFF733FF01E043
:1014E000FFF752FF204670BD2DE9F04106460F463A
:1014F00014461D46FFF7AAFE10B90120BDE8F08191
:101500007106080EFFF761FFFFF7EEFE18B9FFF74F
:10151000CBFE0120F2E73846FFF757FFFFF7E4FE66
:10152000FFF794FE012101EB4601C8B2FFF74DFF22
:10153000FFF7DAFE0DE0012C04D10020FFF7A2FF37
:10154000287003E00120FFF79DFF28706D1C601ECE
:10155000C4B2002CEFD1FFF7A7FE0020CEE770B594
:1015600005460E460024FFF771FE2846FFF72DFFC3
:10157000641CFFF7B9FE3046FFF727FF641CFFF736
:10158000B3FEFFF763FE691CC8B2FFF71EFF641CC1
:10159000FFF7AAFE0020FFF775FF0446FFF784FE61
:1015A000204670BD2DE9F0410746884615461E4687
:1015B0000024FFF74BFE3846FFF707FFFFF794FEC6
:1015C0004046FFF702FFFFF78FFEFFF73FFE791C53
:1015D000C8B2FFF7FAFEFFF787FE00BF0DE0681EF6
:1015E000A04204D00120FFF74DFF305503E000205A
:1015F000FFF748FF3055601CC4B2AC42EFDBFFF789
:1016000053FE2046BDE8F08100100240040C01406A
:10161000AC812142008021422DE9F04180460D46F7
:1016200016461F460024FFF711FE4046FFF7CDFE89
:10163000FFF75AFE2846FFF7C8FEFFF755FE00BF2A
:1016400006E0385DFFF7C1FEFFF74EFE601CC4B236
:10165000B442F6DBFFF728FE0120BDE8F08170B54B
:1016600005460E46144631462846FFF778FF20709F
:10167000012070BD37B504460D4602AB0122294654
:101680002046FFF7C9FF3EBD2DE9F84307468846CF
:1016900014461D46089E6A4641463846FFF7DFFF5E
:1016A00028B3601CFF2101FA00F0C4F108012944AD
:1016B000491EFF220A41104300F0FF09C5F108004E
:1016C00006FA00F0C6B2C4F1070006419DF800001A
:1016D00000EA090000909DF80000304300909DF85A
:1016E000002041463846FFF7C5FFBDE8F8830020DB
:1016F000FBE7F8B506460F4614461D466A463946CE
:101700003046FFF7ACFF2DB10120A0409DF800103E
:10171000084305E00120A0409DF8001021EA0000E8
:10172000C0B200909DF8002039463046FFF7A2FF76
:10173000F8BD000010B51248806940F0080010495B
:1017400088611048006820F470400E49086008461F
:10175000006840F4004008600A480C30006840F01F
:10176000080008490C310860012203211046FEF7E9
:1017700035FE0223092201211846FEF7F5FD10BDB2
:1017800000100240000C01402DE9F05F05460E46B6
:10179000300106F04FF98146364905FB01F006F0AD
:1017A00049F98246494605F0FBFF0746384606F0F0
:1017B00009F984B2204606F03DF98346394606F021
:1017C0007EFA82464FF0834106F07CF9814606F0AE
:1017D000F9F880464FF6FF7000EA041404EB0800A5
:1017E00084B22548806940F0040023498861084696
:1017F000C06940F40030C8612048006820F47F4090
:101800001E4908600846006840F40B4008601B4809
:101810000C30006840F0040018490C31086016488C
:10182000006940F40030144908610846006920F45A
:101830000030086112480480001D008842F20C014B
:1018400008430F49091D08800846008840F480704D
:1018500008800846008840F02000088002232622E5
:1018600003210846FEF780FDBDE8F09F04480838D4
:101870000088704740420F000010024000080140FD
:10188000084400402DE9F04F89B0814604F073F818
:10189000FE490860B9F1010F1BD103F089FEFC4835
:1018A0000068FC490860FC49B1F9020006F0AAF89A
:1018B000FA490860F849B1F9040006F0A3F8F849BC
:1018C0000860F849B1F9040006F09CF8F649086090
:1018D000B8E04621D020FFF742FE80464521D020C7
:1018E000FFF73DFE08EB0027384606F08BF804466C
:1018F0004821D020FFF733FE80464721D020FFF754
:101900002EFE08EB0027384606F07CF806463C2100
:10191000D020FFF724FE80463B21D020FFF71FFE9A
:1019200008EB0027384606F06DF883464021D020AA
:10193000FFF715FE80463F21D020FFF710FE08EB91
:101940000027384606F05EF805464FF08E412046E7
:1019500006F084F905D24FF08F41204606F0BAF91F
:1019600004464FF08E41304606F078F905D24FF02C
:101970008F41304606F0AEF906464FF08E4158468C
:1019800006F06CF905D24FF08F41584606F0A2F9E7
:1019900083464FF08E41284606F060F905D24FF09D
:1019A0008F41284606F096F9054684F00040BB4971
:1019B0000860284605F05AFECDE90001584605F0BA
:1019C00055FE0746DDE9002304F0C8FF0022B74BAF
:1019D000CDE9020105F070FBB54AB64BCDE9040133
:1019E00005F090F9CDE9060105F09EF88246204603
:1019F00005F03CFE4FF06632AF4BCDE9060105F035
:101A000081F9074605F090F80446AC4800780228B2
:101A100006D184F000473946504603F0FFF909E04B
:101A2000A6480078032805D184F00047394650467F
:101A300003F00BFBA24800689649086098480660CE
:101A40009948056009B0BDE8F08F70B59D48006801
:101A5000002857D108209C4908609C48007801283C
:101A60000BD19B480078401CC0B2994908700A28E5
:101A700003D100200870954908700220FFF7A7FBEA
:101A8000944908600320FFF7A2FB934908608B4844
:101A90000078FFF7F7FE91497E48006806F012F8DB
:101AA00005468F4905F00EFE044605F06FFF8D498F
:101AB00008600846006840F2E241884202DD0846BC
:101AC0008849086087480068FA2802DAFA208549C0
:101AD0000860844800888449088082480088091D7D
:101AE000088080480088091D08807E480088091DFC
:101AF00008806420FEF728FE7A48006805F082FF1F
:101B00007A490860002070BD2DE9F84F05460C4663
:101B1000774E4FF07E577749284606F0DBF8009065
:101B20003946204605F0CEFF82463046009905F042
:101B3000C9FF8346514605F0C5FD814605F026FFE5
:101B400080464046BDE8F88F70B505460E466A49A6
:101B5000284605F083FF08D36849284606F07EF83A
:101B600003D36748007801280ED10124002055498D
:101B7000AC3108606349C1F8BC015249A831086022
:101B80006049C1F8B00100E00024204670BD2DE995
:101B9000FC5F5D4801905D4800905D480078012839
:101BA00007D15C480078012803D15B485B49086095
:101BB00002E05B48594908605A48007801280CD176
:101BC0005448007805F036FF044621465348006823
:101BD00005F0E6FD5449086016E0544800780128F5
:101BE0000FD14C48007805F025FF05464B480068AA
:101BF00080F000442946204605F0D2FD4A4908609D
:101C000002E00020484908604148007801281BD1C3
:101C100047480068B0F5FA7F16D246480078012898
:101C200012D04548007801280ED03A48007805F0D7
:101C300001FF05463948006880F0004429462046E7
:101C400005F0AEFD3849086022490968224A126849
:101C50001144084605F0D6FE384908603848006847
:101C600005F004FD0646374A374B05F025FA0446D1
:101C700004F05AFF324908603048006805F0F6FC6D
:101C80008046304A314B05F017FA61E01800002019
:101C90003401002020000020240100202400002026
:101CA000280000202A010020380000200080664023
:101CB000F1D4C853FB210940666630400000002083
:101CC000D40000200C812142140401403500002082
:101CD00034000020080000200C0000200000C0405C
:101CE00000803B445C000020340800402C000020B1
:101CF0000000964300004040000020C20000204247
:101D000006000020008021420000A042CDCCCC3E45
:101D10003600002005000020000034428000002032
:101D20000000B442010000207800002002000020E2
:101D3000300000200300002004000020700000207C
:101D4000740000209A9999999999E93F9999C93F06
:101D500004460D46FE48006805F088FC064622460B
:101D60002B4604F013FF824604F0DEFEF8490860BB
:101D700008460168F748006805F0A4FCF5490860CA
:101D8000F5480168F348006805F0A4FFF1490860D0
:101D9000F249F048006805F061FF02D2EF48ED49D2
:101DA0000860EF49EB48006805F058FE02D2EC48A5
:101DB000E8490860E7480099006805F083FE04469A
:101DC000E3480199006805F07DFE0546214605F0CF
:101DD00079FCE4490860E4480168E4480068FFF7DA
:101DE000B3FE012803D0E2480078012802D1002088
:101DF000D8490860DB48006805F0C8FDBDE8FC9FD5
:101E00000146002901DA484200E0084670472DE902
:101E1000F84F05460E469146D6480078582191FB6A
:101E2000F0F7384605F0EEFD0446DFF84CA34FF01E
:101E3000000BD2480078012803D0D148007801284F
:101E400034D14FF07E51CF48006805F03BFCCD49BE
:101E5000074608604FF07E5105F064FD07D1A819D0
:101E6000FFF7CEFF074605F0CDFDC7490860C6481D
:101E70000168C64805F094FCC5490860084600683A
:101E800005F0F4FB07464FF03332C24B05F0D8F8AB
:101E900002D2C148BE490860C049BD48006805F08B
:101EA000DDFE0BD2BD48BA49086007E0BC48B8491E
:101EB00008600020B3490860B3490860AF48007863
:101EC000012808D1B2480168B648006805F002FF51
:101ED000B44908600FE0AA480078012808D1AC484E
:101EE0000168B048006805F0EDFBAE49086002E00B
:101EF0000020AC4908602146AA48006805F0AEFE03
:101F000001D2A848046084F00047A648016838461A
:101F100005F0A4FE03D284F00040A2490860A24864
:101F20000078012803D0A1480078012802D14FF0A1
:101F30007C5B01E04FF0000B5946484605F0C2FDBE
:101F400000909848006880F000485146404605F0EF
:101F5000B9FD0746009905F0BDFE954908600846A1
:101F6000006805F013FDBDE8F88F00B503460A468A
:101F7000002B07DA01208F49086000208E49C1F844
:101F8000B80106E000208B49086001208A49C1F8A9
:101F9000B8011846FFF734FF88490880002A08DA9C
:101FA000002084490839086001208349C1F8B00144
:101FB00007E001207F490839086000207E49C1F808
:101FC000B0011046FFF71CFF7C490C31088000BDB2
:101FD00041F6F4207A4909684242914202DA4142CC
:101FE000774A116076490968814201DD74490860C9
:101FF000744909684242914202DA4142714A1160D1
:1020000070490968814201DD6E490860704710B56A
:102010003220FEF7EFFB0446012C07D16A48007816
:1020200008B9012000E000206749087010BD2DE9C3
:10203000F04107460E4614461D4664480088E0B944
:102040002046FFF7DDFE02462846FFF7D9FE104482
:102050001E2805DA5E480088401C5D49088002E0C1
:1020600000205B4908805A4800880A2805DD0120C5
:1020700056490880002056490880544800880128A5
:102080001DD154480088401C80B252490880C8289D
:1020900003DD002008804D4908804F49384605F08F
:1020A000DDFD0CD24D49304605F0D8FD07D24C4934
:1020B000304605F0D3FC02D2022044490880434850
:1020C0000088022816D147480088401C80B2454944
:1020D0000880642803DD002008803C4908806019DE
:1020E000FFF78EFE872805DD002038490880012093
:1020F000BDE8F0810020FBE770B506460C461546AA
:102100001B48007808B9002070BD3748008870B9B6
:102110003649304605F0A2FD09D23549304605F072
:102120009DFC04D21CB915B901202F4908802E4806
:10213000008801286ED12F480088401C80B22D49AC
:102140000880322803DD002008802749088053E0FA
:10215000740000207C0000207800002000401C4615
:1021600000401CC66C0000201C0000202000002045
:102170000600002005000020000028420300002087
:1021800004000020940000208C0000200000484241
:10219000900000203333E33F9A99193F00004040FC
:1021A0006666663F840000200100002002000020D7
:1021B00088000020BC81214200802142342C014053
:1021C00010000020140000200700002098000020CC
:1021D0009A0000209C0000200020CB46000088C10F
:1021E0000000B8419E000020A00000200000E0C0D8
:1021F00000005041A2000020032C0BDD032D09DD5F
:102200003C2C07DA3C2D05DA0020034908800880C1
:10221000012079E7002077E7A000002038B50446C8
:10222000FB4890F82400C0B114B10220009001E0F6
:1022300000200090F64A1268D17BF54A5268107867
:102240006B460122FFF7EEF810B14FF0FF3038BDBA
:102250009DF80010EE48417423E0ED48807A10B9F3
:102260004FF0FF30F3E724B1E948407C08B100208B
:10227000EDE714B10120009001E000200090E44A55
:102280001268D17BE24A526810786B460122FFF750
:10229000C9F810B14FF0FF30D9E79DF80010DC48C5
:1022A00041740020D3E738B5002419E0D84800680D
:1022B000C07AA04204D0D6480068407DA04200D138
:1022C0000CE0D349496808786B4601222146FFF7A4
:1022D0000BF910B14FF0FF3038BD00BF601CC4B225
:1022E000CB4840680079A042E0DC0020F4E770B5FC
:1022F00004460D46C6480068C07AA04204D0C448CF
:102300000068407DA04202D14FF0FF3070BDC04850
:1023100040680079A04202DC4FF0FF30F6E7BC498C
:10232000496808782B4601222146FFF7DDF8EDE7E2
:1023300038B50446B64890F82300A04201D10020E9
:1023400038BD14B13020009001E000200090B0486A
:10235000807C20B19DF8000040F002000090AC4865
:1023600090F8220020B19DF8000040F0800000901D
:10237000A74A1268117DA64A526810786B4601225E
:10238000FFF750F810B14FF0FF30D9E7A04880F8C0
:1023900023400020D4E738B5044604F0700010B1A3
:1023A0000120009005E014B10020009001E04020E1
:1023B0000090974A1268917C954A526810786B4653
:1023C0000122FFF72FF820B1002191488172481EA9
:1023D00038BD9DF8000020F040018D4801730020B9
:1023E000009004F0400020B99DF8000040F0040087
:1023F000009004F0200020B99DF8000040F0020099
:10240000009004F0100020B99DF8000040F0010099
:10241000009004F0080020B99DF8000040F038005A
:1024200000907B4A1268D17C794A526810786B46DA
:102430000122FEF7F7FF20B1002175488172481E86
:10244000C6E724B1082C02D00020FFF771FF7048C6
:102450008472002101753220FDF74EFF0020B7E79E
:1024600038B504466A48807CA04201D1002038BDBE
:10247000002C46D0664A12681179654A5268107875
:102480006B460122FFF730F810B14FF0FF30EEE756
:102490009DF8000020F0200000905D4A126811793C
:1024A0005B4A526810786B460122FEF7BBFF10B101
:1024B0004FF0FF30DBE70320FDF71EFF0220009006
:1024C000534890F8220020B19DF8000040F08000B1
:1024D00000904F4890F8230020B19DF8000040F094
:1024E000300000904A4A1268117D494A52681078BB
:1024F0006B460122FEF796FF002851D04FF0FF30C7
:10250000B5E7434A12681179414A526810786B4620
:102510000122FEF7E9FF10B14FF0FF30A7E73C487A
:10252000807A00F0010028B19DF8000040F0200002
:10253000009004E09DF8000020F020000090344A54
:1025400012681179324A526810786B460122FEF700
:1025500069FF10B14FF0FF3089E70320FDF7CCFE93
:102560002B4890F8220010B18020009001E000205C
:102570000090274890F8230020B19DF8000040F01B
:1025800030000090224A1268117D214A526810786A
:102590006B460122FEF746FF10B14FF0FF3066E7B1
:1025A0001B488474002062E708B51948807A10B986
:1025B0004FF0FF3008BD00200090154A1268D17B13
:1025C000134A526810786B460122FEF72BFF10B1B8
:1025D0004FF0FF30EEE70E4A126851790C4A52680C
:1025E00010786B460122FEF71DFF10B14FF0FF304F
:1025F000E0E7074A12681179054A526810786B467D
:102600000122FEF70FFF28B14FF0FF30D2E70000A4
:10261000A4000020F74890F82400002850D00C2097
:102620000090F44A12681179F24A526810786B46A9
:102630000122FEF7F7FE10B14FF0FF30BAE7C020DD
:102640000090EC48807A00F0010020B19DF8000075
:1026500040F020000090E74A12681179E54A52687C
:1026600010786B460122FEF7DDFE10B14FF0FF300F
:10267000A0E7E048407C10B10220009001E000207B
:102680000090DC4A1268D17BDA4A526810786B46B7
:102690000122FEF7C7FE10B14FF0FF308AE700209D
:1026A0000090D44A12685179D24A526810786B4629
:1026B0000122FEF7B7FE002852D04FF0FF3079E735
:1026C00004200090CB4A12681179CA4A52681078E7
:1026D0006B460122FEF7A6FE10B14FF0FF3069E70E
:1026E000C448807C20B9C348807A00F0010010B94A
:1026F0004020009001E060200090BE4A12681179ED
:10270000BC4A526810786B460122FEF78BFE10B16E
:102710004FF0FF304EE7B748407C10B101200090E9
:1027200001E000200090B34A1268D17BB14A5268A0
:1027300010786B460122FEF775FE10B14FF0FF30A6
:1027400038E7AC4A12685179AA4A52681078A94B06
:1027500010330122FEF766FE10B14FF0FF3029E77B
:10276000002027E770B50446002624F00104A148A4
:1027700090F8240008B1002070BD9E48807A10B9FE
:102780004FF0FF30F8E79B48057C807A204099495C
:1027900008740846007CA04202D04FF0FF3600E0EB
:1027A000002614B99348007D18B10120FFF736FDCB
:1027B00002E00020FFF732FD3CB1FFF7F5FE20B14B
:1027C0008C4805744FF0FF30D6E73046D4E738B573
:1027D00004468848807A10B94FF0FF3038BDBC2CD1
:1027E00002DB0120009015E0622C02DB0220009049
:1027F00010E02A2C02DB032000900BE0142C02DBFB
:102800000420009006E00A2C02DB0520009001E085
:10281000062000907748C07A9DF80010884201D1C8
:102820000020DBE7734A12689178724A5268107888
:102830006B460122FEF7F6FD10B14FF0FF30CDE7F9
:102840009DF800106B48C1720020C7E738B50446F8
:10285000282C02DD4FF0FF3038BDDCB90020FFF737
:1028600067FD00208DF8000007208DF80100614A07
:102870001268917C5F4A526810786B460222FEF71C
:10288000D1FD10B14FF0FF30E6E700215948017546
:102890000020E1E70120FFF74BFD20208DF800002C
:1028A000012C06D100208DF801000520FFF78FFFD5
:1028B00017E0052C06DC01208DF801000520FFF74C
:1028C00086FF0EE0142C06DC02208DF801000A20A1
:1028D000FFF77DFF05E003208DF801001420FFF7CE
:1028E00076FF9DF80100072101EB8010C0B28DF842
:1028F0000100404A1268917C3E4A526810786B464B
:102900000222FEF78FFD10B14FF0FF30A4E708213F
:102910003848817200210173012101750020FFF701
:1029200021FF002098E738B504463248807A10B974
:102930004FF0FF3038BD2F4890F8240010B14FF011
:10294000FF30F7E72B48007D50B134B1282C04DC70
:10295000E0B2FFF77BFF0020ECE70020FFF776FFF7
:10296000042C01DA042404E0B4F57A7F01DD4FF48D
:102970007A744FF47A7090FBF4F0401EC0B200906D
:102980001C4A126851781B4A526810786B46012223
:10299000FEF748FD10B14FF0FF30CBE79DF8000087
:1029A000401C4FF47A7191FBF0F081B21148C18163
:1029B0000146C9894810FFF70AFF0020BAE738B579
:1029C00004460C48807A10B94FF0FF3038BD022C15
:1029D00006D0042C07D0082C08D0102C0FD10BE007
:1029E000002000900EE0082000900BE010200090E6
:1029F00008E00000A40000201820009002E04FF042
:102A0000FF30E3E700BFF948407A9DF80010B0EBD3
:102A1000E10F01D10020D9E7F44A1268D179F34AD5
:102A2000526810786B460122FEF7FCFC10B14FF0A3
:102A3000FF30CBE79DF80000C110EC484172002048
:102A4000C4E738B50446E948807A10B94FF0FF3042
:102A500038BDFA2C09D0B4F5FA7F09D0B4F57A7FE5
:102A600009D0B4F5FA6F0CD108E0002000900BE01B
:102A70000820009008E01020009005E01820009049
:102A800002E04FF0FF30E3E700BFD848007A9DF83E
:102A90000010B0EBE10F01D10020D9E7D34A126852
:102AA0009179D24A526810786B460122FEF7BAFC3F
:102AB00010B14FF0FF30CBE79DF80000C010CB49BC
:102AC00008720020C4E71CB580208DF80000C74ABA
:102AD0001268917CC54A526810786B460122FEF755
:102AE000A1FC10B14FF0FF301CBD6420FDF704FCC9
:102AF00000208DF80000BD4A1268917CBB4A5268E4
:102B000010786B460122FEF78DFC10B14FF0FF30BC
:102B1000EAE7B64A1268917DB44A526810786B466B
:102B20000622FEF7E1FC10B14FF0FF30DCE79DF824
:102B30000500C007400F9DF8031001F0010140EAB5
:102B400041009DF8011001F0010140EA010494B137
:102B5000012C03D10121A548C17431E0022C03D11D
:102B60000021A248C1742BE02146A1A003F0FCF98A
:102B70004FF0FF30B8E79D4A1268D1789B4A5268FF
:102B800010786B460122FEF7AFFC10B14FF0FF301A
:102B9000AAE79DF8000000F00F042CB99E4803F04E
:102BA000E3F94FF0FF309FE7042C06D19BA003F020
:102BB000DBF901218D48C17402E000218B48C1740A
:102BC000FF218A488172FF2088490872FF218748C7
:102BD0004172C1724FF6FF71C181FF21017481748E
:102BE0000121017380F82210002180F82310417523
:102BF00001751630016041608160163880F824103C
:102C000080F82510C1844FF4FA60FFF71AFF10B165
:102C10004FF0FF3068E70220FFF7D1FE10B14FF010
:102C2000FF3061E72A20FFF7D2FD10B14FF0FF30EF
:102C30005AE73220FFF777FE10B14FF0FF3053E72D
:102C40000020FFF78FFD10B14FF0FF304CE7002060
:102C5000FFF706FC10B14FF0FF3045E70020FFF70B
:102C60009AFB002040E770477CB504460D465F485C
:102C7000807A00F0700010B94FF0FF307CBD5B4AE5
:102C80001268117B594A526810786B460622FEF78B
:102C90002BFC10B14FF0FF30F0E79DF801009DF8DC
:102CA000001040EA012000B220809DF803009DF84A
:102CB000021040EA012000B260809DF805009DF8F6
:102CC000041040EA012000B2A08015B12846FFF7A9
:102CD000CAFF0020D2E77CB504460D464348807AFF
:102CE00000F0080010B94FF0FF307CBD3F4A126879
:102CF000517B3E4A526810786B460622FEF7F4FB81
:102D000010B14FF0FF30F0E79DF801009DF8001082
:102D100040EA012000B220809DF803009DF80210D7
:102D200040EA012000B260809DF805009DF8041083
:102D300040EA012000B2A08015B12846FFF793FFBA
:102D40000020D2E72DE9FE4F05460C462748807A41
:102D500018B94FF0FF30BDE8FE8F244A1268917B0E
:102D6000224A5268107802AB0222FEF7BDFB10B176
:102D70004FF0FF30EFE79DF809009DF8081040EA9A
:102D8000012006B214B12046FFF76DFF17494968CC
:102D9000C88804F04FFE154901904968B1F9080050
:102DA00004F030FE8346304604F02CFE5946009075
:102DB00004F090FF8246019904F0F2FC81461F491D
:102DC00004F080FC80464FF08F4104F07BFE074604
:102DD00004F0DCFD28600020BDE710B588B0044693
:102DE0001CB94FF0FF3008B010BD29E0A40000204E
:102DF000556E737570706F7274656420736F66744E
:102E0000776172652070726F647563742072657685
:102E10002025642E0A0000005096000848616C6668
:102E20002073656E73697469766974792070617254
:102E30007420666F756E642E0D0A000000000C424F
:102E4000206830B9606820B9A06810B9002008B0C7
:102E500010BDFA494968087806AB03221146FEF70F
:102E600043FB10B14FF0FF30F1E79DF81800082147
:102E700001EB201000F00F00ADF800009DF81900E4
:102E800001EB201000F00F00ADF802009DF81A00D1
:102E900001EB201000F00F00ADF8040020684100A5
:102EA000BDF90000403091FBF0F000B2ADF8100029
:102EB00060684100BDF90200403091FBF0F000B2C3
:102EC000ADF81200A0684100BDF90400403091FB4C
:102ED000F0F000B2ADF81400D8494968087806ABA4
:102EE00006221146FEF700FB10B14FF0FF30AEE7AF
:102EF0009DF819009DF8181040EA012000B2ADF8C5
:102F000008009DF81B009DF81A1040EA012000B24D
:102F1000ADF80A009DF81D009DF81C1040EA012044
:102F200000B2ADF80C00BDF81000BDF80810084460
:102F300000B2ADF81000BDF81200BDF80A10084448
:102F400000B2ADF81200BDF81400BDF80C10084432
:102F500000B2ADF81400BDF81000000A8DF818009A
:102F6000BDF81000C0B28DF81900BDF81200000ABB
:102F70008DF81A00BDF81200C0B28DF81B00BDF824
:102F80001400000A8DF81C00BDF81400C0B28DF8C2
:102F90001D00AA494968087806AB06221146FEF7CB
:102FA00041FA10B14FF0FF3051E700204FE70146E2
:102FB000A248007A30B1012807D0022809D003289E
:102FC0000FD10AE0FA2008800EE04FF4FA70088072
:102FD0000AE04FF47A70088006E04FF4FA60088047
:102FE00002E00020088000BF00BF002070470146BB
:102FF0009248407A30B1012807D0022808D003282F
:103000000CD108E0022008700BE00420087008E0F2
:103010000820087005E01020087002E04FF0FF3033
:10302000704700BF8548C07C18B108784006000E84
:1030300008700020F4E701468048C07A082817D2BB
:10304000DFE800F01704070A0D101318BC200880F1
:1030500013E06220088010E02A2008800DE0142090
:1030600008800AE00A20088007E00520088004E0C4
:1030700000BF00BF0020088000BF00BF00207047D5
:1030800001466E4890F8240010B14FF0FF307047B1
:103090006A48C08908800020F9E7014600200880BE
:1030A000401E704701464FF0FF30704701466348AD
:1030B000007A30B1012807D0022808D003280CD1AB
:1030C00008E05F4808600BE05E48086008E05E4882
:1030D000086005E05D48086002E04FF0FF3070478F
:1030E00000BF0020FBE701465448407A30B1012878
:1030F00008D002280AD0032810D10BE04FF48040FA
:1031000008800EE041F69C7008800AE04FF4805081
:10311000088006E04FF40060088002E04FF0FF30C6
:10312000704700BF4548C07C10B108884010088037
:103130000020F5E701464148007C087000207047F8
:1031400001463E48807A10B10120087001E000205D
:1031500008700020704738B504463848807A10B9A6
:103160004FF0FF3038BD354A1268117C334A52683F
:1031700010786B460222FEF7B7F910B14FF0FF301E
:10318000F0E79DF801009DF8001040EA012000B230
:1031900020800020E6E72DE9FE4F0746884692464C
:1031A0001D46DDF830B000260024244890F82400A5
:1031B00010B1601EBDE8FE8F002028701F48807A85
:1031C00010B94FF0FF30F5E71C48007C10B94FF004
:1031D000FF30EFE71948007C00F0400008B1B01C58
:1031E000C6B21648007C00F0200008B1B01CC6B280
:1031F0001248007C00F0100008B1B01CC6B20F48A5
:10320000007C00F0080008B1B01DC6B20B4A12687D
:10321000917A0A4A526810786B460222FEF764F9E6
:1032200010B14FF0FF30C5E79DF801009DF8001088
:1032300040EA0129B1450BDA0020BBE7A4000020D9
:10324000000003430000834233330342333383419E
:10325000FC4840684088B9EB600F17DDF94A1268F6
:10326000517CF84A526810786B460122FEF73CF90F
:1032700010B14FF0FF309DE79DF8000000F0100006
:1032800020B1FFF791F96FF0010093E75046FFF787
:10329000EAFCEC4A1268D17AEA4A526810786B4626
:1032A0003246FEF721F910B14FF0FF3082E799FB6B
:1032B000F6F0401E8BF8000000202870B4422AD09F
:1032C000E048007C00F0080028B3601C1DF80000F6
:1032D0001DF8041040EA012000B2A8F80000E01C2C
:1032E0001DF80010A01C1DF8000041EA002000B2EB
:1032F000A8F80200601D1DF80010201D1DF8000038
:1033000041EA002000B2A8F80400287840F0080044
:103310002870A01D84B2B44213D0CA48007C00F0CB
:10332000400070B1601C1DF800001DF8041040EA58
:10333000012000B23880287840F040002870A01C9E
:1033400084B2B44213D0BF48007C00F0200070B1BA
:10335000601C1DF800001DF8041040EA012000B2B6
:103360007880287840F020002870A01C84B2B442F5
:1033700013D0B448007C00F0100070B1601C1DF840
:1033800000001DF8041040EA012000B2B88028783F
:1033900040F010002870A01C84B200200AE7F8B5A5
:1033A00004460F461646A74890F8240010B94FF07F
:1033B000FF30F8BDA348807A10B94FF0FF30F8E72E
:1033C000A04A1268917A9F4A526810786B4602228E
:1033D000FEF78AF810B14FF0FF30EAE79DF80100E0
:1033E0009DF8001040EA0125A54203DA0020307064
:1033F000401EDEE7934840684088B5EB600F17DD5C
:10340000904A1268517C8F4A526810786B460122AC
:10341000FEF76AF810B14FF0FF30CAE79DF80000E0
:1034200000F0100020B1FFF7BFF86FF00100C0E717
:10343000E2B2844B1B68D97A824B5B6818783B46B2
:10344000FEF752F810B14FF0FF30B2E795FBF4F001
:10345000401E30700020ACE701467A4880F8221008
:10346000002070477CB5054676494968087801AB6D
:1034700004220D21FEF738F808B107207CBD9DF825
:103480000700C0F301109DF8041001F0E00140EACC
:10349000E1008DF800009DF80700C0F381009DF861
:1034A000051001F0E00140EAE1008DF801009DF80F
:1034B000070000F003009DF8061001F0E00140EA6B
:1034C000E1008DF8020000241CE01DF8040018B98A
:1034D000002045F8240013E05B4845F8240006E08E
:1034E00055F82400594904F0EDFA45F824001DF878
:1034F0000400401EC0B20DF804000028F0D100BF47
:10350000601CC4B2032CE0DB0020B7E72DE9FE4FBE
:1035100006460F4600256846FFF7A4FF002442E058
:1035200056F8240057F82410A0EB010ABAF1000F56
:1035300001DB514601E0CAF10001084604F062FADD
:1035400083464FF08F4104F02BF980465DF824004C
:10355000002104F0E7F916D05DF82410404604F08D
:103560001FF982464FF07E5104F0B4FB814629F0EA
:10357000004A3748416A504604F070FB12D20120DD
:10358000A04005430EE03248C169404604F066FAA7
:1035900005D32F48016A404604F060FB02D20120A7
:1035A000A0400543641C032CBADB2846BDE8FE8F0F
:1035B0002DE9FC5F06460F46002522494968087838
:1035C00001AB03220D21FDF78FFF10B10720BDE8ED
:1035D000FC9F9DF8040000F01F008DF804009DF88A
:1035E000050000F01F008DF805009DF8060000F0B2
:1035F0001F008DF80600002462E056F8240057F8FA
:103600002410A0EB010BBBF1000F01DB594601E0D8
:10361000CBF10001084604F0F5F94FF08F4100901E
:1036200004F0BEF8814601A8005DC0B308490868EF
:1036300004F000FA83465946064804F0B1F8804683
:103640000FE00000A40000207B14AE3E1D5A843F12
:103650003C89000800B04C45FE49404604F032FA6F
:10366000804601A8005D401EC0B201A9085500288F
:10367000F2D14146484604F093F883464FF07E511C
:1036800004F028FB82462AF0004BF3488169584633
:1036900004F0E4FA13D20120A04005430FE0FFE755
:1036A000ED480169484604F0D9F905D3EA48416973
:1036B000484604F0D3FA02D20120A0400543641C1E
:1036C000032C9ADB284682E72DE9F04F87B00546A8
:1036D0000C46914601208DF8100000208DF8110055
:1036E000DE4A1268917CDD4A5268107804AB0222EF
:1036F000FDF798FE20B14FF0FF3007B0BDE8F08F26
:10370000C820FCF7F9FD00208DF81000D34A12689C
:10371000D17BD24A5268107804AB0122FDF782FEB9
:1037200010B14FF0FF30E8E7CC4A12685179CB4A2C
:103730005268107804AB0122FDF774FE10B14FF00F
:10374000FF30DAE7C54A1268917CC44A52681078A3
:1037500004AB0122FDF766FE10B14FF0FF30CCE75D
:10376000BE4A1268D17DBD4A5268107804AB01226E
:10377000FDF758FE10B14FF0FF30BEE7B74A1268B0
:103780001179B64A5268107804AB0122FDF74AFE5F
:1037900010B14FF0FF30B0E70C208DF81000AF4AA9
:1037A00012681179AD4A5268107804AB0122FDF716
:1037B00039FE10B14FF0FF309FE70F20FCF79CFD62
:1037C000A648806A407A8DF81000A44A1268917861
:1037D000A24A5268107804AB0122FDF723FE10B113
:1037E0004FF0FF3089E79D48806A007A8DF810001D
:1037F0009A4A12685178994A5268107804AB0122AB
:10380000FDF710FE10B14FF0FF3076E7B9F1000F71
:1038100007D09248806A807A40F0E0008DF810006E
:1038200004E08E48806A807A8DF810008B4A126816
:1038300091798A4A5268107804AB0122FDF7F2FDB3
:1038400010B14FF0FF3058E7B9F1000F07D08348AF
:10385000806AC07A40F0E0008DF8100003E07E48F6
:10386000C07A8DF810007D4A1268D1797B4A52687F
:10387000107804AB0122FDF7D5FD10B14FF0FF30F9
:103880003BE7B9F1000F02D0C820FCF735FD40201E
:103890008DF81000714A12681179704A52681078D8
:1038A00004AB0122FDF7BEFD10B14FF0FF3024E75D
:1038B00078208DF81000694A12685179674A526879
:1038C000107804AB0122FDF7ADFD10B14FF0FF30D1
:1038D00013E761498889FCF70FFD00208DF810007F
:1038E0005E4A126851795D4A5268107804AB012231
:1038F000FDF798FD10B14FF0FF30FEE6574A126811
:10390000917A564A5268107804AB0222FDF7ECFD1A
:1039100010B14FF0FF30F0E69DF811009DF8101047
:1039200040EA012B0C209BFBF0F0C6B20020A860FF
:1039300068602860A06060602060824665E0474A59
:103940001268D17A454A5268107804AB0C22FDF710
:10395000CBFD10B14FF0FF30CFE69DF811009DF880
:10396000101040EA012000B2ADF808009DF81300E5
:103970009DF8121040EA012000B2ADF80A009DF84F
:1039800015009DF8141040EA012000B2ADF80C00BB
:10399000BDF90810206808442060BDF90A1060686D
:1039A00008446060BDF90C10A0680844A0609DF850
:1039B00017009DF8161040EA012000B2ADF8000093
:1039C0009DF819009DF8181040EA012000B2ADF8EA
:1039D00002009DF81B009DF81A1040EA012000B279
:1039E000ADF80400BDF90010286808442860BDF94E
:1039F0000210686808446860BDF90410A8680844AB
:103A0000A8600AF1010000F0FF0AB24597DB1248F6
:103A1000D0F800C02868C117090441EA1041070422
:103A200062460023384602F07AFA32460023CDE996
:103A3000020102F074FA28600748D0F800C06868F4
:103A4000C117090441EA10410704624600233846C1
:103A500006E0000054E3853F3C890008A4000020F4
:103A600002F05DFA32460023CDE9020102F057FA76
:103A70006860FE48D0F800C0A868C117090441EA90
:103A80001041070462460023384602F048FA3246E5
:103A90000023CDE9020102F042FAA860F348D0F811
:103AA00004C02168C817000440EA11480F046246A8
:103AB00000233846414602F032FA32460023CDE96F
:103AC000020102F02CFA2060E848D0F804C06068D7
:103AD000C117090441EA1041070462460023384631
:103AE00002F01DFA32460023CDE9020102F017FA76
:103AF0006060DE48D0F804C0A068C117090441EA3C
:103B00001041070462460023384602F008FA3246A4
:103B10000023CDE9020102F002FAA060A0680028AB
:103B200004DDA068A0F58030A06003E0A06800F587
:103B30008030A0600020E0E538B50446CC4890F81D
:103B40002400A04201D1002038BD24B3C84890F819
:103B5000250010B94FF0FF30F6E70020FEF75EFBBE
:103B60000020FEF77DFCC249C88CFEF7DCFE002079
:103B70000090BF49496808786B4601222321FDF770
:103B800051FC0121BA4880F824100120FEF746FBC1
:103B9000FEF70AFD13E00020FEF740FBB448007C6E
:103BA0000090B349496808786B4601222321FDF74C
:103BB00039FC0021AE4880F82410FEF7F5FC002007
:103BC000C2E72DE9F04F8DB083460F4602200C90DE
:103BD000A74890F8240020B10020FFF7ADFF012690
:103BE00000E0002603A8FFF7E2F905A8FFF7FFF9B8
:103BF00001A8FFF720FA02A8FFF742FA9C4890F8C4
:103C00000AA004A8FFF796FA002407E0002239462C
:103C10005846FFF759FD00B902E0641C022CF5DBA1
:103C200000BF022C01D1002528E0002407E001227A
:103C300006A909A8FFF748FD00B902E0641C022CA0
:103C4000F5DB00BF022C01D1002517E006A938469C
:103C5000FFF75CFC00F0FF0809A95846FFF7A8FC35
:103C600000F0FF090025B9F1000F01D145F0010571
:103C7000B8F1000F01D145F0020500BFFF207C49DB
:103C80000872FF217A484172C1724FF6FF71C181FB
:103C9000FF218172017401210173BDF80C00FEF750
:103CA000D0FE9DF81400FEF78AFEBDF80400FEF772
:103CB0008EFDBDF80800FEF736FE5046FEF76BFBA2
:103CC0009DF81000FEF74EFD16B10120FFF734FFFE
:103CD00028460DB0BDE8F08FF8B504460D461646EF
:103CE00016B94FF0FF30F8BD6148807A10B94FF037
:103CF000FF30F8E720128DF80000E0B28DF80100E7
:103D00009DF8010028445A4949684989884202DDE2
:103D10004FF0FF30E7E7564A1268117E544A526866
:103D200010786B460222FDF77DFB10B14FF0FF309B
:103D3000D9E7EAB24E4B1B68597D4D4B5B6818784A
:103D40003346FDF76FFB10B14FF0FF30CBE700209B
:103D5000C9E7F8B504460D46164616B94FF0FF30D0
:103D6000F8BD4348807A10B94FF0FF30F8E72012D1
:103D70008DF80000E0B28DF801009DF801002844A4
:103D80003B4949684989884202DD4FF0FF30E7E747
:103D9000374A1268117E364A526810786B46022202
:103DA000FDF740FB10B14FF0FF30D9E7EAB2304BDE
:103DB0001B68597D2E4B5B6818783346FDF794FBE2
:103DC00010B14FF0FF30CBE70020C9E72DE9F043F9
:103DD00085B005460E4690469946254890F8250040
:103DE00020B14FF0FF3005B0BDE8F08316B94FF0B9
:103DF000FF30F8E7002423E0281B102801DD102005
:103E000000E0281B87B2321939462046FFF764FFCD
:103E100010B14FF0FF30E6E701AA39462046FFF720
:103E200098FF10B14FF0FF30DDE730193A4601A995
:103E300002F014F910B16FF00100D4E7E01984B278
:103E4000AC42D9DB4FEA28208DF8000008F0FF00D3
:103E50008DF80100064A1268917E054A5268107872
:103E60006B460222FDF7DEFA38B103E03C89000818
:103E7000A40000204FF0FF30B5E701218A4880F808
:103E80002510A0F826900020ADE70146864890F85E
:103E9000240008700020704702464FF0FF30704742
:103EA00001464FF0FF307047F8B505460F461446FF
:103EB000002C70D0B5F5FF5F01DDFF2605E0202D59
:103EC00001DA012601E0C5F3471607B90127282CBE
:103ED00002DD4FF0FF30F8BD7348407D28BB7248CB
:103EE00090F8240038B10020FFF726FE01216E482B
:103EF00080F8201003E000216B4880F820106A4809
:103F00001630FFF754F868481830FFF770F8664825
:103F10001A30FFF790F864481C30FFF7B1F8624898
:103F2000817A81771F30FFF705F90020FEF776F9D7
:103F30000020FEF78BFC00208DF800005A4A126822
:103F40009178594A526810786B460122FDF76AFA57
:103F500010B14FF0FF30BEE740208DF80000524A0C
:103F60001268D17B504A526810786B460122FDF7E7
:103F700059FA00B165E08DF800608DF801704A4A89
:103F80001268117A484A526810786B460222FDF78F
:103F900049FA08B155E047E00520FCF7ADF9424881
:103FA000407A072101EBC000C0B28DF800003E4A04
:103FB0001268D1793C4A526810786B460122FDF7AD
:103FC00031FA00B13DE020208DF80000012C03D132
:103FD00000208DF801000EE0052C03DC01208DF897
:103FE000010008E0142C03DC02208DF8010002E03F
:103FF00003208DF801009DF80100072101EB8010DE
:10400000C0B28DF80100284A1268917C264A526895
:1040100010786B460222FDF705FA00B111E001218C
:1040200021484175002056E71F4A1632002103E05F
:10403000505C00B105E0491C0C29F9D34FF0FF306A
:1040400049E7FF2018490872FF2117484172C172E1
:104050004FF6FF71C181FF2181720174012101734B
:104060000146887FFEF797F90F49C88AFEF7E9FCF9
:104070000D49087EFEF7A3FC0B49488BFEF7A7FB12
:104080000949888BFEF74FFC0749C87FFEF76AFB9A
:10409000054890F8200010B10120FFF74DFD0021E8
:1040A00001484175002016E7A400002010B5C82380
:1040B0004FF48062F74940F6F630FFF787FE10BDF7
:1040C00010B586B00446F4A000680390F3A0006821
:1040D0000290F3A000680190F2A00068009004F044
:1040E000030003A9085C8DF8140003A8C4F3C10100
:1040F000405C8DF8150003A8C4F38111405C8DF875
:10410000160004F0030002A9085C8DF8100002A854
:10411000C4F3C101405C8DF8110002A8C4F3811101
:10412000405C8DF8120005AA032140F22640FFF7FB
:10413000D3FD18B14FF0FF3006B010BD04AA032123
:1041400040F22A40FFF7C8FD10B14FF0FF30F3E70F
:10415000019805900098049004F0040058B19DF86F
:10416000140040F001008DF814009DF8100040F09C
:1041700001008DF8100004F0200058B19DF81500E2
:1041800040F001008DF815009DF8110040F001008D
:104190008DF8110004F4807058B19DF8160040F0BD
:1041A00001008DF816009DF8120040F001008DF816
:1041B000120005AA03214FF48860FFF78DFD10B1AE
:1041C0004FF0FF30B8E704AA032140F23140FFF777
:1041D00083FD10B14FF0FF30AEE7B34804810020FB
:1041E000AAE71FB50446B048007A00F0030054F86F
:1041F00020000190AC48007A00F0040010B1019852
:1042000040420190A848007AC0F3C10054F8200051
:104210000290A548007A00F0200010B102984042B8
:104220000290A148007AC0F3811054F82000039056
:104230009D48008900F4807010B1039840420390BB
:104240009A49019880FB0101800F40EA81000190AA
:104250009649029880FB0110820042EA9170029018
:104260009249039880FB0110820042EA917003900A
:104270000198000E8DF800000198000C8DF80100E7
:104280000198000A8DF802000198C0B28DF8030071
:104290006A4604214FF47470FFF71EFD18B14FF009
:1042A000FF3004B010BD0298000E8DF80000029897
:1042B000000C8DF801000298000A8DF802000298A7
:1042C000C0B28DF803006A4604214FF47570FFF701
:1042D00003FD10B14FF0FF30E3E70398000E8DF8B7
:1042E00000000398000C8DF801000398000A8DF877
:1042F00002000398C0B28DF803006A4604214FF40F
:104300007670FFF7E9FCCCE770B588B0064601A8E7
:10431000FEF7E9FEBDF804000021C90341EA50455B
:10432000C4036148007A00F0030056F820000590AD
:104330005D48007A00F0040010B1059840420590F5
:104340005948007AC0F3C10056F82000069056483C
:10435000007A00F0200010B10698404206905248C2
:10436000007AC0F3811056F8200007904E4800896B
:1043700000F4807010B10798404207900598C1176B
:10438000A0FB042301FB043100FB0510810041EA7E
:10439000927005900698C117A0FB042301FB04311D
:1043A00000FB0510810041EA927006900798C11742
:1043B000A0FB042301FB043100FB0510810041EA4E
:1043C000927007900598000E8DF808000598000C73
:1043D0008DF809000598000A8DF80A000598C0B20A
:1043E0008DF80B000698000E8DF80C000698000C56
:1043F0008DF80D000698000A8DF80E000698C0B2E0
:104400008DF80F000798000E8DF810000798000C2B
:104410008DF811000798000A8DF812000798C0B2B5
:104420008DF8130002AA0C214FF42570FFF754FCFD
:1044300008B070BD30B585B004461DA207CA02ABF6
:1044400007C3C82C03DD4FF0FF3005B030BDC820D6
:1044500090FBF4F0401E85B2280A8DF80000E8B207
:104460008DF801006A46022140F21620FFF734FC65
:1044700010B14FF0FF30E8E702AA0C2140F6C1204E
:10448000FFF72AFC10B14FF0FF30DEE706488481C9
:104490000020DAE7648900084CCD6C000CC92C00C0
:1044A00036567600264666006405002009E3CA02F7
:1044B000FEF2ABC4AAF1DFDFBBAFDFDF0146FC4891
:1044C00080890880002070472DE9FC4706460F468A
:1044D00006F0070010B1B7F5C86F03DD4FF0FF30ED
:1044E000BDE8FC87384603F0A5FA8146F14903F0A0
:1044F00057F980466846FEF77AFD9DF800000228CD
:1045000006D0042816D0082826D0102848D135E037
:104510004FF08D41404603F0D5FA814603F052FA40
:1045200084B2E549404603F0CDFA814603F04AFAE9
:1045300085B238E04FF08C41404603F0C3FA814623
:1045400003F040FA84B2DD49404603F0BBFA8146ED
:1045500003F038FA85B226E04FF08B41404603F075
:10456000B1FA814603F02EFA84B2D549404603F0F1
:10457000A9FA814603F026FA85B214E04FF08A4189
:10458000404603F09FFA814603F01CFA84B2CD49FD
:10459000404603F097FA814603F014FA85B202E030
:1045A0004FF0FF309CE700BF20128DF80400E0B20E
:1045B0008DF8050028128DF80600E8B28DF8070086
:1045C00006F00100A0B101AA02214FF4EA70FFF742
:1045D00083FB10B14FF0FF3082E70DF1060202219C
:1045E0004FF49270FFF778FB10B14FF0FF3077E790
:1045F00006F00200A0B101AA02214FF4EC70FFF70F
:104600006BFB10B14FF0FF306AE70DF1060202219B
:104610004FF49470FFF760FB10B14FF0FF305FE78D
:1046200006F00400A0B101AA02214FF4EE70FFF7DA
:1046300053FB10B14FF0FF3052E70DF1060202219B
:104640004FF49670FFF748FB10B14FF0FF3047E78B
:10465000002045E738B504460020009004F0010032
:1046600020B19DF8000040F03000009004F00200FE
:1046700020B19DF8000040F00C00009004F0040010
:1046800020B19DF8000040F0030000906A4601212F
:104690004FF4A470FFF720FB38BD38B50446012C59
:1046A00001DA012402E0042C00DD0424601EC0B203
:1046B00000906A46012140F24F10FFF70DFB38BD14
:1046C00038B50446052094FBF0F085B228128DF829
:1046D0000000E8B28DF801006A4602214FF4EF7045
:1046E000FFF7FAFA38BD38B50446052094FBF0F020
:1046F00085B228128DF80000E8B28DF801006A46F4
:1047000002214FF4ED70FFF7E7FA38BDF8B5054622
:104710000E464FF47A7095FBF0F000FB06F4200E85
:104720008DF80000200C8DF80100200A8DF80200A1
:10473000E0B28DF803006A4604214FF4AE70FFF733
:10474000CBFAF8BD38B50446052094FBF0F084B2EE
:1047500020128DF80000E0B28DF801006A460221B7
:104760004FF4AD70FFF7B8FA38BD38B504460520F0
:1047700094FBF0F084B220128DF80000E0B28DF8C6
:1047800001006A4602214FF4AC70FFF7A5FA38BD6C
:1047900038B5044614B94FF0FF3038BD6A460421DD
:1047A0004FF45870FFF7D5FA10B14FF0FF30F4E72F
:1047B0009DF8000000069DF8011040EA01409DF8B8
:1047C000021040EA01209DF80310084320600020F9
:1047D000E3E738B50446200E8DF80000200C8DF874
:1047E0000100200A8DF80200E0B28DF803006A464D
:1047F00004214FF45870FFF76FFA38BD38B50446FE
:1048000014B94FF0FF3038BD6A4604214FF471707F
:10481000FFF79FFA10B14FF0FF30F4E79DF800006A
:1048200000069DF8011040EA01409DF8021040EAA0
:1048300001209DF80310084300EB800080002060F9
:104840000020E0E738B504461420B4FBF0F4200E55
:104850008DF80000200C8DF80100200A8DF8020070
:10486000E0B28DF803006A4604214FF47170FFF73F
:1048700033FA38BD38B5044664B120208DF8000005
:1048800028208DF8010030208DF8020038208DF8A6
:10489000030004E0A3220421684601F00BFC6A46F1
:1048A000042140F69E20FFF717FAFDF77DFE38BD84
:1048B0006405002000004843000040460000C04559
:1048C000000040450000C04438B5044664B1C02033
:1048D0008DF80000C2208DF80100C4208DF8020080
:1048E000C6208DF8030004E08B220421684601F005
:1048F000E1FB6A46042140F69820FFF7EDF9FDF749
:1049000053FE38BD3EB504466CB1FDA1D1E900208F
:104910008968CDE9002002916A4609214FF4976029
:10492000FFF7DAF93EBDF9A2D2E900109268CDE9AD
:10493000010200916A4609214FF49760FFF7CCF914
:10494000F0E73EB5044602208DF80000CA208DF83D
:104950000100E3208DF8020009208DF803006A466B
:1049600004216820FFF7B8F9A3208DF8000004F0B7
:10497000400048B1C0208DF80100C8208DF8020029
:10498000C2208DF8030006E0A3208DF801008DF809
:1049900002008DF8030004F4C07048B1C4208DF803
:1049A0000400CC208DF80500C6208DF8060006E036
:1049B000A3208DF804008DF805008DF80600A320D3
:1049C0008DF807008DF808008DF809006A460A2165
:1049D00040F6A720FFF780F904F0030018B120206B
:1049E0008DF8000002E0D8208DF800006A46012111
:1049F00040F6B620FFF770F904F0200018B101204E
:104A0000FFF780FF02E00020FFF77CFF04F4C07096
:104A100008B304F4807060B1B2208DF800008B20E0
:104A20008DF80100B6208DF802009B208DF8030060
:104A30000BE0B0208DF8000080208DF80100B4203C
:104A40008DF8020090208DF803006A46042140F69C
:104A5000A220FFF741F904F0010020B3F8208DF8FF
:104A600000006A4601214FF40B60FFF735F9FA2187
:104A70000720FFF729FD0720FFF7ECFD0120FFF7D6
:104A80000CFE6420FFF71CFE4FF4FA70FFF72BFEBC
:104A9000C821A148FFF73AFE2820FFF753FE0A205D
:104AA000FFF763FE08E0D8208DF800006A46012178
:104AB0004FF40B60FFF710F904F0020018B1D92091
:104AC0008DF8000002E0D8208DF800006A46012130
:104AD00040F23D70FFF700F904F0040018B1012026
:104AE000FFF7F2FE02E00020FFF7EEFE04F01000F8
:104AF00018B10120FFF7BEFE02E00020FFF7BAFE6A
:104B000044F0080085494881FDF74EFD00208349A7
:104B1000887304F0400018B10846807B801D8873BC
:104B200004F4C07020B17D48807B801D7B49887370
:104B300004F0140020B17948807B103077498873E5
:104B400004F0030020B17548807B001D7349887311
:104B500000203EBD01467148408908800020704712
:104B60002DE9F0410446E07800F0C006E07800F05E
:104B70003F05607800F0010098B1EF102846E91772
:104B800005EB5171C910A5EBC101491C01F0FF08EB
:104B90006248006820B16148414602683846904743
:104BA00000BF607800F0080030B15C48406818B180
:104BB000B0115A4A516888470020BDE8F08110B50D
:104BC00086B0044656A207CA03AB07C357A207CA5A
:104BD0008DE80700012C09D0022C0ED103AA0B216D
:104BE00040F68220FFF778F806B010BD6A460B2128
:104BF00040F68220FFF770F8F6E74FF0FF30F3E75A
:104C00002DE9F04F8DB00746884615469946DDE9F7
:104C1000166B0024002030804049887B5A4605A945
:104C2000FEF7BDFB18B1601E0DB0BDE8F08F3B482C
:104C3000807A00F01400002861D09DF8140000066E
:104C40009DF8151040EA01409DF8161040EA012039
:104C50009DF81710084328609DF8180000069DF87D
:104C6000191040EA01409DF81A1040EA01209DF811
:104C70001B10084368609DF81C0000069DF81D107D
:104C800040EA01409DF81E1040EA01209DF81F10E7
:104C90000843A8609DF8200000069DF8211040EA16
:104CA00001409DF8221040EA01209DF8231008439E
:104CB000E86004F11000C4B228680014019068682C
:104CC00000140290A86800140390E868001404908F
:104CD00001984043029901FB0100039901FB010087
:104CE000049901FB010ABAF1706F02DBBAF1885F27
:104CF00022DDFDF759FC00203080401E94E721E0C2
:104D0000B8AAB38DB4980D355D000000B8AAAAAA60
:104D1000B088C3C5C700000009E3CA0264050020CB
:104D2000D8B1B9F38BA391B609B4D900DAB1B9F30C
:104D30008BA391B6DAB4DA00B6F9000040F48070C3
:104D4000308000BF3448807A00F0400020B305A9CD
:104D5000601C085C095D40EA012000B2A8F8000070
:104D600005A9E01C095C05AAA01C105C41EA002012
:104D700000B2A8F8020005A9601D095C201D105CA6
:104D800041EA002000B2A8F80400A01DC4B2B6F9A0
:104D9000000040F0080030801F48408900F4C070D7
:104DA00008B305A9601C085C095D40EA012000B257
:104DB000388005A9E01C095C05AAA01C105C41EA2A
:104DC000002000B2788005A9601D095C201D105CE0
:104DD00041EA002000B2B880A01DC4B2B6F90000BC
:104DE00040F0700030800C48807A00F0030018B169
:104DF00005A90819FFF7B4FE4846FDF734FF002067
:104E000012E701460448016000207047014602484D
:104E10004160002070470000640500202DE9F0414A
:104E200005460C46AA480168204602F053FF074693
:104E3000A8480168384602F045FE0646A6480168C3
:104E4000304602F03FFCA4490860A4484168A448E9
:104E5000006802F03FFF0646A0488168304602F035
:104E600039FFA04908609D48C06880F00040486054
:104E70009A48C06880F0004088609B480068C8601D
:104E800008689449096802F01DFE064693480168C7
:104E9000304602F017FC91490860924948688D49F4
:104EA000096802F00FFE06468C484168304602F061
:104EB00009FC8A4948608B4988688649096802F07C
:104EC00001FE064685488168304602F0FBFB8349B7
:104ED00088608449C8687F49096802F0F3FD064686
:104EE0007E48C168304602F0EDFB7C49C8607A48D4
:104EF0000168284602F0EEFE7C4908607C48007894
:104F000002F098FD064675480168304602F0DAFD69
:104F1000784908607648007802F08CFD06466F48B4
:104F20008168304602F0CEFD734908607048007811
:104F300002F080FD07466F480168384602F0C2FD66
:104F400006466E480168304602F0BCFB6C490860BA
:104F5000084601686748006802F022FC6949086059
:104F6000674801686448006802F01AFC66490860F6
:104F700060480068654908605D48007802F05AFDA5
:104F8000064656484168304602F09CFD604908607C
:104F90005E4801685B48006802F094FD06464F4891
:104FA0000168304602F08BFE4C49086058480168A1
:104FB0005448006802F086FD06464848416830467D
:104FC00002F07DFE45494860504801684E4800683F
:104FD00002F078FD064641488168304602F06FFED7
:104FE0003E4988604A4801684748006802F06AFD07
:104FF00006463A48C168304602F061FE3749C8604B
:105000003A4801683F48006802F05CFD06463248B5
:105010000168304602F056FB2F49086033480168AA
:105020003948006802F04EFD0646294801683046BE
:1050300002F048FB2649086008460168204602F055
:1050400049FE34490860BDE8F0812DE9F04F8BB08E
:1050500083468A46504602F009FB80462E4A2F4B73
:1050600002F02AF8CDE902011B48006802F0FEFABE
:10507000CDE90001DDE9022301F088FD04460D467B
:10508000274801684FF07E5002F024FE804602F06F
:10509000EDFA064622462B4602F00EF8CDE906014F
:1050A0001F480168584602F00DFD044602F0DEFA82
:1050B000CDE90401DDE9062301F068FDCDE9080131
:1050C00001F032FD044908600BB0BDE8F08F00002C
:1050D000F0000020E8000020D4000020140100208F
:1050E000DC00002074050020E0000020F400002017
:1050F000EC000020F8000020FC000020E40000206C
:105100000001002004010020080100200C01002003
:1051100010010020D80000207B14AE47E17A743FD4
:10512000D0000020014691F90020002A01DD002076
:105130001EE091F90020002A01DA042018E091F91C
:105140000120002A01DD012012E091F90120002A4E
:1051500001DA05200CE091F90220002A01DD02208D
:1051600006E091F90220002A01DA062000E007207B
:10517000704770B505462846FFF7D4FF0446E81C83
:10518000FFF7D0FF44EAC00084B2A81DFFF7CAFFB2
:1051900044EA801084B2204670BD70B588B002A980
:1051A00005A8FEF70EFD0446072C3FD101A8FDF728
:1051B0007DFF059802F026FC0646019902F082FC6C
:1051C000054602F0E3FB0590069802F01BFC06463C
:1051D000019902F077FC054602F0D8FB069007988B
:1051E00002F010FC0646019902F06CFC054602F044
:1051F000CDFB079005A8FEF7F4FF6846FDF773FFA7
:10520000BDF80010029848430290BDF800100398C2
:1052100048430390BDF8001004984843049002A846
:10522000FFF772F8FEA000F09FFE00BF08B070BD4F
:105230002DE9F04304460D46DDE907670021012012
:1052400041E0DFF800C43CF81080A0F1010CDFF869
:10525000F49329F81C8009F1160C3CF81090A0F189
:10526000010CDFF8E08308F1160828F81C9008F11B
:10527000160C3CF81090A0F1010C08F1160828F863
:105280001C9008F1160C3CF81090A0F1010C08F1EC
:10529000160828F81C9008F1160C3CF81090A0F1A4
:1052A000010C08F1160828F81C9008F1160C3CF8BF
:1052B0001090A0F1010C08F1160828F81C9000F1DC
:1052C000010C0CF0FF000A28BBDBDFF878C3ACF858
:1052D0001240ACF82850ACF83E20ACF85430ACF892
:1052E0006A60ACF880700021002008E0DFF854C349
:1052F0003CF910C0614400F1010C0CF0FF000A28D9
:10530000F4DB4FF00A0C91FBFCFC0FFA8CFCDFF88D
:105310003483A8F814C0002100200AE0DFF824C379
:105320000CF1160C3CF910C0614400F1010C0CF0BA
:10533000FF000A28F2DB4FF00A0C91FBFCFC0FFA8D
:105340008CF8DFF800C3ACF82A80002100200AE0C6
:10535000DFF8F0C20CF12C0C3CF910C0614400F1F4
:10536000010C0CF0FF000A28F2DB4FF00A0C91FB55
:10537000FCFC0FFA8CF8DFF8CCC2ACF840800021BE
:1053800000200AE0DFF8BCC20CF1420C3CF910C06E
:10539000614400F1010C0CF0FF000A28F2DB4FF031
:1053A0000A0C91FBFCFC0FFA8CF8DFF898C2ACF801
:1053B0005680002100200AE0DFF888C20CF1580C6A
:1053C0003CF910C0614400F1010C0CF0FF000A2808
:1053D000F2DB4FF00A0C91FBFCFC0FFA8CF8DFF8C3
:1053E00064C2ACF86C80002100200AE0DFF854C2EF
:1053F0000CF16E0C3CF910C0614400F1010C0CF092
:10540000FF000A28F2DB4FF00A0C91FBFCFC0FFABC
:105410008CF8DFF830C2ACF88280BDE8F08338B594
:105420000446032302226B21D0200094FCF72CF9C0
:1054300038BD38B50446022304221B21D020009435
:10544000FCF722F938BD38B50446022304221C219A
:10545000D0200094FCF718F938BD10B50446234657
:1054600006226B21D020FCF744F910BD10B5764B15
:1054700001227521D020FCF795F87348007810BD03
:1054800010B5FFF7F3FF682801D1012010BD0020FF
:10549000FCE710B50446234605226A21D020FCF71C
:1054A00028F910BD10B50446234601223721D0202B
:1054B000FCF71FF910BD10B50220FFF7B0FF032065
:1054C000FFF7B7FF0020FFF7BEFF0020FFF7C5FF83
:1054D0000020FFF7DEFF0020FFF7E4FF10BD38B526
:1054E000002000906B46012275216820FBF7FCFF2D
:1054F00000205649087056A000F036FD9DF80000C7
:10550000682810D000BFBFF34F8F5A48006800F4DE
:10551000E06059490843001D56490860BFF34F8FAA
:1055200000BF00BFFEE7FDF7CEFA00283CD178208F
:10553000FCF731FF10B946A000F016FD7820FDF70A
:1055400011F910B94DA000F00FFDC820FDF7EBF9DF
:1055500010B954A000F008FDFEF7A8FD10B95BA03B
:1055600000F002FD6648FFF704FE0446FEF7A8FDC2
:1055700010B964A000F0F8FC40F27310FFF7E1F9F5
:1055800010B96AA000F0F0FCC820FEF753FF10B974
:1055900070A000F0E9FCFFF700FE0120FEF7CCFA56
:1055A00010B975A000F0E0FC01202849087038BD52
:1055B0002DE9F04F8FB00CA878490DAB08AACDE9C2
:1055C000001077497748FFF71BFB7448008800F408
:1055D0008070002822D0089802F014FA04464FF098
:1055E0009D4102F0DDF870490860099802F00AFA5E
:1055F00004464FF09D4102F0D3F86C4908600A98C8
:1056000002F000FA04464FF09D4102F0C9F86849E3
:1056100008600B9802F0F6F90446CBE0A8E1000020
:1056200073657474696E6720626961732073756352
:1056300063657366756C6C79202E2E2E2E2E2E0DC2
:105640000A000000920500208405002007000020C9
:105650006D70755F7365745F73656E736F722063D1
:105660006F6D706C657465202E2E2E2E2E2E0D0AF9
:10567000000000000CED00E00000FA056D70755FA1
:10568000636F6E6669677572655F6669666F2063D2
:105690006F6D706C657465202E2E2E2E2E2E0D0AC9
:1056A000000000006D70755F7365745F73616D70ED
:1056B0006C655F7261746520636F6D706C65746595
:1056C000202E2E2E2E2E2E0D0A000000646D705FEF
:1056D0006C6F61645F6D6F74696F6E5F6472697621
:1056E00065725F6669726D7761726520636F6D7058
:1056F0006C657465202E2E2E2E2E2E0D0A000000B5
:1057000050010020646D705F7365745F6F7269652E
:105710006E746174696F6E20636F6D706C65746513
:10572000202E2E2E2E2E2E0D0A000000646D705F8E
:10573000656E61626C655F66656174757265206334
:105740006F6D706C657465202E2E2E2E2E2E0D0A18
:1057500000000000646D705F7365745F6669666F5A
:105760005F7261746520636F6D706C657465202E67
:105770002E2E2E2E2E0D0A006D70755F7365745FD0
:10578000646D705F737461746520636F6D706C65B8
:105790007465202E2E2E2E2E2E0D0A003001002094
:1057A0002A010020240100204001002044010020A3
:1057B000480100204FF09D4101F0F2FF8949086047
:1057C000894801684FF0804002F07CF906908748D4
:1057D0000168069802F076F98246854801684FF024
:1057E000404002F06FF906907E480168069802F08A
:1057F00069F98346514601F065FF079001F036FFD5
:10580000804600F05BFE06464FF06632794B01F0B1
:1058100053FC044601F088F9774908607348016831
:105820004FF0804002F04EF90390704801680398F1
:1058300002F048F982466E4801684FF0404002F09D
:1058400041F903906A480168039802F03BF98346E6
:10585000514602F03FFA81464FF07E5101F032FF8F
:10586000044601F003FFCDE904015F4801684FF0F1
:10587000804002F027F983465D480168584602F0EF
:1058800021F98146594801684FF0804002F01AF929
:10589000834654480168584602F014F98246494646
:1058A00001F010FF044601F0E1FE0746DDE90423A4
:1058B00001F054F84FF066324E4BCDE9060101F08D
:1058C000FBFB054601F030F94C490860454801688A
:1058D000006802F0F7F8039044480168006802F09D
:1058E000F1F8029042480168006802F0EBF8834644
:1058F0003D480168006802F0E5F85946019001F062
:10590000E1FE8246029902F0E5F98146039902F030
:10591000E1F9044601F0AAFECDE90401314801682D
:105920003148006802F0CEF88246304801683048BD
:10593000006802F0C7F88346514601F0C3FE814675
:105940004FF0804102F0BEF8044601F08FFE07469A
:10595000DDE9042301F002F84FF06632254BCDE972
:10596000060101F0A9FB054601F0DEF824490860B4
:105970000FB0BDE8F08F2DE9F05F4221D020FBF79A
:10598000EEFD05464121D020FBF7E9FD05EB0024A3
:10599000204602F037F882464FF08E41504602F022
:1059A0005DF905D24FF08F41504602F093F98246DF
:1059B0001449504601F0F4FE834601F057FE80463C
:1059C000114A124B01F0E2F806460022104B01F09A
:1059D00073FB044601F0A8F88246504601F0D6FF5A
:1059E000BDE8F09F4C01002040010020480100204C
:1059F0004401002066A64C403401002038010020FC
:105A00003C0100200000AA43A4703D0AD743424055
:105A10000000244038B5C2A200210846FBF7E9F88F
:105A20000C2001230090C048027800211E20FBF7C3
:105A300096F8BD480078012805D1BCA200212D2090
:105A4000FBF7D7F812E0B8480078022805D1B8A2D1
:105A500000212D20FBF7CDF808E0B348007803289B
:105A600004D1B5A200212D20FBF7C3F8B4A20A216E
:105A70000020FBF7BEF8B44800680A2190FBF1F45F
:105A80000C200223224600902D20FBF768F8AE4838
:105A900000680A2190FBF1F201FB12040C200123A3
:105AA000224600904420FBF75AF8A8A20A213A2087
:105AB000FBF79FF8A6A20A215020FBF79AF8A5A2AF
:105AC00014210020FBF795F8A448006800280FDA9D
:105AD000A3A214212D20FBF78CF80C2005230090A5
