:020000040800F2
:10000000D0100020DD010008E1010008E301000834
:10001000E5010008E7010008E90100080000000010
:10002000000000000000000000000000EB010008DC
:10003000ED01000800000000EF010008F1010008D8
:10004000F3010008F3010008F3010008F3010008C0
:10005000F3010008F3010008F3010008F3010008B0
:10006000F30100082B1F0008F3010008F30100084A
:10007000F3010008F3010008F3010008F301000890
:10008000F3010008F3010008F3010008F301000880
:10009000F3010008F3010008F3010008F301000870
:1000A000F3010008F3010008F3010008F301000860
:1000B000F3010008070F0008F3010008F30100082E
:1000C000F3010008F3010008F3010008F301000840
:1000D000F3010008F301000845180008F3010008C7
:1000E00009080008F3010008F301000800F002F815
:1000F00000F05FF80AA090E8000C82448344AAF163
:100100000107DA4501D100F054F8AFF2090EBAE860
:100110000F0013F0010F18BFFB1A43F0010318473B
:1001200028A0000048A000000A444FF0000C10F87E
:10013000013B13F0070408BF10F8014B1D1108BF65
:1001400010F8015B641E05D010F8016B641E01F805
:10015000016BF9D113F0080F1EBF10F8014BAD1C55
:100160000C1B09D16D1E58BF01F801CBFAD505E073
:1001700014F8016B01F8016B6D1EF9D59142D6D3CD
:10018000704700000023002400250026103A28BFF5
:1001900078C1FBD8520728BF30C148BF0B607047F9
:1001A000642905F0CB86002070471FB51FBD10B530
:1001B00010BD06F091F81146FFF7F7FF00F02AF89E
:1001C00006F0AFF803B4FFF7F2FF03BC00F030FA1B
:1001D00030BF72B662B680F308887047084800479F
:1001E000FEE7FEE7FEE7FEE7FEE7FEE7FEE7FEE7E7
:1001F000FEE7FEE703480449044A054B7047000048
:10020000ED000008D00A0020D0100020D00C002003
:10021000D00C0020092000F0B2F9482000F052F87C
:10022000022000F097F9012000F094F900F090FA14
:1002300000F0C4FA00F01DFD4FF4FA31482000F040
:1002400020FA4FF41651242001F08AFA002141F6D9
:100250001F4000F0D7FE00F02BFF00F060FF00F021
:10026000CFFF05F01AF805F02CF801F0DEFC01F0E4
:100270004DFA1DE00F480078012804D101F023FD5C
:1002800000200C4908700C48007820B905F024FCC7
:1002900005F0B0FA01E005F0F9FC0120074908700B
:1002A00000200749087000BF044800780028FBD1EF
:1002B000E0E70000380000200700002035000020A3
:1002C000340000204FF0E021096921F004014FF0D3
:1002D000E0221161C21700EB5272C2F3C702234B36
:1002E0001A701946097801EB4102C2EBC1114FF6B1
:1002F000FF7202EAC1011E4A1180704701461B4A83
:1003000012784A434FF0E0235A6100229A61012299
:100310001A6100BF4FF0E022106900F001021AB12B
:1003200000F48032002AF5D000224FF0E0231A6159
:100330009A61704701460E4A12884A434FF0E02303
:100340005A6100229A6101221A6100BF4FF0E02237
:10035000106900F001021AB100F48032002AF5D0D1
:1003600000224FF0E0231A619A617047500000208C
:1003700052000020A34A0A400243A34B1A60704770
:100380000146072323EA010212029F4B1B1D186836
:100390004FF6FF0318409D4B184310439A4B1B1D0B
:1003A000186070472DE9F0410746884614461D46FF
:1003B0002846FFF7E5FFC5F1040007FA00F60F2015
:1003C000284100EA0800064306F00F06E21704EB96
:1003D000D2625211920002F1E022D2F800212146AD
:1003E000E31704EBD3635B11A4EB431C012303FA73
:1003F0000CF31A432046E31704EBD3635B119B0015
:1004000003F1E023C3F800218148005D40EA0610B3
:100410007F490855BDE8F08170B504460B46CE17FC
:1004200001EB9676C6F38700CE1701EB9676B610F1
:10043000A1EB8606B606350E764B9B6943F00103A9
:10044000744EB3614FEAB63353F820300F26AE40F6
:10045000B343714E46F82030334653F8203004FA47
:1004600005F61E436C4B43F820606C4B1B6801265D
:100470008E403343694E336002F0010343B1674B52
:100480000C331B6801268E403343644E0C363360B8
:1004900002F0020343B1614B08331E6801238B4015
:1004A0001E435E4B08331E6070BD00B500205949E5
:1004B0000861C8601420486100208861C86108464E
:1004C000006840F001000860084640685449084050
:1004D0005049486008460068524908404D49086044
:1004E0000846006820F4802008600846406820F430
:1004F000FE0048600020886000214FF00060FFF798
:1005000039FF00BD10B540480830006840F00400D5
:100510003D49083108603F48C06940F080503D497E
:10052000C8614148406840F480703F4948600846CF
:10053000006840F0040008600846006840F00200CF
:100540000860FFF745FE10BD3048001D2E49091D0B
:1005500008607047014649062E4A926942F001023E
:100560002C4B9A612C4A083A526822F0E0622A4BDE
:10057000083B5A601A4652680A435A60704730B5C1
:1005800004460025FFF791FF2248006840F48030C0
:100590002049086000BF1F480068400C0028FAD0BE
:1005A0004FF480601B494860A01EC4B208464068F2
:1005B00040EA844048600846406840F48030486023
:1005C0001A48006840F03200184908601148006875
:1005D00040F080700F49086000BF0E480068400E70
:1005E0000028FAD00B48406840F0020009494860F2
:1005F00005E008484068C0F3870505F00305022DB3
:10060000F7D130BD80FFFF1F08ED00E00000FA05C4
:1006100000E400E000100240080001400004014036
:100620000000FFF8FFFFF6FE0070004000200240CF
:10063000014600BF7047404A12785AB900BF3F4A8E
:10064000128802F04002002AF9D0C2B23B4B1B1DB7
:100650001A800AE000BF3A4A128802F04002002ADB
:10066000F9D0C2B2364B1B1D1A8070473449091DA0
:10067000088000BF3249098801F040010029F9D003
:1006800070472DE9F05F05460E46300107F0E4FEA5
:1006900081462C4905FB01F007F0DEFE8246494603
:1006A00007F090FD0746384607F09EFE84B22046CC
:1006B00007F0D2FE8346394608F013F882464FF021
:1006C000834107F011FF814607F08EFE80464FF60A
:1006D000FF7000EA041404EB080084B21A48806931
:1006E00040F00400184988610846806940F4804061
:1006F00088611648006820F47F6014490860084645
:10070000006840F40B6008600F48C06840F4804007
:100710000D49C8600846C06820F48040C860084899
:1007200008300480001D008842F20C01084304498F
:100730000C310880BDE8F09F070000200044004015
:100740000038014040420F00001002400408014000
:100750001548806940F00400134988611348006817
:1007600020F00F00114908600846006840F00300BF
:1007700008600E480830006840F480700B4908316A
:10078000086070470A490968491C094A116081429A
:1007900008D108490968C943074AC2F8A0110021D5
:1007A000034A116070470000001002400408014035
:1007B00058000020A00121420000214210B56648E7
:1007C000806940F00400644988616448006820F052
:1007D0007040624908600846006840F000400860C8
:1007E0005E480830006840F400405C490831086009
:1007F00001220F210020FFF70FFE022328220121F2
:100800001846FFF7CFFD10BD10B50A20FFF792FD87
:100810005348006838B95348007808B9012000E00F
:100820000020504908704FF400404F49086010BD47
:1008300001464B48006828B94C480088401C4B4A88
:10084000108002E00020494A10804548006828B91D
:100850004748007810B90120454A10704548007893
:10086000B0B943480078012807D143480078401CBC
:10087000414A107001203F4A10703F48007802281A
:1008800006D100203C4A10703C4A1080022070477C
:1008900033480068012804D10020354A1070354AD9
:1008A00010703548007801281CD134480088401C5D
:1008B000324A10801046008888420ADD2B480088A2
:1008C000884206DA00202C4A10702C4A1080012041
:1008D000DDE726480088884204DD0020264A1070A3
:1008E000264A10800020D2E72548007838B11C48FD
:1008F000006820B90020224908700120704718487C
:100900000068012801D11E4908700020F6E71D4843
:10091000008840B91248006828B91B480088401C6C
:100920001949088002E0002017490880164800880D
:10093000C82807DD012013490880002012490880DB
:10094000012070470F480088012802D100200D497E
:1009500008800020F5E70000001002400408014074
:100960003C012142070000201404014062000020E5
:100970005C0000205D0000205E0000206000002080
:1009800064000020680000206600002010B50A46C0
:100990001AB10123FE4C236002E00023FC4C2360CB
:1009A000002114E00023FB4C236000F080031BB106
:1009B0000123241D236003E00023F64C241D236043
:1009C0000123F44C23604306180E4B1CD9B20829AE
:1009D000E8DB0123EE4C236010BD30B500241CE0A1
:1009E00004F1B001C8B20021FFF7D0FF0021084692
:1009F000FFF7CCFF00211020FFF7C8FF002508E01B
:100A0000E54901EBC501085D0121FFF7BFFF681C47
:100A1000C5B2802DF4DB601CC4B2082CE0DB30BD15
:100A200000B500218D20FFF7B1FF00211420FFF752
:100A3000ADFF0021AF20FFF7A9FF00BD00B50021E9
:100A40008D20FFF7A3FF00211020FFF79FFF00215B
:100A5000AE20FFF79BFF00BD30B500240CE0002561
:100A600006E00020CC4901EBC5010855681CC5B261
:100A7000802DF6DB601CC4B2082CF0DBFFF7ADFF65
:100A800030BDF0B5144600267F2801DC3F2900DD8B
:100A9000F0BD0B46CF1701EB5777FF10C7F10707E3
:100AA000FAB2CF1701EB5777FF10A1EBC707FDB2E2
:100AB000C5F107070123BB40DEB24CB1B64B03EBD7
:100AC000C0039B5C3343B44F07EBC007BB5408E043
:100AD000B14B03EBC0039B5CB343AF4F07EBC007C5
:100AE000BB5400BFD4E72DE9F04F80460C461546B5
:100AF0001E46A346A5F12000C5B200273EE00C2EFD
:100B000007D105EB4500A54901EB800010F80790DF
:100B100004E0A34800EB051010F807904FF0000A1E
:100B200026E009F0800028B121464046099AFFF7E7
:100B3000A8FF09E0099808B9012000E0002002465A
:100B400021464046FFF79DFF4FEA49604FEA106992
:100B5000601CC4B2A4EB0B00B04205D15C4608F1A6
:100B6000010000F0FF0806E00AF1010000F0FF0AB2
:100B7000BAF1080FD5DB00BF781CC7B2B742BEDBA5
:100B8000BDE8F08F10B50246012000E050430B0095
:100B9000A1F10104E1B2F9D110BD2DE9FF4F81B0FF
:100BA000074691461E460E9D4FF0000A002439E08C
:100BB000301B401EC1B20A20FFF7E4FFB9FBF0F082
:100BC0000A21B0FBF1F201FB1208BAF1000F16D1B5
:100BD000701EA04213DDB8F1000F0ED10120AB460C
:100BE00005EBDB71491001FB04710090C8B22B4684
:100BF00020220299FFF777FF12E04FF0010A01204F
:100C0000AB4605EBDB71491001FB04710090C8B2E3
:100C100008F13001CAB22B460299FFF764FF00BF0A
:100C2000601CC4B2B442C3DB05B0BDE8F08F78B538
:100C300005460E46144618E07A2D03DD002506F120
:100C40001000C6B23A2E04DD002005460646FFF726
:100C500003FF0120009022780C2331462846FFF73D
:100C600042FF05F10800C5B2641C20780028E3D1DA
:100C700078BD10B54B48806940F00800494988614B
:100C80004948006820F47F0047490860084600682A
:100C900040F4081008604348806940F01000414962
:100CA00088610846806940F0010088613F484068DB
:100CB00020F07F403D4948600846406840F00850B9
:100CC00048603B48006840F4807039490860354806
:100CD000006A20F00100334908623648008820F09D
:100CE0000100344908803248006820F4807030499F
:100CF000086000202649091D08606420FFF71AFBE0
:100D000001202D49C1F8BC010021AE20FFF73EFEB5
:100D10000021D520FFF73AFE00215020FFF736FED4
:100D20000021A820FFF732FE00213F20FFF72EFE12
:100D30000021D320FFF72AFE00210846FFF726FEF8
:100D400000214020FFF722FE00218D20FFF71EFE2C
:100D500000211420FFF71AFE00212020FFF716FEC5
:100D600000210220FFF712FE0021A120FFF70EFE56
:100D70000021C020FFF70AFE0021DA20FFF706FE5F
:100D800000211220FFF702FE0021812016E0000062
:100D9000B8012242B08121425C010020D2880008C3
:100DA000468D000800100240040C01400010014074
:100DB00000700040306C004000002242FFF7E6FD6A
:100DC0000021EF20FFF7E2FD0021D920FFF7DEFD33
:100DD0000021F120FFF7DAFD0021DB20FFF7D6FD2F
:100DE00000213020FFF7D2FD0021A420FFF7CEFD27
:100DF0000021A620FFF7CAFD0021AF20FFF7C6FDA6
:100E0000FFF72AFE10BD000070B504460D466C4881
:100E1000C06940F002006A49C8610846806940F034
:100E2000080088616748006820F0FF006549086095
:100E30000846006840F02800086063480480001FEE
:100E4000058061481038008840F001005E49103983
:100E50000880084600880880084600880880081D29
:100E60000088091D08800846008840F480700880CA
:100E700055482038008840F0080053492039088040
:100E80000846008840F0010008804F482C38008850
:100E900040F001004C492C39088001231D22032118
:100EA0001846FFF77FFA70BD10B50120474908606A
:100EB0000F20FFF723FA00204549C1F88401454877
:100EC000007800F08000E8B14248007800F03F0070
:100ED0004149086008460088000408600846006828
:100EE0003E49098808443C49086008460068AA2130
:100EF00048434FF47A71B0FBF1F0374908600020A5
:100F00003449088010BD30491C39088831490978B6
:100F100001F0800100294ED100F00101D1B12D492D
:100F2000097801F04001A9B12A49097801F03F018F
:100F30003F290AD12749098841F08001254A1180BB
:100F40004FF6FF71254A118004E022490988491CA7
:100F5000204A118000F0080169B31E49097801F0A8
:100F6000400199B11B49098841F08001194A11805B
:100F7000154910310988194A118013490C3909881B
:100F800021F40071104A0C3A118014E00021114A3A
:100F90001180124A11800F49098841F040010D4A21
:100FA00011800021084A083A1180111F098841F474
:100FB0000071121F11800021034A1C3A11807047F2
:100FC00000100240000C01402C04004084812142AA
:100FD000008021426A000020300000206C000020C8
:100FE0002F48806940F008002D4988612D4800682D
:100FF00080B22C490860084600682B4908432949FB
:101000000860704700B503460A46FFF7E9FF244829
:10101000C06940F004002249C8610846806940F078
:10102000080088611F48001D006820F0FF001D496E
:10103000091D08600846006840F0BB0008601B48B6
:101040000380001F028019481038008840F4C04017
:101050001649103908800846008840F06000088072
:101060000846008840F4006008800846008840F088
:1010700008000880081D008840F48050091D088081
:101080000846008840F480700880C81307492C394E
:1010900008800846008840F00100088000BD00007C
:1010A00000100240000C0140000022222C080040E9
:1010B0004F48C06940F001004D49C8610846806949
:1010C00040F0040088614B48006820F0FF00494967
:1010D00008600846006840F0440008600020C90429
:1010E00008854FF6FE7088850846008B40F00100A9
:1010F00008830846008B40F4807008830846008C03
:1011000008840846008C08840846008940F00300E3
:1011100008810846008840F0010008807047344884
:10112000C06940F002003249C8610846806940F059
:10113000040088612F48006820F07F402D49086036
:101140000846006840F08840086000202A4908806E
:101150004FF6FE70091D088027481038008840F0BF
:1011600001002549103908800846008840F4807045
:1011700008802148083800881F4908390880084637
:10118000008808801C482038008840F003001A4975
:101190002039088018482838008840F00100164996
:1011A0002839088070470146022904D003290BD052
:1011B000042919D111E04FF08042928C10B2002224
:1011C0004FF080439A8411E00B4A121F128810B22C
:1011D0000022094B1B1F1A8008E0084A128810B22F
:1011E0000022064B1A8001E0002000BF00BF7047BC
:1011F000001002400008014028040040240800407C
:10120000F748806940F00800F5498861F5480068B2
:1012100020F47F40F34908600846006840F4085015
:101220000860704710B5EF48006820F47040ED4941
:1012300008600846006840F4405008600120EA4910
:101240000860EA48D0F82C0108B9002010BD012040
:10125000E549091F0860FFF751F80020E349C1F88C
:10126000AC01E1488038006808B10020EEE70120B9
:10127000FFF744F80020DC49091F08600120E5E77A
:1012800010B5D848006820F47040D6490860084678
:10129000006840F4405008600020D349091F0860EE
:1012A000D249C1F8AC010120FFF728F80120CE494E
:1012B000091F0860CD49C1F8AC01FFF71FF810BD48
:1012C00010B50024C748006820F47040C549086084
:1012D0000846006840F4004008600120C2490860E8
:1012E000FFF70CF80120C149C1F8A801FFF706F883
:1012F0000AE0601CC4B2322C03DDFFF7C1FF0020FE
:1013000010BD0120FEF7FAFFB748803800680028BA
:10131000EFD1B549091F08600120F1E710B50020A1
:10132000B149091F0860AF48006820F47040AD491A
:1013300008600846006840F4405008600020AB494F
:10134000C1F8AC010120FEF7D9FF0120A649091F11
:101350000860FEF7D3FF0020A449C1F8A80110BD22
:1013600010B50020A049091F08609E48006820F4BD
:1013700070409C4908600846006840F4405008608E
:1013800001209A49C1F8AC01FEF7B8FF0120964947
:10139000091F0860FEF7B2FF00209449C1F8A801B8
:1013A00010BD70B504468F48006820F470408D4928
:1013B00008600846006840F44050086000208A49F0
:1013C000091F0860002516E0E009874908606006EB
:1013D000040E0120FEF792FF01208449C1F8A80104
:1013E000FEF78CFF00208049091F08600120FEF7EE
:1013F00085FF681CC5B2082DE6DB70BD2DE9F04104
:1014000005460E4617469846FFF70CFF10B9012017
:10141000BDE8F0816906080EFFF7C3FFFFF750FF34
:1014200018B9FFF72DFF0120F2E73046FFF7B9FFAB
:10143000FFF746FF00240BE018F80400FFF7B1FFA8
:10144000FFF73EFF18B9FFF71BFF0020E0E7641C21
:10145000BC42F1DBFFF714FF0020D9E770B5054669
:1014600000246048006820F470405E490860084627
:10147000006840F400400860002617E000205A4948
:10148000091F08600220FEF739FF01205749C1F803
:10149000A8016006040E54488038006808B1601C3A
:1014A000C4B20220FEF72AFF701CC6B2082EE5DB8C
:1014B00015B1FFF733FF01E0FFF752FF204670BD83
:1014C0002DE9F04106460F4614461D46FFF7AAFED9
:1014D00010B90120BDE8F0817106080EFFF761FF29
:1014E000FFF7EEFE18B9FFF7CBFE0120F2E7384612
:1014F000FFF757FFFFF7E4FEFFF794FE012101EB32
:101500004601C8B2FFF74DFFFFF7DAFE0DE0012CF0
:1015100004D10020FFF7A2FF287003E00120FFF7AD
:101520009DFF28706D1C601EC4B2002CEFD1FFF728
:10153000A7FE0020CEE770B505460E460024FFF753
:1015400071FE2846FFF72DFF641CFFF7B9FE3046F9
:10155000FFF727FF641CFFF7B3FEFFF763FE691C6C
:10156000C8B2FFF71EFF641CFFF7AAFE0020FFF7BA
:1015700075FF0446FFF784FE204670BD2DE9F0415B
:101580000746884615461E460024FFF74BFE3846A0
:10159000FFF707FFFFF794FE4046FFF702FFFFF754
:1015A0008FFEFFF73FFE791CC8B2FFF7FAFEFFF788
:1015B00087FE00BF0DE0681EA04204D00120FFF7A7
:1015C0004DFF305503E00020FFF748FF3055601C09
:1015D000C4B2AC42EFDBFFF753FE2046BDE8F0811A
:1015E00000100240040C0140AC81214200802142E5
:1015F0002DE9F04180460D4616461F460024FFF7B0
:1016000011FE4046FFF7CDFEFFF75AFE2846FFF7D2
:10161000C8FEFFF755FE00BF06E0385DFFF7C1FECC
:10162000FFF74EFE601CC4B2B442F6DBFFF728FEA3
:101630000120BDE8F08170B505460E4614463146DE
:101640002846FFF778FF2070012070BD37B50446AB
:101650000D4602AB012229462046FFF7C9FF3EBDD9
:101660002DE9F8430746884614461D46089E6A46FB
:1016700041463846FFF7DFFF28B3601CFF2101FA1F
:1016800000F0C4F108012944491EFF220A41104319
:1016900000F0FF09C5F1080006FA00F0C6B2C4F177
:1016A000070006419DF8000000EA090000909DF83F
:1016B0000000304300909DF8002041463846FFF777
:1016C000C5FFBDE8F8830020FBE7F8B506460F46E6
:1016D00014461D466A4639463046FFF7ACFF2DB129
:1016E0000120A0409DF80010084305E00120A04023
:1016F0009DF8001021EA0000C0B200909DF8002083
:1017000039463046FFF7A2FFF8BD000010B5124879
:10171000806940F00800104988611048006820F492
:1017200070400E4908600846006840F400400860B8
:101730000A480C30006840F0080008490C31086085
:10174000012203211046FEF767FE02230922012130
:101750001846FEF727FE10BD00100240000C0140A5
:101760002DE9F05F05460E46300106F075FE814614
:10177000934905FB01F006F06FFE8246494606F0EC
:1017800021FD0746384606F02FFE84B2204606F0BB
:1017900063FE8346394606F0A4FF82464FF083413C
:1017A00006F0A2FE814606F01FFE80464FF6FF704F
:1017B00000EA041404EB080084B28248806940F017
:1017C0000400804988610846C06940F40030C8615F
:1017D0007D48006820F47F407B4908600846006827
:1017E00040F40B40086078480C30006840F004007A
:1017F00075490C3108607348006940F40030714944
:1018000008610846006920F4003008616F480480D0
:10181000001D008842F20C0108436C49091D088034
:101820000846008840F4807008800846008840F030
:10183000200008800223262201210020FEF7B2FDAD
:10184000BDE8F09F2DE9F04786B060480838008871
:1018500000F0200000287AD05C48001FB0F800A0FB
:10186000BAF17B0F02D1012059490870BAF17D0FFE
:1018700002D102205649087055480078012809D144
:101880005449554A127801F802A053480078401C88
:10189000514908704E48007802286ED14D48C078F2
:1018A000502803D101204D4908707BE04948C07899
:1018B000572803D101204A49087073E04548407811
:1018C00023286FD0444800784649087035E04249E3
:1018D0000978444A1278881A06F063F802460B46E3
:1018E000CDE900010020404905F0A2F806460F4668
:1018F0003C490978491E374A515CA1F1300006F095
:1019000050F832463B46CDE9020106F0B1F80446F4
:101910000D463648008806F05BF8804622462B4686
:1019200005F0CEFDCDE9040106F00EF82F49088040
:101930002C480078401E2B4908702A48007804285B
:10194000C5DA24484078303809282AD200E033E04C
:10195000DFE800F0050C141B222324252600234871
:10196000008806F079FD224908601AE01F480088C7
:1019700006F072FD1F49086013E01CE01B48008858
:1019800006F06AFD1C4908600BE01848008806F064
:1019900063FD1A49086004E003E002E001E000E0B2
:1019A00000BF00BF00200A4908700B4908700D49AC
:1019B00008700E49088000BF06B0BDE8F08700003F
:1019C00040420F000010024000080140084400405F
:1019D0006E0000205C0500206F0000203700002012
:1019E0003800002070000020000024407200002019
:1019F0004000002044000020480000204C0000204F
:101A0000C848C9494860C94848607047C648006925
:101A100040F08000C44908617047C348C16801F0C4
:101A2000010008B10120704701F0040008B1022054
:101A3000F9E701F0100008B10320F4E70020F2E715
:101A400070B5044600BFFFF7E8FF0546012D00D042
:101A500006E00120FEF752FC601E84B2002CF2D199
:101A600000BF04B9FF25284670BD70B505460024A7
:101A700045F6FF70FFF7E4FF0446C4B9AA480069C1
:101A800040F00200A849086108464561006940F03D
:101A90004000086145F6FF70FFF7D2FF0446012CB5
:101AA00005D0A148006920F002009F490861204646
:101AB00070BD70B505460E46FF20FFF7C1FF044616
:101AC00094B99948006940F00100974908612E8057
:101AD000FF20FFF7B5FF0446012C05D092480069AE
:101AE00020F0010090490861204670BD0146088839
:101AF00070472DE9F04105460E461746002407E0E1
:101B000036F814102846FFF7D4FFAD1C601C84B2D1
:101B1000BC42F5DBBDE8F08130B503460C46154606
:101B2000002207E01846FFF7E1FF24F812009B1C93
:101B3000501C82B2AA42F5DB30BD2DE9F05F804631
:101B40008A461746B8F1006F02D37948804501D321
:101B5000BDE8F09FFFF754FFA8F1006B4FEA9B250B
:101B6000CBF34809C9F50074A74200DC3C464EE0BF
:101B70004FF0006101EB85208A146E49FFF7CCFF1E
:101B800000260BE009EB06006A4931F810004FF619
:101B9000FF71884200D003E0701C86B2A642F1DBE0
:101BA00000BFA6421BDA4FF0006101EB8520FFF772
:101BB0005CFF002608E03AF8160006EB09015D4AD2
:101BC00022F81100701C86B2A642F4DB4FF00061CF
:101BD00001EB85208A145749FFF78BFF04E022466A
:101BE00051464046FFF785FFA74200D110E06D1C2B
:101BF0004FF000090AEB440A08EB4408381B87B28F
:101C0000B7F5007F02DD4FF4007400E03C46AFE71B
:101C100000BFFFF7FBFE00BF9AE713B504460122A1
:101C200001A92046FFF789FF1CBD10B50A224249D1
:101C30004248FFF771FF404800884FF6FF71884225
:101C400018D13D484088884214D13B48808888425A
:101C500010D13948C08888420CD1394839490860C8
:101C600039483A4908603A483A4908603A483B4995
:101C7000086027E03049088806F0EEFB044630494A
:101C800006F0A0FA2F4908602B49488806F0E4FBCB
:101C900004462B4906F096FA2C49086026498888A4
:101CA00006F0DAFB0446264906F08CFA294908605A
:101CB0002149C88806F0D0FB0446214906F082FA83
:101CC0002649086010BD10B51D491E48006806F081
:101CD0000BFC044606F088FB2149088018491B4884
:101CE000006806F001FC044606F07EFB1C494880B3
:101CF00013491848006806F0F7FB044606F074FB29
:101D0000174988800E491548006806F0EDFB044627
:101D100006F06AFB1249C8800A220848FFF70DFF47
:101D200010BD00002301674500200240AB89EFCDC4
:101D3000000001088E0500203401002000E00008AA
:101D40000000C842400000200000FA434400002088
:101D500000005E444800002000E8D4454C0000200C
:101D6000480100202DE9F04F89B0814603F0F3FCD3
:101D70008E490860B9F1010F1BD103F009FB8C48B3
:101D800000688C4908608C49B1F9020006F04CFBF0
:101D90008A4908608849B1F9040006F045FB884982
:101DA00008608849B1F9040006F03EFB86490860E6
:101DB000B8E04621D020FFF7BEFB80464521D02069
:101DC000FFF7B9FB08EB0027384606F02DFB044669
:101DD0004821D020FFF7AFFB80464721D020FFF7F6
:101DE000AAFB08EB0027384606F01EFB06463C21FE
:101DF000D020FFF7A0FB80463B21D020FFF79BFBC4
:101E000008EB0027384606F00FFB83464021D02020
:101E1000FFF791FB80463F21D020FFF78CFB08EBBA
:101E20000027384606F000FB05464FF08E4120465D
:101E300006F026FC05D24FF08F41204606F05CFCF0
:101E400004464FF08E41304606F01AFC05D24FF0A2
:101E50008F41304606F050FC06464FF08E41584602
:101E600006F00EFC05D24FF08F41584606F044FCB8
:101E700083464FF08E41284606F002FC05D24FF013
:101E80008F41284606F038FC054684F000404B4957
:101E90000860284606F0FCF8CDE90001584606F037
:101EA000F7F80746DDE9002304F002FD0022474B66
:101EB000CDE9020105F0DCFD454A464BCDE90401C0
:101EC00005F0BAFBCDE9060105F0C8FA82462046C6
:101ED00006F0DEF84FF066323F4BCDE9060105F023
:101EE000ABFB074605F0BAFA04463C4800780228E6
:101EF00006D184F000473946504602F081FE09E0E1
:101F000036480078032805D184F00047394650460A
:101F100002F08DFF324800682649086028480660B4
:101F20002948056009B0BDE8F08F10B52D4800685C
:101F300018BB08202C4908602C48007801280BD1D8
:101F40002B480078401CC0B2294908700A2803D1E8
:101F500000200870254908700220FFF724F9254960
:101F600008600320FFF71FF9234908601B48007829
:101F7000FFF7F8FE6420FEF705FC002010BD10B549
:101F80003220FEF755FC0446012C07D11B4800788F
:101F900008B9012000E000201849087010BD014672
:101FA000002901DA484200E0084670471800002086
:101FB0000401002020000020F40000202400002064
:101FC00028000020FA0000203C000020008066402D
:101FD000F1D4C853FB210940666630400000002060
:101FE000A40000200C81214214040140350000208F
:101FF00034000020080000200C0000200700002012
:1020000038B50446FB4890F82400C0B114B1022052
:10201000009001E000200090F64A1268D17BF54A5A
:10202000526810786B460122FFF7E8F910B14FF0C3
:10203000FF3038BD9DF80010EE48417423E0ED48B4
:10204000807A10B94FF0FF30F3E724B1E948407CC3
:1020500008B10020EDE714B10120009001E000205C
:102060000090E44A1268D17BE24A526810786B46CD
:102070000122FFF7C3F910B14FF0FF30D9E79DF807
:102080000010DC4841740020D3E738B5002419E083
:10209000D8480068C07AA04204D0D6480068407D85
:1020A000A04200D10CE0D349496808786B46012270
:1020B0002146FFF705FA10B14FF0FF3038BD00BFE1
:1020C000601CC4B2CB4840680079A042E0DC00202C
:1020D000F4E770B504460D46C6480068C07AA042D1
:1020E00004D0C4480068407DA04202D14FF0FF30C8
:1020F00070BDC04840680079A04202DC4FF0FF305C
:10210000F6E7BC49496808782B4601222146FFF7CB
:10211000D7F9EDE738B50446B64890F82300A04259
:1021200001D1002038BD14B13020009001E0002022
:102130000090B048807C20B19DF8000040F0020083
:102140000090AC4890F8220020B19DF8000040F0CB
:1021500080000090A74A1268117DA64A5268107844
:102160006B460122FFF74AF910B14FF0FF30D9E773
:10217000A04880F823400020D4E738B5044604F096
:10218000700010B10120009005E014B10020009013
:1021900001E040200090974A1268917C954A52686D
:1021A00010786B460122FFF729F920B100219148F0
:1021B0008172481E38BD9DF8000020F040018D4816
:1021C00001730020009004F0400020B99DF8000049
:1021D00040F00400009004F0200020B99DF80000B9
:1021E00040F00200009004F0100020B99DF80000BB
:1021F00040F00100009004F0080020B99DF80000B4
:1022000040F0380000907B4A1268D17C794A5268CD
:1022100010786B460122FFF7F1F820B100217548D4
:102220008172481EC6E724B1082C02D00020FFF7B7
:1022300071FF70488472002101753220FEF77AF830
:102240000020B7E738B504466A48807CA04201D137
:10225000002038BD002C46D0664A12681179654AC4
:10226000526810786B460122FFF72AF910B14FF03F
:10227000FF30EEE79DF8000020F0200000905D4A5E
:10228000126811795B4A526810786B460122FFF799
:10229000B5F810B14FF0FF30DBE70320FEF74AF846
:1022A00002200090534890F8220020B19DF80000D1
:1022B00040F0800000904F4890F8230020B19DF836
:1022C000000040F0300000904A4A1268117D494AEF
:1022D000526810786B460122FFF790F8002851D021
:1022E0004FF0FF30B5E7434A12681179414A52680E
:1022F00010786B460122FFF7E3F810B14FF0FF3082
:10230000A7E73C48807A00F0010028B19DF8000062
:1023100040F02000009004E09DF8000020F0200034
:102320000090344A12681179324A526810786B462C
:102330000122FFF763F810B14FF0FF3089E7032067
:10234000FDF7F8FF2B4890F8220010B18020009094
:1023500001E000200090274890F8230020B19DF86C
:10236000000040F030000090224A1268117D214A9E
:10237000526810786B460122FFF740F810B14FF019
:10238000FF3066E71B488474002062E708B51948EF
:10239000807A10B94FF0FF3008BD00200090154A38
:1023A0001268D17B134A526810786B460122FFF7FE
:1023B00025F810B14FF0FF30EEE70E4A1268517960
:1023C0000C4A526810786B460122FFF717F810B1DB
:1023D0004FF0FF30E0E7074A12681179054A52686A
:1023E00010786B460122FFF709F828B14FF0FF3053
:1023F000D2E7000074000020F74890F8240000287D
:1024000050D00C200090F44A12681179F24A5268B8
:1024100010786B460122FEF7F1FF10B14FF0FF304C
:10242000BAE7C0200090EC48807A00F0010020B1AB
:102430009DF8000040F020000090E74A12681179F2
:10244000E54A526810786B460122FEF7D7FF10B1BB
:102450004FF0FF30A0E7E048407C10B10220009030
:1024600001E000200090DC4A1268D17BDA4A526811
:1024700010786B460122FEF7C1FF10B14FF0FF301C
:102480008AE700200090D44A12685179D24A5268F3
:1024900010786B460122FEF7B1FF002852D04FF0B2
:1024A000FF3079E704200090CB4A12681179CA4ABC
:1024B000526810786B460122FEF7A0FF10B14FF072
:1024C000FF3069E7C448807C20B9C348807A00F0B7
:1024D000010010B94020009001E060200090BE4A49
:1024E00012681179BC4A526810786B460122FEF7D7
:1024F00085FF10B14FF0FF304EE7B748407C10B178
:102500000120009001E000200090B34A1268D17BC6
:10251000B14A526810786B460122FEF76FFF10B186
:102520004FF0FF3038E7AC4A12685179AA4A526836
:102530001078A94B10330122FEF760FF10B14FF065
:10254000FF3029E7002027E770B50446002624F075
:102550000104A14890F8240008B1002070BD9E48F5
:10256000807A10B94FF0FF30F8E79B48057C807AFD
:102570002040994908740846007CA04202D04FF0E0
:10258000FF3600E0002614B99348007D18B1012001
:10259000FFF736FD02E00020FFF732FD3CB1FFF708
:1025A000F5FE20B18C4805744FF0FF30D6E7304679
:1025B000D4E738B504468848807A10B94FF0FF3028
:1025C00038BDBC2C02DB0120009015E0622C02DB40
:1025D0000220009010E02A2C02DB032000900BE088
:1025E000142C02DB0420009006E00A2C02DB0520FC
:1025F000009001E0062000907748C07A9DF8001016
:10260000884201D10020DBE7734A12689178724A50
:10261000526810786B460122FEF7F0FE10B14FF0C1
:10262000FF30CDE79DF800106B48C1720020C7E76E
:1026300038B50446282C02DD4FF0FF3038BDDCB938
:102640000020FFF767FD00208DF8000007208DF8BF
:102650000100614A1268917C5F4A526810786B46AB
:102660000222FEF7CBFE10B14FF0FF30E6E700216B
:10267000594801750020E1E70120FFF74BFD2020BC
:102680008DF80000012C06D100208DF801000520F6
:10269000FFF78FFF17E0052C06DC01208DF8010005
:1026A0000520FFF786FF0EE0142C06DC02208DF8D3
:1026B00001000A20FFF77DFF05E003208DF80100EF
:1026C0001420FFF776FF9DF80100072101EB801031
:1026D000C0B28DF80100404A1268917C3E4A5268AF
:1026E00010786B460222FEF789FE10B14FF0FF30E2
:1026F000A4E7082138488172002101730121017586
:102700000020FFF721FF002098E738B50446324843
:10271000807A10B94FF0FF3038BD2F4890F8240070
:1027200010B14FF0FF30F7E72B48007D50B134B1C6
:10273000282C04DCE0B2FFF77BFF0020ECE7002050
:10274000FFF776FF042C01DA042404E0B4F57A7F65
:1027500001DD4FF47A744FF47A7090FBF4F0401E70
:10276000C0B200901C4A126851781B4A5268107817
:102770006B460122FEF742FE10B14FF0FF30CBE76F
:102780009DF80000401C4FF47A7191FBF0F081B28B
:102790001148C1810146C9894810FFF70AFF00208E
:1027A000BAE738B504460C48807A10B94FF0FF30CC
:1027B00038BD022C06D0042C07D0082C08D0102CD1
:1027C0000FD10BE0002000900EE0082000900BE0FD
:1027D0001020009008E000007400002018200090F5
:1027E00002E04FF0FF30E3E700BFF948407A9DF880
:1027F0000010B0EBE10F01D10020D9E7F44A1268D4
:10280000D179F34A526810786B460122FEF7F6FD43
:1028100010B14FF0FF30CBE79DF80000C110EC483D
:1028200041720020C4E738B50446E948807A10B9FF
:102830004FF0FF3038BDFA2C09D0B4F5FA7F09D03B
:10284000B4F57A7F09D0B4F5FA6F0CD108E0002016
:1028500000900BE00820009008E01020009005E0B8
:102860001820009002E04FF0FF30E3E700BFD848A7
:10287000007A9DF80010B0EBE10F01D10020D9E7FC
:10288000D34A12689179D24A526810786B46012275
:10289000FEF7B4FD10B14FF0FF30CBE79DF800001C
:1028A000C010CB4908720020C4E71CB580208DF809
:1028B0000000C74A1268917CC54A526810786B467E
:1028C0000122FEF79BFD10B14FF0FF301CBD6420CC
:1028D000FDF730FD00208DF80000BD4A1268917CA4
:1028E000BB4A526810786B460122FEF787FD10B193
:1028F0004FF0FF30EAE7B64A1268917DB44A526859
:1029000010786B460622FEF7DBFD10B14FF0FF306A
:10291000DCE79DF80500C007400F9DF8031001F0AB
:10292000010140EA41009DF8011001F0010140EA77
:10293000010494B1012C03D10121A548C17431E0F7
:10294000022C03D10021A248C1742BE02146A1A092
:1029500003F0B4FA4FF0FF30B8E79D4A1268D1781F
:102960009B4A526810786B460122FEF7A9FD10B110
:102970004FF0FF30AAE79DF8000000F00F042CB9DB
:102980009E4803F09BFA4FF0FF309FE7042C06D1DE
:102990009BA003F093FA01218D48C17402E000214D
:1029A0008B48C174FF218A488172FF2088490872D0
:1029B000FF2187484172C1724FF6FF71C181FF212B
:1029C000017481740121017380F82210002180F8C4
:1029D0002310417501751630016041608160163821
:1029E00080F8241080F82510C1844FF4FA60FFF7B6
:1029F0001AFF10B14FF0FF3068E70220FFF7D1FE59
:102A000010B14FF0FF3061E72A20FFF7D2FD10B17F
:102A10004FF0FF305AE73220FFF777FE10B14FF04A
:102A2000FF3053E70020FFF78FFD10B14FF0FF306C
:102A30004CE70020FFF706FC10B14FF0FF3045E7F0
:102A40000020FFF79AFB002040E770477CB5044662
:102A50000D465F48807A00F0700010B94FF0FF30EB
:102A60007CBD5B4A1268117B594A526810786B46EC
:102A70000622FEF725FD10B14FF0FF30F0E79DF87C
:102A800001009DF8001040EA012000B220809DF86E
:102A900003009DF8021040EA012000B260809DF81A
:102AA00005009DF8041040EA012000B2A08015B195
:102AB0002846FFF7CAFF0020D2E77CB504460D4642
:102AC0004348807A00F0080010B94FF0FF307CBD19
:102AD0003F4A1268517B3E4A526810786B46062284
:102AE000FEF7EEFC10B14FF0FF30F0E79DF801006B
:102AF0009DF8001040EA012000B220809DF80300FC
:102B00009DF8021040EA012000B260809DF80500A7
:102B10009DF8041040EA012000B2A08015B12846BB
:102B2000FFF793FF0020D2E72DE9FE4F05460C4644
:102B30002748807A18B94FF0FF30BDE8FE8F244A4D
:102B40001268917B224A5268107802AB0222FEF78B
:102B5000B7FC10B14FF0FF30EFE79DF809009DF88A
:102B6000081040EA012006B214B12046FFF76DFFBD
:102B700017494968C88805F06FFC154901904968F4
:102B8000B1F9080005F050FC8346304605F04CFCD6
:102B90005946009005F0B0FD8246019905F012FB00
:102BA00081461F4905F0A0FA80464FF08F4105F09D
:102BB0009BFC074605F0FCFB28600020BDE710B534
:102BC00088B004461CB94FF0FF3008B010BD29E0B2
:102BD00074000020556E737570706F727465642098
:102BE000736F6674776172652070726F6475637459
:102BF000207265762025642E0A000000F8A00008E7
:102C000048616C662073656E73697469766974795E
:102C1000207061727420666F756E642E0D0A00005C
:102C200000000C42206830B9606820B9A06810B973
:102C3000002008B010BDFA494968087806AB0322A5
:102C40001146FEF73DFC10B14FF0FF30F1E79DF863
:102C50001800082101EB201000F00F00ADF8000073
:102C60009DF8190001EB201000F00F00ADF80200F4
:102C70009DF81A0001EB201000F00F00ADF80400E1
:102C800020684100BDF90000403091FBF0F000B237
:102C9000ADF8100060684100BDF90200403091FBC2
:102CA000F0F000B2ADF81200A0684100BDF90400D8
:102CB000403091FBF0F000B2ADF81400D8494968FB
:102CC000087806AB06221146FEF7FAFB10B14FF06A
:102CD000FF30AEE79DF819009DF8181040EA01207A
:102CE00000B2ADF808009DF81B009DF81A1040EAEC
:102CF000012000B2ADF80A009DF81D009DF81C10DF
:102D000040EA012000B2ADF80C00BDF81000BDF89B
:102D10000810084400B2ADF81000BDF81200BDF86C
:102D20000A10084400B2ADF81200BDF81400BDF856
:102D30000C10084400B2ADF81400BDF81000000AF1
:102D40008DF81800BDF81000C0B28DF81900BDF85C
:102D50001200000A8DF81A00BDF81200C0B28DF8FA
:102D60001B00BDF81400000A8DF81C00BDF814000B
:102D7000C0B28DF81D00AA494968087806AB062242
:102D80001146FEF73BFB10B14FF0FF3051E700203A
:102D90004FE70146A248007A30B1012807D0022847
:102DA00009D003280FD10AE0FA2008800EE04FF482
:102DB000FA7008800AE04FF47A70088006E04FF459
:102DC000FA60088002E00020088000BF00BF0020F9
:102DD000704701469248407A30B1012807D0022856
:102DE00008D003280CD108E0022008700BE0042072
:102DF000087008E00820087005E01020087002E064
:102E00004FF0FF30704700BF8548C07C18B108788C
:102E10004006000E08700020F4E701468048C07AA2
:102E2000082817D2DFE800F01704070A0D1013185E
:102E3000BC20088013E06220088010E02A2008806F
:102E40000DE0142008800AE00A20088007E0052031
:102E5000088004E000BF00BF0020088000BF00BF62
:102E60000020704701466E4890F8240010B14FF0E2
:102E7000FF3070476A48C08908800020F9E70146A2
:102E800000200880401E704701464FF0FF30704719
:102E900001466348007A30B1012807D0022808D0E3
:102EA00003280CD108E05F4808600BE05E4808602A
:102EB00008E05E48086005E05D48086002E04FF009
:102EC000FF30704700BF0020FBE701465448407ABE
:102ED00030B1012808D002280AD0032810D10BE015
:102EE0004FF4804008800EE041F69C7008800AE0B4
:102EF0004FF48050088006E04FF40060088002E044
:102F00004FF0FF30704700BF4548C07C10B10888C3
:102F1000401008800020F5E701464148007C087019
:102F20000020704701463E48807A10B101200870A9
:102F300001E0002008700020704738B5044638488A
:102F4000807A10B94FF0FF3038BD354A1268117CD5
:102F5000334A526810786B460222FEF7B1FA10B17C
:102F60004FF0FF30F0E79DF801009DF8001040EAB7
:102F7000012000B220800020E6E72DE9FE4F074641
:102F8000884692461D46DDF830B0002600242448CD
:102F900090F8240010B1601EBDE8FE8F002028705C
:102FA0001F48807A10B94FF0FF30F5E71C48007CCD
:102FB00010B94FF0FF30EFE71948007C00F04000F7
:102FC00008B1B01CC6B21648007C00F0200008B161
:102FD000B01CC6B21248007C00F0100008B1B01C52
:102FE000C6B20F48007C00F0080008B1B01DC6B2A0
:102FF0000B4A1268917A0A4A526810786B4602228C
:10300000FEF75EFA10B14FF0FF30C5E79DF8010002
:103010009DF8001040EA0129B1450BDA0020BBE71A
:103020007400002000000343000083423333034256
:1030300033338341FC4840684088B9EB600F17DDAB
:10304000F94A1268517CF84A526810786B4601229E
:10305000FEF736FA10B14FF0FF309DE79DF8000003
:1030600000F0100020B1FFF791F96FF0010093E735
:103070005046FFF7EAFCEC4A1268D17AEA4A5268F5
:1030800010786B463246FEF71BFA10B14FF0FF3056
:1030900082E799FBF6F0401E8BF8000000202870B4
:1030A000B4422AD0E048007C00F0080028B3601C3D
:1030B0001DF800001DF8041040EA012000B2A8F835
:1030C0000000E01C1DF80010A01C1DF8000041EAE3
:1030D000002000B2A8F80200601D1DF80010201D9D
:1030E0001DF8000041EA002000B2A8F8040028788A
:1030F00040F008002870A01D84B2B44213D0CA4822
:10310000007C00F0400070B1601C1DF800001DF84C
:10311000041040EA012000B23880287840F04000D6
:103120002870A01C84B2B44213D0BF48007C00F0C9
:10313000200070B1601C1DF800001DF8041040EA6A
:10314000012000B27880287840F020002870A01C70
:1031500084B2B44213D0B448007C00F0100070B1C7
:10316000601C1DF800001DF8041040EA012000B2A8
:10317000B880287840F010002870A01C84B200208D
:103180000AE7F8B504460F461646A74890F824000B
:1031900010B94FF0FF30F8BDA348807A10B94FF056
:1031A000FF30F8E7A04A1268917A9F4A5268107877
:1031B0006B460222FEF784F910B14FF0FF30EAE7C8
:1031C0009DF801009DF8001040EA0125A54203DAB0
:1031D00000203070401EDEE7934840684088B5EB21
:1031E000600F17DD904A1268517C8F4A5268107840
:1031F0006B460122FEF764F910B14FF0FF30CAE7C9
:103200009DF8000000F0100020B1FFF7BFF86FF04C
:103210000100C0E7E2B2844B1B68D97A824B5B683D
:1032200018783B46FEF74CF910B14FF0FF30B2E78B
:1032300095FBF4F0401E30700020ACE701467A4860
:1032400080F82210002070477CB505467649496811
:10325000087801AB04220D21FEF732F908B10720EE
:103260007CBD9DF80700C0F301109DF8041001F02B
:10327000E00140EAE1008DF800009DF80700C0F38E
:1032800081009DF8051001F0E00140EAE1008DF8B1
:1032900001009DF8070000F003009DF8061001F002
:1032A000E00140EAE1008DF8020000241CE01DF876
:1032B000040018B9002045F8240013E05B4845F8E5
:1032C000240006E055F82400594905F00DF945F8A9
:1032D00024001DF80400401EC0B20DF804000028B0
:1032E000F0D100BF601CC4B2032CE0DB0020B7E7C4
:1032F0002DE9FE4F06460F4600256846FFF7A4FF5E
:10330000002442E056F8240057F82410A0EB010AEC
:10331000BAF1000F01DB514601E0CAF10001084695
:1033200005F082F883464FF08F4104F04BFF804652
:103330005DF82400002105F007F816D05DF8241090
:10334000404604F03FFF82464FF07E5105F0D4F92D
:10335000814629F0004A3748416A504605F090F905
:1033600012D20120A04005430EE03248C169404618
:1033700005F086F805D32F48016A404605F080F92C
:1033800002D20120A0400543641C032CBADB28466E
:10339000BDE8FE8F2DE9FC5F06460F460025224959
:1033A0004968087801AB03220D21FEF789F810B1B6
:1033B0000720BDE8FC9F9DF8040000F01F008DF879
:1033C00004009DF8050000F01F008DF805009DF831
:1033D000060000F01F008DF80600002462E056F899
:1033E000240057F82410A0EB010BBBF1000F01DB08
:1033F000594601E0CBF10001084605F015F84FF001
:103400008F41009004F0DEFE814601A8005DC0B34C
:103410000849086805F020F883465946064804F034
:10342000D1FE80460FE00000740000207B14AE3E09
:103430001D5A843F6093000800B04C45FE49404649
:1034400005F052F8804601A8005D401EC0B201A9F7
:1034500008550028F2D14146484604F0B3FE8346A1
:103460004FF07E5105F048F982462AF0004BF348B0
:103470008169584605F004F913D20120A0400543A4
:103480000FE0FFE7ED480169484604F0F9FF05D376
:10349000EA484169484605F0F3F802D20120A0400D
:1034A0000543641C032C9ADB284682E72DE9F04F84
:1034B00087B005460C46914601208DF8100000208B
:1034C0008DF81100DE4A1268917CDD4A526810784E
:1034D00004AB0222FDF792FF20B14FF0FF3007B09E
:1034E000BDE8F08FC820FCF725FF00208DF8100004
:1034F000D34A1268D17BD24A5268107804AB0122B9
:10350000FDF77CFF10B14FF0FF30E8E7CC4A1268BE
:103510005179CB4A5268107804AB0122FDF76EFF57
:1035200010B14FF0FF30DAE7C54A1268917CC44A07
:103530005268107804AB0122FDF760FF10B14FF024
:10354000FF30CCE7BE4A1268D17DBD4A5268107880
:1035500004AB0122FDF752FF10B14FF0FF30BEE780
:10356000B74A12681179B64A5268107804AB012242
:10357000FDF744FF10B14FF0FF30B0E70C208DF89D
:103580001000AF4A12681179AD4A5268107804AB46
:103590000122FDF733FF10B14FF0FF309FE70F20FE
:1035A000FCF7C8FEA648806A407A8DF81000A44A4D
:1035B00012689178A24A5268107804AB0122FDF794
:1035C0001DFF10B14FF0FF3089E79D48806A007AF7
:1035D0008DF810009A4A12685178994A526810780A
:1035E00004AB0122FDF70AFF10B14FF0FF3076E780
:1035F000B9F1000F07D09248806A807A40F0E0006D
:103600008DF8100004E08E48806A807A8DF81000F2
:103610008B4A126891798A4A5268107804AB012269
:10362000FDF7ECFE10B14FF0FF3058E7B9F1000F95
:1036300007D08348806AC07A40F0E0008DF810001F
:1036400003E07E48C07A8DF810007D4A1268D17977
:103650007B4A5268107804AB0122FDF7CFFE10B10F
:103660004FF0FF303BE7B9F1000F02D0C820FCF764
:1036700061FE40208DF81000714A12681179704A7D
:103680005268107804AB0122FDF7B8FE10B14FF07C
:10369000FF3024E778208DF81000694A12685179CC
:1036A000674A5268107804AB0122FDF7A7FE10B1FB
:1036B0004FF0FF3013E761498889FCF73BFE00209B
:1036C0008DF810005E4A126851795D4A5268107890
:1036D00004AB0122FDF792FE10B14FF0FF30FEE681
:1036E000574A1268917A564A5268107804AB0222FF
:1036F000FDF7E6FE10B14FF0FF30F0E69DF8110047
:103700009DF8101040EA012B0C209BFBF0F0C6B294
:103710000020A86068602860A06060602060824629
:1037200065E0474A1268D17A454A5268107804AB7E
:103730000C22FDF7C5FE10B14FF0FF30CFE69DF82B
:1037400011009DF8101040EA012000B2ADF8080009
:103750009DF813009DF8121040EA012000B2ADF868
:103760000A009DF815009DF8141040EA012000B2EF
:10377000ADF80C00BDF90810206808442060BDF9C0
:103780000A10606808446060BDF90C10A068084425
:10379000A0609DF817009DF8161040EA012000B2C5
:1037A000ADF800009DF819009DF8181040EA0120BE
:1037B00000B2ADF802009DF81B009DF81A1040EA17
:1037C000012000B2ADF80400BDF9001028680844DB
:1037D0002860BDF90210686808446860BDF90410EB
:1037E000A8680844A8600AF1010000F0FF0AB24589
:1037F00097DB1248D0F800C02868C117090441EAD5
:103800001041070462460023384602F032FB32467C
:103810000023CDE9020102F02CFB28600748D0F814
:1038200000C06868C117090441EA104107046246F4
:103830000023384606E0000054E3853F609300080B
:103840007400002002F015FB32460023CDE902018E
:1038500002F00FFB6860FE48D0F800C0A868C117EE
:10386000090441EA1041070462460023384602F089
:1038700000FB32460023CDE9020102F0FAFAA8600B
:10388000F348D0F804C02168C817000440EA114882
:103890000F04624600233846414602F0EAFA3246F7
:1038A0000023CDE9020102F0E4FA2060E848D0F8F4
:1038B00004C06068C117090441EA10410704624668
:1038C0000023384602F0D5FA32460023CDE9020142
:1038D00002F0CFFA6060DE48D0F804C0A068C117DB
:1038E000090441EA1041070462460023384602F009
:1038F000C0FA32460023CDE9020102F0BAFAA06014
:10390000A068002804DDA068A0F58030A06003E076
:10391000A06800F58030A0600020E0E538B50446DE
:10392000CC4890F82400A04201D1002038BD24B337
:10393000C84890F8250010B94FF0FF30F6E7002096
:10394000FEF75EFB0020FEF77DFCC249C88CFEF747
:10395000DCFE00200090BF49496808786B460122D0
:103960002321FDF74BFD0121BA4880F824100120E6
:10397000FEF746FBFEF70AFD13E00020FEF740FBD2
:10398000B448007C0090B349496808786B4601222E
:103990002321FDF733FD0021AE4880F82410FEF707
:1039A000F5FC0020C2E72DE9F04F8DB083460F46AD
:1039B00002200C90A74890F8240020B10020FFF7C7
:1039C000ADFF012600E0002603A8FFF7E2F905A8F5
:1039D000FFF7FFF901A8FFF720FA02A8FFF742FA64
:1039E0009C4890F80AA004A8FFF796FA002407E084
:1039F000002239465846FFF759FD00B902E0641C21
:103A0000022CF5DB00BF022C01D1002528E00024A8
:103A100007E0012206A909A8FFF748FD00B902E066
:103A2000641C022CF5DB00BF022C01D1002517E03D
:103A300006A93846FFF75CFC00F0FF0809A95846C4
:103A4000FFF7A8FC00F0FF090025B9F1000F01D134
:103A500045F00105B8F1000F01D145F0020500BFA6
:103A6000FF207C490872FF217A484172C1724FF6EB
:103A7000FF71C181FF218172017401210173BDF8C1
:103A80000C00FEF7D0FE9DF81400FEF78AFEBDF88C
:103A90000400FEF78EFDBDF80800FEF736FE504626
:103AA000FEF76BFB9DF81000FEF74EFD16B10120EE
:103AB000FFF734FF28460DB0BDE8F08FF8B5044697
:103AC0000D46164616B94FF0FF30F8BD6148807AB2
:103AD00010B94FF0FF30F8E720128DF80000E0B287
:103AE0008DF801009DF8010028445A494968498928
:103AF000884202DD4FF0FF30E7E7564A1268117E38
:103B0000544A526810786B460222FDF777FC10B1D8
:103B10004FF0FF30D9E7EAB24E4B1B68597D4D4B51
:103B20005B6818783346FDF769FC10B14FF0FF3041
:103B3000CBE70020C9E7F8B504460D46164616B98E
:103B40004FF0FF30F8BD4348807A10B94FF0FF3096
:103B5000F8E720128DF80000E0B28DF801009DF822
:103B6000010028443B4949684989884202DD4FF0F9
:103B7000FF30E7E7374A1268117E364A52681078FC
:103B80006B460222FDF73AFC10B14FF0FF30D9E747
:103B9000EAB2304B1B68597D2E4B5B681878334670
:103BA000FDF78EFC10B14FF0FF30CBE70020C9E7E6
:103BB0002DE9F04385B005460E46904699462548C6
:103BC00090F8250020B14FF0FF3005B0BDE8F0833C
:103BD00016B94FF0FF30F8E7002423E0281B102827
:103BE00001DD102000E0281B87B23219394620463B
:103BF000FFF764FF10B14FF0FF30E6E701AA394646
:103C00002046FFF798FF10B14FF0FF30DDE7301985
:103C10003A4601A902F0CCF910B16FF00100D4E7E7
:103C2000E01984B2AC42D9DB4FEA28208DF80000BD
:103C300008F0FF008DF80100064A1268917E054ADF
:103C4000526810786B460222FDF7D8FB38B103E0CA
:103C500060930008740000204FF0FF30B5E70121A9
:103C60008A4880F82510A0F826900020ADE701468C
:103C7000864890F8240008700020704702464FF0F4
:103C8000FF30704701464FF0FF307047F8B50546EA
:103C90000F461446002C70D0B5F5FF5F01DDFF26FE
:103CA00005E0202D01DA012601E0C5F3471607B92A
:103CB0000127282C02DD4FF0FF30F8BD7348407D0E
:103CC00028BB724890F8240038B10020FFF726FE88
:103CD00001216E4880F8201003E000216B4880F835
:103CE00020106A481630FFF754F868481830FFF77C
:103CF00070F866481A30FFF790F864481C30FFF7F8
:103D0000B1F86248817A81771F30FFF705F900200A
:103D1000FEF776F90020FEF78BFC00208DF80000FE
:103D20005A4A12689178594A526810786B460122B3
:103D3000FDF764FB10B14FF0FF30BEE740208DF877
:103D40000000524A1268D17B504A526810786B4684
:103D50000122FDF753FB00B165E08DF800608DF89E
:103D600001704A4A1268117A484A526810786B46C4
:103D70000222FDF743FB08B155E047E00520FCF7C0
:103D8000D9FA4248407A072101EBC000C0B28DF851
:103D900000003E4A1268D1793C4A526810786B465E
:103DA0000122FDF72BFB00B13DE020208DF8000043
:103DB000012C03D100208DF801000EE0052C03DC5E
:103DC00001208DF8010008E0142C03DC02208DF89E
:103DD000010002E003208DF801009DF80100072199
:103DE00001EB8010C0B28DF80100284A1268917C66
:103DF000264A526810786B460222FDF7FFFA00B19E
:103E000011E0012121484175002056E71F4A163272
:103E1000002103E0505C00B105E0491C0C29F9D3F6
:103E20004FF0FF3049E7FF2018490872FF2117487B
:103E30004172C1724FF6FF71C181FF21817201741D
:103E4000012101730146887FFEF797F90F49C88A5F
:103E5000FEF7E9FC0D49087EFEF7A3FC0B49488BF1
:103E6000FEF7A7FB0949888BFEF74FFC0749C87F7F
:103E7000FEF76AFB054890F8200010B10120FFF71B
:103E80004DFD002101484175002016E77400002017
:103E900010B5C8234FF48062F74940F6F630FFF7BB
:103EA00087FE10BD10B586B00446F4A000680390EC
:103EB000F3A000680290F3A000680190F2A00068EF
:103EC000009004F0030003A9085C8DF8140003A817
:103ED000C4F3C101405C8DF8150003A8C4F381113F
:103EE000405C8DF8160004F0030002A9085C8DF810
:103EF000100002A8C4F3C101405C8DF8110002A8B3
:103F0000C4F38111405C8DF8120005AA032140F230
:103F10002640FFF7D3FD18B14FF0FF3006B010BDBB
:103F200004AA032140F22A40FFF7C8FD10B14FF068
:103F3000FF30F3E7019805900098049004F0040026
:103F400058B19DF8140040F001008DF814009DF860
:103F5000100040F001008DF8100004F0200058B16E
:103F60009DF8150040F001008DF815009DF8110036
:103F700040F001008DF8110004F4807058B19DF8F4
:103F8000160040F001008DF816009DF8120040F078
:103F900001008DF8120005AA03214FF48860FFF795
:103FA0008DFD10B14FF0FF30B8E704AA032140F2B5
:103FB0003140FFF783FD10B14FF0FF30AEE7B3485B
:103FC00004810020AAE71FB50446B048007A00F03B
:103FD000030054F820000190AC48007A00F004007F
:103FE00010B1019840420190A848007AC0F3C10086
:103FF00054F820000290A548007A00F0200010B18B
:10400000029840420290A148007AC0F3811054F80F
:10401000200003909D48008900F4807010B103983F
:10402000404203909A49019880FB0101800F40EAC9
:10403000810001909649029880FB0110820042EABB
:10404000917002909249039880FB0110820042EA2D
:10405000917003900198000E8DF800000198000CFB
:104060008DF801000198000A8DF802000198C0B295
:104070008DF803006A4604214FF47470FFF71EFDAB
:1040800018B14FF0FF3004B010BD0298000E8DF84B
:1040900000000298000C8DF801000298000A8DF8CB
:1040A00002000298C0B28DF803006A4604214FF462
:1040B0007570FFF703FD10B14FF0FF30E3E7039891
:1040C000000E8DF800000398000C8DF80100039895
:1040D000000A8DF802000398C0B28DF803006A460A
:1040E00004214FF47670FFF7E9FCCCE770B588B097
:1040F000064601A8FEF7E9FEBDF804000021C90349
:1041000041EA5045C4036148007A00F0030056F8C4
:10411000200005905D48007A00F0040010B1059879
:10412000404205905948007AC0F3C10056F820007B
:1041300006905648007A00F0200010B106984042E0
:1041400006905248007AC0F3811056F8200007907C
:104150004E48008900F4807010B1079840420790E3
:104160000598C117A0FB042301FB043100FB0510D7
:10417000810041EA927005900698C117A0FB0423C4
:1041800001FB043100FB0510810041EA92700690AA
:104190000798C117A0FB042301FB043100FB0510A5
:1041A000810041EA927007900598000E8DF8080092
:1041B0000598000C8DF809000598000A8DF80A0092
:1041C0000598C0B28DF80B000698000E8DF80C0013
:1041D0000698000C8DF80D000698000A8DF80E0068
:1041E0000698C0B28DF80F000798000E8DF81000E9
:1041F0000798000C8DF811000798000A8DF812003E
:104200000798C0B28DF8130002AA0C214FF4257054
:10421000FFF754FC08B070BD30B585B004461DA250
:1042200007CA02AB07C3C82C03DD4FF0FF3005B04F
:1042300030BDC82090FBF4F0401E85B2280A8DF8EE
:104240000000E8B28DF801006A46022140F2162013
:10425000FFF734FC10B14FF0FF30E8E702AA0C2161
:1042600040F6C120FFF72AFC10B14FF0FF30DEE727
:10427000064884810020DAE7889300084CCD6C0062
:104280000CC92C00365676002646660090090020A0
:1042900009E3CA02FEF2ABC4AAF1DFDFBBAFDFDF86
:1042A0000146FC4880890880002070472DE9FC47C2
:1042B00006460F4606F0070010B1B7F5C86F03DDDC
:1042C0004FF0FF30BDE8FC87384604F0C5F8814662
:1042D000F14903F077FF80466846FEF77AFD9DF8C6
:1042E0000000022806D0042816D0082826D010285E
:1042F00048D135E04FF08D41404604F0F5F8814655
:1043000004F072F884B2E549404604F0EDF88146C5
:1043100004F06AF885B238E04FF08C41404604F072
:10432000E3F8814604F060F884B2DD49404604F0C9
:10433000DBF8814604F058F885B226E04FF08B4157
:10434000404604F0D1F8814604F04EF884B2D549D5
:10435000404604F0C9F8814604F046F885B214E0FE
:104360004FF08A41404604F0BFF8814604F03CF823
:1043700084B2CD49404604F0B7F8814604F034F8E1
:1043800085B202E04FF0FF309CE700BF20128DF8AD
:104390000400E0B28DF8050028128DF80600E8B29E
:1043A0008DF8070006F00100A0B101AA02214FF428
:1043B000EA70FFF783FB10B14FF0FF3082E70DF199
:1043C000060202214FF49270FFF778FB10B14FF014
:1043D000FF3077E706F00200A0B101AA02214FF4F6
:1043E000EC70FFF76BFB10B14FF0FF306AE70DF197
:1043F000060202214FF49470FFF760FB10B14FF0FA
:10440000FF305FE706F00400A0B101AA02214FF4DB
:10441000EE70FFF753FB10B14FF0FF3052E70DF194
:10442000060202214FF49670FFF748FB10B14FF0DF
:10443000FF3047E7002045E738B5044600200090EC
:1044400004F0010020B19DF8000040F03000009021
:1044500004F0020020B19DF8000040F00C00009034
:1044600004F0040020B19DF8000040F0030000902B
:104470006A4601214FF4A470FFF720FB38BD38B520
:104480000446012C01DA012402E0042C00DD04249E
:10449000601EC0B200906A46012140F24F10FFF743
:1044A0000DFB38BD38B50446052094FBF0F085B20D
:1044B00028128DF80000E8B28DF801006A4602214A
:1044C0004FF4EF70FFF7FAFA38BD38B5044605200F
:1044D00094FBF0F085B228128DF80000E8B28DF858
:1044E00001006A4602214FF4ED70FFF7E7FA38BD8C
:1044F000F8B505460E464FF47A7095FBF0F000FBD8
:1045000006F4200E8DF80000200C8DF80100200A22
:104510008DF80200E0B28DF803006A4604214FF4E2
:10452000AE70FFF7CBFAF8BD38B50446052094FB12
:10453000F0F084B220128DF80000E0B28DF8010096
:104540006A4602214FF4AD70FFF7B8FA38BD38B5AE
:104550000446052094FBF0F084B220128DF8000090
:10456000E0B28DF801006A4602214FF4AC70FFF70B
:10457000A5FA38BD38B5044614B94FF0FF3038BD40
:104580006A4604214FF45870FFF7D5FA10B14FF086
:10459000FF30F4E79DF8000000069DF8011040EAA6
:1045A00001409DF8021040EA01209DF803100843E5
:1045B00020600020E3E738B50446200E8DF80000A7
:1045C000200C8DF80100200A8DF80200E0B28DF871
:1045D00003006A4604214FF45870FFF76FFA38BDA4
:1045E00038B5044614B94FF0FF3038BD6A4604218F
:1045F0004FF47170FFF79FFA10B14FF0FF30F4E7FE
:104600009DF8000000069DF8011040EA01409DF869
:10461000021040EA01209DF80310084300EB8000DF
:10462000800020600020E0E738B504461420B4FB89
:10463000F0F4200E8DF80000200C8DF80100200A07
:104640008DF80200E0B28DF803006A4604214FF4B1
:104650007170FFF733FA38BD38B5044664B12020D5
:104660008DF8000028208DF8010030208DF8020020
:1046700038208DF8030004E0A3220421684601F0ED
:10468000C3FC6A46042140F69E20FFF717FAFDF7A7
:104690007DFE38BD900900200000484300004046E0
:1046A0000000C045000040450000C04438B5044645
:1046B00064B1C0208DF80000C2208DF80100C42034
:1046C0008DF80200C6208DF8030004E08B2204213F
:1046D000684601F099FC6A46042140F69820FFF7ED
:1046E000EDF9FDF753FE38BD3EB504466CB1FDA1B2
:1046F000D1E900208968CDE9002002916A460921AC
:104700004FF49760FFF7DAF93EBDF9A2D2E9001045
:104710009268CDE9010200916A4609214FF4976041
:10472000FFF7CCF9F0E73EB5044602208DF8000013
:10473000CA208DF80100E3208DF8020009208DF8D1
:1047400003006A4604216820FFF7B8F9A3208DF81A
:10475000000004F0400048B1C0208DF80100C820DE
:104760008DF80200C2208DF8030006E0A3208DF82A
:1047700001008DF802008DF8030004F4C07048B108
:10478000C4208DF80400CC208DF80500C6208DF8DB
:10479000060006E0A3208DF804008DF805008DF8D2
:1047A0000600A3208DF807008DF808008DF8090099
:1047B0006A460A2140F6A720FFF780F904F00300BB
:1047C00018B120208DF8000002E0D8208DF80000FC
:1047D0006A46012140F6B620FFF770F904F0200088
:1047E00018B10120FFF780FF02E00020FFF77CFFF7
:1047F00004F4C07008B304F4807060B1B2208DF886
:1048000000008B208DF80100B6208DF802009B205F
:104810008DF803000BE0B0208DF8000080208DF8AB
:104820000100B4208DF8020090208DF803006A4644
:10483000042140F6A220FFF741F904F0010020B363
:10484000F8208DF800006A4601214FF40B60FFF755
:1048500035F9FA210720FFF729FD0720FFF7ECFDC6
:104860000120FFF70CFE6420FFF71CFE4FF4FA70E6
:10487000FFF72BFEC821A148FFF73AFE2820FFF7DB
:1048800053FE0A20FFF763FE08E0D8208DF80000F1
:104890006A4601214FF40B60FFF710F904F00200A3
:1048A00018B1D9208DF8000002E0D8208DF8000062
:1048B0006A46012140F23D70FFF700F904F0040060
:1048C00018B10120FFF7F2FE02E00020FFF7EEFE34
:1048D00004F0100018B10120FFF7BEFE02E0002036
:1048E000FFF7BAFE44F0080085494881FDF74EFD08
:1048F00000208349887304F0400018B10846807B8B
:10490000801D887304F4C07020B17D48807B801DB9
:104910007B49887304F0140020B17948807B103003
:104920007749887304F0030020B17548807B001D2F
:104930007349887300203EBD014671484089088054
:10494000002070472DE9F0410446E07800F0C006F1
:10495000E07800F03F05607800F0010098B1EF10BA
:104960002846E91705EB5171C910A5EBC101491C97
:1049700001F0FF086248006820B1614841460268C2
:104980003846904700BF607800F0080030B15C48BE
:10499000406818B1B0115A4A516888470020BDE8F4
:1049A000F08110B586B0044656A207CA03AB07C310
:1049B00057A207CA8DE80700012C09D0022C0ED19E
:1049C00003AA0B2140F68220FFF778F806B010BD4D
:1049D0006A460B2140F68220FFF770F8F6E74FF0A9
:1049E000FF30F3E72DE9F04F8DB0074688461546B6
:1049F0009946DDE9166B0024002030804049887B11
:104A00005A4605A9FEF7BDFB18B1601E0DB0BDE802
:104A1000F08F3B48807A00F01400002861D09DF8A8
:104A2000140000069DF8151040EA01409DF816108C
:104A300040EA01209DF81710084328609DF81800EF
:104A400000069DF8191040EA01409DF81A1040EA4E
:104A500001209DF81B10084368609DF81C000006AB
:104A60009DF81D1040EA01409DF81E1040EA01200B
:104A70009DF81F100843A8609DF8200000069DF8CF
:104A8000211040EA01409DF8221040EA01209DF8E3
:104A900023100843E86004F11000C4B22868001431
:104AA0000190686800140290A86800140390E868F8
:104AB0000014049001984043029901FB01000399FE
:104AC00001FB0100049901FB010ABAF1706F02DBDE
:104AD000BAF1885F22DDFDF759FC00203080401ECE
:104AE00094E721E0B8AAB38DB4980D355D000000BD
:104AF000B8AAAAAAB088C3C5C700000009E3CA02C1
:104B000090090020D8B1B9F38BA391B609B4D900AC
:104B1000DAB1B9F38BA391B6DAB4DA00B6F90000D2
:104B200040F48070308000BF3448807A00F040004C
:104B300020B305A9601C085C095D40EA012000B2B1
:104B4000A8F8000005A9E01C095C05AAA01C105CDF
:104B500041EA002000B2A8F8020005A9601D095C26
:104B6000201D105C41EA002000B2A8F80400A01D3E
:104B7000C4B2B6F9000040F0080030801F484089F8
:104B800000F4C07008B305A9601C085C095D40EA28
:104B9000012000B2388005A9E01C095C05AAA01C10
:104BA000105C41EA002000B2788005A9601D095C14
:104BB000201D105C41EA002000B2B880A01DC4B2E4
:104BC000B6F9000040F0700030800C48807A00F0A8
:104BD000030018B105A90819FFF7B4FE4846FDF710
:104BE00034FF002012E701460448016000207047AE
:104BF00001460248416000207047000090090020F3
:104C00002DE9F04105460C46AA480168204603F00C
:104C100073FD0746A8480168384603F065FC064660
:104C2000A6480168304603F05FFAA4490860A4482A
:104C30004168A448006803F05FFD0646A04881680B
:104C4000304603F059FDA04908609D48C06880F0D7
:104C5000004048609A48C06880F0004088609B48E7
:104C60000068C86008689449096803F03DFC06467E
:104C700093480168304603F037FA91490860924939
:104C800048688D49096803F02FFC06468C48416846
:104C9000304603F029FA8A4948608B49886886497A
:104CA000096803F021FC064685488168304603F018
:104CB0001BFA834988608449C8687F49096803F002
:104CC00013FC06467E48C168304603F00DFA7C4965
:104CD000C8607A480168284603F00EFD7C490860E8
:104CE0007C48007803F0B8FB0646754801683046FA
:104CF00003F0FAFB784908607648007803F0ACFBD3
:104D000006466F488168304603F0EEFB7349086041
:104D10007048007803F0A0FB07466F4801683846EA
:104D200003F0E2FB06466E480168304603F0DCF90A
:104D30006C490860084601686748006803F042FA59
:104D400069490860674801686448006803F03AFAF6
:104D50006649086060480068654908605D480078F9
:104D600003F07AFB064656484168304603F0BCFB28
:104D7000604908605E4801685B48006803F0B4FB66
:104D800006464F480168304603F0ABFC4C490860CA
:104D9000584801685448006803F0A6FB0646484896
:104DA0004168304603F09DFC454948605048016821
:104DB0004E48006803F098FB06464148816830463B
:104DC00003F08FFC3E4988604A4801684748006804
:104DD00003F08AFB06463A48C168304603F081FC7E
:104DE0003749C8603A4801683F48006803F07CFBD7
:104DF000064632480168304603F076F92F490860CC
:104E0000334801683948006803F06EFB06462948BC
:104E10000168304603F068F92649086008460168D1
:104E2000204603F069FC34490860BDE8F0812DE9B3
:104E3000F04F8BB083468A46504603F029F98046EE
:104E40002E4A2F4B02F014FECDE902011B480068E8
:104E500003F01EF9CDE90001DDE9022302F030FB89
:104E600004460D46274801684FF07E5003F044FC8D
:104E7000804603F00DF9064622462B4602F0F8FD67
:104E8000CDE906011F480168584603F02DFB044692
:104E900003F0FEF8CDE90401DDE9062302F010FB82
:104EA000CDE9080102F0DAFA044908600BB0BDE868
:104EB000F08F0000C0000020B8000020A4000020F7
:104EC000E4000020AC000020A0090020B000002079
:104ED000C4000020BC000020C8000020CC0000203E
:104EE000B4000020D0000020D4000020D800002012
:104EF000DC000020E0000020A80000207B14AE476A
:104F0000E17A743FA0000020014691F90020002AB8
:104F100001DD00201EE091F90020002A01DA0420C2
:104F200018E091F90120002A01DD012012E091F939
:104F30000120002A01DA05200CE091F90220002A64
:104F400001DD022006E091F90220002A01DA0620A4
:104F500000E00720704770B505462846FFF7D4FFEC
:104F60000446E81CFFF7D0FF44EAC00084B2A81D45
:104F7000FFF7CAFF44EA801084B2204670BD70B5C6
:104F800088B002A905A8FEF70EFD0446072C3FD104
:104F900001A8FDF77DFF059803F046FA0646019942
:104FA00003F0A2FA054603F003FA0590069803F011
:104FB0003BFA0646019903F097FA054603F0F8F923
:104FC0000690079803F030FA0646019903F08CFA30
:104FD000054603F0EDF9079005A8FEF7F4FF6846D3
:104FE000FDF773FFBDF80010029848430290BDF82A
:104FF0000010039848430390BDF8001004984843FC
:10500000049002A8FFF772F8FEA000F057FF00BF5F
:1050100008B070BD2DE9F04304460D46DDE9076791
:105020000021012041E0DFF800C43CF81080A0F12D
:10503000010CDFF8F49329F81C8009F1160C3CF8F8
:105040001090A0F1010CDFF8E08308F1160828F8B1
:105050001C9008F1160C3CF81090A0F1010C08F11E
:10506000160828F81C9008F1160C3CF81090A0F1D6
:10507000010C08F1160828F81C9008F1160C3CF8F1
:105080001090A0F1010C08F1160828F81C9008F106
:10509000160C3CF81090A0F1010C08F1160828F845
:1050A0001C9000F1010C0CF0FF000A28BBDBDFF8BC
:1050B00078C3ACF81240ACF82850ACF83E20ACF8FD
:1050C0005430ACF86A60ACF880700021002008E031
:1050D000DFF854C33CF910C0614400F1010C0CF03E
:1050E000FF000A28F4DB4FF00A0C91FBFCFC0FFADE
:1050F0008CFCDFF83483A8F814C0002100200AE0FB
:10510000DFF824C30CF1160C3CF910C0614400F127
:10511000010C0CF0FF000A28F2DB4FF00A0C91FBA7
:10512000FCFC0FFA8CF8DFF800C3ACF82A800021F1
:1051300000200AE0DFF8F0C20CF12C0C3CF910C0A2
:10514000614400F1010C0CF0FF000A28F2DB4FF083
:105150000A0C91FBFCFC0FFA8CF8DFF8CCC2ACF81F
:105160004080002100200AE0DFF8BCC20CF1420CB4
:105170003CF910C0614400F1010C0CF0FF000A285A
:10518000F2DB4FF00A0C91FBFCFC0FFA8CF8DFF815
:1051900098C2ACF85680002100200AE0DFF888C2EF
:1051A0000CF1580C3CF910C0614400F1010C0CF0FA
:1051B000FF000A28F2DB4FF00A0C91FBFCFC0FFA0F
:1051C0008CF8DFF864C2ACF86C80002100200AE0A3
:1051D000DFF854C20CF16E0C3CF910C0614400F1D0
:1051E000010C0CF0FF000A28F2DB4FF00A0C91FBD7
:1051F000FCFC0FFA8CF8DFF830C2ACF88280BDE816
:10520000F08338B50446032302226B21D02000949A
:10521000FCF726FA38BD38B50446022304221B21C8
:10522000D0200094FCF71CFA38BD38B504460223A0
:1052300004221C21D0200094FCF712FA38BD10B5CE
:105240000446234606226B21D020FCF73EFA10BD0F
:1052500010B5764B01227521D020FCF78FF97348E9
:10526000007810BD10B5FFF7F3FF682801D10120C9
:1052700010BD0020FCE710B50446234605226A2134
:10528000D020FCF722FA10BD10B5044623460122B7
:105290003721D020FCF719FA10BD10B50220FFF716
:1052A000B0FF0320FFF7B7FF0020FFF7BEFF00208D
:1052B000FFF7C5FF0020FFF7DEFF0020FFF7E4FF48
:1052C00010BD38B5002000906B4601227521682082
:1052D000FCF7F6F800205649087056A000F0EEFDE5
:1052E0009DF8000068280ED000BF5B48006800F4FD
:1052F000E0605A490843001D57490860BFF3408FDA
:1053000000BF00BFFEE7FDF7D0FA00283CD17820AF
:10531000FCF733FF10B947A000F0D0FD7820FDF76F
:1053200013F910B94EA000F0C9FDC820FDF7EDF942
:1053300010B955A000F0C2FDFEF7AAFD10B95CA09F
:1053400000F0BCFD6748FFF706FE0446FEF7AAFD25
:1053500010B965A000F0B2FD40F27310FFF7E3F959
:1053600010B96BA000F0AAFDC820FEF755FF10B9D8
:1053700071A000F0A3FDFFF702FE0120FEF7CEFAB8
:1053800010B976A000F09AFD01202949087038BDB7
:105390002DE9F04F8FB00CA879490DAB08AACDE9E3
:1053A000001078497848FFF71DFB7548008800F425
:1053B0008070002824D0089803F036F804464FF097
:1053C0009D4102F0FFFE71490860099803F02CF836
:1053D00004464FF09D4102F0F5FE6D4908600A98C1
:1053E00003F022F804464FF09D4102F0EBFE6949BC
:1053F00008600B9803F018F804464FF09D41CBE08D
:10540000A6E1000073657474696E67206269617358
:105410002073756363657366756C6C79202E2E2E10
:105420002E2E2E0D0A000000BE090020B00900201B
:10543000070000206D70755F7365745F73656E7330
:105440006F7220636F6D706C657465202E2E2E2E2A
:105450002E2E0D0A000000000CED00E00000FA0501
:105460006D70755F636F6E6669677572655F66699B
:10547000666F20636F6D706C657465202E2E2E2E06
:105480002E2E0D0A000000006D70755F7365745F4D
:1054900073616D706C655F7261746520636F6D70B0
:1054A0006C657465202E2E2E2E2E2E0D0A00000007
:1054B000646D705F6C6F61645F6D6F74696F6E5F58
:1054C0006472697665725F6669726D776172652074
:1054D000636F6D706C657465202E2E2E2E2E2E0D32
:1054E0000A00000020010020646D705F7365745F26
:1054F0006F7269656E746174696F6E20636F6D7031
:105500006C657465202E2E2E2E2E2E0D0A000000A6
:10551000646D705F656E61626C655F666561747510
:10552000726520636F6D706C657465202E2E2E2E53
:105530002E2E0D0A00000000646D705F7365745FAD
:105540006669666F5F7261746520636F6D706C650C
:105550007465202E2E2E2E2E2E0D0A006D70755F76
:105560007365745F646D705F737461746520636FDD
:105570006D706C657465202E2E2E2E2E2E0D0A0059
:1055800000010020FA000020F4000020100100209B
:10559000140100201801002002F014FE894908605F
:1055A000894801684FF0804002F09EFF06908748CE
:1055B0000168069802F098FF8246854801684FF01E
:1055C000404002F091FF06907E480168069802F084
:1055D0008BFF8346514602F087FD079002F058FD8D
:1055E000804600F015FF06464FF06632794B02F018
:1055F0003FFA044601F032FF7749086073480168BA
:105600004FF0804002F070FF0390704801680398EB
:1056100002F06AFF82466E4801684FF0404002F097
:1056200063FF03906A480168039802F05DFF8346B8
:10563000514603F061F881464FF07E5102F054FD6F
:10564000044602F025FDCDE904015F4801684FF0F2
:10565000804002F049FF83465D480168584602F0E9
:1056600043FF8146594801684FF0804002F03CFFFB
:10567000834654480168584602F036FF8246494640
:1056800002F032FD044602F003FD0746DDE9042383
:1056900001F00EF94FF066324E4BCDE9060102F0F3
:1056A000E7F9054601F0DAFE4C4908604548016813
:1056B000006802F019FF039044480168006802F096
:1056C00013FF029042480168006802F00DFF834614
:1056D0003D480168006802F007FF5946019002F05A
:1056E00003FD8246029903F007F88146039903F00F
:1056F00003F8044602F0CCFCCDE90401314801680E
:105700003148006802F0F0FE8246304801683048B7
:10571000006802F0E9FE8346514602F0E5FC81464E
:105720004FF0804102F0E0FE044602F0B1FC074673
:10573000DDE9042301F0BCF84FF06632254BCDE9DA
:10574000060102F095F9054601F088FE244908603B
:105750000FB0BDE8F08F2DE9F05F4221D020FBF7BC
:10576000EAFE05464121D020FBF7E5FE05EB0024CB
:10577000204602F059FE82464FF08E41504602F01C
:105780007FFF05D24FF08F41504602F0B5FF8246B1
:105790001449504602F016FD834602F079FC80461B
:1057A000114A124B01F08CFE06460022104B02F00B
:1057B0005FF9044601F052FE8246504602F0F8FDC1
:1057C000BDE8F09F1C0100201001002018010020FE
:1057D0001401002066A64C400401002008010020AE
:1057E0000C0100200000AA43A4703D0AD7434240A8
:1057F0000000244038B5F8A200210846FBF717FA4C
:105800000021F648006802F03BFE15D2F4A2002108
:105810000F20FBF70CFAF148006880F0004528469D
:1058200002F0E2FD04460C200523224600210090F0
:105830001E20FBF7B2F911E0EAA200210F20FBF7CE
:10584000F6F9E648006802F0CFFD04460C20052377
:105850002246002100901E20FBF79FF9E2A20021C2
:105860004120FBF7E4F90021E048006802F008FE5F
:1058700015D2DBA200215020FBF7D9F9DB480068E4
:1058800080F00045284602F0AFFD04460C200523B9
:105890002246002100905F20FBF77FF911E0D1A2A2
:1058A00000215020FBF7C3F9D048006802F09CFDAE
:1058B00004460C2005232246002100905F20FBF7C0
:1058C0006CF9CBA20A210020FBF7B1F90021C948ED
:1058D000006802F0D5FD15D2C1A20A210F20FBF706
:1058E000A6F9C448006880F00045284602F07CFD17
:1058F00004460C20052322460A2100901E20FBF7B7
:105900004CF911E0B7A20A210F20FBF790F9B94832
:10591000006802F069FD04460C20052322460A2196
:1059200000901E20FBF739F9B3A20A214120FBF7B2
:105930007EF90021B148006802F0A2FD15D2A8A2AC
:105940000A215020FBF773F9AC48006880F000454D
:10595000284602F049FD04460C20052322460A2170
:1059600000905F20FBF719F911E09EA20A21502058
:10597000FBF75DF9A148006802F036FD04460C20F3
:10598000052322460A2100905F20FBF706F99CA21E
:1059900014210020FBF74BF99B48006800280FDA20
:1059A0008FA214212D20FBF742F90C200523009033
:1059B00095480068424214214120FBF7EEF80DE0C3
:1059C00088A214212D20FBF732F90C20052300902A
:1059D0008D48142102684120FBF7DFF88BA21E21BD
:1059E0000020FBF724F98B48006800280FDA7CA21E
:1059F0001E212D20FBF71BF90C2005230090854864
:105A0000006842421E214120FBF7C7F80DE075A255
:105A10001E212D20FBF70BF90C20052300907D485B
:105A20001E2102684120FBF7B8F87BA22821002044
:105A3000FBF7FDF800217A48006802F021FD11D241
:105A400078497748006802F04FFB054602F0CCFC2D
:105A500004460C2003232246282100904B20FBF70C
:105A60009CF80CE06E48006802F0BEFC04460C2076
:105A700003232246282100904B20FBF78EF86AA2D0
:105A800032210020FBF7D3F800216948006802F0BA
:105A9000F7FC11D263496648006802F025FB054611
:105AA00002F0A2FC04460C2003232246322100907F
:105AB0004B20FBF772F80CE05D48006802F094FCA4
:105AC00004460C2003232246322100904B20FBF792
:105AD00064F8FAF782FF38BD2DE9F04387B04D48EE
