:020000040800F2
:10000000100B00209D010008A1010008A3010008B9
:10001000A5010008A7010008A901000800000000D0
:10002000000000000000000000000000AB0100081C
:10003000AD01000800000000AF010008B101000898
:10004000B3010008B3010008B3010008B3010008C0
:10005000B3010008B3010008B3010008B3010008B0
:10006000B3010008B3010008B3010008B3010008A0
:10007000B3010008B3010008B3010008B301000890
:10008000B3010008B3010008B3010008B301000880
:10009000B3010008B3010008B3010008B301000870
:1000A000B3010008FF180008B3010008B3010008FD
:1000B000B3010008B3010008B3010008B301000850
:1000C000B3010008B3010008B3010008B301000840
:1000D000B3010008B301000851170008B30100087C
:1000E000B3010008B3010008B301000800F002F8F2
:1000F00000F03FF80AA090E8000C82448344AAF183
:100100000107DA4501D100F034F8AFF2090EBAE880
:100110000F0013F0010F18BFFB1A43F0010318473B
:10012000483F0000683F0000103A24BF78C878C1FB
:10013000FAD8520724BF30C830C144BF04680C60ED
:10014000704700000023002400250026103A28BF35
:1001500078C1FBD8520728BF30C148BF0B60704739
:10016000642901F09986002070471FB51FBD10B5A6
:1001700010BD01F081FF1146FFF7F7FF00F02AF8EC
:1001800001F09FFF03B4FFF7F2FF03BC00F0F8F9A2
:1001900030BF72B662B680F30888704708480047DF
:1001A000FEE7FEE7FEE7FEE7FEE7FEE7FEE7FEE727
:1001B000FEE7FEE703480449044A054B7047000088
:1001C000ED00000810050020100B00201007002093
:1001D00010070020092000F07AF9482000F01AF8F2
:1001E000022000F05FF9012000F05CF900F05AFAFB
:1001F00000F08EFA00F07FFC4FF41651482000F01A
:10020000E9F900F0C9FF01F053F901E001F023F929
:10021000FCE700004FF0E021096921F004014FF0F4
:10022000E0221161C21700EB5272C2F3C702234BE6
:100230001A701946097801EB4102C2EBC1114FF661
:10024000FF7202EAC1011E4A1180704701461B4A33
:1002500012784A434FF0E0235A6100229A6101224A
:100260001A6100BF4FF0E022106900F001021AB1DC
:1002700000F48032002AF5D000224FF0E0231A610A
:100280009A61704701460E4A12884A434FF0E023B4
:100290005A6100229A6101221A6100BF4FF0E022E8
:1002A000106900F001021AB100F48032002AF5D082
:1002B00000224FF0E0231A619A6170471C00002071
:1002C0001E000020A34A0A400243A34B1A60704755
:1002D0000146072323EA010212029F4B1B1D1868E7
:1002E0004FF6FF0318409D4B184310439A4B1B1DBC
:1002F000186070472DE9F0410746884614461D46B0
:100300002846FFF7E5FFC5F1040007FA00F60F20C5
:10031000284100EA0800064306F00F06E21704EB46
:10032000D2625211920002F1E022D2F8002121465D
:10033000E31704EBD3635B11A4EB431C012303FA23
:100340000CF31A432046E31704EBD3635B119B00C5
:1003500003F1E023C3F800218148005D40EA061064
:100360007F490855BDE8F08170B504460B46CE17AD
:1003700001EB9676C6F38700CE1701EB9676B610A2
:10038000A1EB8606B606350E764B9B6943F001035A
:10039000744EB3614FEAB63353F820300F26AE40A7
:1003A000B343714E46F82030334653F8203004FAF8
:1003B00005F61E436C4B43F820606C4B1B6801260E
:1003C0008E403343694E336002F0010343B1674B03
:1003D0000C331B6801268E403343644E0C36336069
:1003E00002F0020343B1614B08331E6801238B40C6
:1003F0001E435E4B08331E6070BD00B50020594996
:100400000861C8601420486100208861C8610846FE
:10041000006840F001000860084640685449084000
:100420005049486008460068524908404D490860F4
:100430000846006820F4802008600846406820F4E0
:10044000FE0048600020886000214FF00060FFF748
:1004500039FF00BD10B540480830006840F0040086
:100460003D49083108603F48C06940F080503D492F
:10047000C8614148406840F480703F494860084680
:10048000006840F0040008600846006840F0020080
:100490000860FFF77DFE10BD3048001D2E49091D84
:1004A00008607047014649062E4A926942F00102EF
:1004B0002C4B9A612C4A083A526822F0E0622A4B8F
:1004C000083B5A601A4652680A435A60704730B572
:1004D00004460025FFF791FF2248006840F4803071
:1004E0002049086000BF1F480068400C0028FAD06F
:1004F0004FF480601B494860A01EC4B208464068A3
:1005000040EA844048600846406840F480304860D3
:100510001A48006840F03200184908601148006825
:1005200040F080700F49086000BF0E480068400E20
:100530000028FAD00B48406840F0020009494860A2
:1005400005E008484068C0F3870505F00305022D63
:10055000F7D130BD80FFFF1F08ED00E00000FA0575
:1005600000E400E0001002400800014000040140E7
:100570000000FFF8FFFFF6FE007000400020024080
:10058000014600BF7047414A1278012A0BD100BFD3
:100590003F4A128802F04002002AF9D0C2B23C4B16
:1005A0001B1D1A800AE000BF3A4A128802F040027E
:1005B000002AF9D0C2B2374B1B1D1A80704735494B
:1005C000091D088000BF3349098801F04001002956
:1005D000F9D070472DE9F05F05460E46300102F074
:1005E0007BFD81462C4905FB01F002F075FD82463A
:1005F000494602F077FC0746384602F035FD84B2E2
:10060000204602F069FD8346394602F0AAFE824682
:100610004FF0834102F0A8FD814602F025FD80469F
:100620004FF6FF7000EA041404EB080084B21B4884
:10063000806940F00400194988610846806940F4E7
:10064000804088611648006820F47F601449086083
:100650000846006840F40B6008601048C06840F429
:1006600080400E49C8600846C06820F48040C860D9
:10067000084808300480001D008842F20C0108433D
:1006800004490C310880BDE8F09F00000100002003
:10069000004400400038014040420F00001002407A
:1006A000040801401548806940F00400134988613E
:1006B0001348006820F00F001149086008460068E0
:1006C00040F0030008600E480830006840F4807075
:1006D0000B490831086070470A490968491C094AF2
:1006E0001160814208D108490968C943074AC2F824
:1006F000A0110021034A1160704700000010024061
:100700000408014024000020A001214200002142F1
:100710003748806940F004003549886135480068F1
:1007200020F07040334908600846006840F00040FF
:10073000086030480830006840F400402D49083116
:100740000860704701462C48006828B92B4800789B
:1007500010B90120294A107029480078B0B92748FB
:100760000078012807D127480078401C254A1070DE
:100770000120234A107023480078022806D1002067
:10078000204A1070204A1080022070471A480068E2
:10079000012804D10020194A1070194A1070194814
:1007A000007801280ED118480088401C80B2164AF3
:1007B0001080884206DD0020124A1070124A108014
:1007C0000120E2E70020E0E71048007838B10A484D
:1007D000006820B900200D490870012070470648C4
:1007E0000068012801D1094908700020F6E70000DF
:1007F00000100240040801403C0121422800002072
:10080000290000202A0000202C0000202E000020BB
:1008100010B50A461AB10123FE4C236002E0002302
:10082000FC4C2360002114E00023FB4C236000F00B
:1008300080031BB10123241D236003E00023F64C39
:10084000241D23600123F44C23604306180E4B1C27
:10085000D9B20829E8DB0123EE4C236010BD30B586
:1008600000241CE004F1B001C8B20021FFF7D0FF62
:1008700000210846FFF7CCFF00211020FFF7C8FF3A
:10088000002508E0E54901EBC501085D0121FFF7FE
:10089000BFFF681CC5B2802DF4DB601CC4B2082CFD
:1008A000E0DB30BD00B500218D20FFF7B1FF002156
:1008B0001420FFF7ADFF0021AF20FFF7A9FF00BD17
:1008C00000B500218D20FFF7A3FF00211020FFF7C6
:1008D0009FFF0021AE20FFF79BFF00BD30B5002435
:1008E0000CE0002506E00020CC4901EBC5010855CD
:1008F000681CC5B2802DF6DB601CC4B2082CF0DB8E
:10090000FFF7ADFF30BDF0B5144600267F2801DCAF
:100910003F2900DDF0BD0B46CF1701EB5777FF10E5
:10092000C7F10707FAB2CF1701EB5777FF10A1EB1A
:10093000C707FDB2C5F107070123BB40DEB24CB1CA
:10094000B64B03EBC0039B5C3343B44F07EBC007CC
:10095000BB5408E0B14B03EBC0039B5CB343AF4F08
:1009600007EBC007BB5400BFD4E72DE9F04F80462A
:100970000C4615461E46A346A5F12000C5B2002729
:100980003EE00C2E07D105EB4500A54901EB8000A8
:1009900010F8079004E0A34800EB051010F807904A
:1009A0004FF0000A26E009F0800028B121464046B9
:1009B000099AFFF7A8FF09E0099808B9012000E0AB
:1009C0000020024621464046FFF79DFF4FEA49605E
:1009D0004FEA1069601CC4B2A4EB0B00B04205D111
:1009E0005C4608F1010000F0FF0806E00AF1010092
:1009F00000F0FF0ABAF1080FD5DB00BF781CC7B2C0
:100A0000B742BEDBBDE8F08F10B50246012000E022
:100A100050430B00A1F10104E1B2F9D110BD2DE961
:100A2000FF4F81B0074691461E460E9D4FF0000ACB
:100A3000002439E0301B401EC1B20A20FFF7E4FF5A
:100A4000B9FBF0F00A21B0FBF1F201FB1208BAF198
:100A5000000F16D1701EA04213DDB8F1000F0ED1A9
:100A60000120AB4605EBDB71491001FB04710090DE
:100A7000C8B22B4620220299FFF777FF12E04FF011
:100A8000010A0120AB4605EBDB71491001FB047143
:100A90000090C8B208F13001CAB22B460299FFF7A4
:100AA00064FF00BF601CC4B2B442C3DB05B0BDE844
:100AB000F08F78B505460E46144618E07A2D03DD12
:100AC000002506F11000C6B23A2E04DD00200546CE
:100AD0000646FFF703FF0120009022780C233146E1
:100AE0002846FFF742FF05F10800C5B2641C2078D4
:100AF0000028E3D178BD10B54B48806940F008006C
:100B0000494988614948006820F47F0047490860E6
:100B10000846006840F4081008604348806940F0C7
:100B20001000414988610846806940F001008861F1
:100B30003F48406820F07F403D4948600846406893
:100B400040F0085048603B48006840F480703949E4
:100B500008603548006A20F00100334908623648D1
:100B6000008820F00100344908803248006820F4F1
:100B700080703049086000202649091D0860642003
:100B8000FFF780FB01202D49C1F8BC010021AE20F8
:100B9000FFF73EFE0021D520FFF73AFE002150204E
:100BA000FFF736FE0021A820FFF732FE00213F208C
:100BB000FFF72EFE0021D320FFF72AFE0021084672
:100BC000FFF726FE00214020FFF722FE00218D20A6
:100BD000FFF71EFE00211420FFF71AFE002120203F
:100BE000FFF716FE00210220FFF712FE0021A120D0
:100BF000FFF70EFE0021C020FFF70AFE0021DA20D9
:100C0000FFF706FE00211220FFF702FE00218120DF
:100C100016E00000B8012242B08121429C00002071
:100C200052350008C639000800100240040C01408B
:100C30000010014000700040306C00400000224273
:100C4000FFF7E6FD0021EF20FFF7E2FD0021D920AC
:100C5000FFF7DEFD0021F120FFF7DAFD0021DB20A8
:100C6000FFF7D6FD00213020FFF7D2FD0021A420A0
:100C7000FFF7CEFD0021A620FFF7CAFD0021AF201F
:100C8000FFF7C6FDFFF72AFE10BD0000F748806998
:100C900040F00800F5498861F548006820F47F407D
:100CA000F34908600846006840F44C5008607047FB
:100CB00010B5EF48006820F47040ED490860084620
:100CC000006840F4405008600120EA490860EA48A2
:100CD000D0F82C0108B9002010BD0120E549091FFA
:100CE0000860FFF7B3FA0020E349C1F8AC01E1481E
:100CF0008038006808B10020EEE70120FFF7A6FA6F
:100D00000020DC49091F08600120E5E710B5D8483C
:100D1000006820F47040D64908600846006840F436
:100D2000405008600020D349091F0860D249C1F82B
:100D3000AC010120FFF78AFA0120CE49091F0860A3
:100D4000CD49C1F8AC01FFF781FA10BD10B5002400
:100D5000C748006820F47040C5490860084600682C
:100D600040F4004008600120C2490860FFF76EFAB5
:100D70000120C149C1F8A801FFF768FA0AE0601C28
:100D8000C4B2322C03DDFFF7C1FF002010BD0120EB
:100D9000FFF75CFAB748803800680028EFD1B54902
:100DA000091F08600120F1E710B50020B149091FB3
:100DB0000860AF48006820F47040AD4908600846FC
:100DC000006840F4405008600020AB49C1F8AC0115
:100DD0000120FFF73BFA0120A649091F0860FFF731
:100DE00035FA0020A449C1F8A80110BD10B50020B3
:100DF000A049091F08609E48006820F470409C4983
:100E000008600846006840F44050086001209A4994
:100E1000C1F8AC01FFF71AFA01209649091F0860D2
:100E2000FFF714FA00209449C1F8A80110BD70B56D
:100E300004468F48006820F470408D4908600846D9
:100E4000006840F44050086000208A49091F08608B
:100E5000002516E0E009874908606006040E0120BD
:100E6000FFF7F4F901208449C1F8A801FFF7EEF972
:100E700000208049091F08600120FFF7E7F9681C7E
:100E8000C5B2082DE6DB70BD2DE9F04105460E46E2
:100E900017469846FFF70CFF10B90120BDE8F08116
:100EA0006906080EFFF7C3FFFFF750FF18B9FFF7F9
:100EB0002DFF0120F2E73046FFF7B9FFFFF746FFAD
:100EC00000240BE018F80400FFF7B1FFFFF73EFF26
:100ED00018B9FFF71BFF0020E0E7641CBC42F1DB00
:100EE000FFF714FF0020D9E770B5054600246048DD
:100EF000006820F470405E4908600846006840F4CD
:100F000000400860002617E000205A49091F0860C9
:100F10000220FFF79BF901205749C1F8A80160069C
:100F2000040E54488038006808B1601CC4B2022026
:100F3000FFF78CF9701CC6B2082EE5DB15B1FFF780
:100F400033FF01E0FFF752FF204670BD2DE9F0416D
:100F500006460F4614461D46FFF7AAFE10B90120AB
:100F6000BDE8F0817106080EFFF761FFFFF7EEFEA6
:100F700018B9FFF7CBFE0120F2E73846FFF757FF1D
:100F8000FFF7E4FEFFF794FE012101EB4601C8B232
:100F9000FFF74DFFFFF7DAFE0DE0012C04D1002032
:100FA000FFF7A2FF287003E00120FFF79DFF2870E4
:100FB0006D1C601EC4B2002CEFD1FFF7A7FE00200D
:100FC000CEE770B505460E460024FFF771FE2846B1
:100FD000FFF72DFF641CFFF7B9FE3046FFF727FF30
:100FE000641CFFF7B3FEFFF763FE691CC8B2FFF78E
:100FF0001EFF641CFFF7AAFE0020FFF775FF0446E2
:10100000FFF784FE204670BD2DE9F0410746884673
:1010100015461E460024FFF74BFE3846FFF707FF34
:10102000FFF794FE4046FFF702FFFFF78FFEFFF742
:101030003FFE791CC8B2FFF7FAFEFFF787FE00BF3C
:101040000DE0681EA04204D00120FFF74DFF30558F
:1010500003E00020FFF748FF3055601CC4B2AC42EB
:10106000EFDBFFF753FE2046BDE8F08100100240A1
:10107000040C0140AC812142008021422DE9F04165
:1010800080460D4616461F460024FFF711FE4046D7
:10109000FFF7CDFEFFF75AFE2846FFF7C8FEFFF721
:1010A00055FE00BF06E0385DFFF7C1FEFFF74EFEBC
:1010B000601CC4B2B442F6DBFFF728FE0120BDE895
:1010C000F08170B505460E46144631462846FFF7B6
:1010D00078FF2070012070BD37B504460D4602AB85
:1010E000012229462046FFF7C9FF3EBD2DE9F843FE
:1010F0000746884614461D46089E6A4641463846BD
:10110000FFF7DFFF28B3601CFF2101FA00F0C4F1F4
:1011100008012944491EFF220A41104300F0FF093B
:10112000C5F1080006FA00F0C6B2C4F10700064196
:101130009DF8000000EA090000909DF8000030438F
:1011400000909DF8002041463846FFF7C5FFBDE8F6
:10115000F8830020FBE7F8B506460F4614461D4607
:101160006A4639463046FFF7ACFF2DB10120A0405A
:101170009DF80010084305E00120A0409DF80010F4
:1011800021EA0000C0B200909DF8002039463046A8
:10119000FFF7A2FFF8BD000010B5D148806940F00C
:1011A0000400CF4988610846806940F008008861E2
:1011B000CC48006820F0FF00CA4908600846006873
:1011C00040F083000860C848006820F47020C649D9
:1011D00008600846006840F440300860C2480C309F
:1011E000006840F40040C0490C310860BD480C3034
:1011F000006840F01800BB490C31086000F0B5F9F8
:101200000020BA4908600120B949C1F8840110BD25
:101210002DE9F04107460D4616460020B349091D49
:101220000860384600F07EF98046002405E0FF2083
:1012300000F078F92855601CC4B2B442F7DB0120F5
:10124000AA49091D08604046BDE8F0812DE9F0413A
:1012500007460C4615460020A449091D086038467B
:1012600000F060F98046002605E014F8010B00F05C
:1012700059F9701CC6B2AE42F7DB01209B49091D2B
:1012800008604046BDE8F0811CB59AA103C9CDE9CC
:101290000001012000F0B6F9052269463020FFF771
:1012A000D5FF052269461020FFF7B2FF002406E0B3
:1012B0001DF80400A52800D003E0601CC4B2052C72
:1012C000F6DB00BF052C01D001201CBD0020FCE78F
:1012D00070B505460C4600208449091D0860284663
:1012E00000F020F90646204600F01CF90120804954
:1012F000C1F88401304670BD70B5044600207B49BA
:10130000091D0860204600F00DF9FF2000F00AF9E1
:10131000054601207649C1F88401284670BD70B5A4
:101320000546012000F06EF9002070490860202277
:101330002946A020FFF78AFF01206D49C1F88001EE
:1013400000BF6E4800680028FBD10720FFF7D4FFDC
:10135000044621462720FFF7BBFF04F0100028B108
:10136000FF21E120FFF7B4FF102070BD04F0200042
:1013700008B12020F9E7FF20F7E770B50446012007
:1013800000F040F90720FFF7B7FF05462946272060
:10139000FFF79EFF05F0400050B12022214661205A
:1013A000FFF736FFFF21E220FFF792FF002070BD1C
:1013B0000120FCE710B500204C4908600522504987
:1013C0002A20FFF743FF01212120FFF781FF0121A0
:1013D0002220FFF77DFF28212520FFF779FF20211C
:1013E0003120FFF775FF0F212620FFF771FF0F2136
:1013F0002020FFF76DFF01203D49C1F8800110BD9D
:1014000010B500203949086005223E493020FFF719
:101410001DFF05223A492A20FFF718FF012121204C
:10142000FFF756FF01212220FFF752FF1A21242047
:10143000FFF74EFF28212520FFF74AFF0F21262026
:10144000FFF746FF0E212020FFF742FF0120284929
:10145000C1F8800110BD8AB001241D2102A800F04E
:1014600055FD29480068019084B9FFF7A3FF0CE0FF
:1014700001A8FFF782FF28B99DF8051023A000F00E
:10148000CBFC02E06420FEF7E1FEF1E7FFF7B8FFD6
:101490000DE001A8FFF743FF202805D19DF80510B6
:1014A0001AA000F0B9FC02E00A20FEF7EBFEF0E71C
:1014B00010B50CE011489030006808B9012000E038
:1014C00000200E4990310860C820FEF7DBFEFFF7D0
:1014D000DBFE0028EED10FA000F09EFC10BD000046
:1014E00000100240000C01400008014080812142B0
:1014F00000802142A5A5A5A5A5000000100121425C
:10150000BD3F0008B83F0008C43F000825640D0A2D
:101510000000000032344C30312052656164792182
:10152000000000000246002105E0481CC1B2C829A5
:1015300001DD002070474948008900F002000028C2
:10154000F3D046488281002105E0481CC1B2C82979
:1015500001DD0020EEE74148008900F0010000288D
:10156000F3D03E488089C0B2E4E700B53C488069CA
:1015700040F004003A4988610846806940F4805090
:10158000886138480068C0F313003649086008468F
:101590000068354908433349086032480C30006818
:1015A00040F0E0002F490C3108602C4800882B499E
:1015B00008800846008840F40070088008460088CB
:1015C00040F4807008800846008840F004000880DD
:1015D0000846008808800846008808800846008879
:1015E00008800846008840F03800088008460088D7
:1015F00008800846008840F040000880FF20FFF780
:1016000091FF00BD154909884FF6C7721140134A72
:10161000118018B911460988118017E0012806D1F8
:101620000E49098841F010010C4A11800EE0022891
:1016300006D10A49098841F01801084A118005E0DD
:101640000649098841F03801044A11800349098894
:1016500041F04001014A1180704700000030014014
:1016600000100240000801400000B0BB2DE9F05F0F
:1016700005460E46300101F02FFD8146364905FB37
:1016800001F001F029FD8246494601F02BFC074696
:10169000384601F0E9FC84B2204601F01DFD834686
:1016A000394601F05EFE82464FF0834101F05CFD59
:1016B000814601F0D9FC80464FF6FF7000EA041421
:1016C00004EB080084B22548806940F004002349F7
:1016D00088610846C06940F40030C861204800684D
:1016E00020F47F401E4908600846006840F40B4023
:1016F00008601B480C30006840F0040018490C31A9
:1017000008601648006940F4003014490861084632
:10171000006920F40030086112480480001D008830
:1017200042F20C0108430F49091D08800846008851
:1017300040F4807008800846008840F0200008804F
:101740000223262203210846FEF7D4FDBDE8F09FC0
:10175000044808380088704740420F0000100240DB
:10176000000801400844004010B5FFF72DF804467A
:10177000012C07D1BC48007808B9012000E0002006
:10178000B949087010BD2DE9F04F89B00546012D0B
:101790007DD04621D020FFF714FC80464521D02083
:1017A000FFF70FFC08EB0027384601F07DFC0446EC
:1017B0004821D020FFF705FC80464721D020FFF7C5
:1017C00000FC08EB0027384601F06EFC83463C2104
:1017D000D020FFF7F6FB80463B21D020FFF7F1FB3E
:1017E00008EB0027384601F05FFC81464021D020FD
:1017F000FFF7E7FB80463F21D020FFF7E2FB08EB35
:101800000027384601F050FC82464FF08E412046BA
:1018100001F076FD05D24FF08F41204601F0ACFD7E
:1018200004464FF08E41584601F06AFD05D24FF054
:101830008F41584601F0A0FD83464FF08E41484647
:1018400001F05EFD05D24FF08F41484601F094FD56
:1018500081464FF08E41504601F052FD05D24FF0C7
:101860008F41504601F088FD8246504601F0A0FAB3
:10187000CDE90001484601F09BFA0746DDE9002367
:1018800000F0A8FD0022794BCDE9020100E033E031
:1018900001F09AF8764A774BCDE9040100F03CFF5D
:1018A000CDE9060100F056FE0646204601F080FA1A
:1018B0004FF06632704BCDE9060100F02DFF074670
:1018C00000F048FE04466D480078022806D184F0F6
:1018D00000473946304600F0E9F809E067480078EB
:1018E000032805D184F000473946304600F0F5F969
:1018F000634800686349086009B0BDE8F08F10B51F
:101900006148008800F00100002870D05E4800881F
:1019100020F001005C4908805C48007808B901208B
:1019200000E000205949087008460078012805D1D8
:1019300052480078FFF727FF002010BD4F4800787D
:10194000FFF721FF6420FEF7C7FEFFF70DFF5048A9
:101950000068401C4E49086014280ADD4D480068A4
:1019600008B9012000E000204A49086000204849E9
:1019700008604848006801281CD147490860474969
:10198000C1F88401444908310860091D08604249D2
:1019900034310860091D086041490860091D08606C
:1019A000091D0860091D0860091D08603D49C1F84E
:1019B000A4011CE00020384908603849C1F88401BE
:1019C000354908310860091D086033493431086021
:1019D000091D086032490860091D0860091D08607A
:1019E000091D0860091D08602E49C1F8A4010020E6
:1019F000A3E70146002901DA484200E008467047A3
:101A000000B503460A46002B07DD01202449086083
:101A100000202449C1F8940106E000202049086014
:101A200001202049C1F894011846FFF7E2FF1E4942
:101A30000880002A08DD00201949083108600120CB
:101A40001849C1F89C0107E00120154908310860D8
:101A500000201449C1F89C011046FFF7CAFF124943
:101A6000091D088000BD00000100002000806640C4
:101A7000F1D4C853FB2109406666304000000020C5
:101A80004C00002010000020102C014044000020D9
:101A90003C00002040000020800121420000214243
:101AA00090812142008021423C0800402DE9F04114
:101AB00005460C46C2480168204601F05DFC074619
:101AC000C0480168384601F04FFB0646BE48016831
:101AD000304601F099F9BC490860BC484168BC48EF
:101AE000006801F049FC0646B8488168304601F0BC
:101AF00043FCB8490860B548C06880F000404860C1
:101B0000B248C06880F000408860B3480068C86090
:101B10000868AC49096801F027FB0646AB48016834
:101B2000304601F071F9A9490860AA494868A549F9
:101B3000096801F019FB0646A4484168304601F0E7
:101B400063F9A2494860A34988689E49096801F081
:101B50000BFB06469D488168304601F055F99B49CC
:101B600088609C49C8689749096801F0FDFA0646F3
:101B70009648C168304601F047F99449C8609248D8
:101B80000168284601F0F8FB944908609448007801
:101B900001F0A2FA06468D480168304601F0E4FAE9
:101BA000904908608E48007801F096FA064687480A
:101BB0008168304601F0D8FA8B490860884800787F
:101BC00001F08AFA074687480168384601F0CCFAE6
:101BD000064686480168304601F016F984490860D7
:101BE000084601687F48006801F07CF98149086077
:101BF0007F4801687C48006801F074F97E490860FC
:101C0000784800687D4908607548007801F064FAFA
:101C100006466E484168304601F0A6FA78490860E9
:101C2000764801687348006801F09EFA06466748E6
:101C30000168304601F095FB64490860704801680E
:101C40006C48006801F090FA0646604841683046EA
:101C500001F087FB5D494860684801686648006894
:101C600001F082FA064659488168304601F079FB56
:101C700056498860624801685F48006801F074FA5C
:101C800006465248C168304601F06BFB4F49C860B8
:101C9000524801685748006801F066FA06464A480B
:101CA0000168304601F0B0F8474908604B480168C8
:101CB0005148006801F058FA06464148016830462C
:101CC00001F0A2F83E49086008460168204601F08C
:101CD00053FB4C490860BDE8F0812DE9F04F8BB013
:101CE00083468A46504601F063F88046464A474B91
:101CF00000F06AFECDE902013348006801F058F8AF
:101D0000CDE90001DDE9022300F056FC04460D4652
:101D10003F4801684FF07E5001F02EFB804601F0F5
:101D200047F8064622462B4600F04EFECDE9060156
:101D300037480168584601F017FA044601F038F8B0
:101D4000CDE90401DDE9062300F036FCCDE9080108
:101D500000F000FC1C4908600BB0BDE8F08F2DE9D5
:101D6000F04104460D46E561E168206801F04CF859
:101D700006463146206801F0B5F820616168E069E7
:101D800001F0FAFA0746216901F0EEF906466168AA
:101D900001F03AF860614FF07E50216901F0ECFAF1
:101DA0000646216801F0E0F9A06160696060A16801
:101DB000A06901F029F820606069BDE8F0810000A9
:101DC00068000020600000204C0000208C000020F3
:101DD000540000209C040020580000206C000020CB
:101DE0006400002070000020740000205C000020CF
:101DF000780000207C00002080000020840000206B
:101E000088000020500000207B14AE47E17A743F28
:101E100048000020704700000FB4044910B503AA21
:101E2000029800F0F7F810BC5DF814FB20000020C9
:101E30002DE9F0410E460446002020622046E1686C
:101E4000884730B3252805D0D4E901219047206A7E
:101E5000401CF2E7E168204600278847050018D0BB
:101E6000A5F14100192802D820354FF40067324609
:101E7000294620462760FEF773F940B1012804D0B7
:101E8000F61D26F007060836D8E7361DD6E72846A1
:101E9000DAE7206ABDE8F0812DE9F041064600242A
:101EA00010687529314615A510D0AFF300800028C1
:101EB00002DA404212A507E031688A0701D511A570
:101EC00002E0490704D510A5012401E0AFF300802A
:101ED00000210A2306F1240707E0B0FBF3F203FB1D
:101EE0001200303078541046491C0028F5D12346A2
:101EF0002A463046BDE8F04100F033B8000000004B
:101F00002D0000002B000000200000004FF0000218
:101F100000B5134694469646203922BFA0E80C50DF
:101F2000A0E80C50B1F12001BFF4F7AF090728BFBA
:101F3000A0E80C5048BF0CC05DF804EB890028BF36
:101F400040F8042B08BF704748BF20F8022B11F05F
:101F5000804F18BF00F8012B7047704770477047DB
:101F600070472DE9F0470D4699469246044600F128
:101F700024080168880604D5E06921F01001216079
:101F800000E00120A84201DD471B00E00027A16915
:101F90007A1902EB0900081AA0612078C00602D461
:101FA0002046AFF30080002608E0D4E901211AF8AA
:101FB00006009047206A401C761C20624E45F4DBE8
:101FC0002078C0060AD52046AFF3008006E0D4E9A9
:101FD000012130209047206A401C2062381EA7F162
:101FE0000107F4DC07E0D4E9012118F80500904767
:101FF000206A401C2062281EA5F10105F3DC204662
:10200000AFF300802078000602D50220BDE8F087FB
:102010000120FBE7074B70B50D467B4400F011F83B
:102020000446284600F020F810B14FF0FF3070BD94
:10203000204670BD69E5FFFF01694A1C026108780E
:10204000704700B58FB0CDE90131002105910549F8
:102050007944CDE9031011466846FFF7E9FE0FB059
:1020600000BD0000E5FFFFFF007B00F0800070472F
:1020700000487047AC0400207546FFF7F9FFAE46F4
:1020800005006946534620F00700854618B020B584
:10209000FEF790F8BDE820404FF000064FF0000733
:1020A0004FF000084FF0000B21F00701AC46ACE800
:1020B000C009ACE8C009ACE8C009ACE8C0098D466D
:1020C00070470446AFF300802046FEF75BF84900F6
:1020D00050EAC12018BF04204A0D18BF40F001008B
:1020E00040F2FF72B2EB515F08BF40F002000128DE
:1020F00008BF052070472DE9F0414F1E00EBC701D6
:102100000446D1E9000115461E4637F006020DD0FF
:102110002A46334600F058FC7F1E04EBC703D3E980
:10212000002300F049FA37F00602F1D1022F25D042
:10213000042F13D0062F18BFBDE8F0812A4633467E
:1021400000F042FCD4E90A2300F036FA2A4633466E
:1021500000F03AFCD4E9082300F02EFA2A46334670
:1021600000F032FCD4E9062300F026FA2A46334672
:1021700000F02AFCD4E9042300F01EFA2A46334674
:1021800000F022FCD4E9022300F016FA2A46334676
:1021900000F01AFCD4E90023BDE8F04100F00CBACD
:1021A000024A0020110701F08EB9000001FDFFFF77
:1021B0002DE9F84F04460D4621F000400091744986
:1021C000814213DC7349884201DC08D13CB12046CE
:1021D0002946BDE8F84F4FF0010201F074B96E488E
:1021E000002DCCBF6D496E49BDE8F88F6D49814225
:1021F00011DD6D498142D8BF4FF0FF366DDD2046BD
:102200002946FFF764FF042808BFFFF7C9FF2046EF
:102210002946BDE8F88F6549654F25F000458142A4
:1022200033DD6449814219DD002632464FF0804398
:102230002046294600F0C0F980468A460122204601
:10224000294601F040F900223B4600F0C7FC424617
:10225000534600F061FA04460D463EE00126002296
:10226000BA463B462046294600F0A6F980460F466E
:10227000002253462046294600F0B0FC42463B4629
:1022800000F04AFA04460D4627E04B4981421BDD27
:10229000DFF828810226002243462046294600F026
:1022A00093FB00223B4600F087F907468A4600224E
:1022B00043462046294600F091FC3A46534600F03A
:1022C0002BFA04460D4608E0032622462B46002042
:1022D0003B4900F021FA04460D4622462B461046A3
:1022E000194600F071FB8B46824602460B4600F011
:1022F0006BFB07460246334888460B460621784466
:10230000FFF7F9FE52465B4600F05EFB82462E4820
:102310008B463A46434605217844FFF7ECFE3A46A1
:10232000434600F051FB02460B46002E50465946EC
:102330000CDA00F041F922462B4600F045FB01B0D3
:1023400022462B46BDE8F04F00F03CBC00F034F9CB
:1023500022462B4600F038FB1C4A7A4402EBC603A7
:10236000D3E9002300F03AFC22462B4600F036FC6D
:10237000174A7A4402EBC603D3E9002300F022FC9B
:10238000009A002AB8BF81F00041BDE8F88F000034
:10239000000010440000F07F182D4454FB21F93F49
:1023A000FB21F9BF0000DC3F0000203E0000F33FAE
:1023B0000000F03F0000E63F008003400000F83FCF
:1023C0000000F0BF2E1D0000EC1C00008A1C000065
:1023D000521C00002DE9F04D9446CCF1000423F08E
:1023E00000464CEA0404524F46EAD4749A468846A2
:1023F00021F00042BC4206D8454240EA050442EAC8
:10240000D474BC4204D9BDE8F04D624600F0D4B8A3
:10241000AAF14055A5F17F6555EA0C040BD00224C2
:1024200004EAAA74434DDFF810E144EAD87452EA92
:10243000000B04D00CE0BDE8F04DFFF7B9BE002C56
:1024400014BF012CBDE8F08D022C30D0032C32D00B
:1024500056EA0C0B0AD0BE4220D1BA4209D126F06E
:10246000804622F080423346114617E000291ADBED
:1024700025E0DFF8C8B0FB44002C04BFDBE9000115
:10248000BDE8F08D012C02BFDBE9000181F00041C5
:10249000BDE8F08D022C0AD0032C0CD0BA4212D128
:1024A000B8F1000F0BDA23482549BDE8F08D284626
:1024B0002449BDE8F08D28467146BDE8F08D1D48E1
:1024C0002149BDE8F08D921B12153C2AC4BF194862
:1024D0001D490EDCBAF1000FBEBF12F13C0F002007
:1024E000014606DB624600F017F921F00041FFF7D4
:1024F0005FFE002C08BFBDE8F08D012C04BF81F009
:102500000041BDE8F08D114A114B022C07D000F0BC
:1025100065FB2A46BDE8F04D0A4B00F05FBB00F0BA
:102520005DFB2A46BDE8F04D064B00F04BBB0000BA
:102530000000F07F182D4454FB2109C0E61B000069
:10254000FB21F9BFFB210940FB21F93F075C143354
:1025500026A6A13C21F00042A2F16052B2F5801FF4
:1025600001F0004328BFD2F17F6C0BD95FEA001C59
:1025700043EAC20242EB507018BF704728BF20F0F8
:1025800001007047B2F5801FBCBF184670474FEA84
:10259000410C1CF5001F02D2084600F0ACBE70B51D
:1025A00000F0BCFA00000089FFF7F6BF4FF00040D2
:1025B000A0F580007047000010B591EA030F48BFF6
:1025C00083F0004300F11283841A71EB030C05D2EF
:1025D000121943EB0C03001B61EB0C01DFF824E143
:1025E0004FEA1154A4EB135C1EEA430F18BF9EEA96
:1025F000445F73D023EA0E03DCF1200E21EA04517C
:1026000043F4801332D322FA0CFE10EB0E0023FAAF
:102610000CFE41EB0E01CCF1200E03FA0EFE10EB86
:102620000E0051F10001B1F5801FCCF1200E32D225
:1026300001EB045112FA0EF2BDE8104058BF70478A
:10264000401C38BF5FEA420218BF7047002814BF21
:1026500020F0010041F100014FEA410313F5001F92
:1026600038BF7047A1F1C04100F0A6BA012A43EB80
:102670000302ACF1200CDCF11F0E32BF4FF0000E54
:1026800023FA0CF310EB030041EB0451B4EB115FA0
:10269000D0D0A1EB045101F5801149085FEA300068
:1026A00001EB04510ED350F1000038BF12FA0EFEB8
:1026B00008D1BDE81040C9E7401C38BF5FEA4202BC
:1026C000CAD1C3E7BDE810404FEA410313F5001F2C
:1026D00038BF7047A1F1C04100F06EBA9EEA445F76
:1026E00008D011EA5E0FBDE8104004BF01F00041C0
:1026F00000207047BDE8104070B500F00FFA00BF31
:1027000064FBBE3E0000E0FF02494FF0000000F015
:10271000A8BE00BF0000F87F2DE9C04130B4DFF84B
:10272000A0C23CEA111418BF3CEA131400F0EC807C
:1027300081EA03051CEA111444EAD57418BF1CEAA7
:10274000131500F0C780A4EB05044FF0004545EADF
:10275000C12145EAC32341EA505143EA525304F1EF
:102760007F74994204F500344FEAC0204FEAC22238
:1027700008BF904200F09C804FEA13650FF24016AC
:10278000765D4FEA134506FB05F7C7F1807706FB38
:1027900007F74FEAD737A7FB03687642C8F58038BA
:1027A000A7FB06CE38BFA8F1010807FB08E64FF0EB
:1027B000000EA6FB028CE6FB03CEDCF1000CCEF192
:1027C000004E38BFAEF1010EA6FB0C584FF00007CB
:1027D0004FF00005E6FB0E87A1FB08C6A0FB07CE65
:1027E00016EB0E0645F10005E1FB076515F1E04E1D
:1027F0007EBFA4F580345FEA46066D4116F180077E
:1028000045F100054FEA17274FEA066647EA0567D4
:10281000A6F1DE46B6F1805F4FEA15251FD938468E
:1028200024F0010C05EBC471BCF1FE6F01EB0C113F
:1028300002D8F0BCBDE8008124425CBF01F5801ED7
:102840009EEAC47F02D4F0BCBDE80081244238D4A3
:10285000F0BCA1F1C041BDE8004100F0ADB94FEAC4
:10286000D22242EA43524FEAD323A7FB02864FEA21
:10287000D02040EA415007FB03661EEA0E0F4FEAE4
:10288000D12105FB026658BFA6EB0056B6EB0056F9
:102890004FEA520E4EEAC37E18EB0E0E56EB530E65
:1028A000BDD518EB02085E417F1C55F10005B6E767
:1028B0004FF480154FF000074FF000064FF000086E
:1028C000ADE7F0BC4FF0000001F1C04101F0004164
:1028D000BDE8008111EA0C1F0CEA131500D00CE0D2
:1028E00013EA0C1F00F025804FF00000F0BC81EAD5
:1028F000030101F00041BDE80081F0BC81EA030161
:10290000BDE8004100F058B9F0BCBDE8004170B529
:1029100000F004F9097EFC3E00F007B881EA0301EB
:102920004FF0000001F00041704781EA030100F020
:1029300043B9F0BC4FF000002249BDE800417047A8
:10294000FFFDFBF9F7F5F4F2F0EEEDEBE9E8E6E474
:10295000E3E1E0DEDDDBDAD8D7D5D4D3D1D0CFCDFB
:10296000CCCBCAC8C7C6C5C4C2C1C0BFBEBDBCBB34
:10297000BAB9B8B7B6B5B4B3B2B1B0AFAEADACAB2F
:10298000AAA9A8A8A7A6A5A4A3A3A2A1A09F9F9E09
:102990009D9C9C9B9A9999989797969595949393BB
:1029A000929191908F8F8E8E8D8C8C8B8B8A898952
:1029B00088888787868585848483838282818180D5
:1029C0000000FF070000F87FDFF848C170B51CEA7F
:1029D000111E1EBF1CEA13159EEA0C0F95EA0C0F80
:1029E00000F06F8081EA030423EA4C134EEAD47EA0
:1029F00021EA4C1141F4801143F48013AE44A1FB51
:102A0000024CA0FB0365AEF17F7E361955EB0C0539
:102A1000A1FB034C4CF10003A0FB021C16EB0C06BF
:102A2000654153F10003094218BF46F0010613F453
:102A3000007F0BD14FEA03314FEA0530340341EAFE
:102A4000155140EA16506FF003020AE04FEAC32125
:102A50004FEAC520F40241EA555140EA56506FF062
:102A6000020202EB2E4201EB025585EACE710AD03A
:102A70005FEA440C18BF24F0004450F1000041F11B
:102A8000000120EAD47040F2FE7C624500D270BDA5
:102A9000A84214BF4FF080444FF04044002E08BFBE
:102AA0000024BEF1806FA8BFA1F1C041BDE8704015
:102AB00080F282804FF0000001F1C04101F000413E
:102AC00070479EEA0C0F0CEA131518BF95EA0C0F1D
:102AD00006D04FF0000081EA030E0EF0004170BDF9
:102AE00000F01CF88900013E00F007B800F009B8BA
:102AF0004FEA430C5FEA5C5C08D081EA030100F016
:102B00005BB84FEA410C5FEA5C5CF6D14FF0000025
:102B1000014970470000FF070000F87F0EF1020E28
:102B20002EF0030E5EF8046B364205D4012A43EB07
:102B3000030515F5001F12D8012841EB010C1CF507
:102B4000001F0CD80ED14FEAD17C15F5001F0CEBFD
:102B50004C0C0CF1020C08BF4CEBD37C04E04FF0A2
:102B6000080C01E04FEAD37C0CEB4C0526FA05F685
:102B700006F00706B6F1040C06D20EEB860CBDE893
:102B800070404CF0010C6047DFE80CF0090B0202CA
:102B90004FF000414FF00000A1F5002170BD194633
:102BA0001046012851EB010418BFD4F5001484BF6E
:102BB000002001F0004170BD0808A0F500114FEAA7
:102BC0003101704791EA030F10B581F000413FF5E4
:102BD000FBAC83F0004300F009B8000010B591EAA7
:102BE000030F48BF83F000433FF5EEAC841A71EB4E
:102BF000030C07D212198CF0004C43EB0C03001BA2
:102C000061EB0C01DFF8A4E14FEA1154A4EB135C73
:102C10001EEA430F18BF9EEA445F00F0B08023EA2B
:102C20006E03524221EA0451C3EB6E0338BF5B1EB0
:102C3000DCF1200E25D322FA0CFE10EB0E0043FA35
:102C40000CFE41EB0E01CCF1200E03FA0EFE10EB50
:102C50000E0051F10001CCF1200E29D412FA0EF22F
:102C600001EB0451BDE8104058BF7047401C1CBF29
:102C7000B2F1004F704700280CBF491C20F0010042
:102C8000704712EB020E43EB030218BF4FF0010E28
:102C90004EEA4202ACF1200CDCF11E0E54D943FA8C
:102CA0000CFE10EB0E0051F1FF31CCF11E0ED5D50C
:102CB0000EF1010E12FA0EFE404141EB010101EB53
:102CC000445C5FEA5C5C10D910EBDE7001EB0451F0
:102CD00038BFBEF1004FBDE8104018BF7047002854
:102CE0000CBF491C20F00100704730D24FEAD42CB1
:102CF00011F5001124F400641BD0B1FA81F20B3AF3
:102D0000A41AA41ED2F12003914030FA03F3194310
:102D1000904001EBCC71002C01EB0451BDE8104058
:102D2000A8BF704701F1C0414FF0000001F0004121
:102D30007047B0FA80F310FA03F100D110BDE41A25
:102D4000173C4805C90AE4E701EB045110BD4910DE
:102D500001EB0451BDE810404FEA300002E04FF0B3
:102D6000000170474A0008BF0042F8D0B2F5001FCA
:102D700028BF704701F000414FF0000070479EEA05
:102D8000445F07D011EA5E0FBDE8104004BF002188
:102D900000207047BDE8104070B5FFF7BFFE00BFD0
:102DA00040DFF63E83F00041104670470000E0FF30
:102DB00043004FEAD30C4FEA3C0C43401FBF40078F
:102DC0000CF1605113F0FE4F70471CF0006F03D1FF
:102DD00000200CF0004170470CF0004343EA5070B3
:102DE00010B540EACC0000F040FA00BF00000092AD
:102DF0004FEA0001FFF7E0BE4FF000414FF0000046
:102E0000A1F500217047000090EA010F48BF81F052
:102E1000004100F1B882421A3CBF801A89184FEA7B
:102E2000D0524FF07F4C1CEA410FA2EBD15318BF98
:102E30009CEA026F00F03B804FF0004C4CEA00200F
:102E40004CEA012121FA03FC10EB0C0C1ED202F11A
:102E5000FF325FEA1C2040EBC25038BF70471CF0C5
:102E60007F0F4FEA400C18BFBCF17F4F38BF70474F
:102E7000C3F12003994008BF20F00100BCF17F4F4F
:102E800038BF7047A0F1C04000F035BA4FEA3C00AF
:102E9000000A40EBC25028BF1CF0FF0F4FEA400C65
:102EA000E6D018BFBCF17F4F38BF7047EAE79CEA15
:102EB000026F05D010EA5C0F08BF00F000407047B9
:102EC00010B500F0D2F900BF64FBBE3E401058BF01
:102ED000C0F14040491058BFC1F140418142EFF379
:102EE000008070474FF47F0C1CEAD0121EBF1CEA12
:102EF000D11392EA0C0F93EA0C0F00F0858090EA50
:102F0000010F48BF42F4807240F4000C41F400000D
:102F10002CF07F4120F07F4000B58142A2EB0302FC
:102F20000FF2081CACEB504EC0F100009EF800E020
:102F30004FEA4E0E00FB0EFC38BF49004FEA2C1C36
:102F400002F5FA020CFB0EF34FEACE1E4FEA112CEB
:102F50004FEAC1210EEB635E42EB22420EFB0CFCFA
:102F60004FEA1C5300FB03114FEA112C4FEA0131C9
:102F70000EFB0CFC4FEADC4C00FB0C11C14228BFDD
:102F800009184CEB03335DF804EB10EB410143EB04
:102F9000C250B2F57C0F38BF704729D512F0F00F40
:102FA0001CBF00F1C04000F00040704700818283E8
:102FB0008485868788898B8C8D8E8F919293959648
:102FC00097999A9C9D9FA0A2A3A5A7A8AAACAEB0D2
:102FD000B2B3B5B7B9BCBEC0C2C5C7C9CCCED1D4D7
:102FE000D7D9DCDFE2E6E9ECF0F3F7FAFE00000007
:102FF0004FEA400C0CF1807CBCF17E4F28BF70473B
:10300000B0F1C04000F077B990EA010F0CEAD1139B
:1030100048BF42F48072624538BF634507D213F45B
:103020007F0F16D080EA010000F00040704710B515
:1030300000F01BF9097EFC3E00F005B880EA0100B3
:1030400000F00040704780EA010000F0004000F00E
:1030500052B912F47F0F04BF0248704780EA0100A2
:1030600000F049B90000C07FC10DD1F19E0206DB1E
:103070004FEA002343F0004323FA02F07047004276
:1030800007D54FEA4001B1F1FE4F02D24FF00000E8
:10309000704710B500F0E9F849922480002070478D
:1030A0006FEA20007047000010F0004148BF404226
:1030B000B0FA80F310FA03F2C3F19D030BD051EA8A
:1030C000C35101EB1220530638BF704700F10100D5
:1030D00008BF20F001007047B0FA80F310FA03F245
:1030E000C3F19D030AD0D90501EB1220530638BF66
:1030F000704700F1010008BF20F001007047000098
:1031000050EA010C00F113801CF5000F58BFBCF50C
:10311000000F01D48842704707D710F5000F58BF41
:1031200011F5000F15D488427047894270471CF58D
:10313000000F04D5BCF5000FF7D5814270474FF062
:10314000807C1CEB400F38BF1CEB410F01D2814249
:10315000704710B500F089F8922449004FF00050F4
:103160004FF08051FFF7B2BE4FF47F0C1CEAD01233
:103170001EBF1CEAD11392EA0C0F93EA0C0F00F069
:10318000478090EA010F48BF42F480724FF0004C34
:103190004CEA00204CEA012102EB0302A0FB0113E0
:1031A000A2F50002002918BF43F001035B0028BF0D
:1031B0004FEA330342EB22425FEA132C4CEBC2503E
:1031C0002EBFBCEB436FB2F57C0F70474FEA036C28
:1031D000BCF1004F08BF20F00100B2F57C0F38BFF2
:1031E00070470BD582F0FF0212F5803FC8BF7047D1
:1031F00000F1C040D8BF00F00040704700F5000C5F
:103200005FEA4C0C48BF7047B0F1C04000F073B8A3
:1032100090EA010F0CEAD11348BF42F48072624574
:1032200038BF634504D280EA010000F000407047D7
:1032300010B500F01AF800BF8900013E00F007B891
:1032400000F009B85FEA410C5FEA1C6C08D080EA24
:10325000010000F050B85FEA400C5FEA1C6CF6D148
:103260004FF00040A0F5800070470EF1020E2EF0E6
:10327000030E5EF8044B244204D44FEA4102B2F13B
:103280007F4F11D84FEA4003B3F17F4F0CD80ED1D6
:103290004FEAD07CB2F17F4F0CEB4C0C0CF1020CDE
:1032A00008BF4CEBD17C04E04FF0080C01E04FEA82
:1032B000D17C0CEB4C0324FA03F404F00704B4F1C2
:1032C000040C06D20EEB840CBDE810404CF0010C4F
:1032D0006047DFE80CF0070802024FF00040A0F55D
:1032E000800010BD0846420018BFD2F1807288BF2E
:1032F00000F0004010BDFF2141EAD050C0057047EA
:1033000051EA000C00F113801CF5000F58BFBCF50A
:10331000000F01D48142704707D711F5000F58BF45
:1033200010F5000F15D481427047894270471CF593
:10333000000F04D5BCF5000FF7D5884270474FF059
:10334000807C1CEB410F38BF1CEB400F01D2884240
:10335000704780EA010081EA000180EA0100FFF77E
:10336000F8BE80F0004090EA010F7FF554AD81F087
:10337000004100F008B8000090EA010F48BF81F05A
:1033800000413FF548AD421A04D882F00042A0EB5C
:10339000020011444FEAD0524FF07F4C1CEA410F1B
:1033A000A2EBD15318BF9CEA026F4AD04FF0004CF9
:1033B0004CEA00204CEA012121FA03FCB0EB0C0C92
:1033C0000FD412F0FE0F36D05FEA4C001DD500126C
:1033D00040EBC25038BF70471CF03F0F18BF70471A
:1033E0000BE0A2F101025FEA1C2040EBC25038BFA3
:1033F00070471CF07F0F18BF7047C3F1200399403E
:1034000014BF401E20F00100704780084FEA1223CD
:1034100008BF7047B0FA80FCA2EB0C02CCF1280C7C
:1034200060FA0CF093EA122F04BF00EBC250704711
:103430004FEAC3707047130A5FEADC1008BF704799
:10344000F6E79CEA026F04D010EA5C0F08BF002088
:10345000704710B5FFF709FF40DFF63E81F00040EE
:1034600070470CF00F03092B08BF082000F05980AB
:103470000A2B0BD0082B18BF704708BF1CF0400F59
:103480000AD04FF000004FF0000170471CF0400FD1
:1034900018BF4FF0004070471CF0100F08D020F00C
:1034A000704300F07F4242EAD3014FEA4370704715
:1034B00000F0604021F07F4242EA000201F07F40CC
:1034C00040EA727070474FF0FF0C4CF4E06C1CEA5D
:1034D00011531CBF9CEA030C9445C2BFDA4201EBB6
:1034E00002517047002B0DD0BCF1000F0FD0002A05
:1034F00001F00041A4BF41F0E04141F07F614FF095
:103500000000704701F000414FF00000704750EAA2
:1035100001334FF09B0C18BF4CF0806C7FF4F4A883
:1035200070471CF4801F11D01CF4E02F03D06FEA09
:10353000CC31490070474FF04050EFF3008222F049
:10354000704242EA000282F3008870474FF00000A8
:1035500070470000000000000000000000000000B4
:1035600000003F400000000000000000300040006C
:1035700030004000000009000BC03D000BC03D00C2
:10358000090018C024407FE022403180000018006C
:1035900024C01B000D803240018003801C40274066
:1035A0001C80074000401000600000000000000088
:1035B00000000000000000001F80204040200000AC
:1035C000402020401F8000000000090006001F80EE
:1035D000060009000000040004003F80040004000D
:1035E0000000001000600000000000000000040067
:1035F000040004000400040000000000004000007B
:10360000000000000000002001C00600380040005B
:1036100000001F802040204020401F80000000004C
:1036200010403FC000400000000018C02140224070
:1036300024401840000010802040244024401B807B
:10364000000002000D0011003FC0014000003C805E
:10365000244024402440238000001F802440244034
:103660003440038000003000200027C038002000D4
:1036700000001B802440244024401B8000001C00CC
:1036800022C0224022401F800000000000000840AD
:1036900000000000000000000000046000000000C6
:1036A0000000000004000A001100208040400900D2
:1036B00009000900090009000000000040402080C6
:1036C00011000A0004001800200023402400180004
:1036D00000001F802040274029401F40000000407C
:1036E00007C039000F0001C0004020403FC0244007
:1036F00024401B8000001F8020402040204030805C
:10370000000020403FC0204020401F80000020409B
:103710003FC024402E4030C0000020403FC0244025
:103720002E00300000000F00108020402240338027
:10373000020020403FC0040004003FC02040204061
:1037400020403FC02040204000000060202020207A
:103750003FC02000200020403FC024400B0030C06C
:10376000204020403FC020400040004000C03FC0FB
:103770003C0003C03C003FC0000020403FC00C4064
:1037800023003FC020001F802040204020401F8099
:10379000000020403FC024402400180000001F808B
:1037A0002140214020E01FA0000020403FC02440D5
:1037B000260019C0004018C0244024402240318017
:1037C0000000300020403FC02040300000002000BA
:1037D0003F80004000403F80200020003E0001C0AC
:1037E000070038002000380007C03C0007C0380040
:1037F0000000204039C0060039C0204000002000F1
:10380000384007C0384020000000304021C026402A
:10381000384020C00000000000007FE04020402031
:103820000000000070000C00038000400000000059
:10383000402040207FE00000000000002000400009
:103840002000000000000010001000100010001008
:103850000010000000004000000000000000000018
:1038600002800540054003C0004020003FC00440E6
:103870000440038000000000038004400440064030
:10388000000000000380044024403FC000400000CE
:1038900003800540054003400000000004401FC0B5
:1038A000244024402000000002E00550055006504E
:1038B000042020403FC00440040003C0004000003A
:1038C000044027C000400000000000100010041059
:1038D00027E00000000020403FC00140070004C076
:1038E0000440204020403FC000400040000007C08E
:1038F000040007C0040003C00000044007C00440E7
:10390000040003C000400000038004400440038022
:103910000000041007F00450044003800000000081
:1039200003800440045007F00010044007C0024028
:10393000040004000000000006400540054004C0EB
:103940000000000004001F8004400040000004004C
:1039500007800040044007C000400400070004C086
:10396000018006000400060001C0070001C0060037
:103970000000044006C0010006C00440000004101E
:10398000071004E00180060004000000044005C0A8
:103990000640044000000000000004007BE04020DE
:1039A0000000000000000000FFF000000000000028
:1039B00040207BE004000000000040008000400048
:1039C0002000200040000000000000000000000077
:1039D0000000000000000000000000001FCC000CF0
:1039E0000000000000000000080030006000080037
:1039F000300060000000022003FC1E20022003FCB7
:103A00001E200220000000000E1811043FFF108449
:103A10000C78000000000F0010840F3800C00778F9
:103A200018840078000000780F8410C411240E98C8
:103A300000E4008400080800680070000000000036
:103A400000000000000000000000000007E018185F
:103A5000200440020000000040022004181807E083
:103A60000000000000000240024001800FF00180D1
:103A70000240024000000080008000800FF80080BB
:103A80000080008000000001000D000E000000001A
:103A90000000000000000000008000800080008026
:103AA0000080008000800000000C000C000000007E
:103AB0000000000000000000000600180060018007
:103AC000060018002000000007F008081004100489
:103AD000080807F000000000080408041FFC0004A8
:103AE00000040000000000000E0C1014102410440C
:103AF00011840E0C000000000C18100411041104B5
:103B000012880C700000000000E003200424082448
:103B10001FFC0024000000001F98108411041104F1
:103B2000108810700000000007F0088811041104CC
:103B300018880070000000001C00100010FC13002A
:103B40001C001000000000000E3811441084108486
:103B500011440E38000000000700088C1044104487
:103B6000088807F00000000000000000030C030CB0
:103B7000000000000000000000000001010600003D
:103B8000000000000000000000800140022004103E
:103B90000808100400000220022002200220022057
:103BA0000220022000000000100408080410022077
:103BB00001400080000000000E001200100C106C8C
:103BC00010800F00000003E00C1813E4142417C445
:103BD000082807D000000004003C03C41C40074034
:103BE00000E4001C000410041FFC11041104110463
:103BF0000E880070000003E00C181004100410047C
:103C000010081C10000010041FFC10041004100405
:103C1000080807F0000010041FFC1104110417C469
:103C200010040818000010041FFC1104110017C034
:103C300010000800000003E00C18100410041044E9
:103C40001C780040000010041FFC108400800080DD
:103C500010841FFC10040000100410041FFC10044A
:103C600010040000000000030001100110011FFEFD
:103C700010001000000010041FFC110403801464E5
:103C8000181C1004000010041FFC100400040004A1
:103C90000004000C000010041FFC1F0000FC1F00AB
:103CA0001FFC1004000010041FFC0C04030000E0C3
:103CB00010181FFC100007F008081004100410046E
:103CC000080807F0000010041FFC1084108010800A
:103CD00010800F00000007F0081810241024101C9A
:103CE000080A07F2000010041FFC1104110011C0A3
:103CF00011300E0C000400000E1C110410841084FE
:103D000010441C3800001800100010041FFC1004A0
:103D100010001800000010001FF810040004000438
:103D200010041FF8100010001E0011E0001C0070AD
:103D300013801C0010001FC0103C00E01F0000E0BA
:103D4000103C1FC000001004180C163401C001C044
:103D50001634180C100410001C00130400FC13048B
:103D60001C00100000000804101C106410841304D0
:103D70001C04101800000000000000007FFE40023C
:103D8000400240020000000030000C000380006090
:103D9000001C0003000000004002400240027FFEC1
:103DA0000000000000000000000020004000400073
:103DB000400020000000000100010001000100019E
:103DC0000001000100010000400040002000000050
:103DD000000000000000000000980124014401449C
:103DE000014400FC000410001FFC008801040104D1
:103DF00000880070000000000070008801040104C9
:103E00000104008800000000007000880104010423
:103E100011081FFC0004000000F8014401440144A3
:103E2000014400C800000000010401040FFC11045B
:103E3000110411001800000000D6012901290129F0
:103E400001C90106000010041FFC008401000100EC
:103E5000010400FC000400000104190419FC000422
:103E6000000400000000000000030001010119012E
:103E700019FE0000000010041FFC0024004001B4E3
:103E8000010C010400000000100410041FFC0004D9
:103E9000000400000000010401FC0104010001FC19
:103EA0000104010000FC010401FC00840100010088
:103EB000010400FC0004000000F8010401040104F6
:103EC000010400F80000010101FF00850104010464
:103ED00000880070000000000070008801040104E8
:103EE000010501FF00010104010401FC008401043B
:103EF000010001800000000000CC01240124012405
:103F000001240198000000000100010007F80104ED
:103F1000010400000000010001F800040004000496
:103F2000010801FC0004010001800170000C001078
:103F300001600180010001F0010C003001C000307F
:103F4000010C01F0010000000104018C00740170FB
:103F5000018C01040000010101810171000E0018B3
:103F600001600180010000000184010C0134014462
:103F70000184010C000000000000000000000100AE
:103F80003EFC400240020000000000000000FFFF75
:103F90000000000000000000400240023EFC010062
:103FA0000000000000000000600080008000400071
:103FB0004000200020000000344310100134431062
:103FC00010010000424242424FBB610567ACDD3F39
:103FD000182D4454FB21E93F9BF681D20B73EF3F30
:103FE000182D4454FB21F93FE2652F227F2B7A3CA8
:103FF000075C143326A6813CBDCBF07A8807703C61
:10400000075C143326A6913CC4EB98999999C9BFD3
:10401000711623FEC671BCBF6D9A74AFF2B0B3BF08
:104020009AFDDE522DDEADBF2F6C6A2C44B4A2BFC8
:104030000D5555555555D53FFF8300922449C23F34
:104040006E204CC5CD45B73F513DD0A0660DB13F68
:10405000EB0D76244B7BA93F11DA22E33AAD903F7A
:104060000000000000000000884000080000002060
:104070009C00000028010008244100089C0000204A
:10408000740A000044010008010000000000000064
:104090000000000000000000000000000000000020
:1040A0000000000000000000000000000000000010
:1040B00000000000000001000000000000000000FF
:1040C00000000000000000000000000000000000F0
:1040D0000AD7A33C00000000000000006F12833AE2
:1040E000A69B443B0000003F0AD7A33B0100000011
:1040F00000000000000000000000000000000000C0
:1041000000000000000000000000000000000000AF
:10411000000000000000803F0000000000000000E0
:044120000000803FDC
:04000005080000ED02
:00000001FF
